{
  "abi": [
    {
      "inputs": [
        {
          "internalType": "uint256",
          "name": "length",
          "type": "uint256"
        }
      ],
      "name": "PackedCounter_InvalidLength",
      "type": "error"
    },
    {
      "inputs": [
        {
          "internalType": "uint256",
          "name": "length",
          "type": "uint256"
        }
      ],
      "name": "SchemaLib_InvalidLength",
      "type": "error"
    },
    {
      "inputs": [],
      "name": "SchemaLib_StaticTypeAfterDynamicType",
      "type": "error"
    },
    {
      "inputs": [
        {
          "internalType": "bytes",
          "name": "data",
          "type": "bytes"
        },
        {
          "internalType": "uint256",
          "name": "start",
          "type": "uint256"
        },
        {
          "internalType": "uint256",
          "name": "end",
          "type": "uint256"
        }
      ],
      "name": "Slice_OutOfBounds",
      "type": "error"
    },
    {
      "inputs": [
        {
          "internalType": "uint256",
          "name": "expected",
          "type": "uint256"
        },
        {
          "internalType": "uint256",
          "name": "received",
          "type": "uint256"
        }
      ],
      "name": "StoreCore_InvalidDataLength",
      "type": "error"
    },
    {
      "anonymous": false,
      "inputs": [
        {
          "indexed": true,
          "internalType": "address",
          "name": "player",
          "type": "address"
        },
        {
          "indexed": false,
          "internalType": "uint16",
          "name": "x",
          "type": "uint16"
        },
        {
          "indexed": false,
          "internalType": "uint16",
          "name": "y",
          "type": "uint16"
        }
      ],
      "name": "MoveEvent",
      "type": "event"
    },
    {
      "inputs": [
        {
          "components": [
            {
              "internalType": "uint16",
              "name": "x",
              "type": "uint16"
            },
            {
              "internalType": "uint16",
              "name": "y",
              "type": "uint16"
            },
            {
              "internalType": "bytes32[]",
              "name": "proof",
              "type": "bytes32[]"
            }
          ],
          "internalType": "struct Position[]",
          "name": "moveList",
          "type": "tuple[]"
        }
      ],
      "name": "move",
      "outputs": [],
      "stateMutability": "nonpayable",
      "type": "function"
    },
    {
      "inputs": [],
      "name": "unlockUserLocation",
      "outputs": [],
      "stateMutability": "nonpayable",
      "type": "function"
    }
  ],
  "bytecode": {
    "object": "0x608060405234801561001057600080fd5b50612c9c806100206000396000f3fe608060405234801561001057600080fd5b50600436106100365760003560e01c80636f3302721461003b5780637ad5cf1414610050575b600080fd5b61004e6100493660046126ee565b610058565b005b61004e610278565b60008151118015610092575061008d7fd1339036fc56bed2f5d5cf59ecb6aa2cb46611189a4a1a96a51eec50fc76ee24610372565b815111155b6100e35760405162461bcd60e51b815260206004820152601560248201527f696e76616c6964206d6f76652064697374616e6365000000000000000000000060448201526064015b60405180910390fd5b6100f36100ee61042e565b610460565b156101405760405162461bcd60e51b815260206004820152600e60248201527f596f7520617265206c6f636b656400000000000000000000000000000000000060448201526064016100da565b61015161014b61042e565b8261050e565b61018c61015c61042e565b826001845161016b919061286f565b8151811061017b5761017b612886565b602002602001015160000151610893565b6101c761019761042e565b82600184516101a6919061286f565b815181106101b6576101b6612886565b602002602001015160200151610971565b6101cf61042e565b6001600160a01b03167f2be02641817453c7384e859bdd49339115c3e9b74eeb030f19038630185736808260018451610208919061286f565b8151811061021857610218612886565b6020026020010151600001518360018551610233919061286f565b8151811061024357610243612886565b60200260200101516020015160405161026d92919061ffff92831681529116602082015260400190565b60405180910390a250565b6102836100ee61042e565b6000036102d25760405162461bcd60e51b815260206004820152601260248201527f596f7520617265206e6f74206c6f636b6564000000000000000000000000000060448201526064016100da565b426102fc7fd1339036fc56bed2f5d5cf59ecb6aa2cb46611189a4a1a96a51eec50fc76ee24610a32565b6103076100ee61042e565b610311919061289c565b1061035e5760405162461bcd60e51b815260206004820152601260248201527f596f7520617265206e6f74206c6f636b6564000000000000000000000000000060448201526064016100da565b61037061036961042e565b6000610ad4565b565b6040805160018082528183019092526000918291906020808301908036833701905050905082816000815181106103ab576103ab612886565b6020908102919091018101919091526040805160009281018390527f426174746c65436f6e666967000000000000000000000000000000000000000060308201526104199101604051602081830303815290604052610409906128b4565b836001610414610b9d565b610d6f565b9050610426816000610e31565b949350505050565b7fffffffffffffffffffffffffffffffffffffffffffffffffffffffffffffffec36013560601c8061045d5750335b90565b60408051600180825281830190925260009182919060208083019080368337019050509050826001600160a01b031660001b816000815181106104a5576104a5612886565b6020908102919091018101919091526040805160009281018390527f506c617965724c6f636174696f6e4c6f0000000000000000000000000000000060308201526104199101604051602081830303815290604052610503906128b4565b836000610414610e3f565b600160005b825181101561088d5760008082116105335761052e85610e79565b61055c565b8361053f60018461286f565b8151811061054f5761054f612886565b6020026020010151600001515b905060008083116105755761057086610f28565b61059e565b8461058160018561286f565b8151811061059157610591612886565b6020026020010151602001515b90506105e96040518060400160405280600881526020017f2073746570203a20000000000000000000000000000000000000000000000000815250848461ffff168461ffff16610fbf565b6001831115610674576106746040518060400160405280600881526020017f206d6f7665203a2000000000000000000000000000000000000000000000000081525086858151811061063d5761063d612886565b60200260200101516000015161ffff1687868151811061065f5761065f612886565b60200260200101516020015161ffff16611036565b6106ba85848151811061068957610689612886565b602002602001015160000151838786815181106106a8576106a8612886565b602002602001015160200151846110ab565b6107065760405162461bcd60e51b815260206004820152600d60248201527f696e76616c696564206d6f76650000000000000000000000000000000000000060448201526064016100da565b600085848151811061071a5761071a612886565b60200260200101519050600081600001518260200151876040516020016107d59392919060f093841b7fffff00000000000000000000000000000000000000000000000000000000000090811682527f2c00000000000000000000000000000000000000000000000000000000000000600283018190529390941b9093166003840152600583019190915260f81b7fff0000000000000000000000000000000000000000000000000000000000000016600682015260070190565b604051602081830303815290604052805190602001209050600061082683604001516108207f155015ae9c496f0f6fd931019b5913c67e630cdcf50b1101aeda4bb69f21060e611101565b846111a3565b9050806108755760405162461bcd60e51b815260206004820152600c60248201527f62616420706f736974696f6e000000000000000000000000000000000000000060448201526064016100da565b50505050508080610885906128d8565b915050610513565b50505050565b60408051600180825281830190925260009160208083019080368337019050509050826001600160a01b031660001b816000815181106108d5576108d5612886565b6020908102919091018101919091526040805160008184015265283630bcb2b960d11b6030820152815180820390930183528101905261096c90610918906128b4565b6040517fffff00000000000000000000000000000000000000000000000000000000000060f086901b16602082015283906002906022015b6040516020818303038152906040526109676111b9565b611646565b505050565b60408051600180825281830190925260009160208083019080368337019050509050826001600160a01b031660001b816000815181106109b3576109b3612886565b6020908102919091018101919091526040805160008184015265283630bcb2b960d11b6030820152815180820390930183528101905261096c906109f6906128b4565b6040517fffff00000000000000000000000000000000000000000000000000000000000060f086901b1660208201528390600390602201610950565b604080516001808252818301909252600091829190602080830190803683370190505090508281600081518110610a6b57610a6b612886565b6020908102919091018101919091526040805160009281018390527f426174746c65436f6e666967000000000000000000000000000000000000000060308201526104199101604051602081830303815290604052610ac9906128b4565b836003610414610b9d565b60408051600180825281830190925260009160208083019080368337019050509050826001600160a01b031660001b81600081518110610b1657610b16612886565b602090810291909101810191909152604080516000818401527f506c617965724c6f636174696f6e4c6f000000000000000000000000000000006030820152815180820390930183528101905261096c90610b70906128b4565b82600085604051602001610b8691815260200190565b604051602081830303815290604052610967610e3f565b60408051600680825260e082019092526000918291906020820160c080368337019050509050601f81600081518110610bd857610bd8612886565b602002602001019060c5811115610bf157610bf16128f2565b908160c5811115610c0457610c046128f2565b81525050601f81600181518110610c1d57610c1d612886565b602002602001019060c5811115610c3657610c366128f2565b908160c5811115610c4957610c496128f2565b81525050601f81600281518110610c6257610c62612886565b602002602001019060c5811115610c7b57610c7b6128f2565b908160c5811115610c8e57610c8e6128f2565b81525050601f81600381518110610ca757610ca7612886565b602002602001019060c5811115610cc057610cc06128f2565b908160c5811115610cd357610cd36128f2565b81525050601f81600481518110610cec57610cec612886565b602002602001019060c5811115610d0557610d056128f2565b908160c5811115610d1857610d186128f2565b8152505060c381600581518110610d3157610d31612886565b602002602001019060c5811115610d4a57610d4a6128f2565b908160c5811115610d5d57610d5d6128f2565b905250610d69816116fc565b91505090565b60606000610d7b611877565b9050306001600160a01b03821603610da157610d99868686866118b6565b915050610426565b6040517f05242d2f0000000000000000000000000000000000000000000000000000000081526001600160a01b038216906305242d2f90610dec908990899089908990600401612943565b600060405180830381865afa158015610e09573d6000803e3d6000fd5b505050506040513d6000823e601f3d908101601f19168201604052610d99919081019061299e565b818101602001515b92915050565b60408051600180825281830190925260009182919060208083019080368337019050509050601f81600081518110610d3157610d31612886565b60408051600180825281830190925260009182919060208083019080368337019050509050826001600160a01b031660001b81600081518110610ebe57610ebe612886565b60209081029190910181019190915260408051600092810183905265283630bcb2b960d11b6030820152610f109101604051602081830303815290604052610f05906128b4565b8360026104146111b9565b9050610f1d816000610e31565b60f01c949350505050565b60408051600180825281830190925260009182919060208083019080368337019050509050826001600160a01b031660001b81600081518110610f6d57610f6d612886565b60209081029190910181019190915260408051600092810183905265283630bcb2b960d11b6030820152610f109101604051602081830303815290604052610fb4906128b4565b8360036104146111b9565b61088d84848484604051602401610fd99493929190612a5e565b60408051601f198184030181529190526020810180517bffffffffffffffffffffffffffffffffffffffffffffffffffffffff167f08ee5666000000000000000000000000000000000000000000000000000000001790526118ee565b61096c83838360405160240161104e93929190612a8d565b60408051601f198184030181529190526020810180517bffffffffffffffffffffffffffffffffffffffffffffffffffffffff167f969cdd03000000000000000000000000000000000000000000000000000000001790526118ee565b6000806110b8868661190f565b905060006110c6858561190f565b905060018261ffff16111580156110e2575060018161ffff1611155b80156110f657508061ffff168261ffff1614155b979650505050505050565b60408051600180825281830190925260009182919060208083019080368337019050509050828160008151811061113a5761113a612886565b6020908102919091018101919091526040805160009281018390527f47616d65436f6e6669670000000000000000000000000000000000000000000060308201526104199101604051602081830303815290604052611198906128b4565b83600061041461193c565b6000826111b08584611b16565b14949350505050565b60408051601180825261024082019092526000918291906020820161022080368337019050509050601f816000815181106111f6576111f6612886565b602002602001019060c581111561120f5761120f6128f2565b908160c5811115611222576112226128f2565b81525050601f8160018151811061123b5761123b612886565b602002602001019060c5811115611254576112546128f2565b908160c5811115611267576112676128f2565b8152505060018160028151811061128057611280612886565b602002602001019060c5811115611299576112996128f2565b908160c58111156112ac576112ac6128f2565b815250506001816003815181106112c5576112c5612886565b602002602001019060c58111156112de576112de6128f2565b908160c58111156112f1576112f16128f2565b81525050601f8160048151811061130a5761130a612886565b602002602001019060c5811115611323576113236128f2565b908160c5811115611336576113366128f2565b81525050601f8160058151811061134f5761134f612886565b602002602001019060c5811115611368576113686128f2565b908160c581111561137b5761137b6128f2565b81525050601f8160068151811061139457611394612886565b602002602001019060c58111156113ad576113ad6128f2565b908160c58111156113c0576113c06128f2565b81525050601f816007815181106113d9576113d9612886565b602002602001019060c58111156113f2576113f26128f2565b908160c5811115611405576114056128f2565b81525050601f8160088151811061141e5761141e612886565b602002602001019060c5811115611437576114376128f2565b908160c581111561144a5761144a6128f2565b81525050601f8160098151811061146357611463612886565b602002602001019060c581111561147c5761147c6128f2565b908160c581111561148f5761148f6128f2565b81525050600181600a815181106114a8576114a8612886565b602002602001019060c58111156114c1576114c16128f2565b908160c58111156114d4576114d46128f2565b81525050600181600b815181106114ed576114ed612886565b602002602001019060c5811115611506576115066128f2565b908160c5811115611519576115196128f2565b81525050600081600c8151811061153257611532612886565b602002602001019060c581111561154b5761154b6128f2565b908160c581111561155e5761155e6128f2565b81525050601f81600d8151811061157757611577612886565b602002602001019060c5811115611590576115906128f2565b908160c58111156115a3576115a36128f2565b81525050601f81600e815181106115bc576115bc612886565b602002602001019060c58111156115d5576115d56128f2565b908160c58111156115e8576115e86128f2565b8152505060c581600f8151811061160157611601612886565b602002602001019060c581111561161a5761161a6128f2565b908160c581111561162d5761162d6128f2565b8152505060c581601081518110610d3157610d31612886565b6000611650611877565b9050306001600160a01b038216036116745761166f8686868686611b63565b6116f4565b6040517f3708196e0000000000000000000000000000000000000000000000000000000081526001600160a01b03821690633708196e906116c19089908990899089908990600401612ab2565b600060405180830381600087803b1580156116db57600080fd5b505af11580156116ef573d6000803e3d6000fd5b505050505b505050505050565b6000601c8251111561173f5781516040517f5318beb90000000000000000000000000000000000000000000000000000000081526004016100da91815260200190565b60008080805b855181101561181757600061178387838151811061176557611765612886565b602002602001015160c581111561177e5761177e6128f2565b611d35565b905080600003611798576001909201916117d0565b82156117d0576040517ff1e56be400000000000000000000000000000000000000000000000000000000815260040160405180910390fd5b808401935081601b036008028783815181106117ee576117ee612886565b602002602001015160c5811115611807576118076128f2565b901b949094179350600101611745565b506005811115611856576040517f5318beb9000000000000000000000000000000000000000000000000000000008152600481018290526024016100da565b935160e085901b94900360e81b60f09190911b919091171791909117919050565b7f629a4c26e296b22a8e0856e9f6ecb2d1008d7e00081111962cd175fa7488e175546000906001600160a01b0316806118b1573391505090565b919050565b60606118c58260e81c60ff1690565b8360ff1610156118e2576118db85858585611d95565b9050610426565b6118db85858585611df5565b80516a636f6e736f6c652e6c6f67602083016000808483855afa5050505050565b60008161ffff168361ffff1611156119325761192b8284612af9565b9050610e39565b61192b8383612af9565b60408051600780825261010082019092526000918291906020820160e080368337019050509050605f8160008151811061197857611978612886565b602002602001019060c5811115611991576119916128f2565b908160c58111156119a4576119a46128f2565b81525050601f816001815181106119bd576119bd612886565b602002602001019060c58111156119d6576119d66128f2565b908160c58111156119e9576119e96128f2565b81525050601f81600281518110611a0257611a02612886565b602002602001019060c5811115611a1b57611a1b6128f2565b908160c5811115611a2e57611a2e6128f2565b81525050600181600381518110611a4757611a47612886565b602002602001019060c5811115611a6057611a606128f2565b908160c5811115611a7357611a736128f2565b81525050600181600481518110611a8c57611a8c612886565b602002602001019060c5811115611aa557611aa56128f2565b908160c5811115611ab857611ab86128f2565b81525050601f81600581518110611ad157611ad1612886565b602002602001019060c5811115611aea57611aea6128f2565b908160c5811115611afd57611afd6128f2565b81525050601f81600681518110610d3157610d31612886565b600081815b8451811015611b5b57611b4782868381518110611b3a57611b3a612886565b6020026020010151611e60565b915080611b53816128d8565b915050611b1b565b509392505050565b7fd01f9f1368f831528fc9fe6442366b2b7d957fbfff3bcf7c24d9ab5fe51f8c4685858585604051611b989493929190612b1c565b60405180910390a16000611bab86611e92565b905060005b8151811015611c51576000828281518110611bcd57611bcd612886565b60200260200101519050806001600160a01b031663bf11b74e89898989896040518663ffffffff1660e01b8152600401611c0b959493929190612ab2565b600060405180830381600087803b158015611c2557600080fd5b505af1158015611c39573d6000803e3d6000fd5b50505050508080611c49906128d8565b915050611bb0565b50611c5f8260e81c60ff1690565b8460ff161015611c7b57611c768686848787611f6a565b611c88565b611c88868684878761201a565b60005b8151811015611d2c576000828281518110611ca857611ca8612886565b60200260200101519050806001600160a01b0316637da508a289898989896040518663ffffffff1660e01b8152600401611ce6959493929190612ab2565b600060405180830381600087803b158015611d0057600080fd5b505af1158015611d14573d6000803e3d6000fd5b50505050508080611d24906128d8565b915050611c8b565b50505050505050565b6000808260c5811115611d4a57611d4a6128f2565b60ff1690506061811015611d6457601f1660010192915050565b60618360c5811115611d7857611d786128f2565b03611d865750601492915050565b50600092915050565b50919050565b60606000611da68360ff861661205d565b90506000611dbf8260c581111561177e5761177e6128f2565b90506000611dcd8888612083565b90506000611ddb86886120d9565b9050611de8828483612125565b9998505050505050505050565b60606000611e068360e81c60ff1690565b611e109085612b50565b90506000611e1f878784612148565b90506000611e4683611e318a8a6121a1565b9060ff166028026038011c64ffffffffff1690565b9050611e5482826000612125565b98975050505050505050565b6000818310611e7c576000828152602084905260409020611e8b565b60008381526020839052604090205b9392505050565b60408051600180825281830190925260609160009190602080830190803683370190505090508281600081518110611ecc57611ecc612886565b602090810291909101810191909152604080517f6d756473746f7265000000000000000000000000000000000000000000000000818401527f486f6f6b7300000000000000000000000000000000000000000000000000000060308201528151808203909301835281019052600090611f5390611f48906128b4565b8360006104146121b8565b9050610426611f6582600084516121f2565b612282565b6000611f798460ff851661205d565b90508151611f928260c581111561177e5761177e6128f2565b14611fe957611fac8160c581111561177e5761177e6128f2565b82516040517f521b3d33000000000000000000000000000000000000000000000000000000008152600481019290925260248201526044016100da565b6000611ff58787612083565b9050600061200386866120d9565b9050612010828286612293565b5050505050505050565b60006120298460e81c60ff1690565b6120339084612b50565b905061204286868385516122a3565b600061204f878784612148565b9050611d2c81600085612293565b600081601b0360080261206d8490565b60ff911c1660c5811115611e8b57611e8b6128f2565b60007f86425bff6b57326c7859e89024fe4f238ca327a1ae4a230180dd2f0e88aaa7d983836040516020016120ba93929190612b73565b60408051601f1981840301815291905280516020909101209392505050565b600080805b8360ff16811015611b5b576121076120f6868361205d565b60c581111561177e5761177e6128f2565b612111908361289c565b91508061211d816128d8565b9150506120de565b60405160208101601f19603f8584010116604052838252611b5b858585846122d2565b60007f86425bff6b57326c7859e89024fe4f238ca327a1ae4a230180dd2f0e88aaa7d98484846040516020016121819493929190612b9b565b60408051601f198184030181529190528051602090910120949350505050565b6000806121ae848461238a565b9050610426815490565b6040805160018082528183019092526000918291906020808301908036833701905050905060c381600081518110610d3157610d31612886565b6000818311158015612205575083518211155b612241578383836040517f23230fa30000000000000000000000000000000000000000000000000000000081526004016100da93929190612a8d565b6020840161224f848261289c565b9050600061225d858561286f565b6fffffffffffffffffffffffffffffffff1660809290921b9190911795945050505050565b60606000611e8b83601460606123c1565b61096c83836020840184516124b9565b60006122af858561238a565b905060006122bb825490565b90506122c8818585612579565b80835590506116f4565b811561234457602082106122fc576020820484019350602082816122f8576122f8612bce565b0691505b81156123445760208290036000600019600883021c1990508554600885021b81198451168282161784525081851161233557505061088d565b50600194909401939283900392015b5b602083106123665783548152600190930192601f1990920191602001612345565b821561088d576000600019600885021c198251865482169119161782525050505050565b60007f86425bff6b57326c7859e89024fe4f238ca327a1ae4a230180dd2f0e88aaa7d983836040516020016120ba93929190612be4565b606060006123cf8560801c90565b90506fffffffffffffffffffffffffffffffff851660008582816123f5576123f5612bce565b0490506124028683612c44565b156124755760405162461bcd60e51b815260206004820152603d60248201527f756e7061636b546f41727261793a207061636b65644c656e677468206d75737460448201527f2062652061206d756c7469706c65206f6620656c656d656e7453697a6500000060648201526084016100da565b60405193506020840160208202810160405281855260005b828110156124ad578451871c82529387019360209091019060010161248d565b50505050509392505050565b821561253357602083106124e3576020830484019350602083816124df576124df612bce565b0692505b82156125335760208390036000600019600884021c1990506008850281811c91508451811c905081198754168282161787555081831161252457505061088d565b50600194909401939182019190035b5b602081106125555781518455600190930192602090910190601f1901612534565b801561088d576000600019600883021c198554845182169119161785555050505050565b600064ffffffffff8211156125bd576040517f47670588000000000000000000000000000000000000000000000000000000008152600481018390526024016100da565b8366ffffffffffffff811660ff851660280260380182901c64ffffffffff168085106125ef57808503820191506125f7565b848103820391505b5064ffffffffff6038602860ff8816020190811b80197fffffffffffffffffffffffffffffffffffffffffffffffffff0000000000000094909416909217929092169184901b161790509392505050565b634e487b7160e01b600052604160045260246000fd5b6040516060810167ffffffffffffffff8111828210171561268157612681612648565b60405290565b604051601f8201601f1916810167ffffffffffffffff811182821017156126b0576126b0612648565b604052919050565b600067ffffffffffffffff8211156126d2576126d2612648565b5060051b60200190565b803561ffff811681146118b157600080fd5b6000602080838503121561270157600080fd5b823567ffffffffffffffff8082111561271957600080fd5b818501915085601f83011261272d57600080fd5b813561274061273b826126b8565b612687565b81815260059190911b8301840190848101908883111561275f57600080fd5b8585015b8381101561284c5780358581111561277b5760008081fd5b86016060818c03601f19018113156127935760008081fd5b61279b61265e565b6127a68a84016126dc565b815260406127b58185016126dc565b828c01529183013591888311156127cc5760008081fd5b82840193508d603f8501126127e357600092508283fd5b8a84013592506127f561273b846126b8565b83815260059390931b84018b018b01928b8101908f8511156128175760008081fd5b948201945b848610156128355785358252948c0194908c019061281c565b918301919091525085525050918601918601612763565b5098975050505050505050565b634e487b7160e01b600052601160045260246000fd5b60008282101561288157612881612859565b500390565b634e487b7160e01b600052603260045260246000fd5b600082198211156128af576128af612859565b500190565b80516020808301519190811015611d8f5760001960209190910360031b1b16919050565b600060001982036128eb576128eb612859565b5060010190565b634e487b7160e01b600052602160045260246000fd5b600081518084526020808501945080840160005b838110156129385781518752958201959082019060010161291c565b509495945050505050565b84815260806020820152600061295c6080830186612908565b60ff949094166040830152506060015292915050565b60005b8381101561298d578181015183820152602001612975565b8381111561088d5750506000910152565b6000602082840312156129b057600080fd5b815167ffffffffffffffff808211156129c857600080fd5b818401915084601f8301126129dc57600080fd5b8151818111156129ee576129ee612648565b612a016020601f19601f84011601612687565b9150808252856020828501011115612a1857600080fd5b612a29816020840160208601612972565b50949350505050565b60008151808452612a4a816020860160208601612972565b601f01601f19169290920160200192915050565b608081526000612a716080830187612a32565b6020830195909552506040810192909252606090910152919050565b606081526000612aa06060830186612a32565b60208301949094525060400152919050565b85815260a060208201526000612acb60a0830187612908565b60ff861660408401528281036060840152612ae68186612a32565b9150508260808301529695505050505050565b600061ffff83811690831681811015612b1457612b14612859565b039392505050565b848152608060208201526000612b356080830186612908565b60ff8516604084015282810360608401526110f68185612a32565b600060ff821660ff841680821015612b6a57612b6a612859565b90039392505050565b838152826020820152606060408201526000612b926060830184612908565b95945050505050565b848152836020820152608060408201526000612bba6080830185612908565b905060ff8316606083015295945050505050565b634e487b7160e01b600052601260045260246000fd5b838152826020820152608060408201526000612c036080830184612908565b8281036060840152600681527f6c656e6774680000000000000000000000000000000000000000000000000000602082015260408101915050949350505050565b600082612c6157634e487b7160e01b600052601260045260246000fd5b50069056fea264697066735822122048a29e70922718c52edae75b9897671f6be3cd52d99c27f403c79b189ed47d8964736f6c634300080d0033",
    "linkReferences": {}
  },
  "methodIdentifiers": {
    "move((uint16,uint16,bytes32[])[])": "6f330272",
    "unlockUserLocation()": "7ad5cf14"
  },
  "id": 148
}