{
  "abi": [
    {
      "anonymous": false,
      "inputs": [
        {
          "indexed": true,
          "internalType": "address",
          "name": "player",
          "type": "address"
        },
        {
          "indexed": false,
          "internalType": "uint16",
          "name": "x",
          "type": "uint16"
        },
        {
          "indexed": false,
          "internalType": "uint16",
          "name": "y",
          "type": "uint16"
        }
      ],
      "name": "MoveEvent",
      "type": "event"
    },
    {
      "anonymous": false,
      "inputs": [
        {
          "indexed": false,
          "internalType": "uint256",
          "name": "randomId",
          "type": "uint256"
        },
        {
          "indexed": false,
          "internalType": "address",
          "name": "author",
          "type": "address"
        }
      ],
      "name": "NewRandom",
      "type": "event"
    },
    {
      "inputs": [],
      "name": "createLootBox",
      "outputs": [],
      "stateMutability": "nonpayable",
      "type": "function"
    },
    {
      "inputs": [],
      "name": "dropLoot",
      "outputs": [],
      "stateMutability": "nonpayable",
      "type": "function"
    },
    {
      "inputs": [],
      "name": "settleBattle",
      "outputs": [],
      "stateMutability": "nonpayable",
      "type": "function"
    },
    {
      "inputs": [],
      "name": "takeLoot",
      "outputs": [],
      "stateMutability": "nonpayable",
      "type": "function"
    }
  ],
  "bytecode": {
    "object": "0x6080604052348015600f57600080fd5b5060838061001e6000396000f3fe6080604052348015600f57600080fd5b506004361060465760003560e01c80634ab35f5514604b57806362b0464f14604b578063751b32e814604b5780638b930f2014604b575b600080fd5b00fea264697066735822122034612dd6f09894a4a8e0baa93e384c2631313c7599bd82238dac9448ba4e466464736f6c634300080d0033",
    "linkReferences": {}
  },
  "methodIdentifiers": {
    "createLootBox()": "62b0464f",
    "dropLoot()": "751b32e8",
    "settleBattle()": "8b930f20",
    "takeLoot()": "4ab35f55"
  },
  "id": 147
}