{
  "abi": [
    {
      "inputs": [
        {
          "internalType": "uint256",
          "name": "length",
          "type": "uint256"
        }
      ],
      "name": "PackedCounter_InvalidLength",
      "type": "error"
    },
    {
      "inputs": [
        {
          "internalType": "uint256",
          "name": "length",
          "type": "uint256"
        }
      ],
      "name": "SchemaLib_InvalidLength",
      "type": "error"
    },
    {
      "inputs": [],
      "name": "SchemaLib_StaticTypeAfterDynamicType",
      "type": "error"
    },
    {
      "inputs": [
        {
          "internalType": "bytes",
          "name": "data",
          "type": "bytes"
        },
        {
          "internalType": "uint256",
          "name": "start",
          "type": "uint256"
        },
        {
          "internalType": "uint256",
          "name": "end",
          "type": "uint256"
        }
      ],
      "name": "Slice_OutOfBounds",
      "type": "error"
    },
    {
      "inputs": [
        {
          "internalType": "uint256",
          "name": "expected",
          "type": "uint256"
        },
        {
          "internalType": "uint256",
          "name": "received",
          "type": "uint256"
        }
      ],
      "name": "StoreCore_InvalidDataLength",
      "type": "error"
    },
    {
      "inputs": [
        {
          "internalType": "address",
          "name": "addr",
          "type": "address"
        }
      ],
      "name": "getInfo",
      "outputs": [
        {
          "internalType": "string",
          "name": "",
          "type": "string"
        },
        {
          "internalType": "string",
          "name": "",
          "type": "string"
        }
      ],
      "stateMutability": "view",
      "type": "function"
    },
    {
      "inputs": [
        {
          "internalType": "address",
          "name": "addr",
          "type": "address"
        }
      ],
      "name": "getPosition",
      "outputs": [
        {
          "internalType": "uint16",
          "name": "",
          "type": "uint16"
        },
        {
          "internalType": "uint16",
          "name": "",
          "type": "uint16"
        }
      ],
      "stateMutability": "view",
      "type": "function"
    },
    {
      "inputs": [],
      "name": "getSenderPosition",
      "outputs": [
        {
          "internalType": "uint16",
          "name": "",
          "type": "uint16"
        },
        {
          "internalType": "uint16",
          "name": "",
          "type": "uint16"
        }
      ],
      "stateMutability": "view",
      "type": "function"
    },
    {
      "inputs": [
        {
          "internalType": "uint256",
          "name": "tokenId",
          "type": "uint256"
        }
      ],
      "name": "getUserInfo",
      "outputs": [
        {
          "internalType": "uint256",
          "name": "",
          "type": "uint256"
        },
        {
          "internalType": "uint256",
          "name": "",
          "type": "uint256"
        },
        {
          "internalType": "uint256",
          "name": "",
          "type": "uint256"
        },
        {
          "internalType": "uint256",
          "name": "",
          "type": "uint256"
        },
        {
          "internalType": "uint256",
          "name": "",
          "type": "uint256"
        },
        {
          "internalType": "uint256",
          "name": "",
          "type": "uint256"
        }
      ],
      "stateMutability": "view",
      "type": "function"
    },
    {
      "inputs": [],
      "name": "initUserInfo",
      "outputs": [],
      "stateMutability": "nonpayable",
      "type": "function"
    },
    {
      "inputs": [
        {
          "internalType": "uint256",
          "name": "tokenId",
          "type": "uint256"
        }
      ],
      "name": "selectUserNft",
      "outputs": [],
      "stateMutability": "nonpayable",
      "type": "function"
    },
    {
      "inputs": [
        {
          "internalType": "string",
          "name": "name",
          "type": "string"
        },
        {
          "internalType": "string",
          "name": "url",
          "type": "string"
        }
      ],
      "name": "setInfo",
      "outputs": [],
      "stateMutability": "nonpayable",
      "type": "function"
    },
    {
      "inputs": [
        {
          "internalType": "address",
          "name": "addr",
          "type": "address"
        },
        {
          "internalType": "uint16",
          "name": "x",
          "type": "uint16"
        },
        {
          "internalType": "uint16",
          "name": "y",
          "type": "uint16"
        }
      ],
      "name": "transfer",
      "outputs": [],
      "stateMutability": "nonpayable",
      "type": "function"
    }
  ],
  "bytecode": {
    "object": "0x608060405234801561001057600080fd5b50612a30806100206000396000f3fe608060405234801561001057600080fd5b50600436106100885760003560e01c8063672296dc1161005b578063672296dc146100e5578063a923fc40146100f8578063d379dadf1461010b578063ffdd5cf11461014b57600080fd5b806316c197391461008d578063342516a7146100c05780633ee77c01146100ca5780635af5cf8d146100dd575b600080fd5b6100a061009b366004612418565b61016c565b6040805161ffff9384168152929091166020830152015b60405180910390f35b6100c8610193565b005b6100c86100d8366004612435565b6101c3565b6100a06103f7565b6100c86100f3366004612460565b61042b565b6100c861010636600461256a565b610444565b61011e610119366004612435565b610464565b604080519687526020870195909552938501929092526060840152608083015260a082015260c0016100b7565b61015e610159366004612418565b610535565b6040516100b7929190612626565b600080600061017a84610553565b90506000610187856105fe565b91959194509092505050565b3361019f816000610695565b6101aa81600061076e565b6101b581600061082f565b6101c0816000610904565b50565b60006101cd61099f565b905060006101fa7f822086c599a5bfa62207b887712fdf03aec5fc7466738d92b8b70ebca88bcbd26109d1565b6040517f6352211e0000000000000000000000000000000000000000000000000000000081526004810185905290915081906001600160a01b038481169190831690636352211e90602401602060405180830381865afa158015610262573d6000803e3d6000fd5b505050506040513d601f19601f820116820180604052508101906102869190612654565b6001600160a01b031614610321576040517f08c379a000000000000000000000000000000000000000000000000000000000815260206004820152602160248201527f596f7520617265206e6f7420746865206f776e6572206f662074686973204e4660448201527f540000000000000000000000000000000000000000000000000000000000000060648201526084015b60405180910390fd5b600080600080600080866001600160a01b03166353bbd6a78b6040518263ffffffff1660e01b815260040161035891815260200190565b60c060405180830381865afa158015610375573d6000803e3d6000fd5b505050506040513d601f19601f820116820180604052508101906103999190612671565b9550955095509550955095506103af8987610a82565b6103b98987610904565b6103c38986610b1d565b6103cd8985610bb8565b6103d78984610c53565b6103e18983610cee565b6103eb8982610d89565b50505050505050505050565b600080600061040c61040761099f565b610553565b9050600061042061041b61099f565b6105fe565b919491935090915050565b6104358383610695565b61043f838261076e565b505050565b600061044e61099f565b905061045a8184610e24565b61043f8183610eb5565b60008060008060008060006104987f822086c599a5bfa62207b887712fdf03aec5fc7466738d92b8b70ebca88bcbd26109d1565b6040517f53bbd6a7000000000000000000000000000000000000000000000000000000008152600481018a905290915081906001600160a01b038216906353bbd6a79060240160c060405180830381865afa1580156104fb573d6000803e3d6000fd5b505050506040513d601f19601f8201168201806040525081019061051f9190612671565b949e939d50919b50995097509095509350505050565b60608061054183610f46565b61054a84610fe6565b91509150915091565b60408051600180825281830190925260009182919060208083019080368337019050509050826001600160a01b031660001b81600081518110610598576105986126bb565b60209081029190910181019190915260408051600092810183905265283630bcb2b960d11b60308201526105ef91016040516020818303038152906040526105df906126d1565b8360026105ea61107a565b611545565b6020015160f01c949350505050565b60408051600180825281830190925260009182919060208083019080368337019050509050826001600160a01b031660001b81600081518110610643576106436126bb565b60209081029190910181019190915260408051600092810183905265283630bcb2b960d11b60308201526105ef910160405160208183030381529060405261068a906126d1565b8360036105ea61107a565b60408051600180825281830190925260009160208083019080368337019050509050826001600160a01b031660001b816000815181106106d7576106d76126bb565b6020908102919091018101919091526040805160008184015265283630bcb2b960d11b6030820152815180820390930183528101905261043f9061071a906126d1565b6040517fffff00000000000000000000000000000000000000000000000000000000000060f086901b16602082015283906002906022015b60405160208183030381529060405261076961107a565b611607565b60408051600180825281830190925260009160208083019080368337019050509050826001600160a01b031660001b816000815181106107b0576107b06126bb565b6020908102919091018101919091526040805160008184015265283630bcb2b960d11b6030820152815180820390930183528101905261043f906107f3906126d1565b6040517fffff00000000000000000000000000000000000000000000000000000000000060f086901b1660208201528390600390602201610752565b60408051600180825281830190925260009160208083019080368337019050509050826001600160a01b031660001b81600081518110610871576108716126bb565b6020908102919091018101919091526040805160008184015265283630bcb2b960d11b6030820152815180820390930183528101905261043f906108b4906126d1565b82600c8560038111156108c9576108c96126f5565b604051602001610752919060f89190911b7fff0000000000000000000000000000000000000000000000000000000000000016815260010190565b60408051600180825281830190925260009160208083019080368337019050509050826001600160a01b031660001b81600081518110610946576109466126bb565b6020908102919091018101919091526040805160008184015265283630bcb2b960d11b6030820152815180820390930183528101905261043f90610989906126d1565b8260048560405160200161075291815260200190565b7fffffffffffffffffffffffffffffffffffffffffffffffffffffffffffffffec36013560601c806109ce5750335b90565b604080516001808252818301909252600091829190602080830190803683370190505090508281600081518110610a0a57610a0a6126bb565b6020908102919091018101919091526040805160009281018390527f476c6f62616c436f6e66696700000000000000000000000000000000000000006030820152610a739101604051602081830303815290604052610a68906126d1565b8360006105ea6116b8565b6020015160601c949350505050565b60408051600180825281830190925260009160208083019080368337019050509050826001600160a01b031660001b81600081518110610ac457610ac46126bb565b6020908102919091018101919091526040805160008184015265283630bcb2b960d11b6030820152815180820390930183528101905261043f90610b07906126d1565b82600e8560405160200161075291815260200190565b60408051600180825281830190925260009160208083019080368337019050509050826001600160a01b031660001b81600081518110610b5f57610b5f6126bb565b6020908102919091018101919091526040805160008184015265283630bcb2b960d11b6030820152815180820390930183528101905261043f90610ba2906126d1565b8260058560405160200161075291815260200190565b60408051600180825281830190925260009160208083019080368337019050509050826001600160a01b031660001b81600081518110610bfa57610bfa6126bb565b6020908102919091018101919091526040805160008184015265283630bcb2b960d11b6030820152815180820390930183528101905261043f90610c3d906126d1565b8260068560405160200161075291815260200190565b60408051600180825281830190925260009160208083019080368337019050509050826001600160a01b031660001b81600081518110610c9557610c956126bb565b6020908102919091018101919091526040805160008184015265283630bcb2b960d11b6030820152815180820390930183528101905261043f90610cd8906126d1565b8260078560405160200161075291815260200190565b60408051600180825281830190925260009160208083019080368337019050509050826001600160a01b031660001b81600081518110610d3057610d306126bb565b6020908102919091018101919091526040805160008184015265283630bcb2b960d11b6030820152815180820390930183528101905261043f90610d73906126d1565b8260088560405160200161075291815260200190565b60408051600180825281830190925260009160208083019080368337019050509050826001600160a01b031660001b81600081518110610dcb57610dcb6126bb565b6020908102919091018101919091526040805160008184015265283630bcb2b960d11b6030820152815180820390930183528101905261043f90610e0e906126d1565b8260098560405160200161075291815260200190565b60408051600180825281830190925260009160208083019080368337019050509050826001600160a01b031660001b81600081518110610e6657610e666126bb565b6020908102919091018101919091526040805160008184015265283630bcb2b960d11b6030820152815180820390930183528101905261043f90610ea9906126d1565b82600f8561076961107a565b60408051600180825281830190925260009160208083019080368337019050509050826001600160a01b031660001b81600081518110610ef757610ef76126bb565b6020908102919091018101919091526040805160008184015265283630bcb2b960d11b6030820152815180820390930183528101905261043f90610f3a906126d1565b8260108561076961107a565b6040805160018082528183019092526060916000919060208083019080368337019050509050826001600160a01b031660001b81600081518110610f8c57610f8c6126bb565b60209081029190910181019190915260408051600092810183905265283630bcb2b960d11b6030820152610fde9101604051602081830303815290604052610fd3906126d1565b83600f6105ea61107a565b949350505050565b6040805160018082528183019092526060916000919060208083019080368337019050509050826001600160a01b031660001b8160008151811061102c5761102c6126bb565b60209081029190910181019190915260408051600092810183905265283630bcb2b960d11b6030820152610fde9101604051602081830303815290604052611073906126d1565b8360106105ea5b60408051601180825261024082019092526000918291906020820161022080368337019050509050601f816000815181106110b7576110b76126bb565b602002602001019060c58111156110d0576110d06126f5565b908160c58111156110e3576110e36126f5565b81525050601f816001815181106110fc576110fc6126bb565b602002602001019060c5811115611115576111156126f5565b908160c5811115611128576111286126f5565b81525050600181600281518110611141576111416126bb565b602002602001019060c581111561115a5761115a6126f5565b908160c581111561116d5761116d6126f5565b81525050600181600381518110611186576111866126bb565b602002602001019060c581111561119f5761119f6126f5565b908160c58111156111b2576111b26126f5565b81525050601f816004815181106111cb576111cb6126bb565b602002602001019060c58111156111e4576111e46126f5565b908160c58111156111f7576111f76126f5565b81525050601f81600581518110611210576112106126bb565b602002602001019060c5811115611229576112296126f5565b908160c581111561123c5761123c6126f5565b81525050601f81600681518110611255576112556126bb565b602002602001019060c581111561126e5761126e6126f5565b908160c5811115611281576112816126f5565b81525050601f8160078151811061129a5761129a6126bb565b602002602001019060c58111156112b3576112b36126f5565b908160c58111156112c6576112c66126f5565b81525050601f816008815181106112df576112df6126bb565b602002602001019060c58111156112f8576112f86126f5565b908160c581111561130b5761130b6126f5565b81525050601f81600981518110611324576113246126bb565b602002602001019060c581111561133d5761133d6126f5565b908160c5811115611350576113506126f5565b81525050600181600a81518110611369576113696126bb565b602002602001019060c5811115611382576113826126f5565b908160c5811115611395576113956126f5565b81525050600181600b815181106113ae576113ae6126bb565b602002602001019060c58111156113c7576113c76126f5565b908160c58111156113da576113da6126f5565b81525050600081600c815181106113f3576113f36126bb565b602002602001019060c581111561140c5761140c6126f5565b908160c581111561141f5761141f6126f5565b81525050601f81600d81518110611438576114386126bb565b602002602001019060c5811115611451576114516126f5565b908160c5811115611464576114646126f5565b81525050601f81600e8151811061147d5761147d6126bb565b602002602001019060c5811115611496576114966126f5565b908160c58111156114a9576114a96126f5565b8152505060c581600f815181106114c2576114c26126bb565b602002602001019060c58111156114db576114db6126f5565b908160c58111156114ee576114ee6126f5565b8152505060c581601081518110611507576115076126bb565b602002602001019060c5811115611520576115206126f5565b908160c5811115611533576115336126f5565b90525061153f81611737565b91505090565b606060006115516118b2565b9050306001600160a01b038216036115775761156f868686866118f1565b915050610fde565b6040517f05242d2f0000000000000000000000000000000000000000000000000000000081526001600160a01b038216906305242d2f906115c2908990899089908990600401612746565b600060405180830381865afa1580156115df573d6000803e3d6000fd5b505050506040513d6000823e601f3d908101601f1916820160405261156f9190810190612775565b60006116116118b2565b9050306001600160a01b03821603611635576116308686868686611929565b6116b0565b6040517f3708196e0000000000000000000000000000000000000000000000000000000081526001600160a01b03821690633708196e9061168290899089908990899089906004016127e3565b600060405180830381600087803b15801561169c57600080fd5b505af11580156103eb573d6000803e3d6000fd5b505050505050565b604080516002808252606082018352600092839291906020830190803683370190505090506061816000815181106116f2576116f26126bb565b602002602001019060c581111561170b5761170b6126f5565b908160c581111561171e5761171e6126f5565b81525050606181600181518110611507576115076126bb565b6000601c8251111561177a5781516040517f5318beb900000000000000000000000000000000000000000000000000000000815260040161031891815260200190565b60008080805b85518110156118525760006117be8783815181106117a0576117a06126bb565b602002602001015160c58111156117b9576117b96126f5565b611afb565b9050806000036117d35760019092019161180b565b821561180b576040517ff1e56be400000000000000000000000000000000000000000000000000000000815260040160405180910390fd5b808401935081601b03600802878381518110611829576118296126bb565b602002602001015160c5811115611842576118426126f5565b901b949094179350600101611780565b506005811115611891576040517f5318beb900000000000000000000000000000000000000000000000000000000815260048101829052602401610318565b935160e085901b94900360e81b60f09190911b919091171791909117919050565b7f629a4c26e296b22a8e0856e9f6ecb2d1008d7e00081111962cd175fa7488e175546000906001600160a01b0316806118ec573391505090565b919050565b60606119008260e81c60ff1690565b8360ff16101561191d5761191685858585611b5b565b9050610fde565b61191685858585611bbb565b7fd01f9f1368f831528fc9fe6442366b2b7d957fbfff3bcf7c24d9ab5fe51f8c468585858560405161195e949392919061282a565b60405180910390a1600061197186611c26565b905060005b8151811015611a17576000828281518110611993576119936126bb565b60200260200101519050806001600160a01b031663bf11b74e89898989896040518663ffffffff1660e01b81526004016119d19594939291906127e3565b600060405180830381600087803b1580156119eb57600080fd5b505af11580156119ff573d6000803e3d6000fd5b50505050508080611a0f9061287f565b915050611976565b50611a258260e81c60ff1690565b8460ff161015611a4157611a3c8686848787611cfe565b611a4e565b611a4e8686848787611dae565b60005b8151811015611af2576000828281518110611a6e57611a6e6126bb565b60200260200101519050806001600160a01b0316637da508a289898989896040518663ffffffff1660e01b8152600401611aac9594939291906127e3565b600060405180830381600087803b158015611ac657600080fd5b505af1158015611ada573d6000803e3d6000fd5b50505050508080611aea9061287f565b915050611a51565b50505050505050565b6000808260c5811115611b1057611b106126f5565b60ff1690506061811015611b2a57601f1660010192915050565b60618360c5811115611b3e57611b3e6126f5565b03611b4c5750601492915050565b50600092915050565b50919050565b60606000611b6c8360ff8616611df1565b90506000611b858260c58111156117b9576117b96126f5565b90506000611b938888611e1e565b90506000611ba18688611e74565b9050611bae828483611ec8565b9998505050505050505050565b60606000611bcc8360e81c60ff1690565b611bd69085612899565b90506000611be5878784611eeb565b90506000611c0c83611bf78a8a611f44565b9060ff166028026038011c64ffffffffff1690565b9050611c1a82826000611ec8565b98975050505050505050565b60408051600180825281830190925260609160009190602080830190803683370190505090508281600081518110611c6057611c606126bb565b602090810291909101810191909152604080517f6d756473746f7265000000000000000000000000000000000000000000000000818401527f486f6f6b7300000000000000000000000000000000000000000000000000000060308201528151808203909301835281019052600090611ce790611cdc906126d1565b8360006105ea611f5b565b9050610fde611cf98260008451611f95565b612025565b6000611d0d8460ff8516611df1565b90508151611d268260c58111156117b9576117b96126f5565b14611d7d57611d408160c58111156117b9576117b96126f5565b82516040517f521b3d3300000000000000000000000000000000000000000000000000000000815260048101929092526024820152604401610318565b6000611d898787611e1e565b90506000611d978686611e74565b9050611da4828286612036565b5050505050505050565b6000611dbd8460e81c60ff1690565b611dc79084612899565b9050611dd68686838551612046565b6000611de3878784611eeb565b9050611af281600085612036565b600081601b03600802611e018490565b60ff911c1660c5811115611e1757611e176126f5565b9392505050565b60007f86425bff6b57326c7859e89024fe4f238ca327a1ae4a230180dd2f0e88aaa7d98383604051602001611e55939291906128bc565b60408051601f1981840301815291905280516020909101209392505050565b600080805b8360ff16811015611ec057611ea2611e918683611df1565b60c58111156117b9576117b96126f5565b611eac90836128db565b915080611eb88161287f565b915050611e79565b509392505050565b60405160208101601f19603f8584010116604052838252611ec085858584612075565b60007f86425bff6b57326c7859e89024fe4f238ca327a1ae4a230180dd2f0e88aaa7d9848484604051602001611f2494939291906128f3565b60408051601f198184030181529190528051602090910120949350505050565b600080611f51848461212b565b9050610fde815490565b6040805160018082528183019092526000918291906020808301908036833701905050905060c381600081518110611507576115076126bb565b6000818311158015611fa8575083518211155b611fe4578383836040517f23230fa300000000000000000000000000000000000000000000000000000000815260040161031893929190612926565b60208401611ff284826128db565b90506000612000858561294b565b6fffffffffffffffffffffffffffffffff1660809290921b9190911795945050505050565b60606000611e178360146060612162565b61043f8383602084018451612274565b6000612052858561212b565b9050600061205e825490565b905061206b818585612334565b80835590506116b0565b81156120e7576020821061209f5760208204840193506020828161209b5761209b612962565b0691505b81156120e75760208290036000600019600883021c1990508554600885021b8119845116828216178452508185116120d8575050612125565b50600194909401939283900392015b5b602083106121095783548152600190930192601f19909201916020016120e8565b82156121255780518454600019600886021c9182169119161781525b50505050565b60007f86425bff6b57326c7859e89024fe4f238ca327a1ae4a230180dd2f0e88aaa7d98383604051602001611e5593929190612978565b606060006121708560801c90565b90506fffffffffffffffffffffffffffffffff8516600085828161219657612196612962565b0490506121a386836129d8565b15612230576040517f08c379a000000000000000000000000000000000000000000000000000000000815260206004820152603d60248201527f756e7061636b546f41727261793a207061636b65644c656e677468206d75737460448201527f2062652061206d756c7469706c65206f6620656c656d656e7453697a650000006064820152608401610318565b60405193506020840160208202810160405281855260005b82811015612268578451871c825293870193602090910190600101612248565b50505050509392505050565b82156122ee576020831061229e5760208304840193506020838161229a5761229a612962565b0692505b82156122ee5760208390036000600019600884021c1990506008850281811c91508451811c90508119875416828216178755508183116122df575050612125565b50600194909401939182019190035b5b602081106123105781518455600190930192602090910190601f19016122ef565b8015612125576000600019600883021c198554845182169119161785555050505050565b600064ffffffffff821115612378576040517f4767058800000000000000000000000000000000000000000000000000000000815260048101839052602401610318565b8366ffffffffffffff811660ff851660280260380182901c64ffffffffff168085106123aa57808503820191506123b2565b848103820391505b5064ffffffffff6038602860ff8816020190811b80197fffffffffffffffffffffffffffffffffffffffffffffffffff0000000000000094909416909217929092169184901b161790509392505050565b6001600160a01b03811681146101c057600080fd5b60006020828403121561242a57600080fd5b8135611e1781612403565b60006020828403121561244757600080fd5b5035919050565b803561ffff811681146118ec57600080fd5b60008060006060848603121561247557600080fd5b833561248081612403565b925061248e6020850161244e565b915061249c6040850161244e565b90509250925092565b634e487b7160e01b600052604160045260246000fd5b604051601f8201601f1916810167ffffffffffffffff811182821017156124e4576124e46124a5565b604052919050565b600067ffffffffffffffff821115612506576125066124a5565b50601f01601f191660200190565b600082601f83011261252557600080fd5b8135612538612533826124ec565b6124bb565b81815284602083860101111561254d57600080fd5b816020850160208301376000918101602001919091529392505050565b6000806040838503121561257d57600080fd5b823567ffffffffffffffff8082111561259557600080fd5b6125a186838701612514565b935060208501359150808211156125b757600080fd5b506125c485828601612514565b9150509250929050565b60005b838110156125e95781810151838201526020016125d1565b838111156121255750506000910152565b600081518084526126128160208601602086016125ce565b601f01601f19169290920160200192915050565b60408152600061263960408301856125fa565b828103602084015261264b81856125fa565b95945050505050565b60006020828403121561266657600080fd5b8151611e1781612403565b60008060008060008060c0878903121561268a57600080fd5b865195506020870151945060408701519350606087015192506080870151915060a087015190509295509295509295565b634e487b7160e01b600052603260045260246000fd5b80516020808301519190811015611b555760001960209190910360031b1b16919050565b634e487b7160e01b600052602160045260246000fd5b600081518084526020808501945080840160005b8381101561273b5781518752958201959082019060010161271f565b509495945050505050565b84815260806020820152600061275f608083018661270b565b60ff949094166040830152506060015292915050565b60006020828403121561278757600080fd5b815167ffffffffffffffff81111561279e57600080fd5b8201601f810184136127af57600080fd5b80516127bd612533826124ec565b8181528560208385010111156127d257600080fd5b61264b8260208301602086016125ce565b85815260a0602082015260006127fc60a083018761270b565b60ff86166040840152828103606084015261281781866125fa565b9150508260808301529695505050505050565b848152608060208201526000612843608083018661270b565b60ff85166040840152828103606084015261285e81856125fa565b979650505050505050565b634e487b7160e01b600052601160045260246000fd5b6000600019820361289257612892612869565b5060010190565b600060ff821660ff8416808210156128b3576128b3612869565b90039392505050565b83815282602082015260606040820152600061264b606083018461270b565b600082198211156128ee576128ee612869565b500190565b848152836020820152608060408201526000612912608083018561270b565b905060ff8316606083015295945050505050565b60608152600061293960608301866125fa565b60208301949094525060400152919050565b60008282101561295d5761295d612869565b500390565b634e487b7160e01b600052601260045260246000fd5b838152826020820152608060408201526000612997608083018461270b565b8281036060840152600681527f6c656e6774680000000000000000000000000000000000000000000000000000602082015260408101915050949350505050565b6000826129f557634e487b7160e01b600052601260045260246000fd5b50069056fea26469706673582212206fcceeefaee91f083715edeb22530b95e05adccc9142e6419addfb0b71b13c6a64736f6c634300080d0033",
    "linkReferences": {}
  },
  "methodIdentifiers": {
    "getInfo(address)": "ffdd5cf1",
    "getPosition(address)": "16c19739",
    "getSenderPosition()": "5af5cf8d",
    "getUserInfo(uint256)": "d379dadf",
    "initUserInfo()": "342516a7",
    "selectUserNft(uint256)": "3ee77c01",
    "setInfo(string,string)": "a923fc40",
    "transfer(address,uint16,uint16)": "672296dc"
  },
  "id": 149
}