{
  "abi": [
    {
      "inputs": [
        {
          "internalType": "uint256",
          "name": "length",
          "type": "uint256"
        }
      ],
      "name": "PackedCounter_InvalidLength",
      "type": "error"
    },
    {
      "inputs": [
        {
          "internalType": "uint256",
          "name": "length",
          "type": "uint256"
        }
      ],
      "name": "SchemaLib_InvalidLength",
      "type": "error"
    },
    {
      "inputs": [],
      "name": "SchemaLib_StaticTypeAfterDynamicType",
      "type": "error"
    },
    {
      "inputs": [
        {
          "internalType": "bytes",
          "name": "data",
          "type": "bytes"
        },
        {
          "internalType": "uint256",
          "name": "start",
          "type": "uint256"
        },
        {
          "internalType": "uint256",
          "name": "end",
          "type": "uint256"
        }
      ],
      "name": "Slice_OutOfBounds",
      "type": "error"
    },
    {
      "inputs": [
        {
          "internalType": "uint256",
          "name": "length",
          "type": "uint256"
        },
        {
          "internalType": "uint256",
          "name": "received",
          "type": "uint256"
        }
      ],
      "name": "StoreCore_DataIndexOverflow",
      "type": "error"
    },
    {
      "inputs": [
        {
          "internalType": "uint256",
          "name": "expected",
          "type": "uint256"
        },
        {
          "internalType": "uint256",
          "name": "received",
          "type": "uint256"
        }
      ],
      "name": "StoreCore_InvalidDataLength",
      "type": "error"
    },
    {
      "inputs": [],
      "name": "StoreCore_NotDynamicField",
      "type": "error"
    },
    {
      "anonymous": false,
      "inputs": [
        {
          "indexed": false,
          "internalType": "uint256",
          "name": "battleId",
          "type": "uint256"
        },
        {
          "indexed": false,
          "internalType": "enum BattleEndType",
          "name": "endType",
          "type": "uint8"
        },
        {
          "indexed": false,
          "internalType": "address",
          "name": "winner",
          "type": "address"
        }
      ],
      "name": "BattleEnd",
      "type": "event"
    },
    {
      "anonymous": false,
      "inputs": [
        {
          "indexed": false,
          "internalType": "uint256",
          "name": "battleId",
          "type": "uint256"
        },
        {
          "indexed": false,
          "internalType": "address",
          "name": "sender",
          "type": "address"
        }
      ],
      "name": "BattleReveal",
      "type": "event"
    },
    {
      "inputs": [
        {
          "internalType": "uint256",
          "name": "_targetHP",
          "type": "uint256"
        },
        {
          "internalType": "uint256",
          "name": "_percent",
          "type": "uint256"
        },
        {
          "internalType": "address",
          "name": "_player",
          "type": "address"
        }
      ],
      "name": "raisePlayerHp",
      "outputs": [],
      "stateMutability": "nonpayable",
      "type": "function"
    },
    {
      "inputs": [
        {
          "internalType": "uint256",
          "name": "_battleId",
          "type": "uint256"
        },
        {
          "internalType": "bytes32",
          "name": "_action",
          "type": "bytes32"
        },
        {
          "internalType": "uint256",
          "name": "_arg",
          "type": "uint256"
        },
        {
          "internalType": "bytes32",
          "name": "_nonce",
          "type": "bytes32"
        }
      ],
      "name": "revealBattle",
      "outputs": [],
      "stateMutability": "nonpayable",
      "type": "function"
    },
    {
      "inputs": [
        {
          "internalType": "uint256",
          "name": "_battleId",
          "type": "uint256"
        }
      ],
      "name": "revealWinner",
      "outputs": [],
      "stateMutability": "nonpayable",
      "type": "function"
    }
  ],
  "bytecode": {
    "object": "0x608060405234801561001057600080fd5b50615eed80620000216000396000f3fe608060405234801561001057600080fd5b50600436106100415760003560e01c80634e04dcff146100465780638ccb59e81461005b578063fdec93281461006e575b600080fd5b610059610054366004615802565b610081565b005b610059610069366004615847565b6100a5565b61005961007c366004615860565b61027e565b6100a081606461009185876158a8565b61009b91906158dd565b610472565b505050565b60006100b082610529565b90506100c5816100be61064e565b6002610680565b60006100d48260000151610800565b905060006100e58360200151610800565b90506000836101e001516003811115610100576101006158f1565b90506000846101e00151600381111561011b5761011b6158f1565b90506561747461636b60d01b85610120015114801561014757506561747461636b60d01b856101400151145b1561015f5761015a8686848488886108a9565b61020f565b6565736361706560d01b85610120015114801561018957506565736361706560d01b856101400151145b156101975761015a866109b7565b6565736361706560d01b8561012001511480156101c157506561747461636b60d01b856101400151145b156101d35761015a8686848487610a0d565b6561747461636b60d01b8561012001511480156101fd57506565736361706560d01b856101400151145b1561020f5761020f8686848488610b48565b8460c0015161025a577f12905c23d95cdb5f98f2bc2c7fd702ee93f2460259d37a4ed29123a6c85ecbb0866003600060405161024d93929190615907565b60405180910390a1610276565b8451610267906002610c61565b61027685602001516002610c61565b505050505050565b600061028985610529565b905061029e8161029761064e565b6001610680565b60006102a861064e565b6001600160a01b031682600001516001600160a01b0316146102d2576102cd86610d36565b6102db565b6102db86610dc8565b6040805160208101889052908101869052606081018590529091506000906080016040516020818303038152906040528051906020012090508082146103685760405162461bcd60e51b815260206004820152601760248201527f496e76616c6964206275666620686173682070726f6f6600000000000000000060448201526064015b60405180910390fd5b61037061064e565b6001600160a01b031683600001516001600160a01b0316036103b0576103968787610e5a565b6103a08786610f07565b6103ab876002610f9d565b6103cf565b6103ba878761106d565b6103c48786611103565b6103cf876002611199565b60026103da8861122e565b60028111156103eb576103eb6158f1565b148015610411575060026103fe886112e1565b600281111561040f5761040f6158f1565b145b1561041f5761041f876100a5565b7ffb7e37e41992612d86a86e4014724b02417bf995d53340e7ff8273e6cbdb59e08761044961064e565b604080519283526001600160a01b0390911660208301520160405180910390a150505050505050565b60408051600180825281830190925260009160208083019080368337019050509050826001600160a01b031660001b816000815181106104b4576104b461595f565b6020908102919091018101919091526040805160008184015265283630bcb2b960d11b603082015281518082039093018352810190526100a0906104f790615975565b8260048560405160200161050d91815260200190565b604051602081830303815290604052610524611373565b61183e565b6105a96040805161020081018252600080825260208201819052918101829052606081018290526080810182905260a0810182905260c081018290529060e082019081526020016000815260006020820181905260408201819052606082018190526080820181905260a0820181905260c0820181905260e09091015290565b604080516001808252818301909252600091602080830190803683370190505090508260001b816000815181106105e2576105e261595f565b6020908102919091018101919091526040805160009281018390526910985d1d1b19531a5cdd60b21b603082015261063b910160405160208183030381529060405261062d90615975565b836106366118f3565b611d3b565b905061064681611e03565b949350505050565b7fffffffffffffffffffffffffffffffffffffffffffffffffffffffffffffffec36013560601c8061067d5750335b90565b6000826001600160a01b031684600001516001600160a01b0316146106aa578361010001516106b0565b8360e001515b9050826001600160a01b031684600001516001600160a01b031614806106eb5750826001600160a01b031684602001516001600160a01b0316145b6107375760405162461bcd60e51b815260206004820152601b60248201527f596f7520617265206e6f7420696e2074686973205f626174746c650000000000604482015260640161035f565b816002811115610749576107496158f1565b81600281111561075b5761075b6158f1565b146107a85760405162461bcd60e51b815260206004820152601a60248201527f596f752061726520696e207468652077726f6e67207374617465000000000000604482015260640161035f565b8360c00151156107fa5760405162461bcd60e51b815260206004820152600d60248201527f426174746c6520697320656e6400000000000000000000000000000000000000604482015260640161035f565b50505050565b60408051600180825281830190925260009182919060208083019080368337019050509050826001600160a01b031660001b816000815181106108455761084561595f565b60209081029190910181019190915260408051600092810183905265283630bcb2b960d11b603082015261089c910160405160208183030381529060405261088c90615975565b836005610897611373565b61201d565b90506106468160006120df565b60006108b68585856120ed565b905060006108c58587856120ed565b90506108de886108d9896080015184612143565b61215f565b6108f5886108f08960a0015185612143565b6121f5565b6108fe8861228b565b1580610910575061090e8861231d565b155b156109ad576000876080015160001461092a578751610930565b87602001515b90506000886080015160001461094a57886020015161094d565b88515b90506109598a836123af565b6109648a6001612458565b61096e81836124f3565b7f12905c23d95cdb5f98f2bc2c7fd702ee93f2460259d37a4ed29123a6c85ecbb08a6001846040516109a293929190615907565b60405180910390a150505b5050505050505050565b6109c2816001612458565b6109cd8160006123af565b7f12905c23d95cdb5f98f2bc2c7fd702ee93f2460259d37a4ed29123a6c85ecbb08160026000604051610a0293929190615907565b60405180910390a150565b816003811115610a1f57610a1f6158f1565b836003811115610a3157610a316158f1565b1480610a465750610a42838361262b565b6002145b15610ab557610a598585602001516123af565b610a64856001612458565b8351610a709042612794565b7f12905c23d95cdb5f98f2bc2c7fd702ee93f2460259d37a4ed29123a6c85ecbb08560018660200151604051610aa893929190615907565b60405180910390a1610b41565b6000610ac28484846120ed565b9050610ad6866108f0876080015184612143565b610adf8661228b565b60000361027657610af48686602001516123af565b610aff866001612458565b7f12905c23d95cdb5f98f2bc2c7fd702ee93f2460259d37a4ed29123a6c85ecbb08660018760200151604051610b3793929190615907565b60405180910390a1505b5050505050565b816003811115610b5a57610b5a6158f1565b836003811115610b6c57610b6c6158f1565b1480610b815750610b7d828461262b565b6002145b15610be257610b948585600001516123af565b610b9f856001612458565b610bad846020015142612794565b83516040517f12905c23d95cdb5f98f2bc2c7fd702ee93f2460259d37a4ed29123a6c85ecbb091610aa8918891600191615907565b6000610bef8385846120ed565b9050610c03866108d9876080015184612143565b610c0c8661231d565b60000361027657610c218686600001516123af565b610c2c866001612458565b84516040517f12905c23d95cdb5f98f2bc2c7fd702ee93f2460259d37a4ed29123a6c85ecbb091610b37918991600191615907565b60408051600180825281830190925260009160208083019080368337019050509050826001600160a01b031660001b81600081518110610ca357610ca361595f565b6020908102919091018101919091526040805160008184015265283630bcb2b960d11b603082015281518082039093018352810190526100a090610ce690615975565b82600c856003811115610cfb57610cfb6158f1565b60405160200161050d919060f89190911b7fff0000000000000000000000000000000000000000000000000000000000000016815260010190565b604080516001808252818301909252600091829190602080830190803683370190505090508260001b81600081518110610d7257610d7261595f565b6020908102919091018101919091526040805160009281018390526910985d1d1b19531a5cdd60b21b603082015261089c9101604051602081830303815290604052610dbd90615975565b83600c6108976118f3565b604080516001808252818301909252600091829190602080830190803683370190505090508260001b81600081518110610e0457610e0461595f565b6020908102919091018101919091526040805160009281018390526910985d1d1b19531a5cdd60b21b603082015261089c9101604051602081830303815290604052610e4f90615975565b83600b6108976118f3565b604080516001808252818301909252600091602080830190803683370190505090508260001b81600081518110610e9357610e9361595f565b602090810291909101810191909152604080516000818401526910985d1d1b19531a5cdd60b21b603082015281518082039093018352810190526100a090610eda90615975565b82600985604051602001610ef091815260200190565b6040516020818303038152906040526105246118f3565b604080516001808252818301909252600091602080830190803683370190505090508260001b81600081518110610f4057610f4061595f565b602090810291909101810191909152604080516000818401526910985d1d1b19531a5cdd60b21b603082015281518082039093018352810190526100a090610f8790615975565b82600e85604051602001610ef091815260200190565b604080516001808252818301909252600091602080830190803683370190505090508260001b81600081518110610fd657610fd661595f565b602090810291909101810191909152604080516000818401526910985d1d1b19531a5cdd60b21b603082015281518082039093018352810190526100a09061101d90615975565b826007856002811115611032576110326158f1565b604051602001610ef0919060f89190911b7fff0000000000000000000000000000000000000000000000000000000000000016815260010190565b604080516001808252818301909252600091602080830190803683370190505090508260001b816000815181106110a6576110a661595f565b602090810291909101810191909152604080516000818401526910985d1d1b19531a5cdd60b21b603082015281518082039093018352810190526100a0906110ed90615975565b82600a85604051602001610ef091815260200190565b604080516001808252818301909252600091602080830190803683370190505090508260001b8160008151811061113c5761113c61595f565b602090810291909101810191909152604080516000818401526910985d1d1b19531a5cdd60b21b603082015281518082039093018352810190526100a09061118390615975565b82600f85604051602001610ef091815260200190565b604080516001808252818301909252600091602080830190803683370190505090508260001b816000815181106111d2576111d261595f565b602090810291909101810191909152604080516000818401526910985d1d1b19531a5cdd60b21b603082015281518082039093018352810190526100a09061121990615975565b826008856002811115611032576110326158f1565b604080516001808252818301909252600091829190602080830190803683370190505090508260001b8160008151811061126a5761126a61595f565b6020908102919091018101919091526040805160009281018390526910985d1d1b19531a5cdd60b21b60308201526112c091016040516020818303038152906040526112b590615975565b8360076108976118f3565b90506112cd8160006120df565b60f81c6002811115610646576106466158f1565b604080516001808252818301909252600091829190602080830190803683370190505090508260001b8160008151811061131d5761131d61595f565b6020908102919091018101919091526040805160009281018390526910985d1d1b19531a5cdd60b21b60308201526112c0910160405160208183030381529060405261136890615975565b8360086108976118f3565b60408051601180825261024082019092526000918291906020820161022080368337019050509050601f816000815181106113b0576113b061595f565b602002602001019060c58111156113c9576113c96158f1565b908160c58111156113dc576113dc6158f1565b81525050601f816001815181106113f5576113f561595f565b602002602001019060c581111561140e5761140e6158f1565b908160c5811115611421576114216158f1565b8152505060018160028151811061143a5761143a61595f565b602002602001019060c5811115611453576114536158f1565b908160c5811115611466576114666158f1565b8152505060018160038151811061147f5761147f61595f565b602002602001019060c5811115611498576114986158f1565b908160c58111156114ab576114ab6158f1565b81525050601f816004815181106114c4576114c461595f565b602002602001019060c58111156114dd576114dd6158f1565b908160c58111156114f0576114f06158f1565b81525050601f816005815181106115095761150961595f565b602002602001019060c5811115611522576115226158f1565b908160c5811115611535576115356158f1565b81525050601f8160068151811061154e5761154e61595f565b602002602001019060c5811115611567576115676158f1565b908160c581111561157a5761157a6158f1565b81525050601f816007815181106115935761159361595f565b602002602001019060c58111156115ac576115ac6158f1565b908160c58111156115bf576115bf6158f1565b81525050601f816008815181106115d8576115d861595f565b602002602001019060c58111156115f1576115f16158f1565b908160c5811115611604576116046158f1565b81525050601f8160098151811061161d5761161d61595f565b602002602001019060c5811115611636576116366158f1565b908160c5811115611649576116496158f1565b81525050600181600a815181106116625761166261595f565b602002602001019060c581111561167b5761167b6158f1565b908160c581111561168e5761168e6158f1565b81525050600181600b815181106116a7576116a761595f565b602002602001019060c58111156116c0576116c06158f1565b908160c58111156116d3576116d36158f1565b81525050600081600c815181106116ec576116ec61595f565b602002602001019060c5811115611705576117056158f1565b908160c5811115611718576117186158f1565b81525050601f81600d815181106117315761173161595f565b602002602001019060c581111561174a5761174a6158f1565b908160c581111561175d5761175d6158f1565b81525050601f81600e815181106117765761177661595f565b602002602001019060c581111561178f5761178f6158f1565b908160c58111156117a2576117a26158f1565b8152505060c581600f815181106117bb576117bb61595f565b602002602001019060c58111156117d4576117d46158f1565b908160c58111156117e7576117e76158f1565b8152505060c5816010815181106118005761180061595f565b602002602001019060c5811115611819576118196158f1565b908160c581111561182c5761182c6158f1565b9052506118388161285d565b91505090565b60006118486129d8565b9050306001600160a01b0382160361186c576118678686868686612a17565b610276565b6040517f3708196e0000000000000000000000000000000000000000000000000000000081526001600160a01b03821690633708196e906118b99089908990899089908990600401615a2c565b600060405180830381600087803b1580156118d357600080fd5b505af11580156118e7573d6000803e3d6000fd5b50505050505050505050565b604080516010808252610220820190925260009182919060208201610200803683370190505090506061816000815181106119305761193061595f565b602002602001019060c5811115611949576119496158f1565b908160c581111561195c5761195c6158f1565b815250506061816001815181106119755761197561595f565b602002602001019060c581111561198e5761198e6158f1565b908160c58111156119a1576119a16158f1565b815250506061816002815181106119ba576119ba61595f565b602002602001019060c58111156119d3576119d36158f1565b908160c58111156119e6576119e66158f1565b815250506001816003815181106119ff576119ff61595f565b602002602001019060c5811115611a1857611a186158f1565b908160c5811115611a2b57611a2b6158f1565b81525050601f81600481518110611a4457611a4461595f565b602002602001019060c5811115611a5d57611a5d6158f1565b908160c5811115611a7057611a706158f1565b81525050601f81600581518110611a8957611a8961595f565b602002602001019060c5811115611aa257611aa26158f1565b908160c5811115611ab557611ab56158f1565b81525050606081600681518110611ace57611ace61595f565b602002602001019060c5811115611ae757611ae76158f1565b908160c5811115611afa57611afa6158f1565b81525050600081600781518110611b1357611b1361595f565b602002602001019060c5811115611b2c57611b2c6158f1565b908160c5811115611b3f57611b3f6158f1565b81525050600081600881518110611b5857611b5861595f565b602002602001019060c5811115611b7157611b716158f1565b908160c5811115611b8457611b846158f1565b81525050605f81600981518110611b9d57611b9d61595f565b602002602001019060c5811115611bb657611bb66158f1565b908160c5811115611bc957611bc96158f1565b81525050605f81600a81518110611be257611be261595f565b602002602001019060c5811115611bfb57611bfb6158f1565b908160c5811115611c0e57611c0e6158f1565b81525050605f81600b81518110611c2757611c2761595f565b602002602001019060c5811115611c4057611c406158f1565b908160c5811115611c5357611c536158f1565b81525050605f81600c81518110611c6c57611c6c61595f565b602002602001019060c5811115611c8557611c856158f1565b908160c5811115611c9857611c986158f1565b81525050601f81600d81518110611cb157611cb161595f565b602002602001019060c5811115611cca57611cca6158f1565b908160c5811115611cdd57611cdd6158f1565b81525050601f81600e81518110611cf657611cf661595f565b602002602001019060c5811115611d0f57611d0f6158f1565b908160c5811115611d2257611d226158f1565b81525050601f81600f815181106118005761180061595f565b60606000611d476129d8565b9050306001600160a01b03821603611d6c57611d64858585612be5565b915050611dfc565b6040517f419b58fd0000000000000000000000000000000000000000000000000000000081526001600160a01b0382169063419b58fd90611db590889088908890600401615a73565b600060405180830381865afa158015611dd2573d6000803e3d6000fd5b505050506040513d6000823e601f3d908101601f19168201604052611d649190810190615a9c565b505b9392505050565b611e836040805161020081018252600080825260208201819052918101829052606081018290526080810182905260a0810182905260c081018290529060e082019081526020016000815260006020820181905260408201819052606082018190526080820181905260a0820181905260c0820181905260e09091015290565b611e8e8260006120df565b60601c8152611e9e8260146120df565b60601c6020820152611eb18260286120df565b60601c6040820152611ec482603c6120df565b60f01c6060820152611ed782603e6120df565b6080820152611ee782605e6120df565b60a0820152611f00611efa83607e6120df565b60f81c90565b151560c0820152611f1282607f6120df565b60f81c6002811115611f2657611f266158f1565b8160e001906002811115611f3c57611f3c6158f1565b90816002811115611f4f57611f4f6158f1565b905250611f5d8260806120df565b60f81c6002811115611f7157611f716158f1565b8161010001906002811115611f8857611f886158f1565b90816002811115611f9b57611f9b6158f1565b905250611fa98260816120df565b610120820152611fba8260a16120df565b610140820152611fcb8260c16120df565b610160820152611fdc8260e16120df565b610180820152611fee826101016120df565b6101a0820152612000826101216120df565b6101c0820152612012826101416120df565b6101e0820152919050565b606060006120296129d8565b9050306001600160a01b0382160361204f5761204786868686612d4f565b915050610646565b6040517f05242d2f0000000000000000000000000000000000000000000000000000000081526001600160a01b038216906305242d2f9061209a908990899089908990600401615b49565b600060405180830381865afa1580156120b7573d6000803e3d6000fd5b505050506040513d6000823e601f3d908101601f191682016040526120479190810190615a9c565b818101602001515b92915050565b60006120f9848461262b565b60000361211e57600a61210d8360076158a8565b61211791906158dd565b9050611dfc565b612128848461262b565b60020361213c57600a61210d83600d6158a8565b5092915050565b600082821115612155575060006120e7565b611dfc8284615b78565b604080516001808252818301909252600091602080830190803683370190505090508260001b816000815181106121985761219861595f565b602090810291909101810191909152604080516000818401526910985d1d1b19531a5cdd60b21b603082015281518082039093018352810190526100a0906121df90615975565b82600485604051602001610ef091815260200190565b604080516001808252818301909252600091602080830190803683370190505090508260001b8160008151811061222e5761222e61595f565b602090810291909101810191909152604080516000818401526910985d1d1b19531a5cdd60b21b603082015281518082039093018352810190526100a09061227590615975565b82600585604051602001610ef091815260200190565b604080516001808252818301909252600091829190602080830190803683370190505090508260001b816000815181106122c7576122c761595f565b6020908102919091018101919091526040805160009281018390526910985d1d1b19531a5cdd60b21b603082015261089c910160405160208183030381529060405261231290615975565b8360046108976118f3565b604080516001808252818301909252600091829190602080830190803683370190505090508260001b816000815181106123595761235961595f565b6020908102919091018101919091526040805160009281018390526910985d1d1b19531a5cdd60b21b603082015261089c91016040516020818303038152906040526123a490615975565b8360056108976118f3565b604080516001808252818301909252600091602080830190803683370190505090508260001b816000815181106123e8576123e861595f565b602090810291909101810191909152604080516000818401526910985d1d1b19531a5cdd60b21b603082015281518082039093018352810190526100a09061242f90615975565b6040516bffffffffffffffffffffffff19606086901b1660208201528390600290603401610ef0565b604080516001808252818301909252600091602080830190803683370190505090508260001b816000815181106124915761249161595f565b602090810291909101810191909152604080516000818401526910985d1d1b19531a5cdd60b21b603082015281518082039093018352810190526100a0906124d890615975565b82600685604051602001610ef091151560f81b815260010190565b6124fe826002610c61565b61250782612d83565b60006125327f155015ae9c496f0f6fd931019b5913c67e630cdcf50b1101aeda4bb69f21060e612f4f565b9050600061253f84612ff1565b60408051610140808201835260008083526020830181815283850182815260608086018481526080870185815260a0880186905260c0880186815260e089018781526101008a018881526101208b019889529a8c015161ffff908116909752938b01518616909452600190985242918290526001600160a01b038c16909452938701518216909252610160860151169093529091529091506125e18382613096565b6125ec8560006130d7565b6125f7856000613198565b610b417f155015ae9c496f0f6fd931019b5913c67e630cdcf50b1101aeda4bb69f21060e612626856001615b8f565b613259565b60006002836003811115612641576126416158f1565b14801561265f5750600182600381111561265d5761265d6158f1565b145b8061269757506003836003811115612679576126796158f1565b14801561269757506002826003811115612695576126956158f1565b145b806126cf575060018360038111156126b1576126b16158f1565b1480156126cf575060038260038111156126cd576126cd6158f1565b145b156126dc575060026120e7565b60018360038111156126f0576126f06158f1565b14801561270e5750600282600381111561270c5761270c6158f1565b145b8061274657506002836003811115612728576127286158f1565b14801561274657506003826003811115612744576127446158f1565b145b8061277e57506003836003811115612760576127606158f1565b14801561277e5750600182600381111561277c5761277c6158f1565b145b1561278b575060006120e7565b50600192915050565b60408051600180825281830190925260009160208083019080368337019050509050826001600160a01b031660001b816000815181106127d6576127d661595f565b602090810291909101810191909152604080516000818401527f506c617965724c6f636174696f6e4c6f00000000000000000000000000000000603082015281518082039093018352810190526100a09061283090615975565b8260008560405160200161284691815260200190565b604051602081830303815290604052610524613316565b6000601c825111156128a05781516040517f5318beb900000000000000000000000000000000000000000000000000000000815260040161035f91815260200190565b60008080805b85518110156129785760006128e48783815181106128c6576128c661595f565b602002602001015160c58111156128df576128df6158f1565b613350565b9050806000036128f957600190920191612931565b8215612931576040517ff1e56be400000000000000000000000000000000000000000000000000000000815260040160405180910390fd5b808401935081601b0360080287838151811061294f5761294f61595f565b602002602001015160c5811115612968576129686158f1565b901b9490941793506001016128a6565b5060058111156129b7576040517f5318beb90000000000000000000000000000000000000000000000000000000081526004810182905260240161035f565b935160e085901b94900360e81b60f09190911b919091171791909117919050565b7f629a4c26e296b22a8e0856e9f6ecb2d1008d7e00081111962cd175fa7488e175546000906001600160a01b031680612a12573391505090565b919050565b7fd01f9f1368f831528fc9fe6442366b2b7d957fbfff3bcf7c24d9ab5fe51f8c4685858585604051612a4c9493929190615ba7565b60405180910390a16000612a5f866133b0565b905060005b8151811015612b05576000828281518110612a8157612a8161595f565b60200260200101519050806001600160a01b031663bf11b74e89898989896040518663ffffffff1660e01b8152600401612abf959493929190615a2c565b600060405180830381600087803b158015612ad957600080fd5b505af1158015612aed573d6000803e3d6000fd5b50505050508080612afd90615bdb565b915050612a64565b50612b0f82613488565b8460ff161015612b2b57612b268686848787613499565b612b38565b612b38868684878761353f565b60005b8151811015612bdc576000828281518110612b5857612b5861595f565b60200260200101519050806001600160a01b0316637da508a289898989896040518663ffffffff1660e01b8152600401612b96959493929190615a2c565b600060405180830381600087803b158015612bb057600080fd5b505af1158015612bc4573d6000803e3d6000fd5b50505050508080612bd490615bdb565b915050612b3b565b50505050505050565b60606000612bf38360f01c90565b905080600080612c028661357e565b90508015612c4657612c148888613588565b915066ffffffffffffff821615612c4657612c3966ffffffffffffff83166020615b8f565b612c439084615b8f565b92505b60008367ffffffffffffffff811115612c6157612c61615949565b6040519080825280601f01601f191660200182016040528015612c8b576020820181803683370190505b50905060208101612c9e8a8a888461359f565b66ffffffffffffff8416600003612cbc57509450611dfc9350505050565b612cc68682615b8f565b8481529050612cd6602082615b8f565b905060005b838160ff161015612d40576000612cf38c8c846135c0565b90506000612d10878460ff166028026038011c64ffffffffff1690565b9050612d1f8282600087613619565b612d298185615b8f565b935050508080612d3890615bf5565b915050612cdb565b50909998505050505050505050565b6060612d5a82613488565b8360ff161015612d7757612d70858585856136d1565b9050610646565b612d7085858585613731565b6002612d8e82613798565b6003811115612d9f57612d9f6158f1565b14612dec5760405162461bcd60e51b815260206004820152601d60248201527f596f752073686f756c6420696e206578706c6f72696e67207374617465000000604482015260640161035f565b612df98161009b83613850565b60005b612e257fd1339036fc56bed2f5d5cf59ecb6aa2cb46611189a4a1a96a51eec50fc76ee246138e7565b811015612f3657816001600160a01b0316612e607fd1339036fc56bed2f5d5cf59ecb6aa2cb46611189a4a1a96a51eec50fc76ee248361399a565b6001600160a01b031603612f2457612ef67fd1339036fc56bed2f5d5cf59ecb6aa2cb46611189a4a1a96a51eec50fc76ee2482612ef17fd1339036fc56bed2f5d5cf59ecb6aa2cb46611189a4a1a96a51eec50fc76ee246001612ee27fd1339036fc56bed2f5d5cf59ecb6aa2cb46611189a4a1a96a51eec50fc76ee246138e7565b612eec9190615b78565b61399a565b613a65565b612f1f7fd1339036fc56bed2f5d5cf59ecb6aa2cb46611189a4a1a96a51eec50fc76ee24613b3a565b612f36565b80612f2e81615bdb565b915050612dfc565b50612f42816001610c61565b612f4c8142613bdc565b50565b604080516001808252818301909252600091829190602080830190803683370190505090508281600081518110612f8857612f8861595f565b6020908102919091018101919091526040805160009281018390527f47616d65436f6e66696700000000000000000000000000000000000000000000603082015261089c9101604051602081830303815290604052612fe690615975565b836006610897613c77565b612ff961575d565b60408051600180825281830190925260009160208083019080368337019050509050826001600160a01b031660001b8160008151811061303b5761303b61595f565b60209081029190910181019190915260408051600092810183905265283630bcb2b960d11b603082015261308b910160405160208183030381529060405261308290615975565b83610636611373565b905061064681613e51565b6130d382826000015183602001518460400151856060015186608001518760a001518860c001518960e001518a61010001518b610120015161400a565b5050565b60408051600180825281830190925260009160208083019080368337019050509050826001600160a01b031660001b816000815181106131195761311961595f565b6020908102919091018101919091526040805160008184015265283630bcb2b960d11b603082015281518082039093018352810190526100a09061315c90615975565b6040517fffff00000000000000000000000000000000000000000000000000000000000060f086901b1660208201528390600a9060220161050d565b60408051600180825281830190925260009160208083019080368337019050509050826001600160a01b031660001b816000815181106131da576131da61595f565b6020908102919091018101919091526040805160008184015265283630bcb2b960d11b603082015281518082039093018352810190526100a09061321d90615975565b6040517fffff00000000000000000000000000000000000000000000000000000000000060f086901b1660208201528390600b9060220161050d565b60408051600180825281830190925260009160208083019080368337019050509050828160008151811061328f5761328f61595f565b602090810291909101810191909152604080516000818401527f47616d65436f6e66696700000000000000000000000000000000000000000000603082015281518082039093018352810190526100a0906132e990615975565b826006856040516020016132ff91815260200190565b604051602081830303815290604052610524613c77565b60408051600180825281830190925260009182919060208083019080368337019050509050601f816000815181106118005761180061595f565b6000808260c5811115613365576133656158f1565b60ff169050606181101561337f57601f1660010192915050565b60618360c5811115613393576133936158f1565b036133a15750601492915050565b50600092915050565b50919050565b604080516001808252818301909252606091600091906020808301908036833701905050905082816000815181106133ea576133ea61595f565b602090810291909101810191909152604080517f6d756473746f7265000000000000000000000000000000000000000000000000818401527f486f6f6b73000000000000000000000000000000000000000000000000000000603082015281518082039093018352810190526000906134719061346690615975565b836000610897614158565b90506106466134838260008451614192565b614222565b600060e8825b60ff911c1692915050565b60006134a88460ff8516614233565b905081516134c18260c58111156128df576128df6158f1565b14613518576134db8160c58111156128df576128df6158f1565b82516040517f521b3d330000000000000000000000000000000000000000000000000000000081526004810192909252602482015260440161035f565b60006135248787614259565b9050600061353286866142af565b90506109ad8282866142fb565b600061354a84613488565b6135549084615c14565b9050613563868683855161430b565b60006135708787846135c0565b9050612bdc816000856142fb565b600060e08261348e565b600080613595848461433a565b9050610646815490565b81156107fa5760006135b18585614259565b9050610b418184600085613619565b60007f86425bff6b57326c7859e89024fe4f238ca327a1ae4a230180dd2f0e88aaa7d98484846040516020016135f99493929190615c37565b60408051601f198184030181529190528051602090910120949350505050565b811561368b57602082106136435760208204840193506020828161363f5761363f6158c7565b0691505b811561368b5760208290036000600019600883021c1990508554600885021b81198451168282161784525081851161367c5750506107fa565b50600194909401939283900392015b5b602083106136ad5783548152600190930192601f199092019160200161368c565b82156107fa576000600019600885021c198251865482169119161782525050505050565b606060006136e28360ff8616614233565b905060006136fb8260c58111156128df576128df6158f1565b905060006137098888614259565b9050600061371786886142af565b9050613724828483614371565b9998505050505050505050565b6060600061373e83613488565b6137489085615c14565b905060006137578787846135c0565b9050600061377e836137698a8a613588565b9060ff166028026038011c64ffffffffff1690565b905061378c82826000614371565b98975050505050505050565b60408051600180825281830190925260009182919060208083019080368337019050509050826001600160a01b031660001b816000815181106137dd576137dd61595f565b60209081029190910181019190915260408051600092810183905265283630bcb2b960d11b603082015261382f910160405160208183030381529060405261382490615975565b83600c610897611373565b905061383c8160006120df565b60f81c6003811115610646576106466158f1565b60408051600180825281830190925260009182919060208083019080368337019050509050826001600160a01b031660001b816000815181106138955761389561595f565b60209081029190910181019190915260408051600092810183905265283630bcb2b960d11b603082015261089c91016040516020818303038152906040526138dc90615975565b83600e610897611373565b6040805160018082528183019092526000918291906020808301908036833701905050905082816000815181106139205761392061595f565b6020908102919091018101919091526040805160009281018390527f426174746c65436f6e6669670000000000000000000000000000000000000000603082015261398e910160405160208183030381529060405261397e90615975565b836005613989614394565b614528565b60149004949350505050565b6040805160018082528183019092526000918291906020808301908036833701905050905083816000815181106139d3576139d361595f565b6020908102919091018101919091526040805160009281018390527f426174746c65436f6e66696700000000000000000000000000000000000000006030820152613a4c9101604051602081830303815290604052613a3190615975565b836005613a3c614394565b88601402896001016014026145dd565b9050613a598160006120df565b60601c95945050505050565b604080516001808252818301909252600091602080830190803683370190505090508381600081518110613a9b57613a9b61595f565b602090810291909101810191909152604080516000818401527f426174746c65436f6e6669670000000000000000000000000000000000000000603082015281518082039093018352810190526107fa90613af590615975565b6040516bffffffffffffffffffffffff19606086901b16602082015283906005906014880290603401604051602081830303815290604052613b35614394565b6146af565b604080516001808252818301909252600091602080830190803683370190505090508181600081518110613b7057613b7061595f565b602090810291909101810191909152604080516000818401527f426174746c65436f6e6669670000000000000000000000000000000000000000603082015281518082039093018352810190526130d390613bca90615975565b8260056014613bd7614394565b614768565b60408051600180825281830190925260009160208083019080368337019050509050826001600160a01b031660001b81600081518110613c1e57613c1e61595f565b6020908102919091018101919091526040805160008184015265283630bcb2b960d11b603082015281518082039093018352810190526100a090613c6190615975565b82600d8560405160200161050d91815260200190565b60408051600780825261010082019092526000918291906020820160e080368337019050509050605f81600081518110613cb357613cb361595f565b602002602001019060c5811115613ccc57613ccc6158f1565b908160c5811115613cdf57613cdf6158f1565b81525050601f81600181518110613cf857613cf861595f565b602002602001019060c5811115613d1157613d116158f1565b908160c5811115613d2457613d246158f1565b81525050601f81600281518110613d3d57613d3d61595f565b602002602001019060c5811115613d5657613d566158f1565b908160c5811115613d6957613d696158f1565b81525050600181600381518110613d8257613d8261595f565b602002602001019060c5811115613d9b57613d9b6158f1565b908160c5811115613dae57613dae6158f1565b81525050600181600481518110613dc757613dc761595f565b602002602001019060c5811115613de057613de06158f1565b908160c5811115613df357613df36158f1565b81525050601f81600581518110613e0c57613e0c61595f565b602002602001019060c5811115613e2557613e256158f1565b908160c5811115613e3857613e386158f1565b81525050601f816006815181106118005761180061595f565b613e5961575d565b6000613e67836101496120df565b9050613e748360006120df565b8252613e818360206120df565b6020830152613e918360406120df565b60f01c6040830152613ea48360426120df565b60f01c6060830152613eb78360446120df565b6080830152613ec78360646120df565b60a0830152613ed78360846120df565b60c0830152613ee78360a46120df565b60e0830152613ef78360c46120df565b610100830152613f088360e46120df565b610120830152613f1a836101046120df565b60f01c610140830152613f2f836101066120df565b60f01c610160830152613f44836101086120df565b60f81c6003811115613f5857613f586158f1565b8261018001906003811115613f6f57613f6f6158f1565b90816003811115613f8257613f826158f1565b905250613f91836101096120df565b6101a0830152613fa3836101296120df565b6101c0830152825161014910156133aa57610169603882901c64ffffffffff168101613fd8613fd3868484614192565b6147de565b6101e085015290508064ffffffffff606084901c1601613ffc613fd3868484614192565b610200850152505050919050565b6040805160208082018d90527fffff00000000000000000000000000000000000000000000000000000000000060f08d811b8216848601528c811b821660428501528b811b821660448501528a901b16604683015260488201889052606882018790526088820186905284151560f81b60a88301526bffffffffffffffffffffffff19606085901b1660a98301528251609d818403018152600160bd840181815260fd85019095529093600093909260dd90910190803683370190505090508c60001b816000815181106140e0576140e061595f565b602090810291909101810191909152604080516000818401527f426f784c69737400000000000000000000000000000000000000000000000000603082015281518082039093018352810190526141499061413a90615975565b828461414461485e565b614b08565b50505050505050505050505050565b6040805160018082528183019092526000918291906020808301908036833701905050905060c3816000815181106118005761180061595f565b60008183111580156141a5575083518211155b6141e1578383836040517f23230fa300000000000000000000000000000000000000000000000000000000815260040161035f93929190615c6a565b602084016141ef8482615b8f565b905060006141fd8585615b78565b6fffffffffffffffffffffffffffffffff1660809290921b9190911795945050505050565b60606000611dfc8360146060614bb9565b600081601b036008026142438490565b60ff911c1660c5811115611dfc57611dfc6158f1565b60007f86425bff6b57326c7859e89024fe4f238ca327a1ae4a230180dd2f0e88aaa7d9838360405160200161429093929190615c8f565b60408051601f1981840301815291905280516020909101209392505050565b600080805b8360ff16811015611dfa576142dd6142cc8683614233565b60c58111156128df576128df6158f1565b6142e79083615b8f565b9150806142f381615bdb565b9150506142b4565b6100a08383602084018451614cb1565b6000614317858561433a565b90506000614323825490565b9050614330818585614d71565b8083559050610276565b60007f86425bff6b57326c7859e89024fe4f238ca327a1ae4a230180dd2f0e88aaa7d9838360405160200161429093929190615cb7565b60405160208101601f19603f8584010116604052838252611dfa85858584613619565b60408051600680825260e082019092526000918291906020820160c080368337019050509050601f816000815181106143cf576143cf61595f565b602002602001019060c58111156143e8576143e86158f1565b908160c58111156143fb576143fb6158f1565b81525050601f816001815181106144145761441461595f565b602002602001019060c581111561442d5761442d6158f1565b908160c5811115614440576144406158f1565b81525050601f816002815181106144595761445961595f565b602002602001019060c5811115614472576144726158f1565b908160c5811115614485576144856158f1565b81525050601f8160038151811061449e5761449e61595f565b602002602001019060c58111156144b7576144b76158f1565b908160c58111156144ca576144ca6158f1565b81525050601f816004815181106144e3576144e361595f565b602002602001019060c58111156144fc576144fc6158f1565b908160c581111561450f5761450f6158f1565b8152505060c3816005815181106118005761180061595f565b6000806145336129d8565b9050306001600160a01b038216036145515761204786868686614e40565b6040517f9f1fcf0a0000000000000000000000000000000000000000000000000000000081526001600160a01b03821690639f1fcf0a9061459c908990899089908990600401615b49565b602060405180830381865afa1580156145b9573d6000803e3d6000fd5b505050506040513d601f19601f820116820180604052508101906120479190615d17565b606060006145e96129d8565b9050306001600160a01b0382160361461157614609888888888888614ea7565b9150506146a5565b6040517fd3a26b060000000000000000000000000000000000000000000000000000000081526001600160a01b0382169063d3a26b0690614660908b908b908b908b908b908b90600401615d30565b600060405180830381865afa15801561467d573d6000803e3d6000fd5b505050506040513d6000823e601f3d908101601f191682016040526146099190810190615a9c565b9695505050505050565b60006146b96129d8565b9050306001600160a01b038216036146de576146d9878787878787614f3a565b612bdc565b6040517f319141480000000000000000000000000000000000000000000000000000000081526001600160a01b0382169063319141489061472d908a908a908a908a908a908a90600401615d71565b600060405180830381600087803b15801561474757600080fd5b505af115801561475b573d6000803e3d6000fd5b5050505050505050505050565b60006147726129d8565b9050306001600160a01b038216036147915761186786868686866151ce565b6040517f6e161b760000000000000000000000000000000000000000000000000000000081526001600160a01b03821690636e161b76906118b99089908990899089908990600401615dbf565b606060006147ec8360801c90565b90506fffffffffffffffffffffffffffffffff83168067ffffffffffffffff81111561481a5761481a615949565b6040519080825280601f01601f191660200182016040528015614844576020820181803683370190505b509250602083016148568382846153e3565b505050919050565b60408051600a80825261016082019092526000918291906020820161014080368337019050509050601f8160008151811061489b5761489b61595f565b602002602001019060c58111156148b4576148b46158f1565b908160c58111156148c7576148c76158f1565b815250506001816001815181106148e0576148e061595f565b602002602001019060c58111156148f9576148f96158f1565b908160c581111561490c5761490c6158f1565b815250506001816002815181106149255761492561595f565b602002602001019060c581111561493e5761493e6158f1565b908160c5811115614951576149516158f1565b8152505060018160038151811061496a5761496a61595f565b602002602001019060c5811115614983576149836158f1565b908160c5811115614996576149966158f1565b815250506001816004815181106149af576149af61595f565b602002602001019060c58111156149c8576149c86158f1565b908160c58111156149db576149db6158f1565b81525050601f816005815181106149f4576149f461595f565b602002602001019060c5811115614a0d57614a0d6158f1565b908160c5811115614a2057614a206158f1565b81525050601f81600681518110614a3957614a3961595f565b602002602001019060c5811115614a5257614a526158f1565b908160c5811115614a6557614a656158f1565b81525050601f81600781518110614a7e57614a7e61595f565b602002602001019060c5811115614a9757614a976158f1565b908160c5811115614aaa57614aaa6158f1565b81525050606081600881518110614ac357614ac361595f565b602002602001019060c5811115614adc57614adc6158f1565b908160c5811115614aef57614aef6158f1565b815250506061816009815181106118005761180061595f565b6000614b126129d8565b9050306001600160a01b03821603614b3557614b308585858561542f565b610b41565b6040517fb368b9980000000000000000000000000000000000000000000000000000000081526001600160a01b0382169063b368b99890614b80908890889088908890600401615df8565b600060405180830381600087803b158015614b9a57600080fd5b505af1158015614bae573d6000803e3d6000fd5b505050505050505050565b60606000614bc78560801c90565b90506fffffffffffffffffffffffffffffffff85166000858281614bed57614bed6158c7565b049050614bfa8683615e35565b15614c6d5760405162461bcd60e51b815260206004820152603d60248201527f756e7061636b546f41727261793a207061636b65644c656e677468206d75737460448201527f2062652061206d756c7469706c65206f6620656c656d656e7453697a65000000606482015260840161035f565b60405193506020840160208202810160405281855260005b82811015614ca5578451871c825293870193602090910190600101614c85565b50505050509392505050565b8215614d2b5760208310614cdb57602083048401935060208381614cd757614cd76158c7565b0692505b8215614d2b5760208390036000600019600884021c1990506008850281811c91508451811c9050811987541682821617875550818311614d1c5750506107fa565b50600194909401939182019190035b5b60208110614d4d5781518455600190930192602090910190601f1901614d2c565b80156107fa576000600019600883021c198554845182169119161785555050505050565b600064ffffffffff821115614db5576040517f476705880000000000000000000000000000000000000000000000000000000081526004810183905260240161035f565b8366ffffffffffffff811660ff851660280260380182901c64ffffffffff16808510614de75780850382019150614def565b848103820391505b5064ffffffffff6038602860ff8816020190811b80197fffffffffffffffffffffffffffffffffffffffffffffffffff0000000000000094909416909217929092169184901b161790509392505050565b600080614e4c83613488565b90508060ff168460ff161015614e8b576000614e6b8460ff8716614233565b9050614e828160c58111156128df576128df6158f1565b92505050610646565b6000614e978286615c14565b9050614e82816137698989613588565b60606000614eb485613488565b9050614ebf85613488565b8660ff161015614efb576040517f14306eb800000000000000000000000000000000000000000000000000000000815260040160405180910390fd5b6000614f078288615c14565b90506000614f168a8a846135c0565b9050614f2c81614f268888615b78565b88614371565b9a9950505050505050505050565b614f4381613488565b8460ff161015614f7f576040517f14306eb800000000000000000000000000000000000000000000000000000000815260040160405180910390fd5b64ffffffffff831115614fcc576040517f7cd3b80700000000000000000000000000000000000000000000000000000000815264ffffffffff60048201526024810184905260440161035f565b60606000614fdc88888886613731565b9050614fed613fd382600088614192565b84615009613fd38488518a6150029190615b8f565b8651614192565b60405160200161501b93929190615e49565b6040516020818303038152906040529150507fd01f9f1368f831528fc9fe6442366b2b7d957fbfff3bcf7c24d9ab5fe51f8c46878787846040516150629493929190615ba7565b60405180910390a16000615075886133b0565b905060005b815181101561511b5760008282815181106150975761509761595f565b60200260200101519050806001600160a01b031663bf11b74e8b8b8b888a6040518663ffffffff1660e01b81526004016150d5959493929190615a2c565b600060405180830381600087803b1580156150ef57600080fd5b505af1158015615103573d6000803e3d6000fd5b5050505050808061511390615bdb565b91505061507a565b5061512a8888858989896155ee565b60005b8151811015614bae57600082828151811061514a5761514a61595f565b60200260200101519050806001600160a01b0316637da508a28b8b8b888a6040518663ffffffff1660e01b8152600401615188959493929190615a2c565b600060405180830381600087803b1580156151a257600080fd5b505af11580156151b6573d6000803e3d6000fd5b505050505080806151c690615bdb565b91505061512d565b6151d781613488565b8360ff161015615213576040517f14306eb800000000000000000000000000000000000000000000000000000000815260040160405180910390fd5b6060600061522387878786613731565b9050615240613fd382600087855161523b9190615b78565b614192565b9150507fd01f9f1368f831528fc9fe6442366b2b7d957fbfff3bcf7c24d9ab5fe51f8c46868686846040516152789493929190615ba7565b60405180910390a1600061528b876133b0565b905060005b81518110156153315760008282815181106152ad576152ad61595f565b60200260200101519050806001600160a01b031663bf11b74e8a8a8a888a6040518663ffffffff1660e01b81526004016152eb959493929190615a2c565b600060405180830381600087803b15801561530557600080fd5b505af1158015615319573d6000803e3d6000fd5b5050505050808061532990615bdb565b915050615290565b5061533f8787858888615612565b60005b81518110156109ad57600082828151811061535f5761535f61595f565b60200260200101519050806001600160a01b0316637da508a28a8a8a888a6040518663ffffffff1660e01b815260040161539d959493929190615a2c565b600060405180830381600087803b1580156153b757600080fd5b505af11580156153cb573d6000803e3d6000fd5b505050505080806153db90615bdb565b915050615342565b5b60208110615403578251825260209283019290910190601f19016153e4565b8060000361541057505050565b6000600019600883021c19905080198351168185511617835250505050565b60008061543c8385615680565b915091507f912af873e852235aae78a1d25ae9bb28b616a67c36898c53a14fd8184504ee3286868660405161547393929190615e8c565b60405180910390a16000615486876133b0565b905060005b815181101561552a5760008282815181106154a8576154a861595f565b60200260200101519050806001600160a01b031663b08679bf8a8a8a8a6040518563ffffffff1660e01b81526004016154e49493929190615df8565b600060405180830381600087803b1580156154fe57600080fd5b505af1158015615512573d6000803e3d6000fd5b5050505050808061552290615bdb565b91505061548b565b5060006155378888614259565b90506020860161554a8260008388614cb1565b615555856020615b8f565b61555f9082615b8f565b905061556a8661357e565b60000361557b5750505050506107fa565b60006155878a8a61433a565b858155905060008060005b61559b8a61357e565b8160ff161015614149576155b08d8d836135c0565b92506155cb888260ff166028026038011c64ffffffffff1690565b91506155da8360008785614cb1565b6155e48286615b8f565b9450600101615592565b60006155f985613488565b6156039085615c14565b9050612bdc878783868661571d565b600061561d84613488565b6156279084615c14565b90506000615635878761433a565b90506000615641825490565b9050600061565e828560ff166028026038011c64ffffffffff1690565b90506156768461566e8784615b78565b849190614d71565b8084559150614bae565b60008061568d8460f01c90565b915081600061569b8661357e565b11156156ce576156ab84846120df565b91506156c166ffffffffffffff83166020615b8f565b6156cb9082615b8f565b90505b835181146157155783516040517f521b3d3300000000000000000000000000000000000000000000000000000000815261035f918391600401918252602082015260400190565b509250929050565b600061572a8686866135c0565b90506157376020846158dd565b6157419082615b8f565b90506000615750602085615e35565b9050612bdc8282856142fb565b6040518061022001604052806000815260200160008152602001600061ffff168152602001600061ffff168152602001600081526020016000815260200160008152602001600081526020016000815260200160008152602001600061ffff168152602001600061ffff168152602001600060038111156157e0576157e06158f1565b8152602001600081526020016000815260200160608152602001606081525090565b60008060006060848603121561581757600080fd5b833592506020840135915060408401356001600160a01b038116811461583c57600080fd5b809150509250925092565b60006020828403121561585957600080fd5b5035919050565b6000806000806080858703121561587657600080fd5b5050823594602084013594506040840135936060013592509050565b634e487b7160e01b600052601160045260246000fd5b60008160001904831182151516156158c2576158c2615892565b500290565b634e487b7160e01b600052601260045260246000fd5b6000826158ec576158ec6158c7565b500490565b634e487b7160e01b600052602160045260246000fd5b838152606081016004841061592c57634e487b7160e01b600052602160045260246000fd5b8360208301526001600160a01b0383166040830152949350505050565b634e487b7160e01b600052604160045260246000fd5b634e487b7160e01b600052603260045260246000fd5b805160208083015191908110156133aa5760001960209190910360031b1b16919050565b600081518084526020808501945080840160005b838110156159c9578151875295820195908201906001016159ad565b509495945050505050565b60005b838110156159ef5781810151838201526020016159d7565b838111156107fa5750506000910152565b60008151808452615a188160208601602086016159d4565b601f01601f19169290920160200192915050565b85815260a060208201526000615a4560a0830187615999565b60ff861660408401528281036060840152615a608186615a00565b9150508260808301529695505050505050565b838152606060208201526000615a8c6060830185615999565b9050826040830152949350505050565b600060208284031215615aae57600080fd5b815167ffffffffffffffff80821115615ac657600080fd5b818401915084601f830112615ada57600080fd5b815181811115615aec57615aec615949565b604051601f8201601f19908116603f01168101908382118183101715615b1457615b14615949565b81604052828152876020848701011115615b2d57600080fd5b615b3e8360208301602088016159d4565b979650505050505050565b848152608060208201526000615b626080830186615999565b60ff949094166040830152506060015292915050565b600082821015615b8a57615b8a615892565b500390565b60008219821115615ba257615ba2615892565b500190565b848152608060208201526000615bc06080830186615999565b60ff851660408401528281036060840152615b3e8185615a00565b60006000198203615bee57615bee615892565b5060010190565b600060ff821660ff8103615c0b57615c0b615892565b60010192915050565b600060ff821660ff841680821015615c2e57615c2e615892565b90039392505050565b848152836020820152608060408201526000615c566080830185615999565b905060ff8316606083015295945050505050565b606081526000615c7d6060830186615a00565b60208301949094525060400152919050565b838152826020820152606060408201526000615cae6060830184615999565b95945050505050565b838152826020820152608060408201526000615cd66080830184615999565b8281036060840152600681527f6c656e6774680000000000000000000000000000000000000000000000000000602082015260408101915050949350505050565b600060208284031215615d2957600080fd5b5051919050565b86815260c060208201526000615d4960c0830188615999565b905060ff861660408301528460608301528360808301528260a0830152979650505050505050565b86815260c060208201526000615d8a60c0830188615999565b60ff871660408401528560608401528281036080840152615dab8186615a00565b9150508260a0830152979650505050505050565b85815260a060208201526000615dd860a0830187615999565b60ff95909516604083015250606081019290925260809091015292915050565b848152608060208201526000615e116080830186615999565b8281036040840152615e238186615a00565b91505082606083015295945050505050565b600082615e4457615e446158c7565b500690565b60008451615e5b8184602089016159d4565b845190830190615e6f8183602089016159d4565b8451910190615e828183602088016159d4565b0195945050505050565b838152606060208201526000615ea56060830185615999565b82810360408401526146a58185615a0056fea26469706673582212205d7fa685c01e35f4dea8b6eecd0399ea0bcc14902ba477b8c6dd72d621fc77bc64736f6c634300080d0033",
    "linkReferences": {}
  },
  "methodIdentifiers": {
    "raisePlayerHp(uint256,uint256,address)": "4e04dcff",
    "revealBattle(uint256,bytes32,uint256,bytes32)": "fdec9328",
    "revealWinner(uint256)": "8ccb59e8"
  },
  "id": 143
}