{
  "abi": [
    {
      "inputs": [
        {
          "internalType": "uint256",
          "name": "length",
          "type": "uint256"
        }
      ],
      "name": "PackedCounter_InvalidLength",
      "type": "error"
    },
    {
      "inputs": [
        {
          "internalType": "uint256",
          "name": "length",
          "type": "uint256"
        }
      ],
      "name": "SchemaLib_InvalidLength",
      "type": "error"
    },
    {
      "inputs": [],
      "name": "SchemaLib_StaticTypeAfterDynamicType",
      "type": "error"
    },
    {
      "inputs": [
        {
          "internalType": "bytes",
          "name": "data",
          "type": "bytes"
        },
        {
          "internalType": "uint256",
          "name": "start",
          "type": "uint256"
        },
        {
          "internalType": "uint256",
          "name": "end",
          "type": "uint256"
        }
      ],
      "name": "Slice_OutOfBounds",
      "type": "error"
    },
    {
      "inputs": [
        {
          "internalType": "uint256",
          "name": "expected",
          "type": "uint256"
        },
        {
          "internalType": "uint256",
          "name": "received",
          "type": "uint256"
        }
      ],
      "name": "StoreCore_InvalidDataLength",
      "type": "error"
    },
    {
      "inputs": [
        {
          "internalType": "uint256",
          "name": "_boxId",
          "type": "uint256"
        },
        {
          "internalType": "uint16",
          "name": "_oreAmount",
          "type": "uint16"
        },
        {
          "internalType": "uint16",
          "name": "_treasureAmount",
          "type": "uint16"
        }
      ],
      "name": "getCollections",
      "outputs": [],
      "stateMutability": "nonpayable",
      "type": "function"
    },
    {
      "inputs": [
        {
          "internalType": "uint256",
          "name": "_boxId",
          "type": "uint256"
        }
      ],
      "name": "openBox",
      "outputs": [],
      "stateMutability": "nonpayable",
      "type": "function"
    },
    {
      "inputs": [
        {
          "internalType": "uint256",
          "name": "_boxId",
          "type": "uint256"
        }
      ],
      "name": "revealBox",
      "outputs": [],
      "stateMutability": "nonpayable",
      "type": "function"
    }
  ],
  "bytecode": {
    "object": "0x608060405234801561001057600080fd5b5061448e806100206000396000f3fe608060405234801561001057600080fd5b50600436106100415760003560e01c80636981e60714610046578063b1e5e2b71461005b578063f0d744ed1461006e575b600080fd5b610059610054366004613e1c565b610081565b005b610059610069366004613e1c565b6101ee565b61005961007c366004613e47565b610495565b600061008c82610835565b90506100966109d3565b6001600160a01b03168161012001516001600160a01b0316146101005760405162461bcd60e51b815260206004820152601560248201527f796f7520617265206e6f7420746865206f776e6572000000000000000000000060448201526064015b60405180910390fd5b6101436040518060400160405280600981526020017f72616e646f6d49642000000000000000000000000000000000000000000000008152508260a00151610a05565b600061015c6101506109d3565b8360a001516002610a7c565b905060006101898260008151811061017657610176613e83565b60200260200101516014600a6001610cb9565b905060006101b6836001815181106101a3576101a3613e83565b60200260200101516050600a6001610cb9565b90506101c5858360ff16610d70565b6101d2858260ff16610e46565b6101dd856001610eff565b6101e78542610f97565b5050505050565b6101f78161102a565b6000036102465760405162461bcd60e51b815260206004820152600b60248201527f496e76616c696420626f7800000000000000000000000000000000000000000060448201526064016100f7565b600061025182610835565b90506102976040518060400160405280600b81526020017f20626f78206f776e6572200000000000000000000000000000000000000000008152508261012001516110cb565b6101208101516001600160a01b0316158015906102d257506102b76109d3565b6001600160a01b03168161012001516001600160a01b031614155b1561031f5760405162461bcd60e51b815260206004820152601660248201527f626f7820616c72656164792068617665206f776e65720000000000000000000060448201526064016100f7565b610100810151156103725760405162461bcd60e51b815260206004820152600d60248201527f426f78206973206f70656e65640000000000000000000000000000000000000060448201526064016100f7565b600061038461037f6109d3565b61113e565b90506103a282602001518260400151846040015184606001516111e3565b6103ee5760405162461bcd60e51b815260206004820152601860248201527f596f7520617265206e6f74206e6561722074686520626f78000000000000000060448201526064016100f7565b6101208201516001600160a01b0316610412576104128361040d6109d3565b611239565b600061043d7f155015ae9c496f0f6fd931019b5913c67e630cdcf50b1101aeda4bb69f21060e6112f2565b90506104498482611394565b61047d7f155015ae9c496f0f6fd931019b5913c67e630cdcf50b1101aeda4bb69f21060e610478836001613eaf565b611427565b61048f814361048a6109d3565b6114e4565b50505050565b60006104a084610835565b90506104aa6109d3565b6001600160a01b03168161012001516001600160a01b03161461050f5760405162461bcd60e51b815260206004820152601560248201527f796f7520617265206e6f7420746865206f776e6572000000000000000000000060448201526064016100f7565b600061051f82610120015161113e565b905061053d82602001518260400151846040015184606001516111e3565b6105895760405162461bcd60e51b815260206004820152601860248201527f596f7520617265206e6f74206e6561722074686520626f78000000000000000060448201526064016100f7565b61010082015115156001146105e05760405162461bcd60e51b815260206004820152601160248201527f426f78206973206e6f74206f70656e656400000000000000000000000000000060448201526064016100f7565b6106097fd1339036fc56bed2f5d5cf59ecb6aa2cb46611189a4a1a96a51eec50fc76ee24611596565b8260e001516106189190613eaf565b4210156106ab578161012001516001600160a01b0316336001600160a01b0316146106ab5760405162461bcd60e51b815260206004820152602e60248201527f54686520626f782069732077616974696e6720666f7220697473206f70656e6560448201527f722c20706c65617365207761697400000000000000000000000000000000000060648201526084016100f7565b6106de60405180606001604052806022815260200161443760229139836060015161ffff16846080015161ffff16611638565b816060015161ffff168461ffff16111580156107065750816080015161ffff168361ffff1611155b6107525760405162461bcd60e51b815260206004820152600e60248201527f496e76616c696420616d6f756e7400000000000000000000000000000000000060448201526064016100f7565b61075b336116ad565b8461076a846101200151611744565b6107749190613ec7565b61ffff16106107c55760405162461bcd60e51b815260206004820152601360248201527f4e6f7420656e6f75676820737472656e6774680000000000000000000000000060448201526064016100f7565b6107de858584606001516107d99190613eed565b610d70565b6107f7858484608001516107f29190613eed565b610e46565b610816826101200151858361014001516108119190613ec7565b6117ea565b6101e7826101200151848361016001516108309190613ec7565b6118be565b6040805161014081018252600080825260208201819052818301819052606082018190526080820181905260a0820181905260c0820181905260e08201819052610100820181905261012082018190528251600180825281850190945291929091908160200160208202803683370190505090508260001b816000815181106108c0576108c0613e83565b60209081029190910181019190915260408051600092810183905266109bde131a5cdd60ca1b6030820152610916910160405160208183030381529060405261090890613f26565b8361091161197f565b611c67565b60408051610140810182526000808252602080830182815283850183815260608086018581526080870186815260a0880187815260c0890188815260e08a018981526101008b018a81526101208c019a8b52988d01518b529a8c015160f090811c90975260428c0151871c90955260448b0151861c90925260468a015190941c909352604888015190925260688701519052608886015190945260a885015160f81c1515905260a984015190921c9091529091505b949350505050565b7fffffffffffffffffffffffffffffffffffffffffffffffffffffffffffffffec36013560601c80610a025750335b90565b610a788282604051602401610a1b929190613fa2565b60408051601f198184030181529190526020810180517bffffffffffffffffffffffffffffffffffffffffffffffffffffffff167f9710a9d000000000000000000000000000000000000000000000000000000000179052611d2e565b5050565b6060610ac66040518060400160405280600881526020017f20617574686f7220000000000000000000000000000000000000000000000000815250610ac085611d4f565b86611e03565b610acf83611d4f565b6001600160a01b0316846001600160a01b031614610b555760405162461bcd60e51b815260206004820152602260248201527f6f6e6c792072616e646f6d2063726561746f722063616e206765742072616e6460448201527f6f6d00000000000000000000000000000000000000000000000000000000000060648201526084016100f7565b60008267ffffffffffffffff811115610b7057610b70613f10565b604051908082528060200260200182016040528015610b99578160200160208202803683370190505b5090506000610ba785611e78565b8051909150610bb7906002613eaf565b431015610c065760405162461bcd60e51b815260206004820152601c60248201527f746f6f206561726c7920746f206765742072616e646f6d20736565640000000060448201526064016100f7565b8051600090610c16906002613eaf565b604080519140602083018190529250600091016040516020818303038152906040528051906020012060001c905060005b868160ff161015610caa576000610c5f606484613fda565b905080868360ff1681518110610c7757610c77613e83565b60ff90921660209283029190910190910152610c94606484613fee565b9250508080610ca290614002565b915050610c47565b509293505050505b9392505050565b6000808460ff16118015610cd0575060008260ff16115b8015610cdf575060008360ff16115b610d2b5760405162461bcd60e51b815260206004820152600e60248201527f696e76616c696420706172616d7300000000000000000000000000000000000060448201526064016100f7565b6000610d378686611f5c565b955060ff861615610d64576000610d4e8588614021565b9050610d5a8482614043565b92506109cb915050565b50600095945050505050565b604080516001808252818301909252600091602080830190803683370190505090508260001b81600081518110610da957610da9613e83565b6020908102919091018101919091526040805160008184015266109bde131a5cdd60ca1b60308201528151808203909301835281019052610e4190610ded90613f26565b6040517fffff00000000000000000000000000000000000000000000000000000000000060f086901b16602082015283906003906022015b604051602081830303815290604052610e3c61197f565b611f87565b505050565b604080516001808252818301909252600091602080830190803683370190505090508260001b81600081518110610e7f57610e7f613e83565b6020908102919091018101919091526040805160008184015266109bde131a5cdd60ca1b60308201528151808203909301835281019052610e4190610ec390613f26565b6040517fffff00000000000000000000000000000000000000000000000000000000000060f086901b1660208201528390600490602201610e25565b604080516001808252818301909252600091602080830190803683370190505090508260001b81600081518110610f3857610f38613e83565b6020908102919091018101919091526040805160008184015266109bde131a5cdd60ca1b60308201528151808203909301835281019052610e4190610f7c90613f26565b82600885604051602001610e2591151560f81b815260010190565b604080516001808252818301909252600091602080830190803683370190505090508260001b81600081518110610fd057610fd0613e83565b6020908102919091018101919091526040805160008184015266109bde131a5cdd60ca1b60308201528151808203909301835281019052610e419061101490613f26565b82600785604051602001610e2591815260200190565b604080516001808252818301909252600091829190602080830190803683370190505090508260001b8160008151811061106657611066613e83565b60209081029190910181019190915260408051600092810183905266109bde131a5cdd60ca1b60308201526110be91016040516020818303038152906040526110ae90613f26565b8360066110b961197f565b61203d565b60208101519091506109cb565b610a7882826040516024016110e192919061406c565b60408051601f198184030181529190526020810180517bffffffffffffffffffffffffffffffffffffffffffffffffffffffff167f319af33300000000000000000000000000000000000000000000000000000000179052611d2e565b611146613d77565b60408051600180825281830190925260009160208083019080368337019050509050826001600160a01b031660001b8160008151811061118857611188613e83565b60209081029190910181019190915260408051600092810183905265283630bcb2b960d11b60308201526111d891016040516020818303038152906040526111cf90613f26565b836109116120ff565b90506109cb8161258c565b6000806111f086866126e9565b905060006111fe85856126e9565b905060018261ffff161115801561121a575060018161ffff1611155b801561122e57508061ffff168261ffff1614155b979650505050505050565b604080516001808252818301909252600091602080830190803683370190505090508260001b8160008151811061127257611272613e83565b6020908102919091018101919091526040805160008184015266109bde131a5cdd60ca1b60308201528151808203909301835281019052610e41906112b690613f26565b6040517fffffffffffffffffffffffffffffffffffffffff000000000000000000000000606086901b1660208201528390600990603401610e25565b60408051600180825281830190925260009182919060208083019080368337019050509050828160008151811061132b5761132b613e83565b6020908102919091018101919091526040805160009281018390527f47616d65436f6e6669670000000000000000000000000000000000000000000060308201526110be910160405160208183030381529060405261138990613f26565b8360026110b9612716565b604080516001808252818301909252600091602080830190803683370190505090508260001b816000815181106113cd576113cd613e83565b6020908102919091018101919091526040805160008184015266109bde131a5cdd60ca1b60308201528151808203909301835281019052610e419061141190613f26565b82600585604051602001610e2591815260200190565b60408051600180825281830190925260009160208083019080368337019050509050828160008151811061145d5761145d613e83565b602090810291909101810191909152604080516000818401527f47616d65436f6e6669670000000000000000000000000000000000000000000060308201528151808203909301835281019052610e41906114b790613f26565b826002856040516020016114cd91815260200190565b604051602081830303815290604052610e3c612716565b60006114f083836128f0565b60408051600180825281830190925291925060009190602080830190803683370190505090508460001b8160008151811061152d5761152d613e83565b602090810291909101810191909152604080516000818401527f52616e646f6d4c69737400000000000000000000000000000000000000000000603082015281518082039093018352810190526101e79061158790613f26565b828461159161294a565b6129c9565b6040805160018082528183019092526000918291906020808301908036833701905050905082816000815181106115cf576115cf613e83565b6020908102919091018101919091526040805160009281018390527f426174746c65436f6e666967000000000000000000000000000000000000000060308201526110be910160405160208183030381529060405261162d90613f26565b8360046110b9612a7a565b610e4183838360405160240161165093929190614097565b60408051601f198184030181529190526020810180517bffffffffffffffffffffffffffffffffffffffffffffffffffffffff167f969cdd0300000000000000000000000000000000000000000000000000000000179052611d2e565b60408051600180825281830190925260009182919060208083019080368337019050509050826001600160a01b031660001b816000815181106116f2576116f2613e83565b60209081029190910181019190915260408051600092810183905265283630bcb2b960d11b60308201526110be910160405160208183030381529060405261173990613f26565b8360086110b96120ff565b60408051600180825281830190925260009182919060208083019080368337019050509050826001600160a01b031660001b8160008151811061178957611789613e83565b60209081029190910181019190915260408051600092810183905265283630bcb2b960d11b60308201526117db91016040516020818303038152906040526117d090613f26565b83600a6110b96120ff565b6020015160f01c949350505050565b60408051600180825281830190925260009160208083019080368337019050509050826001600160a01b031660001b8160008151811061182c5761182c613e83565b6020908102919091018101919091526040805160008184015265283630bcb2b960d11b60308201528151808203909301835281019052610e419061186f90613f26565b6040517fffff00000000000000000000000000000000000000000000000000000000000060f086901b1660208201528390600a906022015b604051602081830303815290604052610e3c6120ff565b60408051600180825281830190925260009160208083019080368337019050509050826001600160a01b031660001b8160008151811061190057611900613e83565b6020908102919091018101919091526040805160008184015265283630bcb2b960d11b60308201528151808203909301835281019052610e419061194390613f26565b6040517fffff00000000000000000000000000000000000000000000000000000000000060f086901b1660208201528390600b906022016118a7565b60408051600a80825261016082019092526000918291906020820161014080368337019050509050601f816000815181106119bc576119bc613e83565b602002602001019060c58111156119d5576119d56140bc565b908160c58111156119e8576119e86140bc565b81525050600181600181518110611a0157611a01613e83565b602002602001019060c5811115611a1a57611a1a6140bc565b908160c5811115611a2d57611a2d6140bc565b81525050600181600281518110611a4657611a46613e83565b602002602001019060c5811115611a5f57611a5f6140bc565b908160c5811115611a7257611a726140bc565b81525050600181600381518110611a8b57611a8b613e83565b602002602001019060c5811115611aa457611aa46140bc565b908160c5811115611ab757611ab76140bc565b81525050600181600481518110611ad057611ad0613e83565b602002602001019060c5811115611ae957611ae96140bc565b908160c5811115611afc57611afc6140bc565b81525050601f81600581518110611b1557611b15613e83565b602002602001019060c5811115611b2e57611b2e6140bc565b908160c5811115611b4157611b416140bc565b81525050601f81600681518110611b5a57611b5a613e83565b602002602001019060c5811115611b7357611b736140bc565b908160c5811115611b8657611b866140bc565b81525050601f81600781518110611b9f57611b9f613e83565b602002602001019060c5811115611bb857611bb86140bc565b908160c5811115611bcb57611bcb6140bc565b81525050606081600881518110611be457611be4613e83565b602002602001019060c5811115611bfd57611bfd6140bc565b908160c5811115611c1057611c106140bc565b81525050606181600981518110611c2957611c29613e83565b602002602001019060c5811115611c4257611c426140bc565b908160c5811115611c5557611c556140bc565b905250611c6181612c0e565b91505090565b60606000611c73612d89565b9050306001600160a01b03821603611c9857611c90858585612dc8565b915050610cb2565b6040517f419b58fd0000000000000000000000000000000000000000000000000000000081526001600160a01b0382169063419b58fd90611ce19088908890889060040161410d565b600060405180830381865afa158015611cfe573d6000803e3d6000fd5b505050506040513d6000823e601f3d908101601f19168201604052611c909190810190614136565b509392505050565b80516a636f6e736f6c652e6c6f67602083016000808483855afa5050505050565b604080516001808252818301909252600091829190602080830190803683370190505090508260001b81600081518110611d8b57611d8b613e83565b6020908102919091018101919091526040805160009281018390527f52616e646f6d4c697374000000000000000000000000000000000000000000006030820152611df49101604051602081830303815290604052611de990613f26565b8360016110b961294a565b6020015160601c949350505050565b610e41838383604051602401611e1b939291906141d8565b60408051601f198184030181529190526020810180517bffffffffffffffffffffffffffffffffffffffffffffffffffffffff167ffcec75e000000000000000000000000000000000000000000000000000000000179052611d2e565b6040805180820182526000808252602082018190528251600180825281850190945291929091908160200160208202803683370190505090508260001b81600081518110611ec857611ec8613e83565b6020908102919091018101919091526040805160009281018390527f52616e646f6d4c697374000000000000000000000000000000000000000000006030820152611f2f9101604051602081830303815290604052611f2690613f26565b8361091161294a565b6040805180820182526000808252602080830191825284015182529183015160601c9091529091506109cb565b6000808260ff168460ff1611611f73576000611f7d565b611f7d838561420b565b9150505b92915050565b6000611f91612d89565b9050306001600160a01b03821603611fb557611fb08686868686612f32565b612035565b6040517f3708196e0000000000000000000000000000000000000000000000000000000081526001600160a01b03821690633708196e90612002908990899089908990899060040161422e565b600060405180830381600087803b15801561201c57600080fd5b505af1158015612030573d6000803e3d6000fd5b505050505b505050505050565b60606000612049612d89565b9050306001600160a01b0382160361206f5761206786868686613100565b9150506109cb565b6040517f05242d2f0000000000000000000000000000000000000000000000000000000081526001600160a01b038216906305242d2f906120ba908990899089908990600401614275565b600060405180830381865afa1580156120d7573d6000803e3d6000fd5b505050506040513d6000823e601f3d908101601f191682016040526120679190810190614136565b60408051601180825261024082019092526000918291906020820161022080368337019050509050601f8160008151811061213c5761213c613e83565b602002602001019060c5811115612155576121556140bc565b908160c5811115612168576121686140bc565b81525050601f8160018151811061218157612181613e83565b602002602001019060c581111561219a5761219a6140bc565b908160c58111156121ad576121ad6140bc565b815250506001816002815181106121c6576121c6613e83565b602002602001019060c58111156121df576121df6140bc565b908160c58111156121f2576121f26140bc565b8152505060018160038151811061220b5761220b613e83565b602002602001019060c5811115612224576122246140bc565b908160c5811115612237576122376140bc565b81525050601f8160048151811061225057612250613e83565b602002602001019060c5811115612269576122696140bc565b908160c581111561227c5761227c6140bc565b81525050601f8160058151811061229557612295613e83565b602002602001019060c58111156122ae576122ae6140bc565b908160c58111156122c1576122c16140bc565b81525050601f816006815181106122da576122da613e83565b602002602001019060c58111156122f3576122f36140bc565b908160c5811115612306576123066140bc565b81525050601f8160078151811061231f5761231f613e83565b602002602001019060c5811115612338576123386140bc565b908160c581111561234b5761234b6140bc565b81525050601f8160088151811061236457612364613e83565b602002602001019060c581111561237d5761237d6140bc565b908160c5811115612390576123906140bc565b81525050601f816009815181106123a9576123a9613e83565b602002602001019060c58111156123c2576123c26140bc565b908160c58111156123d5576123d56140bc565b81525050600181600a815181106123ee576123ee613e83565b602002602001019060c5811115612407576124076140bc565b908160c581111561241a5761241a6140bc565b81525050600181600b8151811061243357612433613e83565b602002602001019060c581111561244c5761244c6140bc565b908160c581111561245f5761245f6140bc565b81525050600081600c8151811061247857612478613e83565b602002602001019060c5811115612491576124916140bc565b908160c58111156124a4576124a46140bc565b81525050601f81600d815181106124bd576124bd613e83565b602002602001019060c58111156124d6576124d66140bc565b908160c58111156124e9576124e96140bc565b81525050601f81600e8151811061250257612502613e83565b602002602001019060c581111561251b5761251b6140bc565b908160c581111561252e5761252e6140bc565b8152505060c581600f8151811061254757612547613e83565b602002602001019060c5811115612560576125606140bc565b908160c5811115612573576125736140bc565b8152505060c581601081518110611c2957611c29613e83565b612594613d77565b6101698201516000906020840151909150825260408301516020830152606083015160f01c6040830152606283015160f01c606083015260648301516080830152608483015160a083015260a483015160c083015260c483015160e083015260e483015161010083015261010483015161012083015261012483015160f01c61014083015261012683015160f01c61016083015261012883015160f81c6003811115612642576126426140bc565b8261018001906003811115612659576126596140bc565b9081600381111561266c5761266c6140bc565b9052506101298301516101a08301526101498301516101c0830152825161014910156126e357610169603882901c64ffffffffff1681016126b66126b1868484613134565b6131c4565b6101e085015290508064ffffffffff606084901c16016126da6126b1868484613134565b61020085015250505b50919050565b60008161ffff168361ffff16111561270c576127058284613eed565b9050611f81565b6127058383613eed565b60408051600780825261010082019092526000918291906020820160e080368337019050509050605f8160008151811061275257612752613e83565b602002602001019060c581111561276b5761276b6140bc565b908160c581111561277e5761277e6140bc565b81525050601f8160018151811061279757612797613e83565b602002602001019060c58111156127b0576127b06140bc565b908160c58111156127c3576127c36140bc565b81525050601f816002815181106127dc576127dc613e83565b602002602001019060c58111156127f5576127f56140bc565b908160c5811115612808576128086140bc565b8152505060018160038151811061282157612821613e83565b602002602001019060c581111561283a5761283a6140bc565b908160c581111561284d5761284d6140bc565b8152505060018160048151811061286657612866613e83565b602002602001019060c581111561287f5761287f6140bc565b908160c5811115612892576128926140bc565b81525050601f816005815181106128ab576128ab613e83565b602002602001019060c58111156128c4576128c46140bc565b908160c58111156128d7576128d76140bc565b81525050601f81600681518110611c2957611c29613e83565b6060828260405160200161293392919091825260601b7fffffffffffffffffffffffffffffffffffffffff00000000000000000000000016602082015260340190565b604051602081830303815290604052905092915050565b60408051600280825260608201835260009283929190602083019080368337019050509050601f8160008151811061298457612984613e83565b602002602001019060c581111561299d5761299d6140bc565b908160c58111156129b0576129b06140bc565b81525050606181600181518110611c2957611c29613e83565b60006129d3612d89565b9050306001600160a01b038216036129f6576129f185858585613244565b6101e7565b6040517fb368b9980000000000000000000000000000000000000000000000000000000081526001600160a01b0382169063b368b99890612a419088908890889088906004016142a4565b600060405180830381600087803b158015612a5b57600080fd5b505af1158015612a6f573d6000803e3d6000fd5b505050505050505050565b60408051600680825260e082019092526000918291906020820160c080368337019050509050601f81600081518110612ab557612ab5613e83565b602002602001019060c5811115612ace57612ace6140bc565b908160c5811115612ae157612ae16140bc565b81525050601f81600181518110612afa57612afa613e83565b602002602001019060c5811115612b1357612b136140bc565b908160c5811115612b2657612b266140bc565b81525050601f81600281518110612b3f57612b3f613e83565b602002602001019060c5811115612b5857612b586140bc565b908160c5811115612b6b57612b6b6140bc565b81525050601f81600381518110612b8457612b84613e83565b602002602001019060c5811115612b9d57612b9d6140bc565b908160c5811115612bb057612bb06140bc565b81525050601f81600481518110612bc957612bc9613e83565b602002602001019060c5811115612be257612be26140bc565b908160c5811115612bf557612bf56140bc565b8152505060c381600581518110611c2957611c29613e83565b6000601c82511115612c515781516040517f5318beb90000000000000000000000000000000000000000000000000000000081526004016100f791815260200190565b60008080805b8551811015612d29576000612c95878381518110612c7757612c77613e83565b602002602001015160c5811115612c9057612c906140bc565b613412565b905080600003612caa57600190920191612ce2565b8215612ce2576040517ff1e56be400000000000000000000000000000000000000000000000000000000815260040160405180910390fd5b808401935081601b03600802878381518110612d0057612d00613e83565b602002602001015160c5811115612d1957612d196140bc565b901b949094179350600101612c57565b506005811115612d68576040517f5318beb9000000000000000000000000000000000000000000000000000000008152600481018290526024016100f7565b935160e085901b94900360e81b60f09190911b919091171791909117919050565b7f629a4c26e296b22a8e0856e9f6ecb2d1008d7e00081111962cd175fa7488e175546000906001600160a01b031680612dc3573391505090565b919050565b60606000612dd68360f01c90565b905080600080612de58661346c565b90508015612e2957612df7888861347d565b915066ffffffffffffff821615612e2957612e1c66ffffffffffffff83166020613eaf565b612e269084613eaf565b92505b60008367ffffffffffffffff811115612e4457612e44613f10565b6040519080825280601f01601f191660200182016040528015612e6e576020820181803683370190505b50905060208101612e818a8a8884613494565b66ffffffffffffff8416600003612e9f57509450610cb29350505050565b612ea98682613eaf565b8481529050612eb9602082613eaf565b905060005b838160ff161015612f23576000612ed68c8c846134b5565b90506000612ef3878460ff166028026038011c64ffffffffff1690565b9050612f02828260008761350e565b612f0c8185613eaf565b935050508080612f1b90614002565b915050612ebe565b50909998505050505050505050565b7fd01f9f1368f831528fc9fe6442366b2b7d957fbfff3bcf7c24d9ab5fe51f8c4685858585604051612f6794939291906142e1565b60405180910390a16000612f7a866135c6565b905060005b8151811015613020576000828281518110612f9c57612f9c613e83565b60200260200101519050806001600160a01b031663bf11b74e89898989896040518663ffffffff1660e01b8152600401612fda95949392919061422e565b600060405180830381600087803b158015612ff457600080fd5b505af1158015613008573d6000803e3d6000fd5b5050505050808061301890614315565b915050612f7f565b5061302a8261369e565b8460ff1610156130465761304186868487876136a8565b613053565b6130538686848787613758565b60005b81518110156130f757600082828151811061307357613073613e83565b60200260200101519050806001600160a01b0316637da508a289898989896040518663ffffffff1660e01b81526004016130b195949392919061422e565b600060405180830381600087803b1580156130cb57600080fd5b505af11580156130df573d6000803e3d6000fd5b505050505080806130ef90614315565b915050613056565b50505050505050565b606061310b8261369e565b8360ff1610156131285761312185858585613797565b90506109cb565b613121858585856137f7565b6000818311158015613147575083518211155b613183578383836040517f23230fa30000000000000000000000000000000000000000000000000000000081526004016100f793929190614097565b602084016131918482613eaf565b9050600061319f858561432f565b6fffffffffffffffffffffffffffffffff1660809290921b9190911795945050505050565b606060006131d28360801c90565b90506fffffffffffffffffffffffffffffffff83168067ffffffffffffffff81111561320057613200613f10565b6040519080825280601f01601f19166020018201604052801561322a576020820181803683370190505b5092506020830161323c83828461385e565b505050919050565b60008061325183856138aa565b915091507f912af873e852235aae78a1d25ae9bb28b616a67c36898c53a14fd8184504ee3286868660405161328893929190614346565b60405180910390a1600061329b876135c6565b905060005b815181101561333f5760008282815181106132bd576132bd613e83565b60200260200101519050806001600160a01b031663b08679bf8a8a8a8a6040518563ffffffff1660e01b81526004016132f994939291906142a4565b600060405180830381600087803b15801561331357600080fd5b505af1158015613327573d6000803e3d6000fd5b5050505050808061333790614315565b9150506132a0565b50600061334c8888613944565b90506020860161335f826000838861399a565b61336a856020613eaf565b6133749082613eaf565b905061337f8661346c565b60000361339057505050505061048f565b600061339c8a8a613a5a565b858155905060008060005b6133b08a61346c565b8160ff161015613403576133c58d8d836134b5565b92506133e0888260ff166028026038011c64ffffffffff1690565b91506133ef836000878561399a565b6133f98286613eaf565b94506001016133a7565b50505050505050505050505050565b6000808260c5811115613427576134276140bc565b60ff169050606181101561344157601f1660010192915050565b60618360c5811115613455576134556140bc565b036134635750601492915050565b50600092915050565b600060e0825b60ff911c1692915050565b60008061348a8484613a5a565b9050611f7d815490565b811561048f5760006134a68585613944565b90506101e7818460008561350e565b60007f86425bff6b57326c7859e89024fe4f238ca327a1ae4a230180dd2f0e88aaa7d98484846040516020016134ee949392919061437b565b60408051601f198184030181529190528051602090910120949350505050565b811561358057602082106135385760208204840193506020828161353457613534613fc4565b0691505b81156135805760208290036000600019600883021c1990508554600885021b81198451168282161784525081851161357157505061048f565b50600194909401939283900392015b5b602083106135a25783548152600190930192601f1990920191602001613581565b821561048f576000600019600885021c198251865482169119161782525050505050565b6040805160018082528183019092526060916000919060208083019080368337019050509050828160008151811061360057613600613e83565b602090810291909101810191909152604080517f6d756473746f7265000000000000000000000000000000000000000000000000818401527f486f6f6b73000000000000000000000000000000000000000000000000000000603082015281518082039093018352810190526000906136879061367c90613f26565b8360006110b9613a91565b90506109cb6136998260008451613134565b613acb565b600060e882613472565b60006136b78460ff8516613adc565b905081516136d08260c5811115612c9057612c906140bc565b14613727576136ea8160c5811115612c9057612c906140bc565b82516040517f521b3d33000000000000000000000000000000000000000000000000000000008152600481019290925260248201526044016100f7565b60006137338787613944565b905060006137418686613b02565b905061374e828286613b4e565b5050505050505050565b60006137638461369e565b61376d908461420b565b905061377c8686838551613b5e565b60006137898787846134b5565b90506130f781600085613b4e565b606060006137a88360ff8616613adc565b905060006137c18260c5811115612c9057612c906140bc565b905060006137cf8888613944565b905060006137dd8688613b02565b90506137ea828483613b8d565b9998505050505050505050565b606060006138048361369e565b61380e908561420b565b9050600061381d8787846134b5565b905060006138448361382f8a8a61347d565b9060ff166028026038011c64ffffffffff1690565b905061385282826000613b8d565b98975050505050505050565b5b6020811061387e578251825260209283019290910190601f190161385f565b8060000361388b57505050565b6000600019600883021c19905080198351168185511617835250505050565b6000806138b78460f01c90565b91508160006138c58661346c565b11156138f5578284016020015191506138e866ffffffffffffff83166020613eaf565b6138f29082613eaf565b90505b8351811461393c5783516040517f521b3d330000000000000000000000000000000000000000000000000000000081526100f7918391600401918252602082015260400190565b509250929050565b60007f86425bff6b57326c7859e89024fe4f238ca327a1ae4a230180dd2f0e88aaa7d9838360405160200161397b939291906143ae565b60408051601f1981840301815291905280516020909101209392505050565b8215613a1457602083106139c4576020830484019350602083816139c0576139c0613fc4565b0692505b8215613a145760208390036000600019600884021c1990506008850281811c91508451811c9050811987541682821617875550818311613a0557505061048f565b50600194909401939182019190035b5b60208110613a365781518455600190930192602090910190601f1901613a15565b801561048f576000600019600883021c198554845182169119161785555050505050565b60007f86425bff6b57326c7859e89024fe4f238ca327a1ae4a230180dd2f0e88aaa7d9838360405160200161397b939291906143d6565b6040805160018082528183019092526000918291906020808301908036833701905050905060c381600081518110611c2957611c29613e83565b60606000610cb28360146060613bb0565b600081601b03600802613aec8490565b60ff911c1660c5811115610cb257610cb26140bc565b600080805b8360ff16811015611d2657613b30613b1f8683613adc565b60c5811115612c9057612c906140bc565b613b3a9083613eaf565b915080613b4681614315565b915050613b07565b610e41838360208401845161399a565b6000613b6a8585613a5a565b90506000613b76825490565b9050613b83818585613ca8565b8083559050612035565b60405160208101601f19603f8584010116604052838252611d268585858461350e565b60606000613bbe8560801c90565b90506fffffffffffffffffffffffffffffffff85166000858281613be457613be4613fc4565b049050613bf18683613fda565b15613c645760405162461bcd60e51b815260206004820152603d60248201527f756e7061636b546f41727261793a207061636b65644c656e677468206d75737460448201527f2062652061206d756c7469706c65206f6620656c656d656e7453697a6500000060648201526084016100f7565b60405193506020840160208202810160405281855260005b82811015613c9c578451871c825293870193602090910190600101613c7c565b50505050509392505050565b600064ffffffffff821115613cec576040517f47670588000000000000000000000000000000000000000000000000000000008152600481018390526024016100f7565b8366ffffffffffffff811660ff851660280260380182901c64ffffffffff16808510613d1e5780850382019150613d26565b848103820391505b5064ffffffffff6038602860ff8816020190811b80197fffffffffffffffffffffffffffffffffffffffffffffffffff0000000000000094909416909217929092169184901b161790509392505050565b6040518061022001604052806000815260200160008152602001600061ffff168152602001600061ffff168152602001600081526020016000815260200160008152602001600081526020016000815260200160008152602001600061ffff168152602001600061ffff16815260200160006003811115613dfa57613dfa6140bc565b8152602001600081526020016000815260200160608152602001606081525090565b600060208284031215613e2e57600080fd5b5035919050565b803561ffff81168114612dc357600080fd5b600080600060608486031215613e5c57600080fd5b83359250613e6c60208501613e35565b9150613e7a60408501613e35565b90509250925092565b634e487b7160e01b600052603260045260246000fd5b634e487b7160e01b600052601160045260246000fd5b60008219821115613ec257613ec2613e99565b500190565b600061ffff808316818516808303821115613ee457613ee4613e99565b01949350505050565b600061ffff83811690831681811015613f0857613f08613e99565b039392505050565b634e487b7160e01b600052604160045260246000fd5b805160208083015191908110156126e35760001960209190910360031b1b16919050565b60005b83811015613f65578181015183820152602001613f4d565b8381111561048f5750506000910152565b60008151808452613f8e816020860160208601613f4a565b601f01601f19169290920160200192915050565b604081526000613fb56040830185613f76565b90508260208301529392505050565b634e487b7160e01b600052601260045260246000fd5b600082613fe957613fe9613fc4565b500690565b600082613ffd57613ffd613fc4565b500490565b600060ff821660ff810361401857614018613e99565b60010192915050565b600060ff83168061403457614034613fc4565b8060ff84160491505092915050565b600060ff821660ff84168160ff048111821515161561406457614064613e99565b029392505050565b60408152600061407f6040830185613f76565b90506001600160a01b03831660208301529392505050565b6060815260006140aa6060830186613f76565b60208301949094525060400152919050565b634e487b7160e01b600052602160045260246000fd5b600081518084526020808501945080840160005b83811015614102578151875295820195908201906001016140e6565b509495945050505050565b83815260606020820152600061412660608301856140d2565b9050826040830152949350505050565b60006020828403121561414857600080fd5b815167ffffffffffffffff8082111561416057600080fd5b818401915084601f83011261417457600080fd5b81518181111561418657614186613f10565b604051601f8201601f19908116603f011681019083821181831017156141ae576141ae613f10565b816040528281528760208487010111156141c757600080fd5b61122e836020830160208801613f4a565b6060815260006141eb6060830186613f76565b6001600160a01b0394851660208401529290931660409091015292915050565b600060ff821660ff84168082101561422557614225613e99565b90039392505050565b85815260a06020820152600061424760a08301876140d2565b60ff8616604084015282810360608401526142628186613f76565b9150508260808301529695505050505050565b84815260806020820152600061428e60808301866140d2565b60ff949094166040830152506060015292915050565b8481526080602082015260006142bd60808301866140d2565b82810360408401526142cf8186613f76565b91505082606083015295945050505050565b8481526080602082015260006142fa60808301866140d2565b60ff85166040840152828103606084015261122e8185613f76565b6000600019820361432857614328613e99565b5060010190565b60008282101561434157614341613e99565b500390565b83815260606020820152600061435f60608301856140d2565b82810360408401526143718185613f76565b9695505050505050565b84815283602082015260806040820152600061439a60808301856140d2565b905060ff8316606083015295945050505050565b8381528260208201526060604082015260006143cd60608301846140d2565b95945050505050565b8381528260208201526080604082015260006143f560808301846140d2565b8281036060840152600681527f6c656e677468000000000000000000000000000000000000000000000000000060208201526040810191505094935050505056fe20626f78206f726542616c616e6365202c20747265617375726542616c616e636520a26469706673582212204fd4c6b2b8788c6579fe7d0efa299a36eaa6e9b701525153aee918a76f05132064736f6c634300080d0033",
    "linkReferences": {}
  },
  "methodIdentifiers": {
    "getCollections(uint256,uint16,uint16)": "f0d744ed",
    "openBox(uint256)": "b1e5e2b7",
    "revealBox(uint256)": "6981e607"
  },
  "id": 144
}