{
  "abi": [
    {
      "inputs": [
        {
          "internalType": "string",
          "name": "_desc",
          "type": "string"
        },
        {
          "internalType": "string",
          "name": "symbol",
          "type": "string"
        },
        {
          "internalType": "string",
          "name": "name",
          "type": "string"
        },
        {
          "internalType": "string",
          "name": "_notRevealedInfo",
          "type": "string"
        },
        {
          "internalType": "uint256",
          "name": "_waitBlockCount",
          "type": "uint256"
        }
      ],
      "stateMutability": "nonpayable",
      "type": "constructor"
    },
    {
      "anonymous": false,
      "inputs": [
        {
          "indexed": true,
          "internalType": "address",
          "name": "owner",
          "type": "address"
        },
        {
          "indexed": true,
          "internalType": "address",
          "name": "approved",
          "type": "address"
        },
        {
          "indexed": true,
          "internalType": "uint256",
          "name": "tokenId",
          "type": "uint256"
        }
      ],
      "name": "Approval",
      "type": "event"
    },
    {
      "anonymous": false,
      "inputs": [
        {
          "indexed": true,
          "internalType": "address",
          "name": "owner",
          "type": "address"
        },
        {
          "indexed": true,
          "internalType": "address",
          "name": "operator",
          "type": "address"
        },
        {
          "indexed": false,
          "internalType": "bool",
          "name": "approved",
          "type": "bool"
        }
      ],
      "name": "ApprovalForAll",
      "type": "event"
    },
    {
      "anonymous": false,
      "inputs": [
        {
          "indexed": false,
          "internalType": "uint256",
          "name": "randomId",
          "type": "uint256"
        },
        {
          "indexed": false,
          "internalType": "address",
          "name": "author",
          "type": "address"
        }
      ],
      "name": "NewRandom",
      "type": "event"
    },
    {
      "anonymous": false,
      "inputs": [
        {
          "indexed": true,
          "internalType": "address",
          "name": "from",
          "type": "address"
        },
        {
          "indexed": true,
          "internalType": "address",
          "name": "to",
          "type": "address"
        },
        {
          "indexed": true,
          "internalType": "uint256",
          "name": "tokenId",
          "type": "uint256"
        }
      ],
      "name": "Transfer",
      "type": "event"
    },
    {
      "inputs": [
        {
          "internalType": "address",
          "name": "to",
          "type": "address"
        },
        {
          "internalType": "uint256",
          "name": "tokenId",
          "type": "uint256"
        }
      ],
      "name": "approve",
      "outputs": [],
      "stateMutability": "nonpayable",
      "type": "function"
    },
    {
      "inputs": [
        {
          "internalType": "address",
          "name": "owner",
          "type": "address"
        }
      ],
      "name": "balanceOf",
      "outputs": [
        {
          "internalType": "uint256",
          "name": "",
          "type": "uint256"
        }
      ],
      "stateMutability": "view",
      "type": "function"
    },
    {
      "inputs": [
        {
          "internalType": "uint256",
          "name": "tokenId",
          "type": "uint256"
        }
      ],
      "name": "getApproved",
      "outputs": [
        {
          "internalType": "address",
          "name": "",
          "type": "address"
        }
      ],
      "stateMutability": "view",
      "type": "function"
    },
    {
      "inputs": [
        {
          "internalType": "uint256",
          "name": "_tokenId",
          "type": "uint256"
        }
      ],
      "name": "getStructIndexInfo",
      "outputs": [
        {
          "internalType": "uint256",
          "name": "",
          "type": "uint256"
        },
        {
          "internalType": "uint256",
          "name": "",
          "type": "uint256"
        },
        {
          "internalType": "uint256",
          "name": "",
          "type": "uint256"
        },
        {
          "internalType": "uint256",
          "name": "",
          "type": "uint256"
        },
        {
          "internalType": "uint256",
          "name": "",
          "type": "uint256"
        },
        {
          "internalType": "uint256",
          "name": "",
          "type": "uint256"
        },
        {
          "internalType": "uint256",
          "name": "",
          "type": "uint256"
        },
        {
          "internalType": "uint256",
          "name": "",
          "type": "uint256"
        }
      ],
      "stateMutability": "view",
      "type": "function"
    },
    {
      "inputs": [
        {
          "internalType": "uint256",
          "name": "_tokenId",
          "type": "uint256"
        }
      ],
      "name": "getStructInfo",
      "outputs": [
        {
          "internalType": "string",
          "name": "",
          "type": "string"
        },
        {
          "internalType": "string",
          "name": "",
          "type": "string"
        },
        {
          "internalType": "string",
          "name": "",
          "type": "string"
        },
        {
          "internalType": "string",
          "name": "",
          "type": "string"
        },
        {
          "internalType": "string",
          "name": "",
          "type": "string"
        },
        {
          "internalType": "string",
          "name": "",
          "type": "string"
        },
        {
          "internalType": "string",
          "name": "",
          "type": "string"
        },
        {
          "internalType": "string",
          "name": "",
          "type": "string"
        }
      ],
      "stateMutability": "view",
      "type": "function"
    },
    {
      "inputs": [],
      "name": "getUserTokenIdList",
      "outputs": [
        {
          "internalType": "uint256[]",
          "name": "",
          "type": "uint256[]"
        }
      ],
      "stateMutability": "view",
      "type": "function"
    },
    {
      "inputs": [
        {
          "internalType": "address",
          "name": "owner",
          "type": "address"
        },
        {
          "internalType": "address",
          "name": "operator",
          "type": "address"
        }
      ],
      "name": "isApprovedForAll",
      "outputs": [
        {
          "internalType": "bool",
          "name": "",
          "type": "bool"
        }
      ],
      "stateMutability": "view",
      "type": "function"
    },
    {
      "inputs": [
        {
          "internalType": "uint256",
          "name": "",
          "type": "uint256"
        }
      ],
      "name": "lootList",
      "outputs": [
        {
          "internalType": "uint256",
          "name": "randomId",
          "type": "uint256"
        },
        {
          "internalType": "address",
          "name": "owner",
          "type": "address"
        },
        {
          "internalType": "string",
          "name": "Weapon",
          "type": "string"
        },
        {
          "internalType": "string",
          "name": "Chest",
          "type": "string"
        },
        {
          "internalType": "string",
          "name": "Head",
          "type": "string"
        },
        {
          "internalType": "string",
          "name": "Waist",
          "type": "string"
        },
        {
          "internalType": "string",
          "name": "Foot",
          "type": "string"
        },
        {
          "internalType": "string",
          "name": "Hand",
          "type": "string"
        },
        {
          "internalType": "string",
          "name": "Neck",
          "type": "string"
        },
        {
          "internalType": "string",
          "name": "Ring",
          "type": "string"
        },
        {
          "internalType": "enum MRandom.RandomState",
          "name": "state",
          "type": "uint8"
        }
      ],
      "stateMutability": "view",
      "type": "function"
    },
    {
      "inputs": [],
      "name": "mint",
      "outputs": [],
      "stateMutability": "nonpayable",
      "type": "function"
    },
    {
      "inputs": [],
      "name": "name",
      "outputs": [
        {
          "internalType": "string",
          "name": "",
          "type": "string"
        }
      ],
      "stateMutability": "view",
      "type": "function"
    },
    {
      "inputs": [
        {
          "internalType": "uint256",
          "name": "tokenId",
          "type": "uint256"
        }
      ],
      "name": "ownerOf",
      "outputs": [
        {
          "internalType": "address",
          "name": "",
          "type": "address"
        }
      ],
      "stateMutability": "view",
      "type": "function"
    },
    {
      "inputs": [],
      "name": "randomId",
      "outputs": [
        {
          "internalType": "uint256",
          "name": "",
          "type": "uint256"
        }
      ],
      "stateMutability": "view",
      "type": "function"
    },
    {
      "inputs": [
        {
          "internalType": "uint256",
          "name": "",
          "type": "uint256"
        }
      ],
      "name": "randomList",
      "outputs": [
        {
          "internalType": "uint256",
          "name": "blockNumber",
          "type": "uint256"
        },
        {
          "internalType": "address",
          "name": "author",
          "type": "address"
        }
      ],
      "stateMutability": "view",
      "type": "function"
    },
    {
      "inputs": [
        {
          "internalType": "uint256",
          "name": "_tokenId",
          "type": "uint256"
        }
      ],
      "name": "revealNFT",
      "outputs": [],
      "stateMutability": "nonpayable",
      "type": "function"
    },
    {
      "inputs": [
        {
          "internalType": "address",
          "name": "from",
          "type": "address"
        },
        {
          "internalType": "address",
          "name": "to",
          "type": "address"
        },
        {
          "internalType": "uint256",
          "name": "tokenId",
          "type": "uint256"
        }
      ],
      "name": "safeTransferFrom",
      "outputs": [],
      "stateMutability": "nonpayable",
      "type": "function"
    },
    {
      "inputs": [
        {
          "internalType": "address",
          "name": "from",
          "type": "address"
        },
        {
          "internalType": "address",
          "name": "to",
          "type": "address"
        },
        {
          "internalType": "uint256",
          "name": "tokenId",
          "type": "uint256"
        },
        {
          "internalType": "bytes",
          "name": "data",
          "type": "bytes"
        }
      ],
      "name": "safeTransferFrom",
      "outputs": [],
      "stateMutability": "nonpayable",
      "type": "function"
    },
    {
      "inputs": [
        {
          "internalType": "address",
          "name": "operator",
          "type": "address"
        },
        {
          "internalType": "bool",
          "name": "approved",
          "type": "bool"
        }
      ],
      "name": "setApprovalForAll",
      "outputs": [],
      "stateMutability": "nonpayable",
      "type": "function"
    },
    {
      "inputs": [
        {
          "internalType": "bytes4",
          "name": "interfaceId",
          "type": "bytes4"
        }
      ],
      "name": "supportsInterface",
      "outputs": [
        {
          "internalType": "bool",
          "name": "",
          "type": "bool"
        }
      ],
      "stateMutability": "view",
      "type": "function"
    },
    {
      "inputs": [],
      "name": "symbol",
      "outputs": [
        {
          "internalType": "string",
          "name": "",
          "type": "string"
        }
      ],
      "stateMutability": "view",
      "type": "function"
    },
    {
      "inputs": [],
      "name": "tokenId",
      "outputs": [
        {
          "internalType": "uint256",
          "name": "",
          "type": "uint256"
        }
      ],
      "stateMutability": "view",
      "type": "function"
    },
    {
      "inputs": [
        {
          "internalType": "uint256",
          "name": "_tokenId",
          "type": "uint256"
        }
      ],
      "name": "tokenURI",
      "outputs": [
        {
          "internalType": "string",
          "name": "",
          "type": "string"
        }
      ],
      "stateMutability": "view",
      "type": "function"
    },
    {
      "inputs": [
        {
          "internalType": "address",
          "name": "from",
          "type": "address"
        },
        {
          "internalType": "address",
          "name": "to",
          "type": "address"
        },
        {
          "internalType": "uint256",
          "name": "tokenId",
          "type": "uint256"
        }
      ],
      "name": "transferFrom",
      "outputs": [],
      "stateMutability": "nonpayable",
      "type": "function"
    },
    {
      "inputs": [],
      "name": "waitBlockCount",
      "outputs": [
        {
          "internalType": "uint256",
          "name": "",
          "type": "uint256"
        }
      ],
      "stateMutability": "view",
      "type": "function"
    },
    {
      "inputs": [
        {
          "internalType": "address",
          "name": "to",
          "type": "address"
        }
      ],
      "name": "withdraw",
      "outputs": [],
      "stateMutability": "nonpayable",
      "type": "function"
    },
    {
      "inputs": [
        {
          "internalType": "address",
          "name": "_targetAddress",
          "type": "address"
        },
        {
          "internalType": "address",
          "name": "_contractAddress",
          "type": "address"
        },
        {
          "internalType": "uint256",
          "name": "_amount",
          "type": "uint256"
        }
      ],
      "name": "withdrawErc20",
      "outputs": [],
      "stateMutability": "nonpayable",
      "type": "function"
    }
  ],
  "bytecode": {
    "object": "0x60096102c0818152682bb0b93430b6b6b2b960b91b6102e0526080908152600c6103009081526b28bab0b93a32b939ba30b33360a11b6103205260a05260046103408181526313585d5b60e21b6103605260c052610380818152634d61636560e01b6103a05260e0526103c08181526321b63ab160e11b6103e052610100526006610400908152654b6174616e6160d01b61042052610120526008610440818152672330b631b434b7b760c11b61046052610140526104808181526729b1b4b6b4ba30b960c11b6104a05261016052600a6104c081815269131bdb99c814dddbdc9960b21b6104e05261018052600b6105009081526a14da1bdc9d0814dddbdc9960aa1b610520526101a0526105408181526911da1bdcdd0815d85b9960b21b610560526101c0526105809081526911dc985d994815d85b9960b21b6105a0526101e0526105c084815268109bdb994815d85b9960ba1b6105e052610200526106008281526315d85b9960e21b6106205261022052610640908152674772696d6f69726560c01b6106605261024052610680928352684368726f6e69636c6560b81b6106a052610260929092526106c082815263546f6d6560e01b6106e0526102805261074060405261070091825263426f6f6b60e01b610720526102a091909152620001f190600090601262001ce5565b506040805161022081018252600b6101e082019081526a446976696e6520526f626560a81b61020083015281528151808301835260098082526853696c6b20526f626560b81b6020838101919091528084019290925283518085018552600a808252694c696e656e20526f626560b01b8285015284860191909152845180860186526004815263526f626560e01b81850152606085015284518086018652600581526414da1a5c9d60da1b818501526080850152845180860186528181526944656d6f6e204875736b60b01b8185015260a085015284518086018652601081526f223930b3b7b739b5b4b71020b936b7b960811b8185015260c085015284518086018652601581527f53747564646564204c6561746865722041726d6f7200000000000000000000008185015260e08501528451808601865260128152712430b932102632b0ba3432b91020b936b7b960711b8185015261010085015284518086018652600d81526c2632b0ba3432b91020b936b7b960991b8185015261012085015284518086018652600f8082526e486f6c79204368657374706c61746560881b828601526101408601919091528551808701875260118152704f726e617465204368657374706c61746560781b818601526101608601528551808701875282815269141b185d194813585a5b60b21b81860152610180860152855180870187529182526910da185a5b8813585a5b60b21b828501526101a0850191909152845180860190955290845268149a5b99c813585a5b60ba1b918401919091526101c082019290925262000448916001919062001d49565b506040805161022081018252600c6101e082019081526b416e6369656e742048656c6d60a01b610200830152815281518083018352600b8082526a4f726e6174652048656c6d60a81b6020838101919091528084019290925283518085018552600a8082526947726561742048656c6d60b01b82850152848601919091528451808601865260098082526846756c6c2048656c6d60b81b8286015260608601919091528551808701875260048082526348656c6d60e01b828701526080870191909152865180880188528481526a2232b6b7b71021b937bbb760a91b8187015260a087015286518088018852600e81526d223930b3b7b713b99021b937bbb760911b8187015260c08701528651808801885260078152660576172204361760cc1b8187015260e0870152865180880188528481526a04c656174686572204361760ac1b8187015261010087015286518088018852600381526204361760ec1b8187015261012087015286518088018852600581526421b937bbb760d91b81870152610140870152865180880188529384526a111a5d9a5b9948121bdbd960aa1b84860152610160860193909352855180870187529081526814da5b1ac8121bdbd960ba1b818501526101808501528451808601865290815269131a5b995b88121bdbd960b21b818401526101a08401528351808501909452835263121bdbd960e21b908301526101c08101919091526200066790600290600f62001d49565b506040805161022081018252600b6101e082018181526a13dc9b985d194810995b1d60aa1b610200840152825282518084018452600881526715d85c8810995b1d60c21b60208281019190915280840191909152835180850185529182526a141b185d19590810995b1d60aa1b82820152828401919091528251808401845260098082526813595cda0810995b1d60ba1b82840152606084019190915283518085018552600a808252691219585d9e4810995b1d60b21b82850152608085019190915284518086018652600e81526d11195b5bdb9a1a59194810995b1d60921b8185015260a085015284518086018652600f8082526e111c9859dbdb9cdada5b8810995b1d608a1b8286015260c086019190915285518087018752601481527f53747564646564204c6561746865722042656c740000000000000000000000008186015260e086015285518087018752601181527012185c99081319585d1a195c8810995b1d607a1b8186015261010086015285518087018752600c81526b1319585d1a195c8810995b1d60a21b81860152610120860152855180870187528181526e084e4d2ced0e8e6d2d8d640a6c2e6d608b1b8186015261014086015285518087018752838152680a6d2d8d640a6c2e6d60bb1b8186015261016086015285518087018752928352680aededed840a6c2e6d60bb1b838501526101808501929092528451808601865290815269098d2dccadc40a6c2e6d60b31b818401526101a0840152835180850190945260048452630a6c2e6d60e31b918401919091526101c0820192909252620008c0916003919062001d49565b506040805161022081018252600c6101e082019081526b486f6c79204772656176657360a01b610200830152815281518083018352600e81526d4f726e617465204772656176657360901b602082810191909152808301919091528251808401845260078152664772656176657360c81b818301528284015282518084018452600b8082526a436861696e20426f6f747360a81b828401526060840191909152835180850185528181526a486561767920426f6f747360a81b81840152608084015283518085018552600f8082526e44656d6f6e6869646520426f6f747360881b8285015260a085019190915284518086018652601081526f447261676f6e736b696e20426f6f747360801b8185015260c085015284518086018652601581527f53747564646564204c65617468657220426f6f747300000000000000000000008185015260e085015284518086018652601281527148617264204c65617468657220426f6f747360701b8185015261010085015284518086018652600d8082526c4c65617468657220426f6f747360981b82860152610120860191909152855180870187528281526e446976696e6520536c69707065727360881b81860152610140860152855180870187529081526c53696c6b20536c69707065727360981b8185015261016085015284518086018652600a815269576f6f6c2053686f657360b01b81850152610180850152845180860186529182526a4c696e656e2053686f657360a81b828401526101a08401919091528351808501909452600584526453686f657360d81b918401919091526101c082019290925262000b28916004919062001d49565b506040805161022081018252600e6101e082018181526d486f6c79204761756e746c65747360901b610200840152825282518084018452601081526f4f726e617465204761756e746c65747360801b602082810191909152808401919091528351808501855260098152684761756e746c65747360b81b818301528385015283518085018552600c8082526b436861696e20476c6f76657360a01b828401526060850191909152845180860186528181526b486561767920476c6f76657360a01b81840152608085015284518086018652600d8082526c44656d6f6e27732048616e647360981b8285015260a0860191909152855180870187526011815270447261676f6e736b696e20476c6f76657360781b8185015260c086015285518087018752601681527f53747564646564204c65617468657220476c6f766573000000000000000000008185015260e086015285518087018752601381527f48617264204c65617468657220476c6f7665730000000000000000000000000081850152610100860152855180870187529384526d4c65617468657220476c6f76657360901b84840152610120850193909352845180860186529283526c446976696e6520476c6f76657360981b8383015261014084019290925283518085018552600b8082526a53696c6b20476c6f76657360a81b82840152610160850191909152845180860186529081526a576f6f6c20476c6f76657360a81b81830152610180840152835180850185529182526b4c696e656e20476c6f76657360a01b828201526101a083019190915282518084019093526006835265476c6f76657360d01b908301526101c081019190915262000da590600590600f62001d49565b506040805160a081018252600860608201908152674e65636b6c61636560c01b6080830152815281518083018352600680825265105b5d5b195d60d21b6020838101919091528084019290925283518085018552600781526614195b99185b9d60ca1b928101929092529282015262000e219190600362001d9b565b506040805160e081018252600960a0820190815268476f6c642052696e6760b81b60c0830152815281518083018352600b8082526a53696c7665722052696e6760a81b60208381019190915280840192909252835180850185529081526a42726f6e7a652052696e6760a81b818301528284015282518084018452600d8082526c506c6174696e756d2052696e6760981b828401526060840191909152835180850190945283526c546974616e69756d2052696e6760981b90830152608081019190915262000ef590600790600562001ded565b506040518061020001604052806040518060400160405280600881526020016737b3102837bbb2b960c11b8152508152602001604051806040016040528060098152602001686f66204769616e747360b81b8152508152602001604051806040016040528060098152602001686f6620546974616e7360b81b8152508152602001604051806040016040528060088152602001671bd98814dada5b1b60c21b81525081526020016040518060400160405280600d81526020016c37b3102832b93332b1ba34b7b760991b81525081526020016040518060400160405280600d81526020016c6f66204272696c6c69616e636560981b81525081526020016040518060400160405280601081526020016f1bd988115b9b1a59da1d195b9b595b9d60821b81525081526020016040518060400160405280600d81526020016c37b310283937ba32b1ba34b7b760991b81525081526020016040518060400160405280600881526020016737b31020b733b2b960c11b8152508152602001604051806040016040528060078152602001666f66205261676560c81b8152508152602001604051806040016040528060078152602001666f66204675727960c81b81525081526020016040518060400160405280600a8152602001691bd988159a5d1c9a5bdb60b21b81525081526020016040518060400160405280600a8152602001690decc40e8d0ca408cdef60b31b81525081526020016040518060400160405280600c81526020016b37b3102232ba32b1ba34b7b760a11b81525081526020016040518060400160405280600d81526020016c37b3102932b33632b1ba34b7b760991b81525081526020016040518060400160405280600c81526020016b6f6620746865205477696e7360a01b81525081525060089060106200119a92919062001e3f565b50604080516108e08101825260056108a082018181526441676f6e7960d81b6108c0840152825282518084018452600a8082526941706f63616c7970736560b01b60208381019190915280850192909252845180860186528181526920b936b0b3b2b23237b760b11b818401528486015284518086018652838152641099585cdd60da1b81840152606085015284518086018652600880825267084cad0cadadee8d60c31b82850152608086019190915285518087018752600680825265109b1a59da1d60d21b8286015260a08701919091528651808801885285815264109b1bdbd960da1b8186015260c0870152865180880188526007808252664272616d626c6560c81b8287015260e0880191909152875180890189526009808252684272696d73746f6e6560b81b828801526101008901919091528851808a018a5287815264109c9bdbd960da1b818801526101208901528851808a018a528281526621b0b93934b7b760c91b818801526101408901528851808a018a528181526843617461636c79736d60b81b818801526101608901528851808a018a52848152674368696d6572696360c01b818801526101808901528851808a018a5283815265436f7270736560d01b818801526101a08901528851808a018a528581526921b7b9393ab83a34b7b760b11b818801526101c08901528851808a018a52818152682230b6b730ba34b7b760b91b818801526101e08901528851808a018a5287815264088cac2e8d60db1b818801526102008901528851808a018a52878152642232b6b7b760d91b818801526102208901528851808a018a526004808252634469726560e01b828901526102408a01919091528951808b018b5284815265223930b3b7b760d11b818901526102608a01528951808b018b5288815264111c99585960da1b818901526102808a01528951808b018b5281815263446f6f6d60e01b818901526102a08a01528951808b018b52818152634475736b60e01b818901526102c08a01528951808b018b52888152644561676c6560d81b818901526102e08a01528951808b018b528581526722b6b83cb932b0b760c11b818901526103008a01528951808b018b52818152634661746560e01b818901526103208a01528951808b018b52600380825262466f6560e81b828a01526103408b01919091528a51808c018c528281526347616c6560e01b818a01526103608b01528a51808c018c528981526411da1bdd5b60da1b818a01526103808b01528a51808c018c5289815264476c6f6f6d60d81b818a01526103a08b01528a51808c018c528981526408ed8f2e0d60db1b818a01526103c08b01528a51808c018c5289815264476f6c656d60d81b818a01526103e08b01528a51808c018c52828152634772696d60e01b818a01526104008b01528a51808c018c52828152634861746560e01b818a01526104208b01528a51808c018c52898152644861766f6360d81b818a01526104408b01528a51808c018c52858152652437b737bab960d11b818a01526104608b01528a51808c018c52858152652437b93937b960d11b818a01526104808b01528a51808c018c52868152674879706e6f74696360c01b818a01526104a08b01528a51808c018c528581526525b930b5b2b760d11b818a01526104c08b01528a51808c018c5289815264098dec2e8d60db1b818a01526104e08b01528a51808c018c52838152684d61656c7374726f6d60b81b818a01526105008b01528a51808c018c5282815263135a5b9960e21b818a01526105208b01528a51808c018c52848152664d697261636c6560c81b818a01526105408b01528a51808c018c5285815265135bdc989a5960d21b818a01526105608b01528a51808c018c529586526727b13634bb34b7b760c11b868901526105808a01959095528951808b018b528281526813db9cdb185d59da1d60ba1b818901526105a08a01528951808b018b52818152632830b4b760e11b818901526105c08a01528951808b018b52600b81526a50616e64656d6f6e69756d60a81b818901526105e08a01528951808b018b52838152660a0d0decadcd2f60cb1b818901526106008a01528951808b018b5284815265506c6167756560d01b818901526106208a01528951808b018b52818152635261676560e01b818901526106408a01528951808b018b52838152665261707475726560c81b818901526106608a01528951808b018b528181526352756e6560e01b818901526106808a01528951808b018b528881526414dadd5b1b60da1b818901526106a08a01528951808b018b528581526214dbdb60ea1b818901526106c08a01528951808b018b529081526314dbdd5b60e21b818801526106e08901528851808a018a5283815265536f72726f7760d01b818801526107008901528851808a018a528381526514dc1a5c9a5d60d21b818801526107208901528851808a018a528781526453746f726d60d81b818801526107408901528851808a018a528281526615195b5c195cdd60ca1b818801526107608901528851808a018a5282815266151bdc9b595b9d60ca1b818801526107808901528851808a018a528181526856656e6765616e636560b81b818801526107a08901528851808a018a5282815266566963746f727960c81b818801526107c08901528851808a018a52878152642b34b832b960d91b818801526107e08901528851808a018a52928352650acdee4e8caf60d31b838701526108008801929092528751808901895292835262576f6560e81b8386015261082087019290925286518088018852948552640aee4c2e8d60db1b8585015261084086019490945285518087018752908152664c69676874277360c81b8184015261086085015284518086019095528452695368696d6d6572696e6760b01b90840152610880820192909252620019fe9190604562001e91565b506040805161028081018252600461024082018181526342616e6560e01b61026084015282528251808401845281815263149bdbdd60e21b6020828101919091528084019190915283518085018552828152634269746560e01b81830152838501528351808501855282815263536f6e6760e01b81830152606084015283518085018552828152632937b0b960e11b81830152608084015283518085018552600580825264047726173760dc1b8284015260a085019190915284518086018652600a80825269125b9cdd1c9d5b595b9d60b21b8285015260c08601919091528551808701875284815263476c6f7760e01b8185015260e0860152855180870187526006808252652132b73232b960d11b828601526101008701919091528651808801885290815265536861646f7760d01b818501526101208601528551808701875260078152662bb434b9b832b960c91b81850152610140860152855180870187528281526414da1bdd5d60da1b81850152610160860152855180870187529182526411dc9bdddb60da1b8284015261018085019190915284518086018652838152632a32b0b960e11b818401526101a085015284518086018652838152635065616b60e01b818401526101c08501528451808601865283815263466f726d60e01b818401526101e085015284518086018652600381526229bab760e91b8184015261020085015284518086019095529184526326b7b7b760e11b9084015261022082019290925262001c349190601262001ce5565b5034801562001c4257600080fd5b506040516200768e3803806200768e83398101604081905262001c6591620020b5565b83518490849062001c7e90600b90602085019062001ee3565b50805162001c9490600c90602084019062001ee3565b5050855162001cac9150601690602088019062001ee3565b50601580546001600160a01b031916331790556014819055815162001cd990601790602085019062001ee3565b505050505050620021b4565b82805482825590600052602060002090810192821562001d37579160200282015b8281111562001d37578251805162001d2691849160209091019062001ee3565b509160200191906001019062001d06565b5062001d4592915062001f6e565b5090565b82805482825590600052602060002090810192821562001d37579160200282015b8281111562001d37578251805162001d8a91849160209091019062001ee3565b509160200191906001019062001d6a565b82805482825590600052602060002090810192821562001d37579160200282015b8281111562001d37578251805162001ddc91849160209091019062001ee3565b509160200191906001019062001dbc565b82805482825590600052602060002090810192821562001d37579160200282015b8281111562001d37578251805162001e2e91849160209091019062001ee3565b509160200191906001019062001e0e565b82805482825590600052602060002090810192821562001d37579160200282015b8281111562001d37578251805162001e8091849160209091019062001ee3565b509160200191906001019062001e60565b82805482825590600052602060002090810192821562001d37579160200282015b8281111562001d37578251805162001ed291849160209091019062001ee3565b509160200191906001019062001eb2565b82805462001ef19062002178565b90600052602060002090601f01602090048101928262001f15576000855562001f60565b82601f1062001f3057805160ff191683800117855562001f60565b8280016001018555821562001f60579182015b8281111562001f6057825182559160200191906001019062001f43565b5062001d4592915062001f8f565b8082111562001d4557600062001f85828262001fa6565b5060010162001f6e565b5b8082111562001d45576000815560010162001f90565b50805462001fb49062002178565b6000825580601f1062001fc5575050565b601f01602090049060005260206000209081019062001fe5919062001f8f565b50565b634e487b7160e01b600052604160045260246000fd5b600082601f8301126200201057600080fd5b81516001600160401b03808211156200202d576200202d62001fe8565b604051601f8301601f19908116603f0116810190828211818310171562002058576200205862001fe8565b816040528381526020925086838588010111156200207557600080fd5b600091505b838210156200209957858201830151818301840152908201906200207a565b83821115620020ab5760008385830101525b9695505050505050565b600080600080600060a08688031215620020ce57600080fd5b85516001600160401b0380821115620020e657600080fd5b620020f489838a0162001ffe565b965060208801519150808211156200210b57600080fd5b6200211989838a0162001ffe565b955060408801519150808211156200213057600080fd5b6200213e89838a0162001ffe565b945060608801519150808211156200215557600080fd5b50620021648882890162001ffe565b925050608086015190509295509295909350565b600181811c908216806200218d57607f821691505b602082108103620021ae57634e487b7160e01b600052602260045260246000fd5b50919050565b6154ca80620021c46000396000f3fe608060405234801561001057600080fd5b50600436106101a35760003560e01c806343a47162116100ee5780639b8a323711610097578063c87b56dd11610071578063c87b56dd146103aa578063cba86e23146103bd578063d5608f9a1461040a578063e985e9c51461041d57600080fd5b80639b8a32371461035a578063a22cb46514610384578063b88d4fde1461039757600080fd5b80636352211e116100c85780636352211e1461032c57806370a082311461033f57806395d89b411461035257600080fd5b806343a47162146102dd57806351cff8d9146102f257806353bbd6a71461030557600080fd5b80631593dee1116101505780633c41d28c1161012a5780633c41d28c146102735780633e8474ca146102c157806342842e0e146102ca57600080fd5b80631593dee11461024457806317d70f7c1461025757806323b872dd1461026057600080fd5b8063095ea7b311610181578063095ea7b3146102105780630ab14d8a146102255780631249c58b1461023c57600080fd5b806301ffc9a7146101a857806306fdde03146101d0578063081812fc146101e5575b600080fd5b6101bb6101b63660046146f3565b610459565b60405190151581526020015b60405180910390f35b6101d861053e565b6040516101c7919061476f565b6101f86101f3366004614782565b6105d0565b6040516001600160a01b0390911681526020016101c7565b61022361021e3660046147b7565b6105f7565b005b61022e60115481565b6040519081526020016101c7565b61022361072d565b6102236102523660046147e1565b6107b9565b61022e60135481565b61022361026e3660046147e1565b610862565b610286610281366004614782565b6108e9565b604080519889526020890197909752958701949094526060860192909252608085015260a084015260c083015260e0820152610100016101c7565b61022e60145481565b6102236102d83660046147e1565b61158f565b6102e56115aa565b6040516101c7919061481d565b610223610300366004614861565b611674565b610318610313366004614782565b61170f565b6040516101c798979695949392919061487c565b6101f861033a366004614782565b611ce5565b61022e61034d366004614861565b611d4a565b6101d8611de4565b61036d610368366004614782565b611df3565b6040516101c79b9a99989796959493929190614963565b610223610392366004614a49565b612293565b6102236103a5366004614a96565b6122a2565b6101d86103b8366004614782565b61232a565b6103ed6103cb366004614782565b601260205260009081526040902080546001909101546001600160a01b031682565b604080519283526001600160a01b039091166020830152016101c7565b610223610418366004614782565b612b71565b6101bb61042b366004614b72565b6001600160a01b03918216600090815260106020908152604080832093909416825291909152205460ff1690565b60007fffffffff0000000000000000000000000000000000000000000000000000000082167f80ac58cd0000000000000000000000000000000000000000000000000000000014806104ec57507fffffffff0000000000000000000000000000000000000000000000000000000082167f5b5e139f00000000000000000000000000000000000000000000000000000000145b8061053857507f01ffc9a7000000000000000000000000000000000000000000000000000000007fffffffff000000000000000000000000000000000000000000000000000000008316145b92915050565b6060600b805461054d90614ba5565b80601f016020809104026020016040519081016040528092919081815260200182805461057990614ba5565b80156105c65780601f1061059b576101008083540402835291602001916105c6565b820191906000526020600020905b8154815290600101906020018083116105a957829003601f168201915b5050505050905090565b60006105db82613424565b506000908152600f60205260409020546001600160a01b031690565b600061060282611ce5565b9050806001600160a01b0316836001600160a01b0316036106905760405162461bcd60e51b815260206004820152602160248201527f4552433732313a20617070726f76616c20746f2063757272656e74206f776e6560448201527f720000000000000000000000000000000000000000000000000000000000000060648201526084015b60405180910390fd5b336001600160a01b03821614806106ac57506106ac813361042b565b61071e5760405162461bcd60e51b815260206004820152603d60248201527f4552433732313a20617070726f76652063616c6c6572206973206e6f7420746f60448201527f6b656e206f776e6572206f7220617070726f76656420666f7220616c6c0000006064820152608401610687565b610728838361348b565b505050565b60135460009081526018602052604090206001808201805473ffffffffffffffffffffffffffffffffffffffff191633179055600a8201805460ff19168280021790555060115480825561078090613506565b61078c3360135461357b565b6013805490600061079c83614bf5565b9091555050601180549060006107b183614bf5565b919050555050565b6015546001600160a01b031633146107d057600080fd5b6040517fa9059cbb0000000000000000000000000000000000000000000000000000000081526001600160a01b0384811660048301526024820183905283169063a9059cbb906044016020604051808303816000875af1158015610838573d6000803e3d6000fd5b505050506040513d601f19601f8201168201806040525081019061085c9190614c0f565b50505050565b61086c3382613713565b6108de5760405162461bcd60e51b815260206004820152602d60248201527f4552433732313a2063616c6c6572206973206e6f7420746f6b656e206f776e6560448201527f72206f7220617070726f766564000000000000000000000000000000000000006064820152608401610687565b610728838383613792565b6000806000806000806000806000601860008b815260200190815260200160002060405180610160016040529081600082015481526020016001820160009054906101000a90046001600160a01b03166001600160a01b03166001600160a01b0316815260200160028201805461095f90614ba5565b80601f016020809104026020016040519081016040528092919081815260200182805461098b90614ba5565b80156109d85780601f106109ad576101008083540402835291602001916109d8565b820191906000526020600020905b8154815290600101906020018083116109bb57829003601f168201915b505050505081526020016003820180546109f190614ba5565b80601f0160208091040260200160405190810160405280929190818152602001828054610a1d90614ba5565b8015610a6a5780601f10610a3f57610100808354040283529160200191610a6a565b820191906000526020600020905b815481529060010190602001808311610a4d57829003601f168201915b50505050508152602001600482018054610a8390614ba5565b80601f0160208091040260200160405190810160405280929190818152602001828054610aaf90614ba5565b8015610afc5780601f10610ad157610100808354040283529160200191610afc565b820191906000526020600020905b815481529060010190602001808311610adf57829003601f168201915b50505050508152602001600582018054610b1590614ba5565b80601f0160208091040260200160405190810160405280929190818152602001828054610b4190614ba5565b8015610b8e5780601f10610b6357610100808354040283529160200191610b8e565b820191906000526020600020905b815481529060010190602001808311610b7157829003601f168201915b50505050508152602001600682018054610ba790614ba5565b80601f0160208091040260200160405190810160405280929190818152602001828054610bd390614ba5565b8015610c205780601f10610bf557610100808354040283529160200191610c20565b820191906000526020600020905b815481529060010190602001808311610c0357829003601f168201915b50505050508152602001600782018054610c3990614ba5565b80601f0160208091040260200160405190810160405280929190818152602001828054610c6590614ba5565b8015610cb25780601f10610c8757610100808354040283529160200191610cb2565b820191906000526020600020905b815481529060010190602001808311610c9557829003601f168201915b50505050508152602001600882018054610ccb90614ba5565b80601f0160208091040260200160405190810160405280929190818152602001828054610cf790614ba5565b8015610d445780601f10610d1957610100808354040283529160200191610d44565b820191906000526020600020905b815481529060010190602001808311610d2757829003601f168201915b50505050508152602001600982018054610d5d90614ba5565b80601f0160208091040260200160405190810160405280929190818152602001828054610d8990614ba5565b8015610dd65780601f10610dab57610100808354040283529160200191610dd6565b820191906000526020600020905b815481529060010190602001808311610db957829003601f168201915b5050509183525050600a82015460209091019060ff166002811115610dfd57610dfd61492b565b6002811115610e0e57610e0e61492b565b905250905060028161014001516002811115610e2c57610e2c61492b565b14610e795760405162461bcd60e51b815260206004820152600f60248201527f55736572206e6f742065786973747300000000000000000000000000000000006044820152606401610687565b610f586000805480602002602001604051908101604052809291908181526020016000905b82821015610f4a578382906000526020600020018054610ebd90614ba5565b80601f0160208091040260200160405190810160405280929190818152602001828054610ee990614ba5565b8015610f365780601f10610f0b57610100808354040283529160200191610f36565b820191906000526020600020905b815481529060010190602001808311610f1957829003601f168201915b505050505081526020019060010190610e9e565b5050505082604001516139c8565b6110376001805480602002602001604051908101604052809291908181526020016000905b82821015611029578382906000526020600020018054610f9c90614ba5565b80601f0160208091040260200160405190810160405280929190818152602001828054610fc890614ba5565b80156110155780601f10610fea57610100808354040283529160200191611015565b820191906000526020600020905b815481529060010190602001808311610ff857829003601f168201915b505050505081526020019060010190610f7d565b5050505083606001516139c8565b6111166002805480602002602001604051908101604052809291908181526020016000905b8282101561110857838290600052602060002001805461107b90614ba5565b80601f01602080910402602001604051908101604052809291908181526020018280546110a790614ba5565b80156110f45780601f106110c9576101008083540402835291602001916110f4565b820191906000526020600020905b8154815290600101906020018083116110d757829003601f168201915b50505050508152602001906001019061105c565b5050505084608001516139c8565b6111f56003805480602002602001604051908101604052809291908181526020016000905b828210156111e757838290600052602060002001805461115a90614ba5565b80601f016020809104026020016040519081016040528092919081815260200182805461118690614ba5565b80156111d35780601f106111a8576101008083540402835291602001916111d3565b820191906000526020600020905b8154815290600101906020018083116111b657829003601f168201915b50505050508152602001906001019061113b565b505050508560a001516139c8565b6112d46004805480602002602001604051908101604052809291908181526020016000905b828210156112c657838290600052602060002001805461123990614ba5565b80601f016020809104026020016040519081016040528092919081815260200182805461126590614ba5565b80156112b25780601f10611287576101008083540402835291602001916112b2565b820191906000526020600020905b81548152906001019060200180831161129557829003601f168201915b50505050508152602001906001019061121a565b505050508660c001516139c8565b6113b36005805480602002602001604051908101604052809291908181526020016000905b828210156113a557838290600052602060002001805461131890614ba5565b80601f016020809104026020016040519081016040528092919081815260200182805461134490614ba5565b80156113915780601f1061136657610100808354040283529160200191611391565b820191906000526020600020905b81548152906001019060200180831161137457829003601f168201915b5050505050815260200190600101906112f9565b505050508760e001516139c8565b6114936006805480602002602001604051908101604052809291908181526020016000905b828210156114845783829060005260206000200180546113f790614ba5565b80601f016020809104026020016040519081016040528092919081815260200182805461142390614ba5565b80156114705780601f1061144557610100808354040283529160200191611470565b820191906000526020600020905b81548152906001019060200180831161145357829003601f168201915b5050505050815260200190600101906113d8565b505050508861010001516139c8565b6115736007805480602002602001604051908101604052809291908181526020016000905b828210156115645783829060005260206000200180546114d790614ba5565b80601f016020809104026020016040519081016040528092919081815260200182805461150390614ba5565b80156115505780601f1061152557610100808354040283529160200191611550565b820191906000526020600020905b81548152906001019060200180831161153357829003601f168201915b5050505050815260200190600101906114b8565b505050508961012001516139c8565b9850985098509850985098509850985050919395975091939597565b610728838383604051806020016040528060008152506122a2565b606060006115b733611d4a565b905060008167ffffffffffffffff8111156115d4576115d4614a80565b6040519080825280602002602001820160405280156115fd578160200160208202803683370190505b5090506000805b60135481101561166b573361161882611ce5565b6001600160a01b031603611659578083838151811061163957611639614c2c565b60209081029190910101528161164e81614bf5565b92505083821461166b575b8061166381614bf5565b915050611604565b50909392505050565b6015546001600160a01b0316331461168b57600080fd5b47806116d95760405162461bcd60e51b815260206004820152601060248201527f73756666696369656e742066756e6473000000000000000000000000000000006044820152606401610687565b6040516001600160a01b0383169082156108fc029083906000818181858888f19350505050158015610728573d6000803e3d6000fd5b6060806060806060806060806000601860008b815260200190815260200160002060405180610160016040529081600082015481526020016001820160009054906101000a90046001600160a01b03166001600160a01b03166001600160a01b0316815260200160028201805461178590614ba5565b80601f01602080910402602001604051908101604052809291908181526020018280546117b190614ba5565b80156117fe5780601f106117d3576101008083540402835291602001916117fe565b820191906000526020600020905b8154815290600101906020018083116117e157829003601f168201915b5050505050815260200160038201805461181790614ba5565b80601f016020809104026020016040519081016040528092919081815260200182805461184390614ba5565b80156118905780601f1061186557610100808354040283529160200191611890565b820191906000526020600020905b81548152906001019060200180831161187357829003601f168201915b505050505081526020016004820180546118a990614ba5565b80601f01602080910402602001604051908101604052809291908181526020018280546118d590614ba5565b80156119225780601f106118f757610100808354040283529160200191611922565b820191906000526020600020905b81548152906001019060200180831161190557829003601f168201915b5050505050815260200160058201805461193b90614ba5565b80601f016020809104026020016040519081016040528092919081815260200182805461196790614ba5565b80156119b45780601f10611989576101008083540402835291602001916119b4565b820191906000526020600020905b81548152906001019060200180831161199757829003601f168201915b505050505081526020016006820180546119cd90614ba5565b80601f01602080910402602001604051908101604052809291908181526020018280546119f990614ba5565b8015611a465780601f10611a1b57610100808354040283529160200191611a46565b820191906000526020600020905b815481529060010190602001808311611a2957829003601f168201915b50505050508152602001600782018054611a5f90614ba5565b80601f0160208091040260200160405190810160405280929190818152602001828054611a8b90614ba5565b8015611ad85780601f10611aad57610100808354040283529160200191611ad8565b820191906000526020600020905b815481529060010190602001808311611abb57829003601f168201915b50505050508152602001600882018054611af190614ba5565b80601f0160208091040260200160405190810160405280929190818152602001828054611b1d90614ba5565b8015611b6a5780601f10611b3f57610100808354040283529160200191611b6a565b820191906000526020600020905b815481529060010190602001808311611b4d57829003601f168201915b50505050508152602001600982018054611b8390614ba5565b80601f0160208091040260200160405190810160405280929190818152602001828054611baf90614ba5565b8015611bfc5780601f10611bd157610100808354040283529160200191611bfc565b820191906000526020600020905b815481529060010190602001808311611bdf57829003601f168201915b5050509183525050600a82015460209091019060ff166002811115611c2357611c2361492b565b6002811115611c3457611c3461492b565b905250905060028161014001516002811115611c5257611c5261492b565b14611c9f5760405162461bcd60e51b815260206004820152600f60248201527f55736572206e6f742065786973747300000000000000000000000000000000006044820152606401610687565b8060400151816060015182608001518360a001518460c001518560e001518661010001518761012001519850985098509850985098509850985050919395975091939597565b6000818152600d60205260408120546001600160a01b0316806105385760405162461bcd60e51b815260206004820152601860248201527f4552433732313a20696e76616c696420746f6b656e20494400000000000000006044820152606401610687565b60006001600160a01b038216611dc85760405162461bcd60e51b815260206004820152602960248201527f4552433732313a2061646472657373207a65726f206973206e6f74206120766160448201527f6c6964206f776e657200000000000000000000000000000000000000000000006064820152608401610687565b506001600160a01b03166000908152600e602052604090205490565b6060600c805461054d90614ba5565b60186020526000908152604090208054600182015460028301805492936001600160a01b0390921692611e2590614ba5565b80601f0160208091040260200160405190810160405280929190818152602001828054611e5190614ba5565b8015611e9e5780601f10611e7357610100808354040283529160200191611e9e565b820191906000526020600020905b815481529060010190602001808311611e8157829003601f168201915b505050505090806003018054611eb390614ba5565b80601f0160208091040260200160405190810160405280929190818152602001828054611edf90614ba5565b8015611f2c5780601f10611f0157610100808354040283529160200191611f2c565b820191906000526020600020905b815481529060010190602001808311611f0f57829003601f168201915b505050505090806004018054611f4190614ba5565b80601f0160208091040260200160405190810160405280929190818152602001828054611f6d90614ba5565b8015611fba5780601f10611f8f57610100808354040283529160200191611fba565b820191906000526020600020905b815481529060010190602001808311611f9d57829003601f168201915b505050505090806005018054611fcf90614ba5565b80601f0160208091040260200160405190810160405280929190818152602001828054611ffb90614ba5565b80156120485780601f1061201d57610100808354040283529160200191612048565b820191906000526020600020905b81548152906001019060200180831161202b57829003601f168201915b50505050509080600601805461205d90614ba5565b80601f016020809104026020016040519081016040528092919081815260200182805461208990614ba5565b80156120d65780601f106120ab576101008083540402835291602001916120d6565b820191906000526020600020905b8154815290600101906020018083116120b957829003601f168201915b5050505050908060070180546120eb90614ba5565b80601f016020809104026020016040519081016040528092919081815260200182805461211790614ba5565b80156121645780601f1061213957610100808354040283529160200191612164565b820191906000526020600020905b81548152906001019060200180831161214757829003601f168201915b50505050509080600801805461217990614ba5565b80601f01602080910402602001604051908101604052809291908181526020018280546121a590614ba5565b80156121f25780601f106121c7576101008083540402835291602001916121f2565b820191906000526020600020905b8154815290600101906020018083116121d557829003601f168201915b50505050509080600901805461220790614ba5565b80601f016020809104026020016040519081016040528092919081815260200182805461223390614ba5565b80156122805780601f1061225557610100808354040283529160200191612280565b820191906000526020600020905b81548152906001019060200180831161226357829003601f168201915b505050600a909301549192505060ff168b565b61229e338383613ab6565b5050565b6122ac3383613713565b61231e5760405162461bcd60e51b815260206004820152602d60248201527f4552433732313a2063616c6c6572206973206e6f7420746f6b656e206f776e6560448201527f72206f7220617070726f766564000000000000000000000000000000000000006064820152608401610687565b61085c84848484613b84565b60606123346145eb565b60008381526018602090815260408083208151610160810183528154815260018201546001600160a01b031693810193909352600281018054919284019161237b90614ba5565b80601f01602080910402602001604051908101604052809291908181526020018280546123a790614ba5565b80156123f45780601f106123c9576101008083540402835291602001916123f4565b820191906000526020600020905b8154815290600101906020018083116123d757829003601f168201915b5050505050815260200160038201805461240d90614ba5565b80601f016020809104026020016040519081016040528092919081815260200182805461243990614ba5565b80156124865780601f1061245b57610100808354040283529160200191612486565b820191906000526020600020905b81548152906001019060200180831161246957829003601f168201915b5050505050815260200160048201805461249f90614ba5565b80601f01602080910402602001604051908101604052809291908181526020018280546124cb90614ba5565b80156125185780601f106124ed57610100808354040283529160200191612518565b820191906000526020600020905b8154815290600101906020018083116124fb57829003601f168201915b5050505050815260200160058201805461253190614ba5565b80601f016020809104026020016040519081016040528092919081815260200182805461255d90614ba5565b80156125aa5780601f1061257f576101008083540402835291602001916125aa565b820191906000526020600020905b81548152906001019060200180831161258d57829003601f168201915b505050505081526020016006820180546125c390614ba5565b80601f01602080910402602001604051908101604052809291908181526020018280546125ef90614ba5565b801561263c5780601f106126115761010080835404028352916020019161263c565b820191906000526020600020905b81548152906001019060200180831161261f57829003601f168201915b5050505050815260200160078201805461265590614ba5565b80601f016020809104026020016040519081016040528092919081815260200182805461268190614ba5565b80156126ce5780601f106126a3576101008083540402835291602001916126ce565b820191906000526020600020905b8154815290600101906020018083116126b157829003601f168201915b505050505081526020016008820180546126e790614ba5565b80601f016020809104026020016040519081016040528092919081815260200182805461271390614ba5565b80156127605780601f1061273557610100808354040283529160200191612760565b820191906000526020600020905b81548152906001019060200180831161274357829003601f168201915b5050505050815260200160098201805461277990614ba5565b80601f01602080910402602001604051908101604052809291908181526020018280546127a590614ba5565b80156127f25780601f106127c7576101008083540402835291602001916127f2565b820191906000526020600020905b8154815290600101906020018083116127d557829003601f168201915b5050509183525050600a82015460209091019060ff1660028111156128195761281961492b565b600281111561282a5761282a61492b565b9052509050600181610140015160028111156128485761284861492b565b0361287a57600060176040516020016128619190614cdb565b60408051601f1981840301815291905295945050505050565b600081610140015160028111156128935761289361492b565b036128e05760405162461bcd60e51b815260206004820152600f60248201527f426f78206e6f74206578697374656400000000000000000000000000000000006044820152606401610687565b60405180610120016040528060fd815260200161530760fd9139825260408181015160208085019190915281516060810190925260288083529061546d90830139604080840191909152606082810151818501528151908101909152602880825261523c602083013960808084019190915281015160a0830152604080516060810190915260288082526152b6602083013960c083015260a081015160e0830152604080516060810190915260298082526152de602083013961010083015260c08101516101208301526040805160608101909152602980825261528d602083013961014083015260e08101516101608301526040805160608101909152602980825261540460208301396101808301526101008101516101a08301526040805160608101909152602980825261526460208301396101c08301526101208101516101e0830152604080518082018252600d81527f3c2f746578743e3c2f7376673e00000000000000000000000000000000000000602080830191909152610200850191909152835181850151838601516060870151608088015160a089015160c08a015160e08b01516101008c0151995160009a612aa19a909101614d0d565b60408051808303601f19018152908290526101208501516101408601516101608701516101808801516101a08901516101c08a01516101e08b01516102008c0151979950612af4988a9890602001614d0d565b60405160208183030381529060405290506000612b44612b1387613c0d565b6016612b1e85613cad565b604051602001612b3093929190614dce565b604051602081830303815290604052613cad565b905080604051602001612b579190614ed2565b60408051601f198184030181529190529695505050505050565b600081815260186020526040902060018101546001600160a01b03163314612bdb5760405162461bcd60e51b815260206004820152601e60248201527f6f6e6c79206f776e65722063616e2072657665616c207468652020626f7800006044820152606401610687565b6000612bef82600001546008601454613e6c565b9050612ce681600081518110612c0757612c07614c2c565b60200260200101516000805480602002602001604051908101604052809291908181526020016000905b82821015612cdd578382906000526020600020018054612c5090614ba5565b80601f0160208091040260200160405190810160405280929190818152602001828054612c7c90614ba5565b8015612cc95780601f10612c9e57610100808354040283529160200191612cc9565b820191906000526020600020905b815481529060010190602001808311612cac57829003601f168201915b505050505081526020019060010190612c31565b505050506140b9565b8051612cfc916002850191602090910190614613565b50612de981600181518110612d1357612d13614c2c565b60200260200101516001805480602002602001604051908101604052809291908181526020016000905b82821015612cdd578382906000526020600020018054612d5c90614ba5565b80601f0160208091040260200160405190810160405280929190818152602001828054612d8890614ba5565b8015612dd55780601f10612daa57610100808354040283529160200191612dd5565b820191906000526020600020905b815481529060010190602001808311612db857829003601f168201915b505050505081526020019060010190612d3d565b8051612dff916003850191602090910190614613565b50612eec81600281518110612e1657612e16614c2c565b60200260200101516002805480602002602001604051908101604052809291908181526020016000905b82821015612cdd578382906000526020600020018054612e5f90614ba5565b80601f0160208091040260200160405190810160405280929190818152602001828054612e8b90614ba5565b8015612ed85780601f10612ead57610100808354040283529160200191612ed8565b820191906000526020600020905b815481529060010190602001808311612ebb57829003601f168201915b505050505081526020019060010190612e40565b8051612f02916004850191602090910190614613565b50612fef81600381518110612f1957612f19614c2c565b60200260200101516003805480602002602001604051908101604052809291908181526020016000905b82821015612cdd578382906000526020600020018054612f6290614ba5565b80601f0160208091040260200160405190810160405280929190818152602001828054612f8e90614ba5565b8015612fdb5780601f10612fb057610100808354040283529160200191612fdb565b820191906000526020600020905b815481529060010190602001808311612fbe57829003601f168201915b505050505081526020019060010190612f43565b8051613005916005850191602090910190614613565b506130f28160048151811061301c5761301c614c2c565b60200260200101516004805480602002602001604051908101604052809291908181526020016000905b82821015612cdd57838290600052602060002001805461306590614ba5565b80601f016020809104026020016040519081016040528092919081815260200182805461309190614ba5565b80156130de5780601f106130b3576101008083540402835291602001916130de565b820191906000526020600020905b8154815290600101906020018083116130c157829003601f168201915b505050505081526020019060010190613046565b8051613108916006850191602090910190614613565b506131f58160058151811061311f5761311f614c2c565b60200260200101516005805480602002602001604051908101604052809291908181526020016000905b82821015612cdd57838290600052602060002001805461316890614ba5565b80601f016020809104026020016040519081016040528092919081815260200182805461319490614ba5565b80156131e15780601f106131b6576101008083540402835291602001916131e1565b820191906000526020600020905b8154815290600101906020018083116131c457829003601f168201915b505050505081526020019060010190613149565b805161320b916007850191602090910190614613565b506132f88160068151811061322257613222614c2c565b60200260200101516006805480602002602001604051908101604052809291908181526020016000905b82821015612cdd57838290600052602060002001805461326b90614ba5565b80601f016020809104026020016040519081016040528092919081815260200182805461329790614ba5565b80156132e45780601f106132b9576101008083540402835291602001916132e4565b820191906000526020600020905b8154815290600101906020018083116132c757829003601f168201915b50505050508152602001906001019061324c565b805161330e916008850191602090910190614613565b506133fb8160078151811061332557613325614c2c565b60200260200101516007805480602002602001604051908101604052809291908181526020016000905b82821015612cdd57838290600052602060002001805461336e90614ba5565b80601f016020809104026020016040519081016040528092919081815260200182805461339a90614ba5565b80156133e75780601f106133bc576101008083540402835291602001916133e7565b820191906000526020600020905b8154815290600101906020018083116133ca57829003601f168201915b50505050508152602001906001019061334f565b8051613411916009850191602090910190614613565b5050600a01805460ff1916600217905550565b6000818152600d60205260409020546001600160a01b03166134885760405162461bcd60e51b815260206004820152601860248201527f4552433732313a20696e76616c696420746f6b656e20494400000000000000006044820152606401610687565b50565b6000818152600f60205260409020805473ffffffffffffffffffffffffffffffffffffffff19166001600160a01b03841690811790915581906134cd82611ce5565b6001600160a01b03167f8c5be1e5ebec7d5bd14f71427d1e84f3dd0314c0f7b2291e5b200ac8c7c3b92560405160405180910390a45050565b60008181526012602090815260409182902060018101805473ffffffffffffffffffffffffffffffffffffffff191633908117909155438255601154845190815292830152917f42139093fd7ac15b45c666156888a691a366ed9d327f76e6b9f4ea4f3e82471c910160405180910390a15050565b6001600160a01b0382166135d15760405162461bcd60e51b815260206004820181905260248201527f4552433732313a206d696e7420746f20746865207a65726f20616464726573736044820152606401610687565b6000818152600d60205260409020546001600160a01b0316156136365760405162461bcd60e51b815260206004820152601c60248201527f4552433732313a20746f6b656e20616c7265616479206d696e746564000000006044820152606401610687565b6000818152600d60205260409020546001600160a01b03161561369b5760405162461bcd60e51b815260206004820152601c60248201527f4552433732313a20746f6b656e20616c7265616479206d696e746564000000006044820152606401610687565b6001600160a01b0382166000818152600e6020908152604080832080546001019055848352600d909152808220805473ffffffffffffffffffffffffffffffffffffffff19168417905551839291907fddf252ad1be2c89b69c2b068fc378daa952ba7f163c4a11628f55a4df523b3ef908290a45050565b60008061371f83611ce5565b9050806001600160a01b0316846001600160a01b0316148061376657506001600160a01b0380821660009081526010602090815260408083209388168352929052205460ff165b8061378a5750836001600160a01b031661377f846105d0565b6001600160a01b0316145b949350505050565b826001600160a01b03166137a582611ce5565b6001600160a01b0316146138215760405162461bcd60e51b815260206004820152602560248201527f4552433732313a207472616e736665722066726f6d20696e636f72726563742060448201527f6f776e65720000000000000000000000000000000000000000000000000000006064820152608401610687565b6001600160a01b03821661389c5760405162461bcd60e51b8152602060048201526024808201527f4552433732313a207472616e7366657220746f20746865207a65726f2061646460448201527f72657373000000000000000000000000000000000000000000000000000000006064820152608401610687565b826001600160a01b03166138af82611ce5565b6001600160a01b03161461392b5760405162461bcd60e51b815260206004820152602560248201527f4552433732313a207472616e736665722066726f6d20696e636f72726563742060448201527f6f776e65720000000000000000000000000000000000000000000000000000006064820152608401610687565b6000818152600f60209081526040808320805473ffffffffffffffffffffffffffffffffffffffff199081169091556001600160a01b03878116808652600e8552838620805460001901905590871680865283862080546001019055868652600d90945282852080549092168417909155905184937fddf252ad1be2c89b69c2b068fc378daa952ba7f163c4a11628f55a4df523b3ef91a4505050565b6000806000845111613a1c5760405162461bcd60e51b815260206004820152600d60248201527f6c69737420697320656d707479000000000000000000000000000000000000006044820152606401610687565b60005b8451811015613aae5783604051602001613a399190614f17565b60405160208183030381529060405280519060200120858281518110613a6157613a61614c2c565b6020026020010151604051602001613a799190614f17565b6040516020818303038152906040528051906020012003613a9c57809150613aae565b80613aa681614bf5565b915050613a1f565b509392505050565b816001600160a01b0316836001600160a01b031603613b175760405162461bcd60e51b815260206004820152601960248201527f4552433732313a20617070726f766520746f2063616c6c6572000000000000006044820152606401610687565b6001600160a01b03838116600081815260106020908152604080832094871680845294825291829020805460ff191686151590811790915591519182527f17307eab39ab6107e8899845ad3d59bd9653f200f220920489ca2b5937696c31910160405180910390a3505050565b613b8f848484613792565b613b9b84848484614368565b61085c5760405162461bcd60e51b815260206004820152603260248201527f4552433732313a207472616e7366657220746f206e6f6e20455243373231526560448201527f63656976657220696d706c656d656e74657200000000000000000000000000006064820152608401610687565b60606000613c1a83614509565b600101905060008167ffffffffffffffff811115613c3a57613c3a614a80565b6040519080825280601f01601f191660200182016040528015613c64576020820181803683370190505b5090508181016020015b600019017f3031323334353637383961626364656600000000000000000000000000000000600a86061a8153600a8504945084613c6e57509392505050565b80516060906000819003613cd1575050604080516020810190915260008152919050565b60006003613ce0836002614f49565b613cea9190614f61565b613cf5906004614f75565b90506000613d04826020614f49565b67ffffffffffffffff811115613d1c57613d1c614a80565b6040519080825280601f01601f191660200182016040528015613d46576020820181803683370190505b509050600060405180606001604052806040815260200161542d604091399050600181016020830160005b86811015613dd2576003818a01810151603f601282901c8116860151600c83901c8216870151600684901c831688015192909316870151600891821b60ff94851601821b92841692909201901b91160160e01b835260049092019101613d71565b506003860660018114613dec5760028114613e3657613e5e565b7f3d3d0000000000000000000000000000000000000000000000000000000000007ffffffffffffffffffffffffffffffffffffffffffffffffffffffffffffffffe830152613e5e565b7f3d000000000000000000000000000000000000000000000000000000000000006000198301525b505050918152949350505050565b60606011548410613ebf5760405162461bcd60e51b815260206004820152601660248201527f72616e646f6d20646f6573206e6f7420657869737473000000000000000000006044820152606401610687565b600084815260126020908152604091829020825180840190935280548352600101546001600160a01b03169082018190523314613f645760405162461bcd60e51b815260206004820152602260248201527f6f6e6c792072616e646f6d2063726561746f722063616e206765742072616e6460448201527f6f6d0000000000000000000000000000000000000000000000000000000000006064820152608401610687565b60008467ffffffffffffffff811115613f7f57613f7f614a80565b604051908082528060200260200182016040528015613fa8578160200160208202803683370190505b508251909150613fb9908590614f49565b4310156140085760405162461bcd60e51b815260206004820152601c60248201527f746f6f206561726c7920746f206765742072616e646f6d2073656564000000006044820152606401610687565b8151600090614018906002614f49565b604080519140602083018190529250600091016040516020818303038152906040528051906020012060001c905060005b878160ff1610156140ac576000614061606484614f94565b905080858360ff168151811061407957614079614c2c565b60ff90921660209283029190910190910152614096606484614f61565b92505080806140a490614fa8565b915050614049565b5091979650505050505050565b606060008283518560ff166140ce9190614f94565b815181106140de576140de614c2c565b6020026020010151905060006015856140f79190614fc7565b60ff169050600e81111561415657600880548391906141199060ff8916614f94565b8154811061412957614129614c2c565b90600052602060002001604051602001614144929190614fe9565b60405160208183030381529060405291505b60138110613aae57614166614697565b600980546141779060ff8916614f94565b8154811061418757614187614c2c565b90600052602060002001805461419c90614ba5565b80601f01602080910402602001604051908101604052809291908181526020018280546141c890614ba5565b80156142155780601f106141ea57610100808354040283529160200191614215565b820191906000526020600020905b8154815290600101906020018083116141f857829003601f168201915b50505050508160006002811061422d5761422d614c2c565b6020020152600a80546142439060ff8916614f94565b8154811061425357614253614c2c565b90600052602060002001805461426890614ba5565b80601f016020809104026020016040519081016040528092919081815260200182805461429490614ba5565b80156142e15780601f106142b6576101008083540402835291602001916142e1565b820191906000526020600020905b8154815290600101906020018083116142c457829003601f168201915b5050505050816001600281106142f9576142f9614c2c565b6020020152601382900361433557805160208083015160405161431f9392879101615038565b604051602081830303815290604052925061435f565b805160208083015160405161434d93928791016150f8565b60405160208183030381529060405292505b50509392505050565b60006001600160a01b0384163b156144fe576040517f150b7a020000000000000000000000000000000000000000000000000000000081526001600160a01b0385169063150b7a02906143c59033908990889088906004016151e2565b6020604051808303816000875af1925050508015614400575060408051601f3d908101601f191682019092526143fd9181019061521e565b60015b6144b3573d80801561442e576040519150601f19603f3d011682016040523d82523d6000602084013e614433565b606091505b5080516000036144ab5760405162461bcd60e51b815260206004820152603260248201527f4552433732313a207472616e7366657220746f206e6f6e20455243373231526560448201527f63656976657220696d706c656d656e74657200000000000000000000000000006064820152608401610687565b805181602001fd5b7fffffffff00000000000000000000000000000000000000000000000000000000167f150b7a020000000000000000000000000000000000000000000000000000000014905061378a565b506001949350505050565b6000807a184f03e93ff9f4daa797ed6e38ed64bf6a1f0100000000000000008310614552577a184f03e93ff9f4daa797ed6e38ed64bf6a1f010000000000000000830492506040015b6d04ee2d6d415b85acef8100000000831061457e576d04ee2d6d415b85acef8100000000830492506020015b662386f26fc10000831061459c57662386f26fc10000830492506010015b6305f5e10083106145b4576305f5e100830492506008015b61271083106145c857612710830492506004015b606483106145da576064830492506002015b600a83106105385760010192915050565b6040518061022001604052806011905b60608152602001906001900390816145fb5790505090565b82805461461f90614ba5565b90600052602060002090601f0160209004810192826146415760008555614687565b82601f1061465a57805160ff1916838001178555614687565b82800160010185558215614687579182015b8281111561468757825182559160200191906001019061466c565b506146939291506146b0565b5090565b60408051808201909152606081526001602082016145fb565b5b8082111561469357600081556001016146b1565b7fffffffff000000000000000000000000000000000000000000000000000000008116811461348857600080fd5b60006020828403121561470557600080fd5b8135614710816146c5565b9392505050565b60005b8381101561473257818101518382015260200161471a565b8381111561085c5750506000910152565b6000815180845261475b816020860160208601614717565b601f01601f19169290920160200192915050565b6020815260006147106020830184614743565b60006020828403121561479457600080fd5b5035919050565b80356001600160a01b03811681146147b257600080fd5b919050565b600080604083850312156147ca57600080fd5b6147d38361479b565b946020939093013593505050565b6000806000606084860312156147f657600080fd5b6147ff8461479b565b925061480d6020850161479b565b9150604084013590509250925092565b6020808252825182820181905260009190848201906040850190845b8181101561485557835183529284019291840191600101614839565b50909695505050505050565b60006020828403121561487357600080fd5b6147108261479b565b60006101008083526148908184018c614743565b905082810360208401526148a4818b614743565b905082810360408401526148b8818a614743565b905082810360608401526148cc8189614743565b905082810360808401526148e08188614743565b905082810360a08401526148f48187614743565b905082810360c08401526149088186614743565b905082810360e084015261491c8185614743565b9b9a5050505050505050505050565b634e487b7160e01b600052602160045260246000fd5b6003811061495f57634e487b7160e01b600052602160045260246000fd5b9052565b8b81526001600160a01b038b166020820152600061016080604084015261498c8184018d614743565b905082810360608401526149a0818c614743565b905082810360808401526149b4818b614743565b905082810360a08401526149c8818a614743565b905082810360c08401526149dc8189614743565b905082810360e08401526149f08188614743565b9050828103610100840152614a058187614743565b9050828103610120840152614a1a8186614743565b915050614a2b610140830184614941565b9c9b505050505050505050505050565b801515811461348857600080fd5b60008060408385031215614a5c57600080fd5b614a658361479b565b91506020830135614a7581614a3b565b809150509250929050565b634e487b7160e01b600052604160045260246000fd5b60008060008060808587031215614aac57600080fd5b614ab58561479b565b9350614ac36020860161479b565b925060408501359150606085013567ffffffffffffffff80821115614ae757600080fd5b818701915087601f830112614afb57600080fd5b813581811115614b0d57614b0d614a80565b604051601f8201601f19908116603f01168101908382118183101715614b3557614b35614a80565b816040528281528a6020848701011115614b4e57600080fd5b82602086016020830137600060208483010152809550505050505092959194509250565b60008060408385031215614b8557600080fd5b614b8e8361479b565b9150614b9c6020840161479b565b90509250929050565b600181811c90821680614bb957607f821691505b602082108103614bd957634e487b7160e01b600052602260045260246000fd5b50919050565b634e487b7160e01b600052601160045260246000fd5b60006000198203614c0857614c08614bdf565b5060010190565b600060208284031215614c2157600080fd5b815161471081614a3b565b634e487b7160e01b600052603260045260246000fd5b8054600090600181811c9080831680614c5c57607f831692505b60208084108203614c7d57634e487b7160e01b600052602260045260246000fd5b818015614c915760018114614ca257614ccf565b60ff19861689528489019650614ccf565b60008881526020902060005b86811015614cc75781548b820152908501908301614cae565b505084890196505b50505050505092915050565b7f646174613a6170706c69636174696f6e2f6a736f6e3b6261736536342c00000081526000614710601d830184614c42565b60008a51614d1f818460208f01614717565b8a51614d318183860160208f01614717565b8a519184010190614d46818360208e01614717565b8951614d588183850160208e01614717565b8951929091010190614d6e818360208c01614717565b8751614d808183850160208c01614717565b8751929091010190614d96818360208a01614717565b8551614da88183850160208a01614717565b8551929091010190614dbe818360208801614717565b019b9a5050505050505050505050565b7f7b226e616d65223a20224d4c6f6f742023000000000000000000000000000000815260008451614e06816011850160208901614717565b7f222c20226465736372697074696f6e223a220000000000000000000000000000601191840191820152614e3d6023820186614c42565b90507f222c22696d616765223a2022646174613a696d6167652f7376672b786d6c3b6281527f61736536342c000000000000000000000000000000000000000000000000000060208201528351614e9b816026840160208801614717565b7f227d0000000000000000000000000000000000000000000000000000000000006026929091019182015260280195945050505050565b7f646174613a6170706c69636174696f6e2f6a736f6e3b6261736536342c000000815260008251614f0a81601d850160208701614717565b91909101601d0192915050565b60008251614f29818460208701614717565b9190910192915050565b634e487b7160e01b600052601260045260246000fd5b60008219821115614f5c57614f5c614bdf565b500190565b600082614f7057614f70614f33565b500490565b6000816000190483118215151615614f8f57614f8f614bdf565b500290565b600082614fa357614fa3614f33565b500690565b600060ff821660ff8103614fbe57614fbe614bdf565b60010192915050565b600060ff831680614fda57614fda614f33565b8060ff84160691505092915050565b60008351614ffb818460208801614717565b7f200000000000000000000000000000000000000000000000000000000000000090830190815261502f6001820185614c42565b95945050505050565b7f2200000000000000000000000000000000000000000000000000000000000000815260008451615070816001850160208901614717565b7f200000000000000000000000000000000000000000000000000000000000000060019184019182015284516150ad816002840160208901614717565b7f22200000000000000000000000000000000000000000000000000000000000006002929091019182015283516150eb816004840160208801614717565b0160040195945050505050565b7f2200000000000000000000000000000000000000000000000000000000000000815260008451615130816001850160208901614717565b7f2000000000000000000000000000000000000000000000000000000000000000600191840191820152845161516d816002840160208901614717565b7f22200000000000000000000000000000000000000000000000000000000000006002929091019182015283516151ab816004840160208801614717565b7f202b3100000000000000000000000000000000000000000000000000000000006004929091019182015260070195945050505050565b60006001600160a01b038087168352808616602084015250836040830152608060608301526152146080830184614743565b9695505050505050565b60006020828403121561523057600080fd5b8151614710816146c556fe3c2f746578743e3c7465787420783d2231302220793d2236302220636c6173733d2262617365223e3c2f746578743e3c7465787420783d2231302220793d223136302220636c6173733d2262617365223e3c2f746578743e3c7465787420783d2231302220793d223132302220636c6173733d2262617365223e3c2f746578743e3c7465787420783d2231302220793d2238302220636c6173733d2262617365223e3c2f746578743e3c7465787420783d2231302220793d223130302220636c6173733d2262617365223e3c73766720786d6c6e733d22687474703a2f2f7777772e77332e6f72672f323030302f73766722207072657365727665417370656374526174696f3d22784d696e594d696e206d656574222076696577426f783d223020302033353020333530223e3c7374796c653e2e62617365207b2066696c6c3a2077686974653b20666f6e742d66616d696c793a2073657269663b20666f6e742d73697a653a20313470783b207d3c2f7374796c653e3c726563742077696474683d223130302522206865696768743d2231303025222066696c6c3d22626c61636b22202f3e3c7465787420783d2231302220793d2232302220636c6173733d2262617365223e3c2f746578743e3c7465787420783d2231302220793d223134302220636c6173733d2262617365223e4142434445464748494a4b4c4d4e4f505152535455565758595a6162636465666768696a6b6c6d6e6f707172737475767778797a303132333435363738392b2f3c2f746578743e3c7465787420783d2231302220793d2234302220636c6173733d2262617365223ea2646970667358221220ddadd55a410dbdd4f916fa7bb40e59d48f671ccabe14e21771b4269e7468093764736f6c634300080d0033",
    "linkReferences": {}
  },
  "methodIdentifiers": {
    "approve(address,uint256)": "095ea7b3",
    "balanceOf(address)": "70a08231",
    "getApproved(uint256)": "081812fc",
    "getStructIndexInfo(uint256)": "3c41d28c",
    "getStructInfo(uint256)": "53bbd6a7",
    "getUserTokenIdList()": "43a47162",
    "isApprovedForAll(address,address)": "e985e9c5",
    "lootList(uint256)": "9b8a3237",
    "mint()": "1249c58b",
    "name()": "06fdde03",
    "ownerOf(uint256)": "6352211e",
    "randomId()": "0ab14d8a",
    "randomList(uint256)": "cba86e23",
    "revealNFT(uint256)": "d5608f9a",
    "safeTransferFrom(address,address,uint256)": "42842e0e",
    "safeTransferFrom(address,address,uint256,bytes)": "b88d4fde",
    "setApprovalForAll(address,bool)": "a22cb465",
    "supportsInterface(bytes4)": "01ffc9a7",
    "symbol()": "95d89b41",
    "tokenId()": "17d70f7c",
    "tokenURI(uint256)": "c87b56dd",
    "transferFrom(address,address,uint256)": "23b872dd",
    "waitBlockCount()": "3e8474ca",
    "withdraw(address)": "51cff8d9",
    "withdrawErc20(address,address,uint256)": "1593dee1"
  },
  "id": 168
}