{
  "abi": [
    {
      "inputs": [
        {
          "internalType": "string",
          "name": "_desc",
          "type": "string"
        },
        {
          "internalType": "string",
          "name": "symbol",
          "type": "string"
        },
        {
          "internalType": "string",
          "name": "name",
          "type": "string"
        },
        {
          "internalType": "string",
          "name": "_notRevealedInfo",
          "type": "string"
        },
        {
          "internalType": "uint256",
          "name": "_waitBlockCount",
          "type": "uint256"
        }
      ],
      "stateMutability": "nonpayable",
      "type": "constructor"
    },
    {
      "inputs": [
        {
          "internalType": "address",
          "name": "sender",
          "type": "address"
        },
        {
          "internalType": "uint256",
          "name": "tokenId",
          "type": "uint256"
        },
        {
          "internalType": "address",
          "name": "owner",
          "type": "address"
        }
      ],
      "name": "ERC721IncorrectOwner",
      "type": "error"
    },
    {
      "inputs": [
        {
          "internalType": "address",
          "name": "operator",
          "type": "address"
        },
        {
          "internalType": "uint256",
          "name": "tokenId",
          "type": "uint256"
        }
      ],
      "name": "ERC721InsufficientApproval",
      "type": "error"
    },
    {
      "inputs": [
        {
          "internalType": "address",
          "name": "approver",
          "type": "address"
        }
      ],
      "name": "ERC721InvalidApprover",
      "type": "error"
    },
    {
      "inputs": [
        {
          "internalType": "address",
          "name": "operator",
          "type": "address"
        }
      ],
      "name": "ERC721InvalidOperator",
      "type": "error"
    },
    {
      "inputs": [
        {
          "internalType": "address",
          "name": "owner",
          "type": "address"
        }
      ],
      "name": "ERC721InvalidOwner",
      "type": "error"
    },
    {
      "inputs": [
        {
          "internalType": "address",
          "name": "receiver",
          "type": "address"
        }
      ],
      "name": "ERC721InvalidReceiver",
      "type": "error"
    },
    {
      "inputs": [
        {
          "internalType": "address",
          "name": "sender",
          "type": "address"
        }
      ],
      "name": "ERC721InvalidSender",
      "type": "error"
    },
    {
      "inputs": [
        {
          "internalType": "uint256",
          "name": "tokenId",
          "type": "uint256"
        }
      ],
      "name": "ERC721NonexistentToken",
      "type": "error"
    },
    {
      "anonymous": false,
      "inputs": [
        {
          "indexed": true,
          "internalType": "address",
          "name": "owner",
          "type": "address"
        },
        {
          "indexed": true,
          "internalType": "address",
          "name": "approved",
          "type": "address"
        },
        {
          "indexed": true,
          "internalType": "uint256",
          "name": "tokenId",
          "type": "uint256"
        }
      ],
      "name": "Approval",
      "type": "event"
    },
    {
      "anonymous": false,
      "inputs": [
        {
          "indexed": true,
          "internalType": "address",
          "name": "owner",
          "type": "address"
        },
        {
          "indexed": true,
          "internalType": "address",
          "name": "operator",
          "type": "address"
        },
        {
          "indexed": false,
          "internalType": "bool",
          "name": "approved",
          "type": "bool"
        }
      ],
      "name": "ApprovalForAll",
      "type": "event"
    },
    {
      "anonymous": false,
      "inputs": [
        {
          "indexed": false,
          "internalType": "uint256",
          "name": "randomId",
          "type": "uint256"
        },
        {
          "indexed": false,
          "internalType": "address",
          "name": "author",
          "type": "address"
        }
      ],
      "name": "NewRandom",
      "type": "event"
    },
    {
      "anonymous": false,
      "inputs": [
        {
          "indexed": true,
          "internalType": "address",
          "name": "from",
          "type": "address"
        },
        {
          "indexed": true,
          "internalType": "address",
          "name": "to",
          "type": "address"
        },
        {
          "indexed": true,
          "internalType": "uint256",
          "name": "tokenId",
          "type": "uint256"
        }
      ],
      "name": "Transfer",
      "type": "event"
    },
    {
      "inputs": [
        {
          "internalType": "address",
          "name": "to",
          "type": "address"
        },
        {
          "internalType": "uint256",
          "name": "tokenId",
          "type": "uint256"
        }
      ],
      "name": "approve",
      "outputs": [],
      "stateMutability": "nonpayable",
      "type": "function"
    },
    {
      "inputs": [
        {
          "internalType": "address",
          "name": "owner",
          "type": "address"
        }
      ],
      "name": "balanceOf",
      "outputs": [
        {
          "internalType": "uint256",
          "name": "",
          "type": "uint256"
        }
      ],
      "stateMutability": "view",
      "type": "function"
    },
    {
      "inputs": [
        {
          "internalType": "uint256",
          "name": "tokenId",
          "type": "uint256"
        }
      ],
      "name": "getApproved",
      "outputs": [
        {
          "internalType": "address",
          "name": "",
          "type": "address"
        }
      ],
      "stateMutability": "view",
      "type": "function"
    },
    {
      "inputs": [
        {
          "internalType": "uint256",
          "name": "_tokenId",
          "type": "uint256"
        }
      ],
      "name": "getStructIndexInfo",
      "outputs": [
        {
          "internalType": "uint256",
          "name": "",
          "type": "uint256"
        },
        {
          "internalType": "uint256",
          "name": "",
          "type": "uint256"
        },
        {
          "internalType": "uint256",
          "name": "",
          "type": "uint256"
        },
        {
          "internalType": "uint256",
          "name": "",
          "type": "uint256"
        },
        {
          "internalType": "uint256",
          "name": "",
          "type": "uint256"
        },
        {
          "internalType": "uint256",
          "name": "",
          "type": "uint256"
        },
        {
          "internalType": "uint256",
          "name": "",
          "type": "uint256"
        },
        {
          "internalType": "uint256",
          "name": "",
          "type": "uint256"
        }
      ],
      "stateMutability": "view",
      "type": "function"
    },
    {
      "inputs": [
        {
          "internalType": "uint256",
          "name": "_tokenId",
          "type": "uint256"
        }
      ],
      "name": "getStructInfo",
      "outputs": [
        {
          "internalType": "string",
          "name": "",
          "type": "string"
        },
        {
          "internalType": "string",
          "name": "",
          "type": "string"
        },
        {
          "internalType": "string",
          "name": "",
          "type": "string"
        },
        {
          "internalType": "string",
          "name": "",
          "type": "string"
        },
        {
          "internalType": "string",
          "name": "",
          "type": "string"
        },
        {
          "internalType": "string",
          "name": "",
          "type": "string"
        },
        {
          "internalType": "string",
          "name": "",
          "type": "string"
        },
        {
          "internalType": "string",
          "name": "",
          "type": "string"
        }
      ],
      "stateMutability": "view",
      "type": "function"
    },
    {
      "inputs": [],
      "name": "getUserTokenIdList",
      "outputs": [
        {
          "internalType": "uint256[]",
          "name": "",
          "type": "uint256[]"
        }
      ],
      "stateMutability": "view",
      "type": "function"
    },
    {
      "inputs": [
        {
          "internalType": "address",
          "name": "owner",
          "type": "address"
        },
        {
          "internalType": "address",
          "name": "operator",
          "type": "address"
        }
      ],
      "name": "isApprovedForAll",
      "outputs": [
        {
          "internalType": "bool",
          "name": "",
          "type": "bool"
        }
      ],
      "stateMutability": "view",
      "type": "function"
    },
    {
      "inputs": [
        {
          "internalType": "uint256",
          "name": "",
          "type": "uint256"
        }
      ],
      "name": "lootList",
      "outputs": [
        {
          "internalType": "uint256",
          "name": "randomId",
          "type": "uint256"
        },
        {
          "internalType": "address",
          "name": "owner",
          "type": "address"
        },
        {
          "internalType": "string",
          "name": "Weapon",
          "type": "string"
        },
        {
          "internalType": "string",
          "name": "Chest",
          "type": "string"
        },
        {
          "internalType": "string",
          "name": "Head",
          "type": "string"
        },
        {
          "internalType": "string",
          "name": "Waist",
          "type": "string"
        },
        {
          "internalType": "string",
          "name": "Foot",
          "type": "string"
        },
        {
          "internalType": "string",
          "name": "Hand",
          "type": "string"
        },
        {
          "internalType": "string",
          "name": "Neck",
          "type": "string"
        },
        {
          "internalType": "string",
          "name": "Ring",
          "type": "string"
        },
        {
          "internalType": "enum MRandom.RandomState",
          "name": "state",
          "type": "uint8"
        }
      ],
      "stateMutability": "view",
      "type": "function"
    },
    {
      "inputs": [
        {
          "internalType": "address",
          "name": "_addr",
          "type": "address"
        }
      ],
      "name": "mint",
      "outputs": [],
      "stateMutability": "nonpayable",
      "type": "function"
    },
    {
      "inputs": [],
      "name": "name",
      "outputs": [
        {
          "internalType": "string",
          "name": "",
          "type": "string"
        }
      ],
      "stateMutability": "view",
      "type": "function"
    },
    {
      "inputs": [
        {
          "internalType": "uint256",
          "name": "tokenId",
          "type": "uint256"
        }
      ],
      "name": "ownerOf",
      "outputs": [
        {
          "internalType": "address",
          "name": "",
          "type": "address"
        }
      ],
      "stateMutability": "view",
      "type": "function"
    },
    {
      "inputs": [],
      "name": "randomId",
      "outputs": [
        {
          "internalType": "uint256",
          "name": "",
          "type": "uint256"
        }
      ],
      "stateMutability": "view",
      "type": "function"
    },
    {
      "inputs": [
        {
          "internalType": "uint256",
          "name": "",
          "type": "uint256"
        }
      ],
      "name": "randomList",
      "outputs": [
        {
          "internalType": "uint256",
          "name": "blockNumber",
          "type": "uint256"
        },
        {
          "internalType": "address",
          "name": "author",
          "type": "address"
        }
      ],
      "stateMutability": "view",
      "type": "function"
    },
    {
      "inputs": [
        {
          "internalType": "uint256",
          "name": "_tokenId",
          "type": "uint256"
        }
      ],
      "name": "revealNFT",
      "outputs": [],
      "stateMutability": "nonpayable",
      "type": "function"
    },
    {
      "inputs": [
        {
          "internalType": "address",
          "name": "from",
          "type": "address"
        },
        {
          "internalType": "address",
          "name": "to",
          "type": "address"
        },
        {
          "internalType": "uint256",
          "name": "tokenId",
          "type": "uint256"
        }
      ],
      "name": "safeTransferFrom",
      "outputs": [],
      "stateMutability": "nonpayable",
      "type": "function"
    },
    {
      "inputs": [
        {
          "internalType": "address",
          "name": "from",
          "type": "address"
        },
        {
          "internalType": "address",
          "name": "to",
          "type": "address"
        },
        {
          "internalType": "uint256",
          "name": "tokenId",
          "type": "uint256"
        },
        {
          "internalType": "bytes",
          "name": "data",
          "type": "bytes"
        }
      ],
      "name": "safeTransferFrom",
      "outputs": [],
      "stateMutability": "nonpayable",
      "type": "function"
    },
    {
      "inputs": [
        {
          "internalType": "address",
          "name": "operator",
          "type": "address"
        },
        {
          "internalType": "bool",
          "name": "approved",
          "type": "bool"
        }
      ],
      "name": "setApprovalForAll",
      "outputs": [],
      "stateMutability": "nonpayable",
      "type": "function"
    },
    {
      "inputs": [
        {
          "internalType": "bytes4",
          "name": "interfaceId",
          "type": "bytes4"
        }
      ],
      "name": "supportsInterface",
      "outputs": [
        {
          "internalType": "bool",
          "name": "",
          "type": "bool"
        }
      ],
      "stateMutability": "view",
      "type": "function"
    },
    {
      "inputs": [],
      "name": "symbol",
      "outputs": [
        {
          "internalType": "string",
          "name": "",
          "type": "string"
        }
      ],
      "stateMutability": "view",
      "type": "function"
    },
    {
      "inputs": [],
      "name": "tokenId",
      "outputs": [
        {
          "internalType": "uint256",
          "name": "",
          "type": "uint256"
        }
      ],
      "stateMutability": "view",
      "type": "function"
    },
    {
      "inputs": [
        {
          "internalType": "uint256",
          "name": "_tokenId",
          "type": "uint256"
        }
      ],
      "name": "tokenURI",
      "outputs": [
        {
          "internalType": "string",
          "name": "",
          "type": "string"
        }
      ],
      "stateMutability": "view",
      "type": "function"
    },
    {
      "inputs": [
        {
          "internalType": "address",
          "name": "from",
          "type": "address"
        },
        {
          "internalType": "address",
          "name": "to",
          "type": "address"
        },
        {
          "internalType": "uint256",
          "name": "tokenId",
          "type": "uint256"
        }
      ],
      "name": "transferFrom",
      "outputs": [],
      "stateMutability": "nonpayable",
      "type": "function"
    },
    {
      "inputs": [],
      "name": "waitBlockCount",
      "outputs": [
        {
          "internalType": "uint256",
          "name": "",
          "type": "uint256"
        }
      ],
      "stateMutability": "view",
      "type": "function"
    },
    {
      "inputs": [
        {
          "internalType": "address",
          "name": "to",
          "type": "address"
        }
      ],
      "name": "withdraw",
      "outputs": [],
      "stateMutability": "nonpayable",
      "type": "function"
    },
    {
      "inputs": [
        {
          "internalType": "address",
          "name": "_targetAddress",
          "type": "address"
        },
        {
          "internalType": "address",
          "name": "_contractAddress",
          "type": "address"
        },
        {
          "internalType": "uint256",
          "name": "_amount",
          "type": "uint256"
        }
      ],
      "name": "withdrawErc20",
      "outputs": [],
      "stateMutability": "nonpayable",
      "type": "function"
    }
  ],
  "bytecode": {
    "object": "0x60096102c0818152682bb0b93430b6b6b2b960b91b6102e0526080908152600c6103009081526b28bab0b93a32b939ba30b33360a11b6103205260a05260046103408181526313585d5b60e21b6103605260c052610380818152634d61636560e01b6103a05260e0526103c08181526321b63ab160e11b6103e052610100526006610400908152654b6174616e6160d01b61042052610120526008610440818152672330b631b434b7b760c11b61046052610140526104808181526729b1b4b6b4ba30b960c11b6104a05261016052600a6104c081815269131bdb99c814dddbdc9960b21b6104e05261018052600b6105009081526a14da1bdc9d0814dddbdc9960aa1b610520526101a0526105408181526911da1bdcdd0815d85b9960b21b610560526101c0526105809081526911dc985d994815d85b9960b21b6105a0526101e0526105c084815268109bdb994815d85b9960ba1b6105e052610200526106008281526315d85b9960e21b6106205261022052610640908152674772696d6f69726560c01b6106605261024052610680928352684368726f6e69636c6560b81b6106a052610260929092526106c082815263546f6d6560e01b6106e0526102805261074060405261070091825263426f6f6b60e01b610720526102a091909152620001f190600090601262001cc9565b506040805161022081018252600b6101e082019081526a446976696e6520526f626560a81b61020083015281528151808301835260098082526853696c6b20526f626560b81b6020838101919091528084019290925283518085018552600a808252694c696e656e20526f626560b01b8285015284860191909152845180860186526004815263526f626560e01b81850152606085015284518086018652600581526414da1a5c9d60da1b818501526080850152845180860186528181526944656d6f6e204875736b60b01b8185015260a085015284518086018652601081526f223930b3b7b739b5b4b71020b936b7b960811b8185015260c085015284518086018652601581527f53747564646564204c6561746865722041726d6f7200000000000000000000008185015260e08501528451808601865260128152712430b932102632b0ba3432b91020b936b7b960711b8185015261010085015284518086018652600d81526c2632b0ba3432b91020b936b7b960991b8185015261012085015284518086018652600f8082526e486f6c79204368657374706c61746560881b828601526101408601919091528551808701875260118152704f726e617465204368657374706c61746560781b818601526101608601528551808701875282815269141b185d194813585a5b60b21b81860152610180860152855180870187529182526910da185a5b8813585a5b60b21b828501526101a0850191909152845180860190955290845268149a5b99c813585a5b60ba1b918401919091526101c082019290925262000448916001919062001d26565b506040805161022081018252600c6101e082019081526b416e6369656e742048656c6d60a01b610200830152815281518083018352600b8082526a4f726e6174652048656c6d60a81b6020838101919091528084019290925283518085018552600a8082526947726561742048656c6d60b01b82850152848601919091528451808601865260098082526846756c6c2048656c6d60b81b8286015260608601919091528551808701875260048082526348656c6d60e01b828701526080870191909152865180880188528481526a2232b6b7b71021b937bbb760a91b8187015260a087015286518088018852600e81526d223930b3b7b713b99021b937bbb760911b8187015260c08701528651808801885260078152660576172204361760cc1b8187015260e0870152865180880188528481526a04c656174686572204361760ac1b8187015261010087015286518088018852600381526204361760ec1b8187015261012087015286518088018852600581526421b937bbb760d91b81870152610140870152865180880188529384526a111a5d9a5b9948121bdbd960aa1b84860152610160860193909352855180870187529081526814da5b1ac8121bdbd960ba1b818501526101808501528451808601865290815269131a5b995b88121bdbd960b21b818401526101a08401528351808501909452835263121bdbd960e21b908301526101c08101919091526200066790600290600f62001d26565b506040805161022081018252600b6101e082018181526a13dc9b985d194810995b1d60aa1b610200840152825282518084018452600881526715d85c8810995b1d60c21b60208281019190915280840191909152835180850185529182526a141b185d19590810995b1d60aa1b82820152828401919091528251808401845260098082526813595cda0810995b1d60ba1b82840152606084019190915283518085018552600a808252691219585d9e4810995b1d60b21b82850152608085019190915284518086018652600e81526d11195b5bdb9a1a59194810995b1d60921b8185015260a085015284518086018652600f8082526e111c9859dbdb9cdada5b8810995b1d608a1b8286015260c086019190915285518087018752601481527f53747564646564204c6561746865722042656c740000000000000000000000008186015260e086015285518087018752601181527012185c99081319585d1a195c8810995b1d607a1b8186015261010086015285518087018752600c81526b1319585d1a195c8810995b1d60a21b81860152610120860152855180870187528181526e084e4d2ced0e8e6d2d8d640a6c2e6d608b1b8186015261014086015285518087018752838152680a6d2d8d640a6c2e6d60bb1b8186015261016086015285518087018752928352680aededed840a6c2e6d60bb1b838501526101808501929092528451808601865290815269098d2dccadc40a6c2e6d60b31b818401526101a0840152835180850190945260048452630a6c2e6d60e31b918401919091526101c0820192909252620008c0916003919062001d26565b506040805161022081018252600c6101e082019081526b486f6c79204772656176657360a01b610200830152815281518083018352600e81526d4f726e617465204772656176657360901b602082810191909152808301919091528251808401845260078152664772656176657360c81b818301528284015282518084018452600b8082526a436861696e20426f6f747360a81b828401526060840191909152835180850185528181526a486561767920426f6f747360a81b81840152608084015283518085018552600f8082526e44656d6f6e6869646520426f6f747360881b8285015260a085019190915284518086018652601081526f447261676f6e736b696e20426f6f747360801b8185015260c085015284518086018652601581527f53747564646564204c65617468657220426f6f747300000000000000000000008185015260e085015284518086018652601281527148617264204c65617468657220426f6f747360701b8185015261010085015284518086018652600d8082526c4c65617468657220426f6f747360981b82860152610120860191909152855180870187528281526e446976696e6520536c69707065727360881b81860152610140860152855180870187529081526c53696c6b20536c69707065727360981b8185015261016085015284518086018652600a815269576f6f6c2053686f657360b01b81850152610180850152845180860186529182526a4c696e656e2053686f657360a81b828401526101a08401919091528351808501909452600584526453686f657360d81b918401919091526101c082019290925262000b28916004919062001d26565b506040805161022081018252600e6101e082018181526d486f6c79204761756e746c65747360901b610200840152825282518084018452601081526f4f726e617465204761756e746c65747360801b602082810191909152808401919091528351808501855260098152684761756e746c65747360b81b818301528385015283518085018552600c8082526b436861696e20476c6f76657360a01b828401526060850191909152845180860186528181526b486561767920476c6f76657360a01b81840152608085015284518086018652600d8082526c44656d6f6e27732048616e647360981b8285015260a0860191909152855180870187526011815270447261676f6e736b696e20476c6f76657360781b8185015260c086015285518087018752601681527f53747564646564204c65617468657220476c6f766573000000000000000000008185015260e086015285518087018752601381527f48617264204c65617468657220476c6f7665730000000000000000000000000081850152610100860152855180870187529384526d4c65617468657220476c6f76657360901b84840152610120850193909352845180860186529283526c446976696e6520476c6f76657360981b8383015261014084019290925283518085018552600b8082526a53696c6b20476c6f76657360a81b82840152610160850191909152845180860186529081526a576f6f6c20476c6f76657360a81b81830152610180840152835180850185529182526b4c696e656e20476c6f76657360a01b828201526101a083019190915282518084019093526006835265476c6f76657360d01b908301526101c081019190915262000da590600590600f62001d26565b506040805160a081018252600860608201908152674e65636b6c61636560c01b6080830152815281518083018352600680825265105b5d5b195d60d21b6020838101919091528084019290925283518085018552600781526614195b99185b9d60ca1b928101929092529282015262000e219190600362001d71565b506040805160e081018252600960a0820190815268476f6c642052696e6760b81b60c0830152815281518083018352600b8082526a53696c7665722052696e6760a81b60208381019190915280840192909252835180850185529081526a42726f6e7a652052696e6760a81b818301528284015282518084018452600d8082526c506c6174696e756d2052696e6760981b828401526060840191909152835180850190945283526c546974616e69756d2052696e6760981b90830152608081019190915262000ef590600790600562001dbc565b506040518061020001604052806040518060400160405280600881526020016737b3102837bbb2b960c11b8152508152602001604051806040016040528060098152602001686f66204769616e747360b81b8152508152602001604051806040016040528060098152602001686f6620546974616e7360b81b8152508152602001604051806040016040528060088152602001671bd98814dada5b1b60c21b81525081526020016040518060400160405280600d81526020016c37b3102832b93332b1ba34b7b760991b81525081526020016040518060400160405280600d81526020016c6f66204272696c6c69616e636560981b81525081526020016040518060400160405280601081526020016f1bd988115b9b1a59da1d195b9b595b9d60821b81525081526020016040518060400160405280600d81526020016c37b310283937ba32b1ba34b7b760991b81525081526020016040518060400160405280600881526020016737b31020b733b2b960c11b8152508152602001604051806040016040528060078152602001666f66205261676560c81b8152508152602001604051806040016040528060078152602001666f66204675727960c81b81525081526020016040518060400160405280600a8152602001691bd988159a5d1c9a5bdb60b21b81525081526020016040518060400160405280600a8152602001690decc40e8d0ca408cdef60b31b81525081526020016040518060400160405280600c81526020016b37b3102232ba32b1ba34b7b760a11b81525081526020016040518060400160405280600d81526020016c37b3102932b33632b1ba34b7b760991b81525081526020016040518060400160405280600c81526020016b6f6620746865205477696e7360a01b81525081525060089060106200119a92919062001e07565b50604080516108e08101825260056108a082018181526441676f6e7960d81b6108c0840152825282518084018452600a8082526941706f63616c7970736560b01b60208381019190915280850192909252845180860186528181526920b936b0b3b2b23237b760b11b818401528486015284518086018652838152641099585cdd60da1b81840152606085015284518086018652600880825267084cad0cadadee8d60c31b82850152608086019190915285518087018752600680825265109b1a59da1d60d21b8286015260a08701919091528651808801885285815264109b1bdbd960da1b8186015260c0870152865180880188526007808252664272616d626c6560c81b8287015260e0880191909152875180890189526009808252684272696d73746f6e6560b81b828801526101008901919091528851808a018a5287815264109c9bdbd960da1b818801526101208901528851808a018a528281526621b0b93934b7b760c91b818801526101408901528851808a018a528181526843617461636c79736d60b81b818801526101608901528851808a018a52848152674368696d6572696360c01b818801526101808901528851808a018a5283815265436f7270736560d01b818801526101a08901528851808a018a528581526921b7b9393ab83a34b7b760b11b818801526101c08901528851808a018a52818152682230b6b730ba34b7b760b91b818801526101e08901528851808a018a5287815264088cac2e8d60db1b818801526102008901528851808a018a52878152642232b6b7b760d91b818801526102208901528851808a018a526004808252634469726560e01b828901526102408a01919091528951808b018b5284815265223930b3b7b760d11b818901526102608a01528951808b018b5288815264111c99585960da1b818901526102808a01528951808b018b5281815263446f6f6d60e01b818901526102a08a01528951808b018b52818152634475736b60e01b818901526102c08a01528951808b018b52888152644561676c6560d81b818901526102e08a01528951808b018b528581526722b6b83cb932b0b760c11b818901526103008a01528951808b018b52818152634661746560e01b818901526103208a01528951808b018b52600380825262466f6560e81b828a01526103408b01919091528a51808c018c528281526347616c6560e01b818a01526103608b01528a51808c018c528981526411da1bdd5b60da1b818a01526103808b01528a51808c018c5289815264476c6f6f6d60d81b818a01526103a08b01528a51808c018c528981526408ed8f2e0d60db1b818a01526103c08b01528a51808c018c5289815264476f6c656d60d81b818a01526103e08b01528a51808c018c52828152634772696d60e01b818a01526104008b01528a51808c018c52828152634861746560e01b818a01526104208b01528a51808c018c52898152644861766f6360d81b818a01526104408b01528a51808c018c52858152652437b737bab960d11b818a01526104608b01528a51808c018c52858152652437b93937b960d11b818a01526104808b01528a51808c018c52868152674879706e6f74696360c01b818a01526104a08b01528a51808c018c528581526525b930b5b2b760d11b818a01526104c08b01528a51808c018c5289815264098dec2e8d60db1b818a01526104e08b01528a51808c018c52838152684d61656c7374726f6d60b81b818a01526105008b01528a51808c018c5282815263135a5b9960e21b818a01526105208b01528a51808c018c52848152664d697261636c6560c81b818a01526105408b01528a51808c018c5285815265135bdc989a5960d21b818a01526105608b01528a51808c018c529586526727b13634bb34b7b760c11b868901526105808a01959095528951808b018b528281526813db9cdb185d59da1d60ba1b818901526105a08a01528951808b018b52818152632830b4b760e11b818901526105c08a01528951808b018b52600b81526a50616e64656d6f6e69756d60a81b818901526105e08a01528951808b018b52838152660a0d0decadcd2f60cb1b818901526106008a01528951808b018b5284815265506c6167756560d01b818901526106208a01528951808b018b52818152635261676560e01b818901526106408a01528951808b018b52838152665261707475726560c81b818901526106608a01528951808b018b528181526352756e6560e01b818901526106808a01528951808b018b528881526414dadd5b1b60da1b818901526106a08a01528951808b018b528581526214dbdb60ea1b818901526106c08a01528951808b018b529081526314dbdd5b60e21b818801526106e08901528851808a018a5283815265536f72726f7760d01b818801526107008901528851808a018a528381526514dc1a5c9a5d60d21b818801526107208901528851808a018a528781526453746f726d60d81b818801526107408901528851808a018a528281526615195b5c195cdd60ca1b818801526107608901528851808a018a5282815266151bdc9b595b9d60ca1b818801526107808901528851808a018a528181526856656e6765616e636560b81b818801526107a08901528851808a018a5282815266566963746f727960c81b818801526107c08901528851808a018a52878152642b34b832b960d91b818801526107e08901528851808a018a52928352650acdee4e8caf60d31b838701526108008801929092528751808901895292835262576f6560e81b8386015261082087019290925286518088018852948552640aee4c2e8d60db1b8585015261084086019490945285518087018752908152664c69676874277360c81b8184015261086085015284518086019095528452695368696d6d6572696e6760b01b90840152610880820192909252620019fe9190604562001e52565b506040805161028081018252600461024082018181526342616e6560e01b61026084015282528251808401845281815263149bdbdd60e21b6020828101919091528084019190915283518085018552828152634269746560e01b81830152838501528351808501855282815263536f6e6760e01b81830152606084015283518085018552828152632937b0b960e11b81830152608084015283518085018552600580825264047726173760dc1b8284015260a085019190915284518086018652600a80825269125b9cdd1c9d5b595b9d60b21b8285015260c08601919091528551808701875284815263476c6f7760e01b8185015260e0860152855180870187526006808252652132b73232b960d11b828601526101008701919091528651808801885290815265536861646f7760d01b818501526101208601528551808701875260078152662bb434b9b832b960c91b81850152610140860152855180870187528281526414da1bdd5d60da1b81850152610160860152855180870187529182526411dc9bdddb60da1b8284015261018085019190915284518086018652838152632a32b0b960e11b818401526101a085015284518086018652838152635065616b60e01b818401526101c08501528451808601865283815263466f726d60e01b818401526101e085015284518086018652600381526229bab760e91b8184015261020085015284518086019095529184526326b7b7b760e11b9084015261022082019290925262001c349190601262001cc9565b5034801562001c4257600080fd5b50604051620073013803806200730183398101604081905262001c659162001fdc565b8383600b62001c7583826200212e565b50600c62001c8482826200212e565b506016915062001c97905086826200212e565b50601580546001600160a01b031916331790556014819055601762001cbd83826200212e565b505050505050620021fa565b82805482825590600052602060002090810192821562001d14579160200282015b8281111562001d14578251829062001d0390826200212e565b509160200191906001019062001cea565b5062001d2292915062001e9d565b5090565b82805482825590600052602060002090810192821562001d14579160200282015b8281111562001d14578251829062001d6090826200212e565b509160200191906001019062001d47565b82805482825590600052602060002090810192821562001d14579160200282015b8281111562001d14578251829062001dab90826200212e565b509160200191906001019062001d92565b82805482825590600052602060002090810192821562001d14579160200282015b8281111562001d14578251829062001df690826200212e565b509160200191906001019062001ddd565b82805482825590600052602060002090810192821562001d14579160200282015b8281111562001d14578251829062001e4190826200212e565b509160200191906001019062001e28565b82805482825590600052602060002090810192821562001d14579160200282015b8281111562001d14578251829062001e8c90826200212e565b509160200191906001019062001e73565b8082111562001d2257600062001eb4828262001ebe565b5060010162001e9d565b50805462001ecc906200209f565b6000825580601f1062001edd575050565b601f01602090049060005260206000209081019062001efd919062001f00565b50565b5b8082111562001d22576000815560010162001f01565b634e487b7160e01b600052604160045260246000fd5b600082601f83011262001f3f57600080fd5b81516001600160401b038082111562001f5c5762001f5c62001f17565b604051601f8301601f19908116603f0116810190828211818310171562001f875762001f8762001f17565b8160405283815260209250868385880101111562001fa457600080fd5b600091505b8382101562001fc8578582018301518183018401529082019062001fa9565b600093810190920192909252949350505050565b600080600080600060a0868803121562001ff557600080fd5b85516001600160401b03808211156200200d57600080fd5b6200201b89838a0162001f2d565b965060208801519150808211156200203257600080fd5b6200204089838a0162001f2d565b955060408801519150808211156200205757600080fd5b6200206589838a0162001f2d565b945060608801519150808211156200207c57600080fd5b506200208b8882890162001f2d565b925050608086015190509295509295909350565b600181811c90821680620020b457607f821691505b602082108103620020d557634e487b7160e01b600052602260045260246000fd5b50919050565b601f8211156200212957600081815260208120601f850160051c81016020861015620021045750805b601f850160051c820191505b81811015620021255782815560010162002110565b5050505b505050565b81516001600160401b038111156200214a576200214a62001f17565b62002162816200215b84546200209f565b84620020db565b602080601f8311600181146200219a5760008415620021815750858301515b600019600386901b1c1916600185901b17855562002125565b600085815260208120601f198616915b82811015620021cb57888601518255948401946001909101908401620021aa565b5085821015620021ea5787850151600019600388901b60f8161c191681555b5050505050600190811b01905550565b6150f7806200220a6000396000f3fe608060405234801561001057600080fd5b50600436106101a35760003560e01c806351cff8d9116100ee5780639b8a323711610097578063c87b56dd11610071578063c87b56dd146103b5578063cba86e23146103c8578063d5608f9a14610415578063e985e9c51461042857600080fd5b80639b8a323714610365578063a22cb4651461038f578063b88d4fde146103a257600080fd5b80636a627842116100c85780636a6278421461033757806370a082311461034a57806395d89b411461035d57600080fd5b806351cff8d9146102ea57806353bbd6a7146102fd5780636352211e1461032457600080fd5b806317d70f7c116101505780633e8474ca1161012a5780633e8474ca146102b957806342842e0e146102c257806343a47162146102d557600080fd5b806317d70f7c1461024f57806323b872dd146102585780633c41d28c1461026b57600080fd5b8063095ea7b311610181578063095ea7b3146102105780630ab14d8a146102255780631593dee11461023c57600080fd5b806301ffc9a7146101a857806306fdde03146101d0578063081812fc146101e5575b600080fd5b6101bb6101b636600461424d565b610464565b60405190151581526020015b60405180910390f35b6101d8610549565b6040516101c791906142c1565b6101f86101f33660046142d4565b6105db565b6040516001600160a01b0390911681526020016101c7565b61022361021e366004614309565b610604565b005b61022e60115481565b6040519081526020016101c7565b61022361024a366004614333565b610613565b61022e60135481565b610223610266366004614333565b6106bc565b61027e6102793660046142d4565b61075f565b604080519889526020890197909752958701949094526060860192909252608085015260a084015260c083015260e0820152610100016101c7565b61022e60145481565b6102236102d0366004614333565b611405565b6102dd611425565b6040516101c7919061436f565b6102236102f83660046143b3565b6114ef565b61031061030b3660046142d4565b61158a565b6040516101c79897969594939291906143ce565b6101f86103323660046142d4565b611b60565b6102236103453660046143b3565b611b6b565b61022e6103583660046143b3565b611c0c565b6101d8611c6d565b6103786103733660046142d4565b611c7c565b6040516101c79b9a999897969594939291906144b5565b61022361039d36600461459b565b61211c565b6102236103b03660046145e8565b612127565b6101d86103c33660046142d4565b61213e565b6103f86103d63660046142d4565b601260205260009081526040902080546001909101546001600160a01b031682565b604080519283526001600160a01b039091166020830152016101c7565b6102236104233660046142d4565b612985565b6101bb6104363660046146c4565b6001600160a01b03918216600090815260106020908152604080832093909416825291909152205460ff1690565b60007fffffffff0000000000000000000000000000000000000000000000000000000082167f80ac58cd0000000000000000000000000000000000000000000000000000000014806104f757507fffffffff0000000000000000000000000000000000000000000000000000000082167f5b5e139f00000000000000000000000000000000000000000000000000000000145b8061054357507f01ffc9a7000000000000000000000000000000000000000000000000000000007fffffffff000000000000000000000000000000000000000000000000000000008316145b92915050565b6060600b8054610558906146f7565b80601f0160208091040260200160405190810160405280929190818152602001828054610584906146f7565b80156105d15780601f106105a6576101008083540402835291602001916105d1565b820191906000526020600020905b8154815290600101906020018083116105b457829003601f168201915b5050505050905090565b60006105e6826131a5565b506000828152600f60205260409020546001600160a01b0316610543565b61060f8282336131f7565b5050565b6015546001600160a01b0316331461062a57600080fd5b6040517fa9059cbb0000000000000000000000000000000000000000000000000000000081526001600160a01b0384811660048301526024820183905283169063a9059cbb906044016020604051808303816000875af1158015610692573d6000803e3d6000fd5b505050506040513d601f19601f820116820180604052508101906106b69190614731565b50505050565b6001600160a01b0382166106eb57604051633250574960e11b8152600060048201526024015b60405180910390fd5b60006106f8838333613204565b9050836001600160a01b0316816001600160a01b0316146106b6576040517f64283d7b0000000000000000000000000000000000000000000000000000000081526001600160a01b03808616600483015260248201849052821660448201526064016106e2565b6000806000806000806000806000601860008b815260200190815260200160002060405180610160016040529081600082015481526020016001820160009054906101000a90046001600160a01b03166001600160a01b03166001600160a01b031681526020016002820180546107d5906146f7565b80601f0160208091040260200160405190810160405280929190818152602001828054610801906146f7565b801561084e5780601f106108235761010080835404028352916020019161084e565b820191906000526020600020905b81548152906001019060200180831161083157829003601f168201915b50505050508152602001600382018054610867906146f7565b80601f0160208091040260200160405190810160405280929190818152602001828054610893906146f7565b80156108e05780601f106108b5576101008083540402835291602001916108e0565b820191906000526020600020905b8154815290600101906020018083116108c357829003601f168201915b505050505081526020016004820180546108f9906146f7565b80601f0160208091040260200160405190810160405280929190818152602001828054610925906146f7565b80156109725780601f1061094757610100808354040283529160200191610972565b820191906000526020600020905b81548152906001019060200180831161095557829003601f168201915b5050505050815260200160058201805461098b906146f7565b80601f01602080910402602001604051908101604052809291908181526020018280546109b7906146f7565b8015610a045780601f106109d957610100808354040283529160200191610a04565b820191906000526020600020905b8154815290600101906020018083116109e757829003601f168201915b50505050508152602001600682018054610a1d906146f7565b80601f0160208091040260200160405190810160405280929190818152602001828054610a49906146f7565b8015610a965780601f10610a6b57610100808354040283529160200191610a96565b820191906000526020600020905b815481529060010190602001808311610a7957829003601f168201915b50505050508152602001600782018054610aaf906146f7565b80601f0160208091040260200160405190810160405280929190818152602001828054610adb906146f7565b8015610b285780601f10610afd57610100808354040283529160200191610b28565b820191906000526020600020905b815481529060010190602001808311610b0b57829003601f168201915b50505050508152602001600882018054610b41906146f7565b80601f0160208091040260200160405190810160405280929190818152602001828054610b6d906146f7565b8015610bba5780601f10610b8f57610100808354040283529160200191610bba565b820191906000526020600020905b815481529060010190602001808311610b9d57829003601f168201915b50505050508152602001600982018054610bd3906146f7565b80601f0160208091040260200160405190810160405280929190818152602001828054610bff906146f7565b8015610c4c5780601f10610c2157610100808354040283529160200191610c4c565b820191906000526020600020905b815481529060010190602001808311610c2f57829003601f168201915b5050509183525050600a82015460209091019060ff166002811115610c7357610c7361447d565b6002811115610c8457610c8461447d565b905250905060028161014001516002811115610ca257610ca261447d565b14610cef5760405162461bcd60e51b815260206004820152600f60248201527f55736572206e6f7420657869737473000000000000000000000000000000000060448201526064016106e2565b610dce6000805480602002602001604051908101604052809291908181526020016000905b82821015610dc0578382906000526020600020018054610d33906146f7565b80601f0160208091040260200160405190810160405280929190818152602001828054610d5f906146f7565b8015610dac5780601f10610d8157610100808354040283529160200191610dac565b820191906000526020600020905b815481529060010190602001808311610d8f57829003601f168201915b505050505081526020019060010190610d14565b505050508260400151613315565b610ead6001805480602002602001604051908101604052809291908181526020016000905b82821015610e9f578382906000526020600020018054610e12906146f7565b80601f0160208091040260200160405190810160405280929190818152602001828054610e3e906146f7565b8015610e8b5780601f10610e6057610100808354040283529160200191610e8b565b820191906000526020600020905b815481529060010190602001808311610e6e57829003601f168201915b505050505081526020019060010190610df3565b505050508360600151613315565b610f8c6002805480602002602001604051908101604052809291908181526020016000905b82821015610f7e578382906000526020600020018054610ef1906146f7565b80601f0160208091040260200160405190810160405280929190818152602001828054610f1d906146f7565b8015610f6a5780601f10610f3f57610100808354040283529160200191610f6a565b820191906000526020600020905b815481529060010190602001808311610f4d57829003601f168201915b505050505081526020019060010190610ed2565b505050508460800151613315565b61106b6003805480602002602001604051908101604052809291908181526020016000905b8282101561105d578382906000526020600020018054610fd0906146f7565b80601f0160208091040260200160405190810160405280929190818152602001828054610ffc906146f7565b80156110495780601f1061101e57610100808354040283529160200191611049565b820191906000526020600020905b81548152906001019060200180831161102c57829003601f168201915b505050505081526020019060010190610fb1565b505050508560a00151613315565b61114a6004805480602002602001604051908101604052809291908181526020016000905b8282101561113c5783829060005260206000200180546110af906146f7565b80601f01602080910402602001604051908101604052809291908181526020018280546110db906146f7565b80156111285780601f106110fd57610100808354040283529160200191611128565b820191906000526020600020905b81548152906001019060200180831161110b57829003601f168201915b505050505081526020019060010190611090565b505050508660c00151613315565b6112296005805480602002602001604051908101604052809291908181526020016000905b8282101561121b57838290600052602060002001805461118e906146f7565b80601f01602080910402602001604051908101604052809291908181526020018280546111ba906146f7565b80156112075780601f106111dc57610100808354040283529160200191611207565b820191906000526020600020905b8154815290600101906020018083116111ea57829003601f168201915b50505050508152602001906001019061116f565b505050508760e00151613315565b6113096006805480602002602001604051908101604052809291908181526020016000905b828210156112fa57838290600052602060002001805461126d906146f7565b80601f0160208091040260200160405190810160405280929190818152602001828054611299906146f7565b80156112e65780601f106112bb576101008083540402835291602001916112e6565b820191906000526020600020905b8154815290600101906020018083116112c957829003601f168201915b50505050508152602001906001019061124e565b50505050886101000151613315565b6113e96007805480602002602001604051908101604052809291908181526020016000905b828210156113da57838290600052602060002001805461134d906146f7565b80601f0160208091040260200160405190810160405280929190818152602001828054611379906146f7565b80156113c65780601f1061139b576101008083540402835291602001916113c6565b820191906000526020600020905b8154815290600101906020018083116113a957829003601f168201915b50505050508152602001906001019061132e565b50505050896101200151613315565b9850985098509850985098509850985050919395975091939597565b61142083838360405180602001604052806000815250612127565b505050565b6060600061143233611c0c565b905060008167ffffffffffffffff81111561144f5761144f6145d2565b604051908082528060200260200182016040528015611478578160200160208202803683370190505b5090506000805b6013548110156114e6573361149382611b60565b6001600160a01b0316036114d457808383815181106114b4576114b461474e565b6020908102919091010152816114c98161477a565b9250508382146114e6575b806114de8161477a565b91505061147f565b50909392505050565b6015546001600160a01b0316331461150657600080fd5b47806115545760405162461bcd60e51b815260206004820152601060248201527f73756666696369656e742066756e64730000000000000000000000000000000060448201526064016106e2565b6040516001600160a01b0383169082156108fc029083906000818181858888f19350505050158015611420573d6000803e3d6000fd5b6060806060806060806060806000601860008b815260200190815260200160002060405180610160016040529081600082015481526020016001820160009054906101000a90046001600160a01b03166001600160a01b03166001600160a01b03168152602001600282018054611600906146f7565b80601f016020809104026020016040519081016040528092919081815260200182805461162c906146f7565b80156116795780601f1061164e57610100808354040283529160200191611679565b820191906000526020600020905b81548152906001019060200180831161165c57829003601f168201915b50505050508152602001600382018054611692906146f7565b80601f01602080910402602001604051908101604052809291908181526020018280546116be906146f7565b801561170b5780601f106116e05761010080835404028352916020019161170b565b820191906000526020600020905b8154815290600101906020018083116116ee57829003601f168201915b50505050508152602001600482018054611724906146f7565b80601f0160208091040260200160405190810160405280929190818152602001828054611750906146f7565b801561179d5780601f106117725761010080835404028352916020019161179d565b820191906000526020600020905b81548152906001019060200180831161178057829003601f168201915b505050505081526020016005820180546117b6906146f7565b80601f01602080910402602001604051908101604052809291908181526020018280546117e2906146f7565b801561182f5780601f106118045761010080835404028352916020019161182f565b820191906000526020600020905b81548152906001019060200180831161181257829003601f168201915b50505050508152602001600682018054611848906146f7565b80601f0160208091040260200160405190810160405280929190818152602001828054611874906146f7565b80156118c15780601f10611896576101008083540402835291602001916118c1565b820191906000526020600020905b8154815290600101906020018083116118a457829003601f168201915b505050505081526020016007820180546118da906146f7565b80601f0160208091040260200160405190810160405280929190818152602001828054611906906146f7565b80156119535780601f1061192857610100808354040283529160200191611953565b820191906000526020600020905b81548152906001019060200180831161193657829003601f168201915b5050505050815260200160088201805461196c906146f7565b80601f0160208091040260200160405190810160405280929190818152602001828054611998906146f7565b80156119e55780601f106119ba576101008083540402835291602001916119e5565b820191906000526020600020905b8154815290600101906020018083116119c857829003601f168201915b505050505081526020016009820180546119fe906146f7565b80601f0160208091040260200160405190810160405280929190818152602001828054611a2a906146f7565b8015611a775780601f10611a4c57610100808354040283529160200191611a77565b820191906000526020600020905b815481529060010190602001808311611a5a57829003601f168201915b5050509183525050600a82015460209091019060ff166002811115611a9e57611a9e61447d565b6002811115611aaf57611aaf61447d565b905250905060028161014001516002811115611acd57611acd61447d565b14611b1a5760405162461bcd60e51b815260206004820152600f60248201527f55736572206e6f7420657869737473000000000000000000000000000000000060448201526064016106e2565b8060400151816060015182608001518360a001518460c001518560e001518661010001518761012001519850985098509850985098509850985050919395975091939597565b6000610543826131a5565b6013546000908152601860205260409020600180820180547fffffffffffffffffffffffff0000000000000000000000000000000000000000166001600160a01b038516179055600a8201805460ff191682800217905550601154808255611bd290613403565b611bde82601354613483565b60138054906000611bee8361477a565b909155505060118054906000611c038361477a565b91905055505050565b60006001600160a01b038216611c51576040517f89c62b64000000000000000000000000000000000000000000000000000000008152600060048201526024016106e2565b506001600160a01b03166000908152600e602052604090205490565b6060600c8054610558906146f7565b60186020526000908152604090208054600182015460028301805492936001600160a01b0390921692611cae906146f7565b80601f0160208091040260200160405190810160405280929190818152602001828054611cda906146f7565b8015611d275780601f10611cfc57610100808354040283529160200191611d27565b820191906000526020600020905b815481529060010190602001808311611d0a57829003601f168201915b505050505090806003018054611d3c906146f7565b80601f0160208091040260200160405190810160405280929190818152602001828054611d68906146f7565b8015611db55780601f10611d8a57610100808354040283529160200191611db5565b820191906000526020600020905b815481529060010190602001808311611d9857829003601f168201915b505050505090806004018054611dca906146f7565b80601f0160208091040260200160405190810160405280929190818152602001828054611df6906146f7565b8015611e435780601f10611e1857610100808354040283529160200191611e43565b820191906000526020600020905b815481529060010190602001808311611e2657829003601f168201915b505050505090806005018054611e58906146f7565b80601f0160208091040260200160405190810160405280929190818152602001828054611e84906146f7565b8015611ed15780601f10611ea657610100808354040283529160200191611ed1565b820191906000526020600020905b815481529060010190602001808311611eb457829003601f168201915b505050505090806006018054611ee6906146f7565b80601f0160208091040260200160405190810160405280929190818152602001828054611f12906146f7565b8015611f5f5780601f10611f3457610100808354040283529160200191611f5f565b820191906000526020600020905b815481529060010190602001808311611f4257829003601f168201915b505050505090806007018054611f74906146f7565b80601f0160208091040260200160405190810160405280929190818152602001828054611fa0906146f7565b8015611fed5780601f10611fc257610100808354040283529160200191611fed565b820191906000526020600020905b815481529060010190602001808311611fd057829003601f168201915b505050505090806008018054612002906146f7565b80601f016020809104026020016040519081016040528092919081815260200182805461202e906146f7565b801561207b5780601f106120505761010080835404028352916020019161207b565b820191906000526020600020905b81548152906001019060200180831161205e57829003601f168201915b505050505090806009018054612090906146f7565b80601f01602080910402602001604051908101604052809291908181526020018280546120bc906146f7565b80156121095780601f106120de57610100808354040283529160200191612109565b820191906000526020600020905b8154815290600101906020018083116120ec57829003601f168201915b505050600a909301549192505060ff168b565b61060f338383613501565b6121328484846106bc565b6106b6848484846135b9565b60606121486141db565b60008381526018602090815260408083208151610160810183528154815260018201546001600160a01b031693810193909352600281018054919284019161218f906146f7565b80601f01602080910402602001604051908101604052809291908181526020018280546121bb906146f7565b80156122085780601f106121dd57610100808354040283529160200191612208565b820191906000526020600020905b8154815290600101906020018083116121eb57829003601f168201915b50505050508152602001600382018054612221906146f7565b80601f016020809104026020016040519081016040528092919081815260200182805461224d906146f7565b801561229a5780601f1061226f5761010080835404028352916020019161229a565b820191906000526020600020905b81548152906001019060200180831161227d57829003601f168201915b505050505081526020016004820180546122b3906146f7565b80601f01602080910402602001604051908101604052809291908181526020018280546122df906146f7565b801561232c5780601f106123015761010080835404028352916020019161232c565b820191906000526020600020905b81548152906001019060200180831161230f57829003601f168201915b50505050508152602001600582018054612345906146f7565b80601f0160208091040260200160405190810160405280929190818152602001828054612371906146f7565b80156123be5780601f10612393576101008083540402835291602001916123be565b820191906000526020600020905b8154815290600101906020018083116123a157829003601f168201915b505050505081526020016006820180546123d7906146f7565b80601f0160208091040260200160405190810160405280929190818152602001828054612403906146f7565b80156124505780601f1061242557610100808354040283529160200191612450565b820191906000526020600020905b81548152906001019060200180831161243357829003601f168201915b50505050508152602001600782018054612469906146f7565b80601f0160208091040260200160405190810160405280929190818152602001828054612495906146f7565b80156124e25780601f106124b7576101008083540402835291602001916124e2565b820191906000526020600020905b8154815290600101906020018083116124c557829003601f168201915b505050505081526020016008820180546124fb906146f7565b80601f0160208091040260200160405190810160405280929190818152602001828054612527906146f7565b80156125745780601f1061254957610100808354040283529160200191612574565b820191906000526020600020905b81548152906001019060200180831161255757829003601f168201915b5050505050815260200160098201805461258d906146f7565b80601f01602080910402602001604051908101604052809291908181526020018280546125b9906146f7565b80156126065780601f106125db57610100808354040283529160200191612606565b820191906000526020600020905b8154815290600101906020018083116125e957829003601f168201915b5050509183525050600a82015460209091019060ff16600281111561262d5761262d61447d565b600281111561263e5761263e61447d565b90525090506001816101400151600281111561265c5761265c61447d565b0361268e57600060176040516020016126759190614807565b60408051601f1981840301815291905295945050505050565b600081610140015160028111156126a7576126a761447d565b036126f45760405162461bcd60e51b815260206004820152600f60248201527f426f78206e6f742065786973746564000000000000000000000000000000000060448201526064016106e2565b60405180610120016040528060fd8152602001614f3460fd9139825260408181015160208085019190915281516060810190925260288083529061509a908301396040808401919091526060828101518185015281519081019091526028808252614e69602083013960808084019190915281015160a083015260408051606081019091526028808252614ee3602083013960c083015260a081015160e083015260408051606081019091526029808252614f0b602083013961010083015260c081015161012083015260408051606081019091526029808252614eba602083013961014083015260e08101516101608301526040805160608101909152602980825261503160208301396101808301526101008101516101a083015260408051606081019091526029808252614e9160208301396101c08301526101208101516101e0830152604080518082018252600d81527f3c2f746578743e3c2f7376673e00000000000000000000000000000000000000602080830191909152610200850191909152835181850151838601516060870151608088015160a089015160c08a015160e08b01516101008c0151995160009a6128b59a909101614839565b60408051808303601f19018152908290526101208501516101408601516101608701516101808801516101a08901516101c08a01516101e08b01516102008c0151979950612908988a9890602001614839565b604051602081830303815290604052905060006129586129278761372c565b6016612932856137cc565b604051602001612944939291906148fa565b6040516020818303038152906040526137cc565b90508060405160200161296b91906149fe565b60408051601f198184030181529190529695505050505050565b600081815260186020526040812080546014549192916129a8919060089061398b565b9050612a9f816000815181106129c0576129c061474e565b60200260200101516000805480602002602001604051908101604052809291908181526020016000905b82821015612a96578382906000526020600020018054612a09906146f7565b80601f0160208091040260200160405190810160405280929190818152602001828054612a35906146f7565b8015612a825780601f10612a5757610100808354040283529160200191612a82565b820191906000526020600020905b815481529060010190602001808311612a6557829003601f168201915b5050505050815260200190600101906129ea565b50505050613bd8565b6002830190612aae9082614a91565b50612b9b81600181518110612ac557612ac561474e565b60200260200101516001805480602002602001604051908101604052809291908181526020016000905b82821015612a96578382906000526020600020018054612b0e906146f7565b80601f0160208091040260200160405190810160405280929190818152602001828054612b3a906146f7565b8015612b875780601f10612b5c57610100808354040283529160200191612b87565b820191906000526020600020905b815481529060010190602001808311612b6a57829003601f168201915b505050505081526020019060010190612aef565b6003830190612baa9082614a91565b50612c9781600281518110612bc157612bc161474e565b60200260200101516002805480602002602001604051908101604052809291908181526020016000905b82821015612a96578382906000526020600020018054612c0a906146f7565b80601f0160208091040260200160405190810160405280929190818152602001828054612c36906146f7565b8015612c835780601f10612c5857610100808354040283529160200191612c83565b820191906000526020600020905b815481529060010190602001808311612c6657829003601f168201915b505050505081526020019060010190612beb565b6004830190612ca69082614a91565b50612d9381600381518110612cbd57612cbd61474e565b60200260200101516003805480602002602001604051908101604052809291908181526020016000905b82821015612a96578382906000526020600020018054612d06906146f7565b80601f0160208091040260200160405190810160405280929190818152602001828054612d32906146f7565b8015612d7f5780601f10612d5457610100808354040283529160200191612d7f565b820191906000526020600020905b815481529060010190602001808311612d6257829003601f168201915b505050505081526020019060010190612ce7565b6005830190612da29082614a91565b50612e8f81600481518110612db957612db961474e565b60200260200101516004805480602002602001604051908101604052809291908181526020016000905b82821015612a96578382906000526020600020018054612e02906146f7565b80601f0160208091040260200160405190810160405280929190818152602001828054612e2e906146f7565b8015612e7b5780601f10612e5057610100808354040283529160200191612e7b565b820191906000526020600020905b815481529060010190602001808311612e5e57829003601f168201915b505050505081526020019060010190612de3565b6006830190612e9e9082614a91565b50612f8b81600581518110612eb557612eb561474e565b60200260200101516005805480602002602001604051908101604052809291908181526020016000905b82821015612a96578382906000526020600020018054612efe906146f7565b80601f0160208091040260200160405190810160405280929190818152602001828054612f2a906146f7565b8015612f775780601f10612f4c57610100808354040283529160200191612f77565b820191906000526020600020905b815481529060010190602001808311612f5a57829003601f168201915b505050505081526020019060010190612edf565b6007830190612f9a9082614a91565b5061308781600681518110612fb157612fb161474e565b60200260200101516006805480602002602001604051908101604052809291908181526020016000905b82821015612a96578382906000526020600020018054612ffa906146f7565b80601f0160208091040260200160405190810160405280929190818152602001828054613026906146f7565b80156130735780601f1061304857610100808354040283529160200191613073565b820191906000526020600020905b81548152906001019060200180831161305657829003601f168201915b505050505081526020019060010190612fdb565b60088301906130969082614a91565b50613183816007815181106130ad576130ad61474e565b60200260200101516007805480602002602001604051908101604052809291908181526020016000905b82821015612a965783829060005260206000200180546130f6906146f7565b80601f0160208091040260200160405190810160405280929190818152602001828054613122906146f7565b801561316f5780601f106131445761010080835404028352916020019161316f565b820191906000526020600020905b81548152906001019060200180831161315257829003601f168201915b5050505050815260200190600101906130d7565b60098301906131929082614a91565b5050600a01805460ff1916600217905550565b6000818152600d60205260408120546001600160a01b031680610543576040517f7e273289000000000000000000000000000000000000000000000000000000008152600481018490526024016106e2565b6114208383836001613e87565b6000828152600d60205260408120546001600160a01b039081169083161561323157613231818486613fdd565b6001600160a01b0381161561326f5761324e600085600080613e87565b6001600160a01b0381166000908152600e6020526040902080546000190190555b6001600160a01b0385161561329e576001600160a01b0385166000908152600e60205260409020805460010190555b6000848152600d602052604080822080547fffffffffffffffffffffffff0000000000000000000000000000000000000000166001600160a01b0389811691821790925591518793918516917fddf252ad1be2c89b69c2b068fc378daa952ba7f163c4a11628f55a4df523b3ef91a4949350505050565b60008060008451116133695760405162461bcd60e51b815260206004820152600d60248201527f6c69737420697320656d7074790000000000000000000000000000000000000060448201526064016106e2565b60005b84518110156133fb57836040516020016133869190614b51565b604051602081830303815290604052805190602001208582815181106133ae576133ae61474e565b60200260200101516040516020016133c69190614b51565b60405160208183030381529060405280519060200120036133e9578091506133fb565b806133f38161477a565b91505061336c565b509392505050565b6000818152601260209081526040918290206001810180547fffffffffffffffffffffffff00000000000000000000000000000000000000001633908117909155438255601154845190815292830152917f42139093fd7ac15b45c666156888a691a366ed9d327f76e6b9f4ea4f3e82471c910160405180910390a15050565b6001600160a01b0382166134ad57604051633250574960e11b8152600060048201526024016106e2565b60006134bb83836000613204565b90506001600160a01b03811615611420576040517f73c6ac6e000000000000000000000000000000000000000000000000000000008152600060048201526024016106e2565b6001600160a01b03821661354c576040517f5b08ba180000000000000000000000000000000000000000000000000000000081526001600160a01b03831660048201526024016106e2565b6001600160a01b03838116600081815260106020908152604080832094871680845294825291829020805460ff191686151590811790915591519182527f17307eab39ab6107e8899845ad3d59bd9653f200f220920489ca2b5937696c31910160405180910390a3505050565b6001600160a01b0383163b156106b6576040517f150b7a020000000000000000000000000000000000000000000000000000000081526001600160a01b0384169063150b7a0290613614903390889087908790600401614b6d565b6020604051808303816000875af192505050801561364f575060408051601f3d908101601f1916820190925261364c91810190614ba9565b60015b6136b8573d80801561367d576040519150601f19603f3d011682016040523d82523d6000602084013e613682565b606091505b5080516000036136b057604051633250574960e11b81526001600160a01b03851660048201526024016106e2565b805181602001fd5b7fffffffff0000000000000000000000000000000000000000000000000000000081167f150b7a02000000000000000000000000000000000000000000000000000000001461372557604051633250574960e11b81526001600160a01b03851660048201526024016106e2565b5050505050565b6060600061373983614073565b600101905060008167ffffffffffffffff811115613759576137596145d2565b6040519080825280601f01601f191660200182016040528015613783576020820181803683370190505b5090508181016020015b600019017f3031323334353637383961626364656600000000000000000000000000000000600a86061a8153600a850494508461378d57509392505050565b805160609060008190036137f0575050604080516020810190915260008152919050565b600060036137ff836002614bdc565b6138099190614bef565b613814906004614c03565b90506000613823826020614bdc565b67ffffffffffffffff81111561383b5761383b6145d2565b6040519080825280601f01601f191660200182016040528015613865576020820181803683370190505b509050600060405180606001604052806040815260200161505a604091399050600181016020830160005b868110156138f1576003818a01810151603f601282901c8116860151600c83901c8216870151600684901c831688015192909316870151600891821b60ff94851601821b92841692909201901b91160160e01b835260049092019101613890565b50600386066001811461390b57600281146139555761397d565b7f3d3d0000000000000000000000000000000000000000000000000000000000007ffffffffffffffffffffffffffffffffffffffffffffffffffffffffffffffffe83015261397d565b7f3d000000000000000000000000000000000000000000000000000000000000006000198301525b505050918152949350505050565b606060115484106139de5760405162461bcd60e51b815260206004820152601660248201527f72616e646f6d20646f6573206e6f74206578697374730000000000000000000060448201526064016106e2565b600084815260126020908152604091829020825180840190935280548352600101546001600160a01b03169082018190523314613a835760405162461bcd60e51b815260206004820152602260248201527f6f6e6c792072616e646f6d2063726561746f722063616e206765742072616e6460448201527f6f6d00000000000000000000000000000000000000000000000000000000000060648201526084016106e2565b60008467ffffffffffffffff811115613a9e57613a9e6145d2565b604051908082528060200260200182016040528015613ac7578160200160208202803683370190505b508251909150613ad8908590614bdc565b431015613b275760405162461bcd60e51b815260206004820152601c60248201527f746f6f206561726c7920746f206765742072616e646f6d20736565640000000060448201526064016106e2565b8151600090613b37906002614bdc565b604080519140602083018190529250600091016040516020818303038152906040528051906020012060001c905060005b878160ff161015613bcb576000613b80606484614c1a565b905080858360ff1681518110613b9857613b9861474e565b60ff90921660209283029190910190910152613bb5606484614bef565b9250508080613bc390614c2e565b915050613b68565b5091979650505050505050565b606060008283518560ff16613bed9190614c1a565b81518110613bfd57613bfd61474e565b602002602001015190506000601585613c169190614c4d565b60ff169050600e811115613c755760088054839190613c389060ff8916614c1a565b81548110613c4857613c4861474e565b90600052602060002001604051602001613c63929190614c6f565b60405160208183030381529060405291505b601381106133fb57613c85614203565b60098054613c969060ff8916614c1a565b81548110613ca657613ca661474e565b906000526020600020018054613cbb906146f7565b80601f0160208091040260200160405190810160405280929190818152602001828054613ce7906146f7565b8015613d345780601f10613d0957610100808354040283529160200191613d34565b820191906000526020600020905b815481529060010190602001808311613d1757829003601f168201915b505050505081600060028110613d4c57613d4c61474e565b6020020152600a8054613d629060ff8916614c1a565b81548110613d7257613d7261474e565b906000526020600020018054613d87906146f7565b80601f0160208091040260200160405190810160405280929190818152602001828054613db3906146f7565b8015613e005780601f10613dd557610100808354040283529160200191613e00565b820191906000526020600020905b815481529060010190602001808311613de357829003601f168201915b505050505081600160028110613e1857613e1861474e565b60200201526013829003613e54578051602080830151604051613e3e9392879101614cbe565b6040516020818303038152906040529250613e7e565b8051602080830151604051613e6c9392879101614d7e565b60405160208183030381529060405292505b50509392505050565b8080613e9b57506001600160a01b03821615155b15613f95576000613eab846131a5565b90506001600160a01b03831615801590613ed75750826001600160a01b0316816001600160a01b031614155b8015613f0957506001600160a01b0380821660009081526010602090815260408083209387168352929052205460ff16155b15613f4b576040517fa9fbf51f0000000000000000000000000000000000000000000000000000000081526001600160a01b03841660048201526024016106e2565b8115613f935783856001600160a01b0316826001600160a01b03167f8c5be1e5ebec7d5bd14f71427d1e84f3dd0314c0f7b2291e5b200ac8c7c3b92560405160405180910390a45b505b50506000908152600f6020526040902080547fffffffffffffffffffffffff0000000000000000000000000000000000000000166001600160a01b0392909216919091179055565b613fe8838383614155565b611420576001600160a01b03831661402f576040517f7e273289000000000000000000000000000000000000000000000000000000008152600481018290526024016106e2565b6040517f177e802f0000000000000000000000000000000000000000000000000000000081526001600160a01b0383166004820152602481018290526044016106e2565b6000807a184f03e93ff9f4daa797ed6e38ed64bf6a1f01000000000000000083106140bc577a184f03e93ff9f4daa797ed6e38ed64bf6a1f010000000000000000830492506040015b6d04ee2d6d415b85acef810000000083106140e8576d04ee2d6d415b85acef8100000000830492506020015b662386f26fc10000831061410657662386f26fc10000830492506010015b6305f5e100831061411e576305f5e100830492506008015b612710831061413257612710830492506004015b60648310614144576064830492506002015b600a83106105435760010192915050565b60006001600160a01b038316158015906141d35750826001600160a01b0316846001600160a01b031614806141af57506001600160a01b0380851660009081526010602090815260408083209387168352929052205460ff165b806141d357506000828152600f60205260409020546001600160a01b038481169116145b949350505050565b6040518061022001604052806011905b60608152602001906001900390816141eb5790505090565b60408051808201909152606081526001602082016141eb565b7fffffffff000000000000000000000000000000000000000000000000000000008116811461424a57600080fd5b50565b60006020828403121561425f57600080fd5b813561426a8161421c565b9392505050565b60005b8381101561428c578181015183820152602001614274565b50506000910152565b600081518084526142ad816020860160208601614271565b601f01601f19169290920160200192915050565b60208152600061426a6020830184614295565b6000602082840312156142e657600080fd5b5035919050565b80356001600160a01b038116811461430457600080fd5b919050565b6000806040838503121561431c57600080fd5b614325836142ed565b946020939093013593505050565b60008060006060848603121561434857600080fd5b614351846142ed565b925061435f602085016142ed565b9150604084013590509250925092565b6020808252825182820181905260009190848201906040850190845b818110156143a75783518352928401929184019160010161438b565b50909695505050505050565b6000602082840312156143c557600080fd5b61426a826142ed565b60006101008083526143e28184018c614295565b905082810360208401526143f6818b614295565b9050828103604084015261440a818a614295565b9050828103606084015261441e8189614295565b905082810360808401526144328188614295565b905082810360a08401526144468187614295565b905082810360c084015261445a8186614295565b905082810360e084015261446e8185614295565b9b9a5050505050505050505050565b634e487b7160e01b600052602160045260246000fd5b600381106144b157634e487b7160e01b600052602160045260246000fd5b9052565b8b81526001600160a01b038b16602082015260006101608060408401526144de8184018d614295565b905082810360608401526144f2818c614295565b90508281036080840152614506818b614295565b905082810360a084015261451a818a614295565b905082810360c084015261452e8189614295565b905082810360e08401526145428188614295565b90508281036101008401526145578187614295565b905082810361012084015261456c8186614295565b91505061457d610140830184614493565b9c9b505050505050505050505050565b801515811461424a57600080fd5b600080604083850312156145ae57600080fd5b6145b7836142ed565b915060208301356145c78161458d565b809150509250929050565b634e487b7160e01b600052604160045260246000fd5b600080600080608085870312156145fe57600080fd5b614607856142ed565b9350614615602086016142ed565b925060408501359150606085013567ffffffffffffffff8082111561463957600080fd5b818701915087601f83011261464d57600080fd5b81358181111561465f5761465f6145d2565b604051601f8201601f19908116603f01168101908382118183101715614687576146876145d2565b816040528281528a60208487010111156146a057600080fd5b82602086016020830137600060208483010152809550505050505092959194509250565b600080604083850312156146d757600080fd5b6146e0836142ed565b91506146ee602084016142ed565b90509250929050565b600181811c9082168061470b57607f821691505b60208210810361472b57634e487b7160e01b600052602260045260246000fd5b50919050565b60006020828403121561474357600080fd5b815161426a8161458d565b634e487b7160e01b600052603260045260246000fd5b634e487b7160e01b600052601160045260246000fd5b6000600019820361478d5761478d614764565b5060010190565b600081546147a1816146f7565b600182811680156147b957600181146147ce576147fd565b60ff19841687528215158302870194506147fd565b8560005260208060002060005b858110156147f45781548a8201529084019082016147db565b50505082870194505b5050505092915050565b7f646174613a6170706c69636174696f6e2f6a736f6e3b6261736536342c0000008152600061426a601d830184614794565b60008a5161484b818460208f01614271565b8a5161485d8183860160208f01614271565b8a519184010190614872818360208e01614271565b89516148848183850160208e01614271565b895192909101019061489a818360208c01614271565b87516148ac8183850160208c01614271565b87519290910101906148c2818360208a01614271565b85516148d48183850160208a01614271565b85519290910101906148ea818360208801614271565b019b9a5050505050505050505050565b7f7b226e616d65223a20224d4c6f6f742023000000000000000000000000000000815260008451614932816011850160208901614271565b7f222c20226465736372697074696f6e223a2200000000000000000000000000006011918401918201526149696023820186614794565b90507f222c22696d616765223a2022646174613a696d6167652f7376672b786d6c3b6281527f61736536342c0000000000000000000000000000000000000000000000000000602082015283516149c7816026840160208801614271565b7f227d0000000000000000000000000000000000000000000000000000000000006026929091019182015260280195945050505050565b7f646174613a6170706c69636174696f6e2f6a736f6e3b6261736536342c000000815260008251614a3681601d850160208701614271565b91909101601d0192915050565b601f82111561142057600081815260208120601f850160051c81016020861015614a6a5750805b601f850160051c820191505b81811015614a8957828155600101614a76565b505050505050565b815167ffffffffffffffff811115614aab57614aab6145d2565b614abf81614ab984546146f7565b84614a43565b602080601f831160018114614af45760008415614adc5750858301515b600019600386901b1c1916600185901b178555614a89565b600085815260208120601f198616915b82811015614b2357888601518255948401946001909101908401614b04565b5085821015614b415787850151600019600388901b60f8161c191681555b5050505050600190811b01905550565b60008251614b63818460208701614271565b9190910192915050565b60006001600160a01b03808716835280861660208401525083604083015260806060830152614b9f6080830184614295565b9695505050505050565b600060208284031215614bbb57600080fd5b815161426a8161421c565b634e487b7160e01b600052601260045260246000fd5b8082018082111561054357610543614764565b600082614bfe57614bfe614bc6565b500490565b808202811582820484141761054357610543614764565b600082614c2957614c29614bc6565b500690565b600060ff821660ff8103614c4457614c44614764565b60010192915050565b600060ff831680614c6057614c60614bc6565b8060ff84160691505092915050565b60008351614c81818460208801614271565b7f2000000000000000000000000000000000000000000000000000000000000000908301908152614cb56001820185614794565b95945050505050565b7f2200000000000000000000000000000000000000000000000000000000000000815260008451614cf6816001850160208901614271565b7f20000000000000000000000000000000000000000000000000000000000000006001918401918201528451614d33816002840160208901614271565b7f2220000000000000000000000000000000000000000000000000000000000000600292909101918201528351614d71816004840160208801614271565b0160040195945050505050565b7f2200000000000000000000000000000000000000000000000000000000000000815260008451614db6816001850160208901614271565b7f20000000000000000000000000000000000000000000000000000000000000006001918401918201528451614df3816002840160208901614271565b7f2220000000000000000000000000000000000000000000000000000000000000600292909101918201528351614e31816004840160208801614271565b7f202b310000000000000000000000000000000000000000000000000000000000600492909101918201526007019594505050505056fe3c2f746578743e3c7465787420783d2231302220793d2236302220636c6173733d2262617365223e3c2f746578743e3c7465787420783d2231302220793d223136302220636c6173733d2262617365223e3c2f746578743e3c7465787420783d2231302220793d223132302220636c6173733d2262617365223e3c2f746578743e3c7465787420783d2231302220793d2238302220636c6173733d2262617365223e3c2f746578743e3c7465787420783d2231302220793d223130302220636c6173733d2262617365223e3c73766720786d6c6e733d22687474703a2f2f7777772e77332e6f72672f323030302f73766722207072657365727665417370656374526174696f3d22784d696e594d696e206d656574222076696577426f783d223020302033353020333530223e3c7374796c653e2e62617365207b2066696c6c3a2077686974653b20666f6e742d66616d696c793a2073657269663b20666f6e742d73697a653a20313470783b207d3c2f7374796c653e3c726563742077696474683d223130302522206865696768743d2231303025222066696c6c3d22626c61636b22202f3e3c7465787420783d2231302220793d2232302220636c6173733d2262617365223e3c2f746578743e3c7465787420783d2231302220793d223134302220636c6173733d2262617365223e4142434445464748494a4b4c4d4e4f505152535455565758595a6162636465666768696a6b6c6d6e6f707172737475767778797a303132333435363738392b2f3c2f746578743e3c7465787420783d2231302220793d2234302220636c6173733d2262617365223ea2646970667358221220089240a3f47fd18bc9522876b051b66c702f096f8ac04d70efaab6877702535664736f6c63430008150033",
    "linkReferences": {}
  },
  "methodIdentifiers": {
    "approve(address,uint256)": "095ea7b3",
    "balanceOf(address)": "70a08231",
    "getApproved(uint256)": "081812fc",
    "getStructIndexInfo(uint256)": "3c41d28c",
    "getStructInfo(uint256)": "53bbd6a7",
    "getUserTokenIdList()": "43a47162",
    "isApprovedForAll(address,address)": "e985e9c5",
    "lootList(uint256)": "9b8a3237",
    "mint(address)": "6a627842",
    "name()": "06fdde03",
    "ownerOf(uint256)": "6352211e",
    "randomId()": "0ab14d8a",
    "randomList(uint256)": "cba86e23",
    "revealNFT(uint256)": "d5608f9a",
    "safeTransferFrom(address,address,uint256)": "42842e0e",
    "safeTransferFrom(address,address,uint256,bytes)": "b88d4fde",
    "setApprovalForAll(address,bool)": "a22cb465",
    "supportsInterface(bytes4)": "01ffc9a7",
    "symbol()": "95d89b41",
    "tokenId()": "17d70f7c",
    "tokenURI(uint256)": "c87b56dd",
    "transferFrom(address,address,uint256)": "23b872dd",
    "waitBlockCount()": "3e8474ca",
    "withdraw(address)": "51cff8d9",
    "withdrawErc20(address,address,uint256)": "1593dee1"
  },
  "id": 209
}