{
  "abi": [
    {
      "inputs": [
        {
          "internalType": "address",
          "name": "_lootAddress",
          "type": "address"
        },
        {
          "internalType": "address",
          "name": "_userAddress",
          "type": "address"
        }
      ],
      "stateMutability": "nonpayable",
      "type": "constructor"
    },
    {
      "inputs": [],
      "name": "lootAddress",
      "outputs": [
        {
          "internalType": "address",
          "name": "",
          "type": "address"
        }
      ],
      "stateMutability": "view",
      "type": "function"
    },
    {
      "inputs": [],
      "name": "multMint",
      "outputs": [],
      "stateMutability": "nonpayable",
      "type": "function"
    },
    {
      "inputs": [
        {
          "internalType": "uint256",
          "name": "_lootTokenId",
          "type": "uint256"
        },
        {
          "internalType": "uint256",
          "name": "_userTokenId",
          "type": "uint256"
        }
      ],
      "name": "multRevealNFT",
      "outputs": [],
      "stateMutability": "nonpayable",
      "type": "function"
    },
    {
      "inputs": [],
      "name": "userAddress",
      "outputs": [
        {
          "internalType": "address",
          "name": "",
          "type": "address"
        }
      ],
      "stateMutability": "view",
      "type": "function"
    }
  ],
  "bytecode": {
    "object": "0x608060405234801561001057600080fd5b506040516103ee3803806103ee83398101604081905261002f9161007c565b600080546001600160a01b039384166001600160a01b031991821617909155600180549290931691161790556100af565b80516001600160a01b038116811461007757600080fd5b919050565b6000806040838503121561008f57600080fd5b61009883610060565b91506100a660208401610060565b90509250929050565b610330806100be6000396000f3fe608060405234801561001057600080fd5b506004361061004c5760003560e01c80630e439326146100515780631b9cb7e81461009a578063d6f0dafc146100af578063e4128fb3146100b7575b600080fd5b6000546100719073ffffffffffffffffffffffffffffffffffffffff1681565b60405173ffffffffffffffffffffffffffffffffffffffff909116815260200160405180910390f35b6100ad6100a83660046102d8565b6100d7565b005b6100ad6101ea565b6001546100719073ffffffffffffffffffffffffffffffffffffffff1681565b6001546000546040517fd5608f9a0000000000000000000000000000000000000000000000000000000081526004810185905273ffffffffffffffffffffffffffffffffffffffff9283169290911690819063d5608f9a90602401600060405180830381600087803b15801561014c57600080fd5b505af1158015610160573d6000803e3d6000fd5b50506040517fd5608f9a0000000000000000000000000000000000000000000000000000000081526004810186905273ffffffffffffffffffffffffffffffffffffffff8516925063d5608f9a9150602401600060405180830381600087803b1580156101cc57600080fd5b505af11580156101e0573d6000803e3d6000fd5b5050505050505050565b60015460008054604080517f1249c58b000000000000000000000000000000000000000000000000000000008152905173ffffffffffffffffffffffffffffffffffffffff94851694909216928492631249c58b92600480820193929182900301818387803b15801561025c57600080fd5b505af1158015610270573d6000803e3d6000fd5b505050508073ffffffffffffffffffffffffffffffffffffffff16631249c58b6040518163ffffffff1660e01b8152600401600060405180830381600087803b1580156102bc57600080fd5b505af11580156102d0573d6000803e3d6000fd5b505050505050565b600080604083850312156102eb57600080fd5b5050803592602090910135915056fea26469706673582212202aef42573cb79ebf87cb27477fb606f862a62fb2f451f1eec1d43d1f383a325164736f6c634300080d0033",
    "linkReferences": {}
  },
  "methodIdentifiers": {
    "lootAddress()": "0e439326",
    "multMint()": "d6f0dafc",
    "multRevealNFT(uint256,uint256)": "1b9cb7e8",
    "userAddress()": "e4128fb3"
  },
  "id": 171
}