{
  "abi": [
    {
      "inputs": [
        {
          "internalType": "address",
          "name": "_lootAddress",
          "type": "address"
        },
        {
          "internalType": "address",
          "name": "_userAddress",
          "type": "address"
        }
      ],
      "stateMutability": "nonpayable",
      "type": "constructor"
    },
    {
      "inputs": [],
      "name": "lootAddress",
      "outputs": [
        {
          "internalType": "address",
          "name": "",
          "type": "address"
        }
      ],
      "stateMutability": "view",
      "type": "function"
    },
    {
      "inputs": [],
      "name": "multMint",
      "outputs": [],
      "stateMutability": "nonpayable",
      "type": "function"
    },
    {
      "inputs": [
        {
          "internalType": "uint256",
          "name": "_lootTokenId",
          "type": "uint256"
        },
        {
          "internalType": "uint256",
          "name": "_userTokenId",
          "type": "uint256"
        }
      ],
      "name": "multRevealNFT",
      "outputs": [],
      "stateMutability": "nonpayable",
      "type": "function"
    },
    {
      "inputs": [],
      "name": "userAddress",
      "outputs": [
        {
          "internalType": "address",
          "name": "",
          "type": "address"
        }
      ],
      "stateMutability": "view",
      "type": "function"
    }
  ],
  "bytecode": {
    "object": "0x608060405234801561001057600080fd5b5060405161041538038061041583398101604081905261002f9161007c565b600080546001600160a01b039384166001600160a01b031991821617909155600180549290931691161790556100af565b80516001600160a01b038116811461007757600080fd5b919050565b6000806040838503121561008f57600080fd5b61009883610060565b91506100a660208401610060565b90509250929050565b610357806100be6000396000f3fe608060405234801561001057600080fd5b506004361061004c5760003560e01c80630e439326146100515780631b9cb7e81461009a578063d6f0dafc146100af578063e4128fb3146100b7575b600080fd5b6000546100719073ffffffffffffffffffffffffffffffffffffffff1681565b60405173ffffffffffffffffffffffffffffffffffffffff909116815260200160405180910390f35b6100ad6100a83660046102ff565b6100d7565b005b6100ad6101ea565b6001546100719073ffffffffffffffffffffffffffffffffffffffff1681565b6001546000546040517fd5608f9a0000000000000000000000000000000000000000000000000000000081526004810185905273ffffffffffffffffffffffffffffffffffffffff9283169290911690819063d5608f9a90602401600060405180830381600087803b15801561014c57600080fd5b505af1158015610160573d6000803e3d6000fd5b50506040517fd5608f9a0000000000000000000000000000000000000000000000000000000081526004810186905273ffffffffffffffffffffffffffffffffffffffff8516925063d5608f9a9150602401600060405180830381600087803b1580156101cc57600080fd5b505af11580156101e0573d6000803e3d6000fd5b5050505050505050565b6001546000546040517f6a627842000000000000000000000000000000000000000000000000000000008152336004820181905273ffffffffffffffffffffffffffffffffffffffff9384169390921691908390636a62784290602401600060405180830381600087803b15801561026157600080fd5b505af1158015610275573d6000803e3d6000fd5b50506040517f6a62784200000000000000000000000000000000000000000000000000000000815273ffffffffffffffffffffffffffffffffffffffff848116600483015285169250636a6278429150602401600060405180830381600087803b1580156102e257600080fd5b505af11580156102f6573d6000803e3d6000fd5b50505050505050565b6000806040838503121561031257600080fd5b5050803592602090910135915056fea26469706673582212201a5dada106ccc41498df7e8686caea58737043668e522281be891839d2f50f7764736f6c634300080d0033",
    "linkReferences": {}
  },
  "methodIdentifiers": {
    "lootAddress()": "0e439326",
    "multMint()": "d6f0dafc",
    "multRevealNFT(uint256,uint256)": "1b9cb7e8",
    "userAddress()": "e4128fb3"
  },
  "id": 146
}