{
  "abi": [
    {
      "inputs": [
        {
          "internalType": "uint256",
          "name": "length",
          "type": "uint256"
        }
      ],
      "name": "PackedCounter_InvalidLength",
      "type": "error"
    },
    {
      "inputs": [
        {
          "internalType": "uint256",
          "name": "length",
          "type": "uint256"
        }
      ],
      "name": "SchemaLib_InvalidLength",
      "type": "error"
    },
    {
      "inputs": [],
      "name": "SchemaLib_StaticTypeAfterDynamicType",
      "type": "error"
    },
    {
      "inputs": [
        {
          "internalType": "bytes",
          "name": "data",
          "type": "bytes"
        },
        {
          "internalType": "uint256",
          "name": "start",
          "type": "uint256"
        },
        {
          "internalType": "uint256",
          "name": "end",
          "type": "uint256"
        }
      ],
      "name": "Slice_OutOfBounds",
      "type": "error"
    },
    {
      "inputs": [
        {
          "internalType": "uint256",
          "name": "expected",
          "type": "uint256"
        },
        {
          "internalType": "uint256",
          "name": "received",
          "type": "uint256"
        }
      ],
      "name": "StoreCore_InvalidDataLength",
      "type": "error"
    },
    {
      "anonymous": false,
      "inputs": [
        {
          "indexed": false,
          "internalType": "bytes32",
          "name": "root",
          "type": "bytes32"
        }
      ],
      "name": "RenewMapMerkeRoot",
      "type": "event"
    },
    {
      "inputs": [
        {
          "internalType": "uint16",
          "name": "_x",
          "type": "uint16"
        },
        {
          "internalType": "uint16",
          "name": "_y",
          "type": "uint16"
        }
      ],
      "name": "CreateBox",
      "outputs": [],
      "stateMutability": "nonpayable",
      "type": "function"
    },
    {
      "inputs": [],
      "name": "GetSeasonInfo",
      "outputs": [
        {
          "internalType": "uint256",
          "name": "",
          "type": "uint256"
        },
        {
          "internalType": "uint256",
          "name": "",
          "type": "uint256"
        },
        {
          "internalType": "uint256",
          "name": "",
          "type": "uint256"
        }
      ],
      "stateMutability": "view",
      "type": "function"
    },
    {
      "inputs": [
        {
          "internalType": "bytes32",
          "name": "_root",
          "type": "bytes32"
        }
      ],
      "name": "SetMapMerkleRoot",
      "outputs": [],
      "stateMutability": "nonpayable",
      "type": "function"
    },
    {
      "inputs": [
        {
          "internalType": "uint256",
          "name": "_start",
          "type": "uint256"
        },
        {
          "internalType": "uint256",
          "name": "_end",
          "type": "uint256"
        }
      ],
      "name": "SetSeasonInfo",
      "outputs": [],
      "stateMutability": "nonpayable",
      "type": "function"
    },
    {
      "inputs": [
        {
          "internalType": "address",
          "name": "_user",
          "type": "address"
        }
      ],
      "name": "SetUserContract",
      "outputs": [],
      "stateMutability": "nonpayable",
      "type": "function"
    }
  ],
  "bytecode": {
    "object": "0x608060405234801561001057600080fd5b50612681806100206000396000f3fe608060405234801561001057600080fd5b50600436106100675760003560e01c80632a9d93e6116100505780632a9d93e6146100945780632b934ac4146100bb578063ac34af91146100ce57600080fd5b80630252b86c1461006c57806313d4a1c714610081575b600080fd5b61007f61007a3660046121ab565b6100e1565b005b61007f61008f3660046121e1565b61010e565b61009c61016e565b6040805193845260208401929092529082015260600160405180910390f35b61007f6100c93660046121fa565b610204565b61007f6100dc36600461222e565b6103c3565b61010b7f822086c599a5bfa62207b887712fdf03aec5fc7466738d92b8b70ebca88bcbd282610447565b50565b6101387f155015ae9c496f0f6fd931019b5913c67e630cdcf50b1101aeda4bb69f21060e8261052a565b6040518181527fde7e1330ff4d679bae1a96a7db018d73e2987fadfa297b781453549f329c0f4e9060200160405180910390a150565b60008060008061019d7f96b7027188bdd9f73a3c66bdb30411e65193d1d46960864bcdf1e252b31a2e3b6105e7565b905060006101ca7f96b7027188bdd9f73a3c66bdb30411e65193d1d46960864bcdf1e252b31a2e3b610688565b905060006101f77f96b7027188bdd9f73a3c66bdb30411e65193d1d46960864bcdf1e252b31a2e3b610713565b9296919550919350915050565b808210610272576040517f08c379a000000000000000000000000000000000000000000000000000000000815260206004820152601b60248201527f7374617274206d757374206265206c657373207468616e20656e64000000000060448201526064015b60405180910390fd5b600061029d7f96b7027188bdd9f73a3c66bdb30411e65193d1d46960864bcdf1e252b31a2e3b610688565b9050808311610308576040517f08c379a000000000000000000000000000000000000000000000000000000000815260206004820181905260248201527f7374617274206d757374206265206d6f7265207468616e207072657620656e646044820152606401610269565b6103327f96b7027188bdd9f73a3c66bdb30411e65193d1d46960864bcdf1e252b31a2e3b8461079e565b61035c7f96b7027188bdd9f73a3c66bdb30411e65193d1d46960864bcdf1e252b31a2e3b83610844565b60006103877f96b7027188bdd9f73a3c66bdb30411e65193d1d46960864bcdf1e252b31a2e3b610713565b90506103bd7f96b7027188bdd9f73a3c66bdb30411e65193d1d46960864bcdf1e252b31a2e3b6103b8836001612277565b6108d3565b50505050565b60006103ee7f155015ae9c496f0f6fd931019b5913c67e630cdcf50b1101aeda4bb69f21060e610962565b90506103fa8184610a04565b6104048183610ae6565b61040e8142610bb5565b6104427f155015ae9c496f0f6fd931019b5913c67e630cdcf50b1101aeda4bb69f21060e61043d836001612277565b610c5e565b505050565b60408051600180825281830190925260009160208083019080368337019050509050828160008151811061047d5761047d6122a5565b602090810291909101810191909152604080516000818401527f476c6f62616c436f6e666967000000000000000000000000000000000000000060308201528151808203909301835281019052610442906104d7906122bb565b6040517fffffffffffffffffffffffffffffffffffffffff000000000000000000000000606086901b1660208201528390600090603401604051602081830303815290604052610525610d04565b610dc1565b604080516001808252818301909252600091602080830190803683370190505090508281600081518110610560576105606122a5565b602090810291909101810191909152604080516000818401527f47616d65436f6e6669670000000000000000000000000000000000000000000060308201528151808203909301835281019052610442906105ba906122bb565b826000856040516020016105d091815260200190565b604051602081830303815290604052610525610e91565b604080516001808252818301909252600091829190602080830190803683370190505090508281600081518110610620576106206122a5565b6020908102919091018101919091526040805160009281018390526529b2b0b9b7b760d11b60308201526106779101604051602081830303815290604052610667906122bb565b83600061067261106b565b611130565b60208101519091505b949350505050565b6040805160018082528183019092526000918291906020808301908036833701905050905082816000815181106106c1576106c16122a5565b6020908102919091018101919091526040805160009281018390526529b2b0b9b7b760d11b60308201526106779101604051602081830303815290604052610708906122bb565b83600161067261106b565b60408051600180825281830190925260009182919060208083019080368337019050509050828160008151811061074c5761074c6122a5565b6020908102919091018101919091526040805160009281018390526529b2b0b9b7b760d11b60308201526106779101604051602081830303815290604052610793906122bb565b83600261067261106b565b6040805160018082528183019092526000916020808301908036833701905050905082816000815181106107d4576107d46122a5565b602090810291909101810191909152604080516000818401526529b2b0b9b7b760d11b6030820152815180820390930183528101905261044290610817906122bb565b8260008560405160200161082d91815260200190565b60405160208183030381529060405261052561106b565b60408051600180825281830190925260009160208083019080368337019050509050828160008151811061087a5761087a6122a5565b602090810291909101810191909152604080516000818401526529b2b0b9b7b760d11b60308201528151808203909301835281019052610442906108bd906122bb565b8260018560405160200161082d91815260200190565b604080516001808252818301909252600091602080830190803683370190505090508281600081518110610909576109096122a5565b602090810291909101810191909152604080516000818401526529b2b0b9b7b760d11b603082015281518082039093018352810190526104429061094c906122bb565b8260028560405160200161082d91815260200190565b60408051600180825281830190925260009182919060208083019080368337019050509050828160008151811061099b5761099b6122a5565b6020908102919091018101919091526040805160009281018390527f47616d65436f6e66696700000000000000000000000000000000000000000000603082015261067791016040516020818303038152906040526109f9906122bb565b836006610672610e91565b604080516001808252818301909252600091602080830190803683370190505090508260001b81600081518110610a3d57610a3d6122a5565b602090810291909101810191909152604080516000818401527f426f784c697374000000000000000000000000000000000000000000000000006030820152815180820390930183528101905261044290610a97906122bb565b6040517fffff00000000000000000000000000000000000000000000000000000000000060f086901b16602082015283906001906022015b60405160208183030381529060405261052561120c565b604080516001808252818301909252600091602080830190803683370190505090508260001b81600081518110610b1f57610b1f6122a5565b602090810291909101810191909152604080516000818401527f426f784c697374000000000000000000000000000000000000000000000000006030820152815180820390930183528101905261044290610b79906122bb565b6040517fffff00000000000000000000000000000000000000000000000000000000000060f086901b1660208201528390600290602201610acf565b604080516001808252818301909252600091602080830190803683370190505090508260001b81600081518110610bee57610bee6122a5565b602090810291909101810191909152604080516000818401527f426f784c697374000000000000000000000000000000000000000000000000006030820152815180820390930183528101905261044290610c48906122bb565b82600685604051602001610acf91815260200190565b604080516001808252818301909252600091602080830190803683370190505090508281600081518110610c9457610c946122a5565b602090810291909101810191909152604080516000818401527f47616d65436f6e666967000000000000000000000000000000000000000000006030820152815180820390930183528101905261044290610cee906122bb565b826006856040516020016105d091815260200190565b60408051600280825260608201835260009283929190602083019080368337019050509050606181600081518110610d3e57610d3e6122a5565b602002602001019060c5811115610d5757610d576122df565b908160c5811115610d6a57610d6a6122df565b81525050606181600181518110610d8357610d836122a5565b602002602001019060c5811115610d9c57610d9c6122df565b908160c5811115610daf57610daf6122df565b905250610dbb816114b6565b91505090565b6000610dcb611631565b90503073ffffffffffffffffffffffffffffffffffffffff821603610dfc57610df7868686868661167d565b610e89565b6040517f3708196e00000000000000000000000000000000000000000000000000000000815273ffffffffffffffffffffffffffffffffffffffff821690633708196e90610e569089908990899089908990600401612388565b600060405180830381600087803b158015610e7057600080fd5b505af1158015610e84573d6000803e3d6000fd5b505050505b505050505050565b60408051600780825261010082019092526000918291906020820160e080368337019050509050605f81600081518110610ecd57610ecd6122a5565b602002602001019060c5811115610ee657610ee66122df565b908160c5811115610ef957610ef96122df565b81525050601f81600181518110610f1257610f126122a5565b602002602001019060c5811115610f2b57610f2b6122df565b908160c5811115610f3e57610f3e6122df565b81525050601f81600281518110610f5757610f576122a5565b602002602001019060c5811115610f7057610f706122df565b908160c5811115610f8357610f836122df565b81525050600181600381518110610f9c57610f9c6122a5565b602002602001019060c5811115610fb557610fb56122df565b908160c5811115610fc857610fc86122df565b81525050600181600481518110610fe157610fe16122a5565b602002602001019060c5811115610ffa57610ffa6122df565b908160c581111561100d5761100d6122df565b81525050601f81600581518110611026576110266122a5565b602002602001019060c581111561103f5761103f6122df565b908160c5811115611052576110526122df565b81525050601f81600681518110610d8357610d836122a5565b6040805160038082526080820190925260009182919060208201606080368337019050509050601f816000815181106110a6576110a66122a5565b602002602001019060c58111156110bf576110bf6122df565b908160c58111156110d2576110d26122df565b81525050601f816001815181106110eb576110eb6122a5565b602002602001019060c5811115611104576111046122df565b908160c5811115611117576111176122df565b81525050601f81600281518110610d8357610d836122a5565b6060600061113c611631565b90503073ffffffffffffffffffffffffffffffffffffffff82160361116f5761116786868686611869565b915050610680565b6040517f05242d2f00000000000000000000000000000000000000000000000000000000815273ffffffffffffffffffffffffffffffffffffffff8216906305242d2f906111c79089908990899089906004016123cf565b600060405180830381865afa1580156111e4573d6000803e3d6000fd5b505050506040513d6000823e601f3d908101601f1916820160405261116791908101906123fe565b60408051600a80825261016082019092526000918291906020820161014080368337019050509050601f81600081518110611249576112496122a5565b602002602001019060c5811115611262576112626122df565b908160c5811115611275576112756122df565b8152505060018160018151811061128e5761128e6122a5565b602002602001019060c58111156112a7576112a76122df565b908160c58111156112ba576112ba6122df565b815250506001816002815181106112d3576112d36122a5565b602002602001019060c58111156112ec576112ec6122df565b908160c58111156112ff576112ff6122df565b81525050600181600381518110611318576113186122a5565b602002602001019060c5811115611331576113316122df565b908160c5811115611344576113446122df565b8152505060018160048151811061135d5761135d6122a5565b602002602001019060c5811115611376576113766122df565b908160c5811115611389576113896122df565b81525050601f816005815181106113a2576113a26122a5565b602002602001019060c58111156113bb576113bb6122df565b908160c58111156113ce576113ce6122df565b81525050601f816006815181106113e7576113e76122a5565b602002602001019060c5811115611400576114006122df565b908160c5811115611413576114136122df565b81525050601f8160078151811061142c5761142c6122a5565b602002602001019060c5811115611445576114456122df565b908160c5811115611458576114586122df565b81525050606081600881518110611471576114716122a5565b602002602001019060c581111561148a5761148a6122df565b908160c581111561149d5761149d6122df565b81525050606181600981518110610d8357610d836122a5565b6000601c825111156114f95781516040517f5318beb900000000000000000000000000000000000000000000000000000000815260040161026991815260200190565b60008080805b85518110156115d157600061153d87838151811061151f5761151f6122a5565b602002602001015160c5811115611538576115386122df565b6118a1565b9050806000036115525760019092019161158a565b821561158a576040517ff1e56be400000000000000000000000000000000000000000000000000000000815260040160405180910390fd5b808401935081601b036008028783815181106115a8576115a86122a5565b602002602001015160c58111156115c1576115c16122df565b901b9490941793506001016114ff565b506005811115611610576040517f5318beb900000000000000000000000000000000000000000000000000000000815260048101829052602401610269565b935160e085901b94900360e81b60f09190911b919091171791909117919050565b7f629a4c26e296b22a8e0856e9f6ecb2d1008d7e00081111962cd175fa7488e1755460009073ffffffffffffffffffffffffffffffffffffffff1680611678573391505090565b919050565b7fd01f9f1368f831528fc9fe6442366b2b7d957fbfff3bcf7c24d9ab5fe51f8c46858585856040516116b294939291906124ab565b60405180910390a160006116c586611901565b905060005b81518110156117785760008282815181106116e7576116e76122a5565b602002602001015190508073ffffffffffffffffffffffffffffffffffffffff1663bf11b74e89898989896040518663ffffffff1660e01b8152600401611732959493929190612388565b600060405180830381600087803b15801561174c57600080fd5b505af1158015611760573d6000803e3d6000fd5b50505050508080611770906124df565b9150506116ca565b506117868260e81c60ff1690565b8460ff1610156117a25761179d86868487876119d9565b6117af565b6117af8686848787611a89565b60005b81518110156118605760008282815181106117cf576117cf6122a5565b602002602001015190508073ffffffffffffffffffffffffffffffffffffffff16637da508a289898989896040518663ffffffff1660e01b815260040161181a959493929190612388565b600060405180830381600087803b15801561183457600080fd5b505af1158015611848573d6000803e3d6000fd5b50505050508080611858906124df565b9150506117b2565b50505050505050565b60606118788260e81c60ff1690565b8360ff1610156118955761188e85858585611acc565b9050610680565b61188e85858585611b2c565b6000808260c58111156118b6576118b66122df565b60ff16905060618110156118d057601f1660010192915050565b60618360c58111156118e4576118e46122df565b036118f25750601492915050565b50600092915050565b50919050565b6040805160018082528183019092526060916000919060208083019080368337019050509050828160008151811061193b5761193b6122a5565b602090810291909101810191909152604080517f6d756473746f7265000000000000000000000000000000000000000000000000818401527f486f6f6b73000000000000000000000000000000000000000000000000000000603082015281518082039093018352810190526000906119c2906119b7906122bb565b836000610672611b97565b90506106806119d48260008451611bd1565b611c61565b60006119e88460ff8516611c79565b90508151611a018260c5811115611538576115386122df565b14611a5857611a1b8160c5811115611538576115386122df565b82516040517f521b3d3300000000000000000000000000000000000000000000000000000000815260048101929092526024820152604401610269565b6000611a648787611c9f565b90506000611a728686611cf5565b9050611a7f828286611d49565b5050505050505050565b6000611a988460e81c60ff1690565b611aa290846124f9565b9050611ab18686838551611d59565b6000611abe878784611d88565b905061186081600085611d49565b60606000611add8360ff8616611c79565b90506000611af68260c5811115611538576115386122df565b90506000611b048888611c9f565b90506000611b128688611cf5565b9050611b1f828483611de1565b9998505050505050505050565b60606000611b3d8360e81c60ff1690565b611b4790856124f9565b90506000611b56878784611d88565b90506000611b7d83611b688a8a611e04565b9060ff166028026038011c64ffffffffff1690565b9050611b8b82826000611de1565b98975050505050505050565b6040805160018082528183019092526000918291906020808301908036833701905050905060c381600081518110610d8357610d836122a5565b6000818311158015611be4575083518211155b611c20578383836040517f23230fa30000000000000000000000000000000000000000000000000000000081526004016102699392919061251c565b60208401611c2e8482612277565b90506000611c3c8585612541565b6fffffffffffffffffffffffffffffffff1660809290921b9190911795945050505050565b60606000611c728360146060611e1b565b9392505050565b600081601b03600802611c898490565b60ff911c1660c5811115611c7257611c726122df565b60007f86425bff6b57326c7859e89024fe4f238ca327a1ae4a230180dd2f0e88aaa7d98383604051602001611cd693929190612558565b60408051601f1981840301815291905280516020909101209392505050565b600080805b8360ff16811015611d4157611d23611d128683611c79565b60c5811115611538576115386122df565b611d2d9083612277565b915080611d39816124df565b915050611cfa565b509392505050565b6104428383602084018451611f2d565b6000611d658585611fed565b90506000611d71825490565b9050611d7e818585612024565b8083559050610e89565b60007f86425bff6b57326c7859e89024fe4f238ca327a1ae4a230180dd2f0e88aaa7d9848484604051602001611dc19493929190612580565b60408051601f198184030181529190528051602090910120949350505050565b60405160208101601f19603f8584010116604052838252611d41858585846120f3565b600080611e118484611fed565b9050610680815490565b60606000611e298560801c90565b90506fffffffffffffffffffffffffffffffff85166000858281611e4f57611e4f6125b3565b049050611e5c86836125c9565b15611ee9576040517f08c379a000000000000000000000000000000000000000000000000000000000815260206004820152603d60248201527f756e7061636b546f41727261793a207061636b65644c656e677468206d75737460448201527f2062652061206d756c7469706c65206f6620656c656d656e7453697a650000006064820152608401610269565b60405193506020840160208202810160405281855260005b82811015611f21578451871c825293870193602090910190600101611f01565b50505050509392505050565b8215611fa75760208310611f5757602083048401935060208381611f5357611f536125b3565b0692505b8215611fa75760208390036000600019600884021c1990506008850281811c91508451811c9050811987541682821617875550818311611f985750506103bd565b50600194909401939182019190035b5b60208110611fc95781518455600190930192602090910190601f1901611fa8565b80156103bd576000600019600883021c198554845182169119161785555050505050565b60007f86425bff6b57326c7859e89024fe4f238ca327a1ae4a230180dd2f0e88aaa7d98383604051602001611cd6939291906125eb565b600064ffffffffff821115612068576040517f4767058800000000000000000000000000000000000000000000000000000000815260048101839052602401610269565b8366ffffffffffffff811660ff851660280260380182901c64ffffffffff1680851061209a57808503820191506120a2565b848103820391505b5064ffffffffff6038602860ff8816020190811b80197fffffffffffffffffffffffffffffffffffffffffffffffffff0000000000000094909416909217929092169184901b161790509392505050565b8115612165576020821061211d57602082048401935060208281612119576121196125b3565b0691505b81156121655760208290036000600019600883021c1990508554600885021b8119845116828216178452508185116121565750506103bd565b50600194909401939283900392015b5b602083106121875783548152600190930192601f1990920191602001612166565b82156103bd576000600019600885021c198251865482169119161782525050505050565b6000602082840312156121bd57600080fd5b813573ffffffffffffffffffffffffffffffffffffffff81168114611c7257600080fd5b6000602082840312156121f357600080fd5b5035919050565b6000806040838503121561220d57600080fd5b50508035926020909101359150565b803561ffff8116811461167857600080fd5b6000806040838503121561224157600080fd5b61224a8361221c565b91506122586020840161221c565b90509250929050565b634e487b7160e01b600052601160045260246000fd5b6000821982111561228a5761228a612261565b500190565b634e487b7160e01b600052604160045260246000fd5b634e487b7160e01b600052603260045260246000fd5b805160208083015191908110156118fb5760001960209190910360031b1b16919050565b634e487b7160e01b600052602160045260246000fd5b600081518084526020808501945080840160005b8381101561232557815187529582019590820190600101612309565b509495945050505050565b60005b8381101561234b578181015183820152602001612333565b838111156103bd5750506000910152565b60008151808452612374816020860160208601612330565b601f01601f19169290920160200192915050565b85815260a0602082015260006123a160a08301876122f5565b60ff8616604084015282810360608401526123bc818661235c565b9150508260808301529695505050505050565b8481526080602082015260006123e860808301866122f5565b60ff949094166040830152506060015292915050565b60006020828403121561241057600080fd5b815167ffffffffffffffff8082111561242857600080fd5b818401915084601f83011261243c57600080fd5b81518181111561244e5761244e61228f565b604051601f8201601f19908116603f011681019083821181831017156124765761247661228f565b8160405282815287602084870101111561248f57600080fd5b6124a0836020830160208801612330565b979650505050505050565b8481526080602082015260006124c460808301866122f5565b60ff8516604084015282810360608401526124a0818561235c565b600060001982036124f2576124f2612261565b5060010190565b600060ff821660ff84168082101561251357612513612261565b90039392505050565b60608152600061252f606083018661235c565b60208301949094525060400152919050565b60008282101561255357612553612261565b500390565b83815282602082015260606040820152600061257760608301846122f5565b95945050505050565b84815283602082015260806040820152600061259f60808301856122f5565b905060ff8316606083015295945050505050565b634e487b7160e01b600052601260045260246000fd5b6000826125e657634e487b7160e01b600052601260045260246000fd5b500690565b83815282602082015260806040820152600061260a60808301846122f5565b8281036060840152600681527f6c656e677468000000000000000000000000000000000000000000000000000060208201526040810191505094935050505056fea26469706673582212203707e651c1a2e0e3252e12dab4f0b7249c9022adf67c034b499b0fb8a08fb72264736f6c634300080d0033",
    "linkReferences": {}
  },
  "methodIdentifiers": {
    "CreateBox(uint16,uint16)": "ac34af91",
    "GetSeasonInfo()": "2a9d93e6",
    "SetMapMerkleRoot(bytes32)": "13d4a1c7",
    "SetSeasonInfo(uint256,uint256)": "2b934ac4",
    "SetUserContract(address)": "0252b86c"
  },
  "id": 146
}