{
  "abi": [
    {
      "inputs": [
        {
          "internalType": "uint256",
          "name": "_waitBlockCount",
          "type": "uint256"
        },
        {
          "internalType": "string",
          "name": "_symbol",
          "type": "string"
        },
        {
          "internalType": "string",
          "name": "_name",
          "type": "string"
        },
        {
          "internalType": "string",
          "name": "_notRevealedInfo",
          "type": "string"
        },
        {
          "internalType": "string",
          "name": "_revealedDesc",
          "type": "string"
        }
      ],
      "stateMutability": "nonpayable",
      "type": "constructor"
    },
    {
      "inputs": [
        {
          "internalType": "address",
          "name": "sender",
          "type": "address"
        },
        {
          "internalType": "uint256",
          "name": "tokenId",
          "type": "uint256"
        },
        {
          "internalType": "address",
          "name": "owner",
          "type": "address"
        }
      ],
      "name": "ERC721IncorrectOwner",
      "type": "error"
    },
    {
      "inputs": [
        {
          "internalType": "address",
          "name": "operator",
          "type": "address"
        },
        {
          "internalType": "uint256",
          "name": "tokenId",
          "type": "uint256"
        }
      ],
      "name": "ERC721InsufficientApproval",
      "type": "error"
    },
    {
      "inputs": [
        {
          "internalType": "address",
          "name": "approver",
          "type": "address"
        }
      ],
      "name": "ERC721InvalidApprover",
      "type": "error"
    },
    {
      "inputs": [
        {
          "internalType": "address",
          "name": "operator",
          "type": "address"
        }
      ],
      "name": "ERC721InvalidOperator",
      "type": "error"
    },
    {
      "inputs": [
        {
          "internalType": "address",
          "name": "owner",
          "type": "address"
        }
      ],
      "name": "ERC721InvalidOwner",
      "type": "error"
    },
    {
      "inputs": [
        {
          "internalType": "address",
          "name": "receiver",
          "type": "address"
        }
      ],
      "name": "ERC721InvalidReceiver",
      "type": "error"
    },
    {
      "inputs": [
        {
          "internalType": "address",
          "name": "sender",
          "type": "address"
        }
      ],
      "name": "ERC721InvalidSender",
      "type": "error"
    },
    {
      "inputs": [
        {
          "internalType": "uint256",
          "name": "tokenId",
          "type": "uint256"
        }
      ],
      "name": "ERC721NonexistentToken",
      "type": "error"
    },
    {
      "anonymous": false,
      "inputs": [
        {
          "indexed": true,
          "internalType": "address",
          "name": "owner",
          "type": "address"
        },
        {
          "indexed": true,
          "internalType": "address",
          "name": "approved",
          "type": "address"
        },
        {
          "indexed": true,
          "internalType": "uint256",
          "name": "tokenId",
          "type": "uint256"
        }
      ],
      "name": "Approval",
      "type": "event"
    },
    {
      "anonymous": false,
      "inputs": [
        {
          "indexed": true,
          "internalType": "address",
          "name": "owner",
          "type": "address"
        },
        {
          "indexed": true,
          "internalType": "address",
          "name": "operator",
          "type": "address"
        },
        {
          "indexed": false,
          "internalType": "bool",
          "name": "approved",
          "type": "bool"
        }
      ],
      "name": "ApprovalForAll",
      "type": "event"
    },
    {
      "anonymous": false,
      "inputs": [
        {
          "indexed": false,
          "internalType": "uint256",
          "name": "randomId",
          "type": "uint256"
        },
        {
          "indexed": false,
          "internalType": "address",
          "name": "author",
          "type": "address"
        }
      ],
      "name": "NewRandom",
      "type": "event"
    },
    {
      "anonymous": false,
      "inputs": [
        {
          "indexed": true,
          "internalType": "address",
          "name": "from",
          "type": "address"
        },
        {
          "indexed": true,
          "internalType": "address",
          "name": "to",
          "type": "address"
        },
        {
          "indexed": true,
          "internalType": "uint256",
          "name": "tokenId",
          "type": "uint256"
        }
      ],
      "name": "Transfer",
      "type": "event"
    },
    {
      "inputs": [
        {
          "internalType": "address",
          "name": "to",
          "type": "address"
        },
        {
          "internalType": "uint256",
          "name": "tokenId",
          "type": "uint256"
        }
      ],
      "name": "approve",
      "outputs": [],
      "stateMutability": "nonpayable",
      "type": "function"
    },
    {
      "inputs": [
        {
          "internalType": "address",
          "name": "owner",
          "type": "address"
        }
      ],
      "name": "balanceOf",
      "outputs": [
        {
          "internalType": "uint256",
          "name": "",
          "type": "uint256"
        }
      ],
      "stateMutability": "view",
      "type": "function"
    },
    {
      "inputs": [
        {
          "internalType": "uint256",
          "name": "tokenId",
          "type": "uint256"
        }
      ],
      "name": "getApproved",
      "outputs": [
        {
          "internalType": "address",
          "name": "",
          "type": "address"
        }
      ],
      "stateMutability": "view",
      "type": "function"
    },
    {
      "inputs": [
        {
          "internalType": "uint256",
          "name": "_tokenId",
          "type": "uint256"
        }
      ],
      "name": "getStructInfo",
      "outputs": [
        {
          "internalType": "uint256",
          "name": "",
          "type": "uint256"
        },
        {
          "internalType": "uint256",
          "name": "",
          "type": "uint256"
        },
        {
          "internalType": "uint256",
          "name": "",
          "type": "uint256"
        },
        {
          "internalType": "uint256",
          "name": "",
          "type": "uint256"
        },
        {
          "internalType": "uint256",
          "name": "",
          "type": "uint256"
        },
        {
          "internalType": "uint256",
          "name": "",
          "type": "uint256"
        }
      ],
      "stateMutability": "view",
      "type": "function"
    },
    {
      "inputs": [],
      "name": "getUserTokenIdList",
      "outputs": [
        {
          "internalType": "uint256[]",
          "name": "",
          "type": "uint256[]"
        }
      ],
      "stateMutability": "view",
      "type": "function"
    },
    {
      "inputs": [
        {
          "internalType": "address",
          "name": "owner",
          "type": "address"
        },
        {
          "internalType": "address",
          "name": "operator",
          "type": "address"
        }
      ],
      "name": "isApprovedForAll",
      "outputs": [
        {
          "internalType": "bool",
          "name": "",
          "type": "bool"
        }
      ],
      "stateMutability": "view",
      "type": "function"
    },
    {
      "inputs": [
        {
          "internalType": "address",
          "name": "_addr",
          "type": "address"
        }
      ],
      "name": "mint",
      "outputs": [],
      "stateMutability": "nonpayable",
      "type": "function"
    },
    {
      "inputs": [],
      "name": "name",
      "outputs": [
        {
          "internalType": "string",
          "name": "",
          "type": "string"
        }
      ],
      "stateMutability": "view",
      "type": "function"
    },
    {
      "inputs": [],
      "name": "owner",
      "outputs": [
        {
          "internalType": "address",
          "name": "",
          "type": "address"
        }
      ],
      "stateMutability": "view",
      "type": "function"
    },
    {
      "inputs": [
        {
          "internalType": "uint256",
          "name": "tokenId",
          "type": "uint256"
        }
      ],
      "name": "ownerOf",
      "outputs": [
        {
          "internalType": "address",
          "name": "",
          "type": "address"
        }
      ],
      "stateMutability": "view",
      "type": "function"
    },
    {
      "inputs": [],
      "name": "randomId",
      "outputs": [
        {
          "internalType": "uint256",
          "name": "",
          "type": "uint256"
        }
      ],
      "stateMutability": "view",
      "type": "function"
    },
    {
      "inputs": [
        {
          "internalType": "uint256",
          "name": "",
          "type": "uint256"
        }
      ],
      "name": "randomList",
      "outputs": [
        {
          "internalType": "uint256",
          "name": "blockNumber",
          "type": "uint256"
        },
        {
          "internalType": "address",
          "name": "author",
          "type": "address"
        }
      ],
      "stateMutability": "view",
      "type": "function"
    },
    {
      "inputs": [
        {
          "internalType": "uint256",
          "name": "_tokenId",
          "type": "uint256"
        }
      ],
      "name": "revealNFT",
      "outputs": [],
      "stateMutability": "nonpayable",
      "type": "function"
    },
    {
      "inputs": [
        {
          "internalType": "address",
          "name": "from",
          "type": "address"
        },
        {
          "internalType": "address",
          "name": "to",
          "type": "address"
        },
        {
          "internalType": "uint256",
          "name": "tokenId",
          "type": "uint256"
        }
      ],
      "name": "safeTransferFrom",
      "outputs": [],
      "stateMutability": "nonpayable",
      "type": "function"
    },
    {
      "inputs": [
        {
          "internalType": "address",
          "name": "from",
          "type": "address"
        },
        {
          "internalType": "address",
          "name": "to",
          "type": "address"
        },
        {
          "internalType": "uint256",
          "name": "tokenId",
          "type": "uint256"
        },
        {
          "internalType": "bytes",
          "name": "data",
          "type": "bytes"
        }
      ],
      "name": "safeTransferFrom",
      "outputs": [],
      "stateMutability": "nonpayable",
      "type": "function"
    },
    {
      "inputs": [
        {
          "internalType": "address",
          "name": "operator",
          "type": "address"
        },
        {
          "internalType": "bool",
          "name": "approved",
          "type": "bool"
        }
      ],
      "name": "setApprovalForAll",
      "outputs": [],
      "stateMutability": "nonpayable",
      "type": "function"
    },
    {
      "inputs": [
        {
          "internalType": "bytes4",
          "name": "interfaceId",
          "type": "bytes4"
        }
      ],
      "name": "supportsInterface",
      "outputs": [
        {
          "internalType": "bool",
          "name": "",
          "type": "bool"
        }
      ],
      "stateMutability": "view",
      "type": "function"
    },
    {
      "inputs": [],
      "name": "symbol",
      "outputs": [
        {
          "internalType": "string",
          "name": "",
          "type": "string"
        }
      ],
      "stateMutability": "view",
      "type": "function"
    },
    {
      "inputs": [],
      "name": "tokenId",
      "outputs": [
        {
          "internalType": "uint256",
          "name": "",
          "type": "uint256"
        }
      ],
      "stateMutability": "view",
      "type": "function"
    },
    {
      "inputs": [
        {
          "internalType": "uint256",
          "name": "_tokenId",
          "type": "uint256"
        }
      ],
      "name": "tokenURI",
      "outputs": [
        {
          "internalType": "string",
          "name": "",
          "type": "string"
        }
      ],
      "stateMutability": "view",
      "type": "function"
    },
    {
      "inputs": [
        {
          "internalType": "address",
          "name": "from",
          "type": "address"
        },
        {
          "internalType": "address",
          "name": "to",
          "type": "address"
        },
        {
          "internalType": "uint256",
          "name": "tokenId",
          "type": "uint256"
        }
      ],
      "name": "transferFrom",
      "outputs": [],
      "stateMutability": "nonpayable",
      "type": "function"
    },
    {
      "inputs": [
        {
          "internalType": "uint256",
          "name": "",
          "type": "uint256"
        }
      ],
      "name": "userList",
      "outputs": [
        {
          "internalType": "uint256",
          "name": "randomId",
          "type": "uint256"
        },
        {
          "internalType": "address",
          "name": "owner",
          "type": "address"
        },
        {
          "internalType": "uint256",
          "name": "HP",
          "type": "uint256"
        },
        {
          "internalType": "uint256",
          "name": "Attack",
          "type": "uint256"
        },
        {
          "internalType": "uint256",
          "name": "AttackRange",
          "type": "uint256"
        },
        {
          "internalType": "uint256",
          "name": "Speed",
          "type": "uint256"
        },
        {
          "internalType": "uint256",
          "name": "Strength",
          "type": "uint256"
        },
        {
          "internalType": "uint256",
          "name": "Space",
          "type": "uint256"
        },
        {
          "internalType": "enum MRandom.RandomState",
          "name": "state",
          "type": "uint8"
        }
      ],
      "stateMutability": "view",
      "type": "function"
    },
    {
      "inputs": [],
      "name": "waitBlockCount",
      "outputs": [
        {
          "internalType": "uint256",
          "name": "",
          "type": "uint256"
        }
      ],
      "stateMutability": "view",
      "type": "function"
    }
  ],
  "bytecode": {
    "object": "0x60806040523480156200001157600080fd5b5060405162002b2538038062002b2583398101604081905262000034916200015b565b83836000620000448382620002ae565b506001620000538282620002ae565b5050600a80546001600160a01b03191633179055506009859055600b6200007b8382620002ae565b50600c6200008a8282620002ae565b5050505050506200037a565b634e487b7160e01b600052604160045260246000fd5b600082601f830112620000be57600080fd5b81516001600160401b0380821115620000db57620000db62000096565b604051601f8301601f19908116603f0116810190828211818310171562000106576200010662000096565b816040528381526020925086838588010111156200012357600080fd5b600091505b8382101562000147578582018301518183018401529082019062000128565b600093810190920192909252949350505050565b600080600080600060a086880312156200017457600080fd5b855160208701519095506001600160401b03808211156200019457600080fd5b620001a289838a01620000ac565b95506040880151915080821115620001b957600080fd5b620001c789838a01620000ac565b94506060880151915080821115620001de57600080fd5b620001ec89838a01620000ac565b935060808801519150808211156200020357600080fd5b506200021288828901620000ac565b9150509295509295909350565b600181811c908216806200023457607f821691505b6020821081036200025557634e487b7160e01b600052602260045260246000fd5b50919050565b601f821115620002a957600081815260208120601f850160051c81016020861015620002845750805b601f850160051c820191505b81811015620002a55782815560010162000290565b5050505b505050565b81516001600160401b03811115620002ca57620002ca62000096565b620002e281620002db84546200021f565b846200025b565b602080601f8311600181146200031a5760008415620003015750858301515b600019600386901b1c1916600185901b178555620002a5565b600085815260208120601f198616915b828110156200034b578886015182559484019460019091019084016200032a565b50858210156200036a5787850151600019600388901b60f8161c191681555b5050505050600190811b01905550565b61279b806200038a6000396000f3fe608060405234801561001057600080fd5b506004361061018d5760003560e01c80636352211e116100e3578063a22cb4651161008c578063cba86e2311610066578063cba86e23146103bb578063d5608f9a14610408578063e985e9c51461041b57600080fd5b8063a22cb46514610382578063b88d4fde14610395578063c87b56dd146103a857600080fd5b80638da5cb5b116100bd5780638da5cb5b146102ec57806395d89b41146102ff5780639f4216e81461030757600080fd5b80636352211e146102b35780636a627842146102c657806370a08231146102d957600080fd5b806317d70f7c1161014557806342842e0e1161011f57806342842e0e1461024b57806343a471621461025e57806353bbd6a71461027357600080fd5b806317d70f7c1461022657806323b872dd1461022f5780633e8474ca1461024257600080fd5b8063081812fc11610176578063081812fc146101cf578063095ea7b3146101fa5780630ab14d8a1461020f57600080fd5b806301ffc9a71461019257806306fdde03146101ba575b600080fd5b6101a56101a0366004611dec565b610457565b60405190151581526020015b60405180910390f35b6101c261053c565b6040516101b19190611e60565b6101e26101dd366004611e73565b6105ce565b6040516001600160a01b0390911681526020016101b1565b61020d610208366004611ea8565b6105f7565b005b61021860065481565b6040519081526020016101b1565b61021860085481565b61020d61023d366004611ed2565b610606565b61021860095481565b61020d610259366004611ed2565b6106af565b6102666106cf565b6040516101b19190611f0e565b610286610281366004611e73565b610799565b604080519687526020870195909552938501929092526060840152608083015260a082015260c0016101b1565b6101e26102c1366004611e73565b6108e9565b61020d6102d4366004611f52565b6108f4565b6102186102e7366004611f52565b610994565b600a546101e2906001600160a01b031681565b6101c26109f5565b61036d610315366004611e73565b600d6020526000908152604090208054600182015460028301546003840154600485015460058601546006870154600788015460089098015496976001600160a01b0390961696949593949293919290919060ff1689565b6040516101b199989796959493929190611f83565b61020d610390366004611ff5565b610a04565b61020d6103a3366004612047565b610a0f565b6101c26103b6366004611e73565b610a26565b6103eb6103c9366004611e73565b600760205260009081526040902080546001909101546001600160a01b031682565b604080519283526001600160a01b039091166020830152016101b1565b61020d610416366004611e73565b610c02565b6101a5610429366004612123565b6001600160a01b03918216600090815260056020908152604080832093909416825291909152205460ff1690565b60007fffffffff0000000000000000000000000000000000000000000000000000000082167f80ac58cd0000000000000000000000000000000000000000000000000000000014806104ea57507fffffffff0000000000000000000000000000000000000000000000000000000082167f5b5e139f00000000000000000000000000000000000000000000000000000000145b8061053657507f01ffc9a7000000000000000000000000000000000000000000000000000000007fffffffff000000000000000000000000000000000000000000000000000000008316145b92915050565b60606000805461054b90612156565b80601f016020809104026020016040519081016040528092919081815260200182805461057790612156565b80156105c45780601f10610599576101008083540402835291602001916105c4565b820191906000526020600020905b8154815290600101906020018083116105a757829003601f168201915b5050505050905090565b60006105d982610d5c565b506000828152600460205260409020546001600160a01b0316610536565b610602828233610dae565b5050565b6001600160a01b03821661063557604051633250574960e11b8152600060048201526024015b60405180910390fd5b6000610642838333610dbb565b9050836001600160a01b0316816001600160a01b0316146106a9576040517f64283d7b0000000000000000000000000000000000000000000000000000000081526001600160a01b038086166004830152602482018490528216604482015260640161062c565b50505050565b6106ca83838360405180602001604052806000815250610a0f565b505050565b606060006106dc33610994565b905060008167ffffffffffffffff8111156106f9576106f9612031565b604051908082528060200260200182016040528015610722578160200160208202803683370190505b5090506000805b600854811015610790573361073d826108e9565b6001600160a01b03160361077e578083838151811061075e5761075e61218a565b602090810291909101015281610773816121b6565b925050838214610790575b80610788816121b6565b915050610729565b50909392505050565b6000818152600d602090815260408083208151610120810183528154815260018201546001600160a01b031693810193909352600280820154928401929092526003810154606084015260048101546080840152600581015460a0840152600681015460c0840152600781015460e0840152600881015484938493849384938493849390929161010084019160ff9091169081111561083a5761083a611f6d565b600281111561084b5761084b611f6d565b90525090506002816101000151600281111561086957610869611f6d565b146108b65760405162461bcd60e51b815260206004820152600f60248201527f55736572206e6f74206578697374730000000000000000000000000000000000604482015260640161062c565b60408101516060820151608083015160a084015160c085015160e090950151939c929b5090995097509195509350915050565b600061053682610d5c565b600880546000908152600d60205260409020600180820180547fffffffffffffffffffffffff0000000000000000000000000000000000000000166001600160a01b038616179055918101805460ff191690921790915560065480825561095a90610ecc565b61096682600854610f4c565b60088054906000610976836121b6565b90915550506006805490600061098b836121b6565b91905055505050565b60006001600160a01b0382166109d9576040517f89c62b640000000000000000000000000000000000000000000000000000000081526000600482015260240161062c565b506001600160a01b031660009081526003602052604090205490565b60606001805461054b90612156565b610602338383610fca565b610a1a848484610606565b6106a984848484611082565b6000818152600d602090815260408083208151610120810183528154815260018201546001600160a01b03169381019390935260028082015492840192909252600381015460608481019190915260048201546080850152600582015460a0850152600682015460c0850152600782015460e085015260088201549094939261010084019160ff1690811115610abe57610abe611f6d565b6002811115610acf57610acf611f6d565b905250905060018161010001516002811115610aed57610aed611f6d565b03610b1e576000600b604051602001610b06919061226d565b60408051601f19818403018152919052949350505050565b60008161010001516002811115610b3757610b37611f6d565b03610b845760405162461bcd60e51b815260206004820152600f60248201527f426f78206e6f7420657869737465640000000000000000000000000000000000604482015260640161062c565b6000610b8f826111f5565b90506000610bd0610b9f8661152b565b600c610baa856115cb565b604051602001610bbc9392919061229f565b6040516020818303038152906040526115cb565b905080604051602001610be391906123a3565b60408051601f1981840301815291905295945050505050565b50919050565b6000818152600d602052604081208054600954919291610c25919060089061178a565b9050610c5081600081518110610c3d57610c3d61218a565b60200260200101516064600a60056119d7565b8260020181905550610c8181600181518110610c6e57610c6e61218a565b6020026020010151601e600a60026119d7565b8260030181905550610cb281600281518110610c9f57610c9f61218a565b60200260200101516003603260016119d7565b8260040181905550610ce381600381518110610cd057610cd061218a565b60200260200101516004601e60016119d7565b8260050181905550610d1481600481518110610d0157610d0161218a565b60200260200101516014600a60036119d7565b8260060181905550610d4581600581518110610d3257610d3261218a565b60200260200101516002603260016119d7565b600783015550600801805460ff1916600217905550565b6000818152600260205260408120546001600160a01b031680610536576040517f7e2732890000000000000000000000000000000000000000000000000000000081526004810184905260240161062c565b6106ca8383836001611a13565b6000828152600260205260408120546001600160a01b0390811690831615610de857610de8818486611b69565b6001600160a01b03811615610e2657610e05600085600080611a13565b6001600160a01b038116600090815260036020526040902080546000190190555b6001600160a01b03851615610e55576001600160a01b0385166000908152600360205260409020805460010190555b60008481526002602052604080822080547fffffffffffffffffffffffff0000000000000000000000000000000000000000166001600160a01b0389811691821790925591518793918516917fddf252ad1be2c89b69c2b068fc378daa952ba7f163c4a11628f55a4df523b3ef91a4949350505050565b6000818152600760209081526040918290206001810180547fffffffffffffffffffffffff00000000000000000000000000000000000000001633908117909155438255600654845190815292830152917f42139093fd7ac15b45c666156888a691a366ed9d327f76e6b9f4ea4f3e82471c910160405180910390a15050565b6001600160a01b038216610f7657604051633250574960e11b81526000600482015260240161062c565b6000610f8483836000610dbb565b90506001600160a01b038116156106ca576040517f73c6ac6e0000000000000000000000000000000000000000000000000000000081526000600482015260240161062c565b6001600160a01b038216611015576040517f5b08ba180000000000000000000000000000000000000000000000000000000081526001600160a01b038316600482015260240161062c565b6001600160a01b03838116600081815260056020908152604080832094871680845294825291829020805460ff191686151590811790915591519182527f17307eab39ab6107e8899845ad3d59bd9653f200f220920489ca2b5937696c31910160405180910390a3505050565b6001600160a01b0383163b156106a9576040517f150b7a020000000000000000000000000000000000000000000000000000000081526001600160a01b0384169063150b7a02906110dd9033908890879087906004016123e8565b6020604051808303816000875af1925050508015611118575060408051601f3d908101601f191682019092526111159181019061241a565b60015b611181573d808015611146576040519150601f19603f3d011682016040523d82523d6000602084013e61114b565b606091505b50805160000361117957604051633250574960e11b81526001600160a01b038516600482015260240161062c565b805181602001fd5b7fffffffff0000000000000000000000000000000000000000000000000000000081167f150b7a0200000000000000000000000000000000000000000000000000000000146111ee57604051633250574960e11b81526001600160a01b038516600482015260240161062c565b5050505050565b60606111ff611d93565b60405180610120016040528060fd815260200161260160fd91398152604080518082018252600281527f485000000000000000000000000000000000000000000000000000000000000060208201529084015161126591906112609061152b565b611bff565b816001602002018190525060405180606001604052806028815260200161273e6028913981600260200201819052506112da6040518060400160405280600681526020017f41747461636b0000000000000000000000000000000000000000000000000000815250611260856060015161152b565b606080830191909152604080519182019052602880825261255f6020830139816004602002018190525061134a6040518060400160405280600b81526020017f41747461636b52616e6765000000000000000000000000000000000000000000815250611260856080015161152b565b60a0820152604080516060810190915260288082526125b0602083013960c082015260408051808201909152600581527f5370656564000000000000000000000000000000000000000000000000000000602082015260a08401516113b391906112609061152b565b60e0820152604080516060810190915260298082526125d8602083013961010082015260408051808201909152600881527f537472656e677468000000000000000000000000000000000000000000000000602082015260c084015161141d91906112609061152b565b61012082015260408051606081019091526029808252612587602083013961014082015260408051808201909152600581527f5370616365000000000000000000000000000000000000000000000000000000602082015260e084015161148891906112609061152b565b61016082015260408051808201909152600d81527f3c2f746578743e3c2f7376673e000000000000000000000000000000000000006020820152610180820152606060005b600d81101561152357818382600d81106114e9576114e961218a565b60200201516040516020016114ff929190612437565b6040516020818303038152906040529150808061151b906121b6565b9150506114cd565b509392505050565b6060600061153883611c2b565b600101905060008167ffffffffffffffff81111561155857611558612031565b6040519080825280601f01601f191660200182016040528015611582576020820181803683370190505b5090508181016020015b600019017f3031323334353637383961626364656600000000000000000000000000000000600a86061a8153600a850494508461158c57509392505050565b805160609060008190036115ef575050604080516020810190915260008152919050565b600060036115fe83600261247c565b611608919061248f565b6116139060046124a3565b9050600061162282602061247c565b67ffffffffffffffff81111561163a5761163a612031565b6040519080825280601f01601f191660200182016040528015611664576020820181803683370190505b50905060006040518060600160405280604081526020016126fe604091399050600181016020830160005b868110156116f0576003818a01810151603f601282901c8116860151600c83901c8216870151600684901c831688015192909316870151600891821b60ff94851601821b92841692909201901b91160160e01b83526004909201910161168f565b50600386066001811461170a57600281146117545761177c565b7f3d3d0000000000000000000000000000000000000000000000000000000000007ffffffffffffffffffffffffffffffffffffffffffffffffffffffffffffffffe83015261177c565b7f3d000000000000000000000000000000000000000000000000000000000000006000198301525b505050918152949350505050565b606060065484106117dd5760405162461bcd60e51b815260206004820152601660248201527f72616e646f6d20646f6573206e6f742065786973747300000000000000000000604482015260640161062c565b600084815260076020908152604091829020825180840190935280548352600101546001600160a01b031690820181905233146118825760405162461bcd60e51b815260206004820152602260248201527f6f6e6c792072616e646f6d2063726561746f722063616e206765742072616e6460448201527f6f6d000000000000000000000000000000000000000000000000000000000000606482015260840161062c565b60008467ffffffffffffffff81111561189d5761189d612031565b6040519080825280602002602001820160405280156118c6578160200160208202803683370190505b5082519091506118d790859061247c565b4310156119265760405162461bcd60e51b815260206004820152601c60248201527f746f6f206561726c7920746f206765742072616e646f6d207365656400000000604482015260640161062c565b815160009061193690600261247c565b604080519140602083018190529250600091016040516020818303038152906040528051906020012060001c905060005b878160ff1610156119ca57600061197f6064846124ba565b905080858360ff16815181106119975761199761218a565b60ff909216602092830291909101909101526119b460648461248f565b92505080806119c2906124ce565b915050611967565b5091979650505050505050565b600080836119e68760016124ed565b60ff166119f3919061248f565b90506119ff83826124a3565b611a09908661247c565b9695505050505050565b8080611a2757506001600160a01b03821615155b15611b21576000611a3784610d5c565b90506001600160a01b03831615801590611a635750826001600160a01b0316816001600160a01b031614155b8015611a9557506001600160a01b0380821660009081526005602090815260408083209387168352929052205460ff16155b15611ad7576040517fa9fbf51f0000000000000000000000000000000000000000000000000000000081526001600160a01b038416600482015260240161062c565b8115611b1f5783856001600160a01b0316826001600160a01b03167f8c5be1e5ebec7d5bd14f71427d1e84f3dd0314c0f7b2291e5b200ac8c7c3b92560405160405180910390a45b505b5050600090815260046020526040902080547fffffffffffffffffffffffff0000000000000000000000000000000000000000166001600160a01b0392909216919091179055565b611b74838383611d0d565b6106ca576001600160a01b038316611bbb576040517f7e2732890000000000000000000000000000000000000000000000000000000081526004810182905260240161062c565b6040517f177e802f0000000000000000000000000000000000000000000000000000000081526001600160a01b03831660048201526024810182905260440161062c565b60608282604051602001611c14929190612506565b604051602081830303815290604052905092915050565b6000807a184f03e93ff9f4daa797ed6e38ed64bf6a1f0100000000000000008310611c74577a184f03e93ff9f4daa797ed6e38ed64bf6a1f010000000000000000830492506040015b6d04ee2d6d415b85acef81000000008310611ca0576d04ee2d6d415b85acef8100000000830492506020015b662386f26fc100008310611cbe57662386f26fc10000830492506010015b6305f5e1008310611cd6576305f5e100830492506008015b6127108310611cea57612710830492506004015b60648310611cfc576064830492506002015b600a83106105365760010192915050565b60006001600160a01b03831615801590611d8b5750826001600160a01b0316846001600160a01b03161480611d6757506001600160a01b0380851660009081526005602090815260408083209387168352929052205460ff165b80611d8b57506000828152600460205260409020546001600160a01b038481169116145b949350505050565b604051806101a00160405280600d905b6060815260200190600190039081611da35790505090565b7fffffffff0000000000000000000000000000000000000000000000000000000081168114611de957600080fd5b50565b600060208284031215611dfe57600080fd5b8135611e0981611dbb565b9392505050565b60005b83811015611e2b578181015183820152602001611e13565b50506000910152565b60008151808452611e4c816020860160208601611e10565b601f01601f19169290920160200192915050565b602081526000611e096020830184611e34565b600060208284031215611e8557600080fd5b5035919050565b80356001600160a01b0381168114611ea357600080fd5b919050565b60008060408385031215611ebb57600080fd5b611ec483611e8c565b946020939093013593505050565b600080600060608486031215611ee757600080fd5b611ef084611e8c565b9250611efe60208501611e8c565b9150604084013590509250925092565b6020808252825182820181905260009190848201906040850190845b81811015611f4657835183529284019291840191600101611f2a565b50909695505050505050565b600060208284031215611f6457600080fd5b611e0982611e8c565b634e487b7160e01b600052602160045260246000fd5b6000610120820190508a82526001600160a01b038a1660208301528860408301528760608301528660808301528560a08301528460c08301528360e083015260038310611fe057634e487b7160e01b600052602160045260246000fd5b826101008301529a9950505050505050505050565b6000806040838503121561200857600080fd5b61201183611e8c565b91506020830135801515811461202657600080fd5b809150509250929050565b634e487b7160e01b600052604160045260246000fd5b6000806000806080858703121561205d57600080fd5b61206685611e8c565b935061207460208601611e8c565b925060408501359150606085013567ffffffffffffffff8082111561209857600080fd5b818701915087601f8301126120ac57600080fd5b8135818111156120be576120be612031565b604051601f8201601f19908116603f011681019083821181831017156120e6576120e6612031565b816040528281528a60208487010111156120ff57600080fd5b82602086016020830137600060208483010152809550505050505092959194509250565b6000806040838503121561213657600080fd5b61213f83611e8c565b915061214d60208401611e8c565b90509250929050565b600181811c9082168061216a57607f821691505b602082108103610bfc57634e487b7160e01b600052602260045260246000fd5b634e487b7160e01b600052603260045260246000fd5b634e487b7160e01b600052601160045260246000fd5b600060001982036121c9576121c96121a0565b5060010190565b8054600090600181811c90808316806121ea57607f831692505b6020808410820361220b57634e487b7160e01b600052602260045260246000fd5b81801561221f576001811461223457612261565b60ff1986168952841515850289019650612261565b60008881526020902060005b868110156122595781548b820152908501908301612240565b505084890196505b50505050505092915050565b7f646174613a6170706c69636174696f6e2f6a736f6e3b6261736536342c00000081526000611e09601d8301846121d0565b7f7b226e616d65223a20224d5573657220230000000000000000000000000000008152600084516122d7816011850160208901611e10565b7f222c20226465736372697074696f6e223a22000000000000000000000000000060119184019182015261230e60238201866121d0565b90507f222c22696d616765223a2022646174613a696d6167652f7376672b786d6c3b6281527f61736536342c00000000000000000000000000000000000000000000000000006020820152835161236c816026840160208801611e10565b7f227d0000000000000000000000000000000000000000000000000000000000006026929091019182015260280195945050505050565b7f646174613a6170706c69636174696f6e2f6a736f6e3b6261736536342c0000008152600082516123db81601d850160208701611e10565b91909101601d0192915050565b60006001600160a01b03808716835280861660208401525083604083015260806060830152611a096080830184611e34565b60006020828403121561242c57600080fd5b8151611e0981611dbb565b60008351612449818460208801611e10565b83519083019061245d818360208801611e10565b01949350505050565b634e487b7160e01b600052601260045260246000fd5b80820180821115610536576105366121a0565b60008261249e5761249e612466565b500490565b8082028115828204841417610536576105366121a0565b6000826124c9576124c9612466565b500690565b600060ff821660ff81036124e4576124e46121a0565b60010192915050565b60ff8181168382160190811115610536576105366121a0565b60008351612518818460208801611e10565b7f203a2000000000000000000000000000000000000000000000000000000000009083019081528351612552816003840160208801611e10565b0160030194935050505056fe3c2f746578743e3c7465787420783d2231302220793d2236302220636c6173733d2262617365223e3c2f746578743e3c7465787420783d2231302220793d223132302220636c6173733d2262617365223e3c2f746578743e3c7465787420783d2231302220793d2238302220636c6173733d2262617365223e3c2f746578743e3c7465787420783d2231302220793d223130302220636c6173733d2262617365223e3c73766720786d6c6e733d22687474703a2f2f7777772e77332e6f72672f323030302f73766722207072657365727665417370656374526174696f3d22784d696e594d696e206d656574222076696577426f783d223020302033353020333530223e3c7374796c653e2e62617365207b2066696c6c3a2077686974653b20666f6e742d66616d696c793a2073657269663b20666f6e742d73697a653a20313470783b207d3c2f7374796c653e3c726563742077696474683d223130302522206865696768743d2231303025222066696c6c3d22626c61636b22202f3e3c7465787420783d2231302220793d2232302220636c6173733d2262617365223e4142434445464748494a4b4c4d4e4f505152535455565758595a6162636465666768696a6b6c6d6e6f707172737475767778797a303132333435363738392b2f3c2f746578743e3c7465787420783d2231302220793d2234302220636c6173733d2262617365223ea26469706673582212206fdc0a4b6b0c2bdd82b462c55f584f3d6c6128b86d99704d3475ce267c48975764736f6c63430008150033",
    "linkReferences": {}
  },
  "methodIdentifiers": {
    "approve(address,uint256)": "095ea7b3",
    "balanceOf(address)": "70a08231",
    "getApproved(uint256)": "081812fc",
    "getStructInfo(uint256)": "53bbd6a7",
    "getUserTokenIdList()": "43a47162",
    "isApprovedForAll(address,address)": "e985e9c5",
    "mint(address)": "6a627842",
    "name()": "06fdde03",
    "owner()": "8da5cb5b",
    "ownerOf(uint256)": "6352211e",
    "randomId()": "0ab14d8a",
    "randomList(uint256)": "cba86e23",
    "revealNFT(uint256)": "d5608f9a",
    "safeTransferFrom(address,address,uint256)": "42842e0e",
    "safeTransferFrom(address,address,uint256,bytes)": "b88d4fde",
    "setApprovalForAll(address,bool)": "a22cb465",
    "supportsInterface(bytes4)": "01ffc9a7",
    "symbol()": "95d89b41",
    "tokenId()": "17d70f7c",
    "tokenURI(uint256)": "c87b56dd",
    "transferFrom(address,address,uint256)": "23b872dd",
    "userList(uint256)": "9f4216e8",
    "waitBlockCount()": "3e8474ca"
  },
  "id": 212
}