{
  "abi": [
    {
      "inputs": [
        {
          "internalType": "uint256",
          "name": "_waitBlockCount",
          "type": "uint256"
        },
        {
          "internalType": "string",
          "name": "_symbol",
          "type": "string"
        },
        {
          "internalType": "string",
          "name": "_name",
          "type": "string"
        },
        {
          "internalType": "string",
          "name": "_notRevealedInfo",
          "type": "string"
        },
        {
          "internalType": "string",
          "name": "_revealedDesc",
          "type": "string"
        }
      ],
      "stateMutability": "nonpayable",
      "type": "constructor"
    },
    {
      "anonymous": false,
      "inputs": [
        {
          "indexed": true,
          "internalType": "address",
          "name": "owner",
          "type": "address"
        },
        {
          "indexed": true,
          "internalType": "address",
          "name": "approved",
          "type": "address"
        },
        {
          "indexed": true,
          "internalType": "uint256",
          "name": "tokenId",
          "type": "uint256"
        }
      ],
      "name": "Approval",
      "type": "event"
    },
    {
      "anonymous": false,
      "inputs": [
        {
          "indexed": true,
          "internalType": "address",
          "name": "owner",
          "type": "address"
        },
        {
          "indexed": true,
          "internalType": "address",
          "name": "operator",
          "type": "address"
        },
        {
          "indexed": false,
          "internalType": "bool",
          "name": "approved",
          "type": "bool"
        }
      ],
      "name": "ApprovalForAll",
      "type": "event"
    },
    {
      "anonymous": false,
      "inputs": [
        {
          "indexed": false,
          "internalType": "uint256",
          "name": "randomId",
          "type": "uint256"
        },
        {
          "indexed": false,
          "internalType": "address",
          "name": "author",
          "type": "address"
        }
      ],
      "name": "NewRandom",
      "type": "event"
    },
    {
      "anonymous": false,
      "inputs": [
        {
          "indexed": true,
          "internalType": "address",
          "name": "from",
          "type": "address"
        },
        {
          "indexed": true,
          "internalType": "address",
          "name": "to",
          "type": "address"
        },
        {
          "indexed": true,
          "internalType": "uint256",
          "name": "tokenId",
          "type": "uint256"
        }
      ],
      "name": "Transfer",
      "type": "event"
    },
    {
      "inputs": [
        {
          "internalType": "address",
          "name": "to",
          "type": "address"
        },
        {
          "internalType": "uint256",
          "name": "tokenId",
          "type": "uint256"
        }
      ],
      "name": "approve",
      "outputs": [],
      "stateMutability": "nonpayable",
      "type": "function"
    },
    {
      "inputs": [
        {
          "internalType": "address",
          "name": "owner",
          "type": "address"
        }
      ],
      "name": "balanceOf",
      "outputs": [
        {
          "internalType": "uint256",
          "name": "",
          "type": "uint256"
        }
      ],
      "stateMutability": "view",
      "type": "function"
    },
    {
      "inputs": [
        {
          "internalType": "uint256",
          "name": "tokenId",
          "type": "uint256"
        }
      ],
      "name": "getApproved",
      "outputs": [
        {
          "internalType": "address",
          "name": "",
          "type": "address"
        }
      ],
      "stateMutability": "view",
      "type": "function"
    },
    {
      "inputs": [
        {
          "internalType": "uint256",
          "name": "_tokenId",
          "type": "uint256"
        }
      ],
      "name": "getStructInfo",
      "outputs": [
        {
          "internalType": "uint256",
          "name": "",
          "type": "uint256"
        },
        {
          "internalType": "uint256",
          "name": "",
          "type": "uint256"
        },
        {
          "internalType": "uint256",
          "name": "",
          "type": "uint256"
        },
        {
          "internalType": "uint256",
          "name": "",
          "type": "uint256"
        },
        {
          "internalType": "uint256",
          "name": "",
          "type": "uint256"
        },
        {
          "internalType": "uint256",
          "name": "",
          "type": "uint256"
        }
      ],
      "stateMutability": "view",
      "type": "function"
    },
    {
      "inputs": [],
      "name": "getUserTokenIdList",
      "outputs": [
        {
          "internalType": "uint256[]",
          "name": "",
          "type": "uint256[]"
        }
      ],
      "stateMutability": "view",
      "type": "function"
    },
    {
      "inputs": [
        {
          "internalType": "address",
          "name": "owner",
          "type": "address"
        },
        {
          "internalType": "address",
          "name": "operator",
          "type": "address"
        }
      ],
      "name": "isApprovedForAll",
      "outputs": [
        {
          "internalType": "bool",
          "name": "",
          "type": "bool"
        }
      ],
      "stateMutability": "view",
      "type": "function"
    },
    {
      "inputs": [],
      "name": "mint",
      "outputs": [],
      "stateMutability": "nonpayable",
      "type": "function"
    },
    {
      "inputs": [],
      "name": "name",
      "outputs": [
        {
          "internalType": "string",
          "name": "",
          "type": "string"
        }
      ],
      "stateMutability": "view",
      "type": "function"
    },
    {
      "inputs": [],
      "name": "owner",
      "outputs": [
        {
          "internalType": "address",
          "name": "",
          "type": "address"
        }
      ],
      "stateMutability": "view",
      "type": "function"
    },
    {
      "inputs": [
        {
          "internalType": "uint256",
          "name": "tokenId",
          "type": "uint256"
        }
      ],
      "name": "ownerOf",
      "outputs": [
        {
          "internalType": "address",
          "name": "",
          "type": "address"
        }
      ],
      "stateMutability": "view",
      "type": "function"
    },
    {
      "inputs": [],
      "name": "randomId",
      "outputs": [
        {
          "internalType": "uint256",
          "name": "",
          "type": "uint256"
        }
      ],
      "stateMutability": "view",
      "type": "function"
    },
    {
      "inputs": [
        {
          "internalType": "uint256",
          "name": "",
          "type": "uint256"
        }
      ],
      "name": "randomList",
      "outputs": [
        {
          "internalType": "uint256",
          "name": "blockNumber",
          "type": "uint256"
        },
        {
          "internalType": "address",
          "name": "author",
          "type": "address"
        }
      ],
      "stateMutability": "view",
      "type": "function"
    },
    {
      "inputs": [
        {
          "internalType": "uint256",
          "name": "_tokenId",
          "type": "uint256"
        }
      ],
      "name": "revealNFT",
      "outputs": [],
      "stateMutability": "nonpayable",
      "type": "function"
    },
    {
      "inputs": [
        {
          "internalType": "address",
          "name": "from",
          "type": "address"
        },
        {
          "internalType": "address",
          "name": "to",
          "type": "address"
        },
        {
          "internalType": "uint256",
          "name": "tokenId",
          "type": "uint256"
        }
      ],
      "name": "safeTransferFrom",
      "outputs": [],
      "stateMutability": "nonpayable",
      "type": "function"
    },
    {
      "inputs": [
        {
          "internalType": "address",
          "name": "from",
          "type": "address"
        },
        {
          "internalType": "address",
          "name": "to",
          "type": "address"
        },
        {
          "internalType": "uint256",
          "name": "tokenId",
          "type": "uint256"
        },
        {
          "internalType": "bytes",
          "name": "data",
          "type": "bytes"
        }
      ],
      "name": "safeTransferFrom",
      "outputs": [],
      "stateMutability": "nonpayable",
      "type": "function"
    },
    {
      "inputs": [
        {
          "internalType": "address",
          "name": "operator",
          "type": "address"
        },
        {
          "internalType": "bool",
          "name": "approved",
          "type": "bool"
        }
      ],
      "name": "setApprovalForAll",
      "outputs": [],
      "stateMutability": "nonpayable",
      "type": "function"
    },
    {
      "inputs": [
        {
          "internalType": "bytes4",
          "name": "interfaceId",
          "type": "bytes4"
        }
      ],
      "name": "supportsInterface",
      "outputs": [
        {
          "internalType": "bool",
          "name": "",
          "type": "bool"
        }
      ],
      "stateMutability": "view",
      "type": "function"
    },
    {
      "inputs": [],
      "name": "symbol",
      "outputs": [
        {
          "internalType": "string",
          "name": "",
          "type": "string"
        }
      ],
      "stateMutability": "view",
      "type": "function"
    },
    {
      "inputs": [],
      "name": "tokenId",
      "outputs": [
        {
          "internalType": "uint256",
          "name": "",
          "type": "uint256"
        }
      ],
      "stateMutability": "view",
      "type": "function"
    },
    {
      "inputs": [
        {
          "internalType": "uint256",
          "name": "_tokenId",
          "type": "uint256"
        }
      ],
      "name": "tokenURI",
      "outputs": [
        {
          "internalType": "string",
          "name": "",
          "type": "string"
        }
      ],
      "stateMutability": "view",
      "type": "function"
    },
    {
      "inputs": [
        {
          "internalType": "address",
          "name": "from",
          "type": "address"
        },
        {
          "internalType": "address",
          "name": "to",
          "type": "address"
        },
        {
          "internalType": "uint256",
          "name": "tokenId",
          "type": "uint256"
        }
      ],
      "name": "transferFrom",
      "outputs": [],
      "stateMutability": "nonpayable",
      "type": "function"
    },
    {
      "inputs": [
        {
          "internalType": "uint256",
          "name": "",
          "type": "uint256"
        }
      ],
      "name": "userList",
      "outputs": [
        {
          "internalType": "uint256",
          "name": "randomId",
          "type": "uint256"
        },
        {
          "internalType": "address",
          "name": "owner",
          "type": "address"
        },
        {
          "internalType": "uint256",
          "name": "HP",
          "type": "uint256"
        },
        {
          "internalType": "uint256",
          "name": "Attack",
          "type": "uint256"
        },
        {
          "internalType": "uint256",
          "name": "AttackRange",
          "type": "uint256"
        },
        {
          "internalType": "uint256",
          "name": "Speed",
          "type": "uint256"
        },
        {
          "internalType": "uint256",
          "name": "Strength",
          "type": "uint256"
        },
        {
          "internalType": "uint256",
          "name": "Space",
          "type": "uint256"
        },
        {
          "internalType": "enum MRandom.RandomState",
          "name": "state",
          "type": "uint8"
        }
      ],
      "stateMutability": "view",
      "type": "function"
    },
    {
      "inputs": [],
      "name": "waitBlockCount",
      "outputs": [
        {
          "internalType": "uint256",
          "name": "",
          "type": "uint256"
        }
      ],
      "stateMutability": "view",
      "type": "function"
    }
  ],
  "bytecode": {
    "object": "0x60806040523480156200001157600080fd5b5060405162002eae38038062002eae833981016040819052620000349162000227565b8351849084906200004d906000906020850190620000b4565b50805162000063906001906020840190620000b4565b5050600a80546001600160a01b0319163317905550600985905581516200009290600b906020850190620000b4565b508051620000a890600c906020840190620000b4565b50505050505062000327565b828054620000c290620002eb565b90600052602060002090601f016020900481019282620000e6576000855562000131565b82601f106200010157805160ff191683800117855562000131565b8280016001018555821562000131579182015b828111156200013157825182559160200191906001019062000114565b506200013f92915062000143565b5090565b5b808211156200013f576000815560010162000144565b634e487b7160e01b600052604160045260246000fd5b600082601f8301126200018257600080fd5b81516001600160401b03808211156200019f576200019f6200015a565b604051601f8301601f19908116603f01168101908282118183101715620001ca57620001ca6200015a565b81604052838152602092508683858801011115620001e757600080fd5b600091505b838210156200020b5785820183015181830184015290820190620001ec565b838211156200021d5760008385830101525b9695505050505050565b600080600080600060a086880312156200024057600080fd5b855160208701519095506001600160401b03808211156200026057600080fd5b6200026e89838a0162000170565b955060408801519150808211156200028557600080fd5b6200029389838a0162000170565b94506060880151915080821115620002aa57600080fd5b620002b889838a0162000170565b93506080880151915080821115620002cf57600080fd5b50620002de8882890162000170565b9150509295509295909350565b600181811c908216806200030057607f821691505b6020821081036200032157634e487b7160e01b600052602260045260246000fd5b50919050565b612b7780620003376000396000f3fe608060405234801561001057600080fd5b506004361061018d5760003560e01c806353bbd6a7116100e3578063a22cb4651161008c578063cba86e2311610066578063cba86e23146103b0578063d5608f9a146103fd578063e985e9c51461041057600080fd5b8063a22cb46514610377578063b88d4fde1461038a578063c87b56dd1461039d57600080fd5b80638da5cb5b116100bd5780638da5cb5b146102e157806395d89b41146102f45780639f4216e8146102fc57600080fd5b806353bbd6a71461027b5780636352211e146102bb57806370a08231146102ce57600080fd5b80631249c58b116101455780633e8474ca1161011f5780633e8474ca1461024a57806342842e0e1461025357806343a471621461026657600080fd5b80631249c58b1461022657806317d70f7c1461022e57806323b872dd1461023757600080fd5b8063081812fc11610176578063081812fc146101cf578063095ea7b3146101fa5780630ab14d8a1461020f57600080fd5b806301ffc9a71461019257806306fdde03146101ba575b600080fd5b6101a56101a03660046121ab565b61044c565b60405190151581526020015b60405180910390f35b6101c2610531565b6040516101b19190612227565b6101e26101dd36600461223a565b6105c3565b6040516001600160a01b0390911681526020016101b1565b61020d61020836600461226f565b6105ea565b005b61021860065481565b6040519081526020016101b1565b61020d610720565b61021860085481565b61020d610245366004612299565b6107ab565b61021860095481565b61020d610261366004612299565b610832565b61026e61084d565b6040516101b191906122d5565b61028e61028936600461223a565b610917565b604080519687526020870195909552938501929092526060840152608083015260a082015260c0016101b1565b6101e26102c936600461223a565b610a67565b6102186102dc366004612319565b610acc565b600a546101e2906001600160a01b031681565b6101c2610b66565b61036261030a36600461223a565b600d6020526000908152604090208054600182015460028301546003840154600485015460058601546006870154600788015460089098015496976001600160a01b0390961696949593949293919290919060ff1689565b6040516101b19998979695949392919061234a565b61020d6103853660046123bc565b610b75565b61020d61039836600461240e565b610b84565b6101c26103ab36600461223a565b610c12565b6103e06103be36600461223a565b600760205260009081526040902080546001909101546001600160a01b031682565b604080519283526001600160a01b039091166020830152016101b1565b61020d61040b36600461223a565b610dee565b6101a561041e3660046124ea565b6001600160a01b03918216600090815260056020908152604080832093909416825291909152205460ff1690565b60007fffffffff0000000000000000000000000000000000000000000000000000000082167f80ac58cd0000000000000000000000000000000000000000000000000000000014806104df57507fffffffff0000000000000000000000000000000000000000000000000000000082167f5b5e139f00000000000000000000000000000000000000000000000000000000145b8061052b57507f01ffc9a7000000000000000000000000000000000000000000000000000000007fffffffff000000000000000000000000000000000000000000000000000000008316145b92915050565b6060600080546105409061251d565b80601f016020809104026020016040519081016040528092919081815260200182805461056c9061251d565b80156105b95780601f1061058e576101008083540402835291602001916105b9565b820191906000526020600020905b81548152906001019060200180831161059c57829003601f168201915b5050505050905090565b60006105ce82610f90565b506000908152600460205260409020546001600160a01b031690565b60006105f582610a67565b9050806001600160a01b0316836001600160a01b0316036106835760405162461bcd60e51b815260206004820152602160248201527f4552433732313a20617070726f76616c20746f2063757272656e74206f776e6560448201527f720000000000000000000000000000000000000000000000000000000000000060648201526084015b60405180910390fd5b336001600160a01b038216148061069f575061069f813361041e565b6107115760405162461bcd60e51b815260206004820152603d60248201527f4552433732313a20617070726f76652063616c6c6572206973206e6f7420746f60448201527f6b656e206f776e6572206f7220617070726f76656420666f7220616c6c000000606482015260840161067a565b61071b8383610ff7565b505050565b600880546000908152600d602052604090206001808201805473ffffffffffffffffffffffffffffffffffffffff191633179055918101805460ff191690921790915560065480825561077290611072565b61077e336008546110e7565b6008805490600061078e83612567565b9091555050600680549060006107a383612567565b919050555050565b6107b5338261127f565b6108275760405162461bcd60e51b815260206004820152602d60248201527f4552433732313a2063616c6c6572206973206e6f7420746f6b656e206f776e6560448201527f72206f7220617070726f76656400000000000000000000000000000000000000606482015260840161067a565b61071b8383836112fe565b61071b83838360405180602001604052806000815250610b84565b6060600061085a33610acc565b905060008167ffffffffffffffff811115610877576108776123f8565b6040519080825280602002602001820160405280156108a0578160200160208202803683370190505b5090506000805b60085481101561090e57336108bb82610a67565b6001600160a01b0316036108fc57808383815181106108dc576108dc612581565b6020908102919091010152816108f181612567565b92505083821461090e575b8061090681612567565b9150506108a7565b50909392505050565b6000818152600d602090815260408083208151610120810183528154815260018201546001600160a01b031693810193909352600280820154928401929092526003810154606084015260048101546080840152600581015460a0840152600681015460c0840152600781015460e0840152600881015484938493849384938493849390929161010084019160ff909116908111156109b8576109b8612334565b60028111156109c9576109c9612334565b9052509050600281610100015160028111156109e7576109e7612334565b14610a345760405162461bcd60e51b815260206004820152600f60248201527f55736572206e6f74206578697374730000000000000000000000000000000000604482015260640161067a565b60408101516060820151608083015160a084015160c085015160e090950151939c929b5090995097509195509350915050565b6000818152600260205260408120546001600160a01b03168061052b5760405162461bcd60e51b815260206004820152601860248201527f4552433732313a20696e76616c696420746f6b656e2049440000000000000000604482015260640161067a565b60006001600160a01b038216610b4a5760405162461bcd60e51b815260206004820152602960248201527f4552433732313a2061646472657373207a65726f206973206e6f74206120766160448201527f6c6964206f776e65720000000000000000000000000000000000000000000000606482015260840161067a565b506001600160a01b031660009081526003602052604090205490565b6060600180546105409061251d565b610b80338383611534565b5050565b610b8e338361127f565b610c005760405162461bcd60e51b815260206004820152602d60248201527f4552433732313a2063616c6c6572206973206e6f7420746f6b656e206f776e6560448201527f72206f7220617070726f76656400000000000000000000000000000000000000606482015260840161067a565b610c0c84848484611602565b50505050565b6000818152600d602090815260408083208151610120810183528154815260018201546001600160a01b03169381019390935260028082015492840192909252600381015460608481019190915260048201546080850152600582015460a0850152600682015460c0850152600782015460e085015260088201549094939261010084019160ff1690811115610caa57610caa612334565b6002811115610cbb57610cbb612334565b905250905060018161010001516002811115610cd957610cd9612334565b03610d0a576000600b604051602001610cf29190612630565b60408051601f19818403018152919052949350505050565b60008161010001516002811115610d2357610d23612334565b03610d705760405162461bcd60e51b815260206004820152600f60248201527f426f78206e6f7420657869737465640000000000000000000000000000000000604482015260640161067a565b6000610d7b8261168b565b90506000610dbc610d8b866119c1565b600c610d9685611a61565b604051602001610da893929190612662565b604051602081830303815290604052611a61565b905080604051602001610dcf9190612766565b60408051601f1981840301815291905295945050505050565b50919050565b6000818152600d6020526040902060018101546001600160a01b03163314610e585760405162461bcd60e51b815260206004820152601e60248201527f6f6e6c79206f776e65722063616e2072657665616c207468652020626f780000604482015260640161067a565b6000610e6c82600001546008600954611c20565b9050610e9781600081518110610e8457610e84612581565b60200260200101516064600a6005611e6d565b8260020181905550610ec881600181518110610eb557610eb5612581565b6020026020010151601e600a6002611e6d565b8260030181905550610ef981600281518110610ee657610ee6612581565b6020026020010151600260326001611e6d565b8260040181905550610f2a81600381518110610f1757610f17612581565b6020026020010151600360326002611e6d565b8260050181905550610f5b81600481518110610f4857610f48612581565b60200260200101516014600a6003611e6d565b8260060181905550610f7981600581518110610ee657610ee6612581565b600783015550600801805460ff1916600217905550565b6000818152600260205260409020546001600160a01b0316610ff45760405162461bcd60e51b815260206004820152601860248201527f4552433732313a20696e76616c696420746f6b656e2049440000000000000000604482015260640161067a565b50565b6000818152600460205260409020805473ffffffffffffffffffffffffffffffffffffffff19166001600160a01b038416908117909155819061103982610a67565b6001600160a01b03167f8c5be1e5ebec7d5bd14f71427d1e84f3dd0314c0f7b2291e5b200ac8c7c3b92560405160405180910390a45050565b60008181526007602090815260409182902060018101805473ffffffffffffffffffffffffffffffffffffffff191633908117909155438255600654845190815292830152917f42139093fd7ac15b45c666156888a691a366ed9d327f76e6b9f4ea4f3e82471c910160405180910390a15050565b6001600160a01b03821661113d5760405162461bcd60e51b815260206004820181905260248201527f4552433732313a206d696e7420746f20746865207a65726f2061646472657373604482015260640161067a565b6000818152600260205260409020546001600160a01b0316156111a25760405162461bcd60e51b815260206004820152601c60248201527f4552433732313a20746f6b656e20616c7265616479206d696e74656400000000604482015260640161067a565b6000818152600260205260409020546001600160a01b0316156112075760405162461bcd60e51b815260206004820152601c60248201527f4552433732313a20746f6b656e20616c7265616479206d696e74656400000000604482015260640161067a565b6001600160a01b0382166000818152600360209081526040808320805460010190558483526002909152808220805473ffffffffffffffffffffffffffffffffffffffff19168417905551839291907fddf252ad1be2c89b69c2b068fc378daa952ba7f163c4a11628f55a4df523b3ef908290a45050565b60008061128b83610a67565b9050806001600160a01b0316846001600160a01b031614806112d257506001600160a01b0380821660009081526005602090815260408083209388168352929052205460ff165b806112f65750836001600160a01b03166112eb846105c3565b6001600160a01b0316145b949350505050565b826001600160a01b031661131182610a67565b6001600160a01b03161461138d5760405162461bcd60e51b815260206004820152602560248201527f4552433732313a207472616e736665722066726f6d20696e636f72726563742060448201527f6f776e6572000000000000000000000000000000000000000000000000000000606482015260840161067a565b6001600160a01b0382166114085760405162461bcd60e51b8152602060048201526024808201527f4552433732313a207472616e7366657220746f20746865207a65726f2061646460448201527f7265737300000000000000000000000000000000000000000000000000000000606482015260840161067a565b826001600160a01b031661141b82610a67565b6001600160a01b0316146114975760405162461bcd60e51b815260206004820152602560248201527f4552433732313a207472616e736665722066726f6d20696e636f72726563742060448201527f6f776e6572000000000000000000000000000000000000000000000000000000606482015260840161067a565b6000818152600460209081526040808320805473ffffffffffffffffffffffffffffffffffffffff199081169091556001600160a01b0387811680865260038552838620805460001901905590871680865283862080546001019055868652600290945282852080549092168417909155905184937fddf252ad1be2c89b69c2b068fc378daa952ba7f163c4a11628f55a4df523b3ef91a4505050565b816001600160a01b0316836001600160a01b0316036115955760405162461bcd60e51b815260206004820152601960248201527f4552433732313a20617070726f766520746f2063616c6c657200000000000000604482015260640161067a565b6001600160a01b03838116600081815260056020908152604080832094871680845294825291829020805460ff191686151590811790915591519182527f17307eab39ab6107e8899845ad3d59bd9653f200f220920489ca2b5937696c31910160405180910390a3505050565b61160d8484846112fe565b61161984848484611ea9565b610c0c5760405162461bcd60e51b815260206004820152603260248201527f4552433732313a207472616e7366657220746f206e6f6e20455243373231526560448201527f63656976657220696d706c656d656e7465720000000000000000000000000000606482015260840161067a565b6060611695612155565b60405180610120016040528060fd81526020016129dd60fd91398152604080518082018252600281527f48500000000000000000000000000000000000000000000000000000000000006020820152908401516116fb91906116f6906119c1565b612047565b8160016020020181905250604051806060016040528060288152602001612b1a6028913981600260200201819052506117706040518060400160405280600681526020017f41747461636b00000000000000000000000000000000000000000000000000008152506116f685606001516119c1565b606080830191909152604080519182019052602880825261293b602083013981600460200201819052506117e06040518060400160405280600b81526020017f41747461636b52616e67650000000000000000000000000000000000000000008152506116f685608001516119c1565b60a08201526040805160608101909152602880825261298c602083013960c082015260408051808201909152600581527f5370656564000000000000000000000000000000000000000000000000000000602082015260a084015161184991906116f6906119c1565b60e0820152604080516060810190915260298082526129b4602083013961010082015260408051808201909152600881527f537472656e677468000000000000000000000000000000000000000000000000602082015260c08401516118b391906116f6906119c1565b61012082015260408051606081019091526029808252612963602083013961014082015260408051808201909152600581527f5370616365000000000000000000000000000000000000000000000000000000602082015260e084015161191e91906116f6906119c1565b61016082015260408051808201909152600d81527f3c2f746578743e3c2f7376673e000000000000000000000000000000000000006020820152610180820152606060005b600d8110156119b957818382600d811061197f5761197f612581565b60200201516040516020016119959291906127ab565b604051602081830303815290604052915080806119b190612567565b915050611963565b509392505050565b606060006119ce83612073565b600101905060008167ffffffffffffffff8111156119ee576119ee6123f8565b6040519080825280601f01601f191660200182016040528015611a18576020820181803683370190505b5090508181016020015b600019017f3031323334353637383961626364656600000000000000000000000000000000600a86061a8153600a8504945084611a2257509392505050565b80516060906000819003611a85575050604080516020810190915260008152919050565b60006003611a948360026127f0565b611a9e9190612808565b611aa990600461281c565b90506000611ab88260206127f0565b67ffffffffffffffff811115611ad057611ad06123f8565b6040519080825280601f01601f191660200182016040528015611afa576020820181803683370190505b5090506000604051806060016040528060408152602001612ada604091399050600181016020830160005b86811015611b86576003818a01810151603f601282901c8116860151600c83901c8216870151600684901c831688015192909316870151600891821b60ff94851601821b92841692909201901b91160160e01b835260049092019101611b25565b506003860660018114611ba05760028114611bea57611c12565b7f3d3d0000000000000000000000000000000000000000000000000000000000007ffffffffffffffffffffffffffffffffffffffffffffffffffffffffffffffffe830152611c12565b7f3d000000000000000000000000000000000000000000000000000000000000006000198301525b505050918152949350505050565b60606006548410611c735760405162461bcd60e51b815260206004820152601660248201527f72616e646f6d20646f6573206e6f742065786973747300000000000000000000604482015260640161067a565b600084815260076020908152604091829020825180840190935280548352600101546001600160a01b03169082018190523314611d185760405162461bcd60e51b815260206004820152602260248201527f6f6e6c792072616e646f6d2063726561746f722063616e206765742072616e6460448201527f6f6d000000000000000000000000000000000000000000000000000000000000606482015260840161067a565b60008467ffffffffffffffff811115611d3357611d336123f8565b604051908082528060200260200182016040528015611d5c578160200160208202803683370190505b508251909150611d6d9085906127f0565b431015611dbc5760405162461bcd60e51b815260206004820152601c60248201527f746f6f206561726c7920746f206765742072616e646f6d207365656400000000604482015260640161067a565b8151600090611dcc9060026127f0565b604080519140602083018190529250600091016040516020818303038152906040528051906020012060001c905060005b878160ff161015611e60576000611e1560648461283b565b905080858360ff1681518110611e2d57611e2d612581565b60ff90921660209283029190910190910152611e4a606484612808565b9250508080611e589061284f565b915050611dfd565b5091979650505050505050565b60008083611e7c87600161286e565b60ff16611e899190612808565b9050611e95838261281c565b611e9f90866127f0565b9695505050505050565b60006001600160a01b0384163b1561203f576040517f150b7a020000000000000000000000000000000000000000000000000000000081526001600160a01b0385169063150b7a0290611f06903390899088908890600401612893565b6020604051808303816000875af1925050508015611f41575060408051601f3d908101601f19168201909252611f3e918101906128c5565b60015b611ff4573d808015611f6f576040519150601f19603f3d011682016040523d82523d6000602084013e611f74565b606091505b508051600003611fec5760405162461bcd60e51b815260206004820152603260248201527f4552433732313a207472616e7366657220746f206e6f6e20455243373231526560448201527f63656976657220696d706c656d656e7465720000000000000000000000000000606482015260840161067a565b805181602001fd5b7fffffffff00000000000000000000000000000000000000000000000000000000167f150b7a02000000000000000000000000000000000000000000000000000000001490506112f6565b5060016112f6565b6060828260405160200161205c9291906128e2565b604051602081830303815290604052905092915050565b6000807a184f03e93ff9f4daa797ed6e38ed64bf6a1f01000000000000000083106120bc577a184f03e93ff9f4daa797ed6e38ed64bf6a1f010000000000000000830492506040015b6d04ee2d6d415b85acef810000000083106120e8576d04ee2d6d415b85acef8100000000830492506020015b662386f26fc10000831061210657662386f26fc10000830492506010015b6305f5e100831061211e576305f5e100830492506008015b612710831061213257612710830492506004015b60648310612144576064830492506002015b600a831061052b5760010192915050565b604051806101a00160405280600d905b60608152602001906001900390816121655790505090565b7fffffffff0000000000000000000000000000000000000000000000000000000081168114610ff457600080fd5b6000602082840312156121bd57600080fd5b81356121c88161217d565b9392505050565b60005b838110156121ea5781810151838201526020016121d2565b83811115610c0c5750506000910152565b600081518084526122138160208601602086016121cf565b601f01601f19169290920160200192915050565b6020815260006121c860208301846121fb565b60006020828403121561224c57600080fd5b5035919050565b80356001600160a01b038116811461226a57600080fd5b919050565b6000806040838503121561228257600080fd5b61228b83612253565b946020939093013593505050565b6000806000606084860312156122ae57600080fd5b6122b784612253565b92506122c560208501612253565b9150604084013590509250925092565b6020808252825182820181905260009190848201906040850190845b8181101561230d578351835292840192918401916001016122f1565b50909695505050505050565b60006020828403121561232b57600080fd5b6121c882612253565b634e487b7160e01b600052602160045260246000fd5b6000610120820190508a82526001600160a01b038a1660208301528860408301528760608301528660808301528560a08301528460c08301528360e0830152600383106123a757634e487b7160e01b600052602160045260246000fd5b826101008301529a9950505050505050505050565b600080604083850312156123cf57600080fd5b6123d883612253565b9150602083013580151581146123ed57600080fd5b809150509250929050565b634e487b7160e01b600052604160045260246000fd5b6000806000806080858703121561242457600080fd5b61242d85612253565b935061243b60208601612253565b925060408501359150606085013567ffffffffffffffff8082111561245f57600080fd5b818701915087601f83011261247357600080fd5b813581811115612485576124856123f8565b604051601f8201601f19908116603f011681019083821181831017156124ad576124ad6123f8565b816040528281528a60208487010111156124c657600080fd5b82602086016020830137600060208483010152809550505050505092959194509250565b600080604083850312156124fd57600080fd5b61250683612253565b915061251460208401612253565b90509250929050565b600181811c9082168061253157607f821691505b602082108103610de857634e487b7160e01b600052602260045260246000fd5b634e487b7160e01b600052601160045260246000fd5b6000600019820361257a5761257a612551565b5060010190565b634e487b7160e01b600052603260045260246000fd5b8054600090600181811c90808316806125b157607f831692505b602080841082036125d257634e487b7160e01b600052602260045260246000fd5b8180156125e657600181146125f757612624565b60ff19861689528489019650612624565b60008881526020902060005b8681101561261c5781548b820152908501908301612603565b505084890196505b50505050505092915050565b7f646174613a6170706c69636174696f6e2f6a736f6e3b6261736536342c000000815260006121c8601d830184612597565b7f7b226e616d65223a20224d55736572202300000000000000000000000000000081526000845161269a8160118501602089016121cf565b7f222c20226465736372697074696f6e223a2200000000000000000000000000006011918401918201526126d16023820186612597565b90507f222c22696d616765223a2022646174613a696d6167652f7376672b786d6c3b6281527f61736536342c00000000000000000000000000000000000000000000000000006020820152835161272f8160268401602088016121cf565b7f227d0000000000000000000000000000000000000000000000000000000000006026929091019182015260280195945050505050565b7f646174613a6170706c69636174696f6e2f6a736f6e3b6261736536342c00000081526000825161279e81601d8501602087016121cf565b91909101601d0192915050565b600083516127bd8184602088016121cf565b8351908301906127d18183602088016121cf565b01949350505050565b634e487b7160e01b600052601260045260246000fd5b6000821982111561280357612803612551565b500190565b600082612817576128176127da565b500490565b600081600019048311821515161561283657612836612551565b500290565b60008261284a5761284a6127da565b500690565b600060ff821660ff810361286557612865612551565b60010192915050565b600060ff821660ff84168060ff0382111561288b5761288b612551565b019392505050565b60006001600160a01b03808716835280861660208401525083604083015260806060830152611e9f60808301846121fb565b6000602082840312156128d757600080fd5b81516121c88161217d565b600083516128f48184602088016121cf565b7f203a200000000000000000000000000000000000000000000000000000000000908301908152835161292e8160038401602088016121cf565b0160030194935050505056fe3c2f746578743e3c7465787420783d2231302220793d2236302220636c6173733d2262617365223e3c2f746578743e3c7465787420783d2231302220793d223132302220636c6173733d2262617365223e3c2f746578743e3c7465787420783d2231302220793d2238302220636c6173733d2262617365223e3c2f746578743e3c7465787420783d2231302220793d223130302220636c6173733d2262617365223e3c73766720786d6c6e733d22687474703a2f2f7777772e77332e6f72672f323030302f73766722207072657365727665417370656374526174696f3d22784d696e594d696e206d656574222076696577426f783d223020302033353020333530223e3c7374796c653e2e62617365207b2066696c6c3a2077686974653b20666f6e742d66616d696c793a2073657269663b20666f6e742d73697a653a20313470783b207d3c2f7374796c653e3c726563742077696474683d223130302522206865696768743d2231303025222066696c6c3d22626c61636b22202f3e3c7465787420783d2231302220793d2232302220636c6173733d2262617365223e4142434445464748494a4b4c4d4e4f505152535455565758595a6162636465666768696a6b6c6d6e6f707172737475767778797a303132333435363738392b2f3c2f746578743e3c7465787420783d2231302220793d2234302220636c6173733d2262617365223ea2646970667358221220ecfe541edde73df97e668bcf68bfd58a9c4995b217aca62af66c3015dae580eb64736f6c634300080d0033",
    "linkReferences": {}
  },
  "methodIdentifiers": {
    "approve(address,uint256)": "095ea7b3",
    "balanceOf(address)": "70a08231",
    "getApproved(uint256)": "081812fc",
    "getStructInfo(uint256)": "53bbd6a7",
    "getUserTokenIdList()": "43a47162",
    "isApprovedForAll(address,address)": "e985e9c5",
    "mint()": "1249c58b",
    "name()": "06fdde03",
    "owner()": "8da5cb5b",
    "ownerOf(uint256)": "6352211e",
    "randomId()": "0ab14d8a",
    "randomList(uint256)": "cba86e23",
    "revealNFT(uint256)": "d5608f9a",
    "safeTransferFrom(address,address,uint256)": "42842e0e",
    "safeTransferFrom(address,address,uint256,bytes)": "b88d4fde",
    "setApprovalForAll(address,bool)": "a22cb465",
    "supportsInterface(bytes4)": "01ffc9a7",
    "symbol()": "95d89b41",
    "tokenId()": "17d70f7c",
    "tokenURI(uint256)": "c87b56dd",
    "transferFrom(address,address,uint256)": "23b872dd",
    "userList(uint256)": "9f4216e8",
    "waitBlockCount()": "3e8474ca"
  },
  "id": 171
}