{
  "abi": [
    {
      "inputs": [
        {
          "internalType": "uint256",
          "name": "_waitBlockCount",
          "type": "uint256"
        },
        {
          "internalType": "string",
          "name": "_symbol",
          "type": "string"
        },
        {
          "internalType": "string",
          "name": "_name",
          "type": "string"
        },
        {
          "internalType": "string",
          "name": "_notRevealedInfo",
          "type": "string"
        },
        {
          "internalType": "string",
          "name": "_revealedDesc",
          "type": "string"
        }
      ],
      "stateMutability": "nonpayable",
      "type": "constructor"
    },
    {
      "anonymous": false,
      "inputs": [
        {
          "indexed": true,
          "internalType": "address",
          "name": "owner",
          "type": "address"
        },
        {
          "indexed": true,
          "internalType": "address",
          "name": "approved",
          "type": "address"
        },
        {
          "indexed": true,
          "internalType": "uint256",
          "name": "tokenId",
          "type": "uint256"
        }
      ],
      "name": "Approval",
      "type": "event"
    },
    {
      "anonymous": false,
      "inputs": [
        {
          "indexed": true,
          "internalType": "address",
          "name": "owner",
          "type": "address"
        },
        {
          "indexed": true,
          "internalType": "address",
          "name": "operator",
          "type": "address"
        },
        {
          "indexed": false,
          "internalType": "bool",
          "name": "approved",
          "type": "bool"
        }
      ],
      "name": "ApprovalForAll",
      "type": "event"
    },
    {
      "anonymous": false,
      "inputs": [
        {
          "indexed": false,
          "internalType": "uint256",
          "name": "randomId",
          "type": "uint256"
        },
        {
          "indexed": false,
          "internalType": "address",
          "name": "author",
          "type": "address"
        }
      ],
      "name": "NewRandom",
      "type": "event"
    },
    {
      "anonymous": false,
      "inputs": [
        {
          "indexed": true,
          "internalType": "address",
          "name": "from",
          "type": "address"
        },
        {
          "indexed": true,
          "internalType": "address",
          "name": "to",
          "type": "address"
        },
        {
          "indexed": true,
          "internalType": "uint256",
          "name": "tokenId",
          "type": "uint256"
        }
      ],
      "name": "Transfer",
      "type": "event"
    },
    {
      "inputs": [
        {
          "internalType": "address",
          "name": "to",
          "type": "address"
        },
        {
          "internalType": "uint256",
          "name": "tokenId",
          "type": "uint256"
        }
      ],
      "name": "approve",
      "outputs": [],
      "stateMutability": "nonpayable",
      "type": "function"
    },
    {
      "inputs": [
        {
          "internalType": "address",
          "name": "owner",
          "type": "address"
        }
      ],
      "name": "balanceOf",
      "outputs": [
        {
          "internalType": "uint256",
          "name": "",
          "type": "uint256"
        }
      ],
      "stateMutability": "view",
      "type": "function"
    },
    {
      "inputs": [
        {
          "internalType": "uint256",
          "name": "tokenId",
          "type": "uint256"
        }
      ],
      "name": "getApproved",
      "outputs": [
        {
          "internalType": "address",
          "name": "",
          "type": "address"
        }
      ],
      "stateMutability": "view",
      "type": "function"
    },
    {
      "inputs": [
        {
          "internalType": "uint256",
          "name": "_tokenId",
          "type": "uint256"
        }
      ],
      "name": "getStructInfo",
      "outputs": [
        {
          "internalType": "uint256",
          "name": "",
          "type": "uint256"
        },
        {
          "internalType": "uint256",
          "name": "",
          "type": "uint256"
        },
        {
          "internalType": "uint256",
          "name": "",
          "type": "uint256"
        },
        {
          "internalType": "uint256",
          "name": "",
          "type": "uint256"
        },
        {
          "internalType": "uint256",
          "name": "",
          "type": "uint256"
        },
        {
          "internalType": "uint256",
          "name": "",
          "type": "uint256"
        }
      ],
      "stateMutability": "view",
      "type": "function"
    },
    {
      "inputs": [],
      "name": "getUserTokenIdList",
      "outputs": [
        {
          "internalType": "uint256[]",
          "name": "",
          "type": "uint256[]"
        }
      ],
      "stateMutability": "view",
      "type": "function"
    },
    {
      "inputs": [
        {
          "internalType": "address",
          "name": "owner",
          "type": "address"
        },
        {
          "internalType": "address",
          "name": "operator",
          "type": "address"
        }
      ],
      "name": "isApprovedForAll",
      "outputs": [
        {
          "internalType": "bool",
          "name": "",
          "type": "bool"
        }
      ],
      "stateMutability": "view",
      "type": "function"
    },
    {
      "inputs": [
        {
          "internalType": "address",
          "name": "_addr",
          "type": "address"
        }
      ],
      "name": "mint",
      "outputs": [],
      "stateMutability": "nonpayable",
      "type": "function"
    },
    {
      "inputs": [],
      "name": "name",
      "outputs": [
        {
          "internalType": "string",
          "name": "",
          "type": "string"
        }
      ],
      "stateMutability": "view",
      "type": "function"
    },
    {
      "inputs": [],
      "name": "owner",
      "outputs": [
        {
          "internalType": "address",
          "name": "",
          "type": "address"
        }
      ],
      "stateMutability": "view",
      "type": "function"
    },
    {
      "inputs": [
        {
          "internalType": "uint256",
          "name": "tokenId",
          "type": "uint256"
        }
      ],
      "name": "ownerOf",
      "outputs": [
        {
          "internalType": "address",
          "name": "",
          "type": "address"
        }
      ],
      "stateMutability": "view",
      "type": "function"
    },
    {
      "inputs": [],
      "name": "randomId",
      "outputs": [
        {
          "internalType": "uint256",
          "name": "",
          "type": "uint256"
        }
      ],
      "stateMutability": "view",
      "type": "function"
    },
    {
      "inputs": [
        {
          "internalType": "uint256",
          "name": "",
          "type": "uint256"
        }
      ],
      "name": "randomList",
      "outputs": [
        {
          "internalType": "uint256",
          "name": "blockNumber",
          "type": "uint256"
        },
        {
          "internalType": "address",
          "name": "author",
          "type": "address"
        }
      ],
      "stateMutability": "view",
      "type": "function"
    },
    {
      "inputs": [
        {
          "internalType": "uint256",
          "name": "_tokenId",
          "type": "uint256"
        }
      ],
      "name": "revealNFT",
      "outputs": [],
      "stateMutability": "nonpayable",
      "type": "function"
    },
    {
      "inputs": [
        {
          "internalType": "address",
          "name": "from",
          "type": "address"
        },
        {
          "internalType": "address",
          "name": "to",
          "type": "address"
        },
        {
          "internalType": "uint256",
          "name": "tokenId",
          "type": "uint256"
        }
      ],
      "name": "safeTransferFrom",
      "outputs": [],
      "stateMutability": "nonpayable",
      "type": "function"
    },
    {
      "inputs": [
        {
          "internalType": "address",
          "name": "from",
          "type": "address"
        },
        {
          "internalType": "address",
          "name": "to",
          "type": "address"
        },
        {
          "internalType": "uint256",
          "name": "tokenId",
          "type": "uint256"
        },
        {
          "internalType": "bytes",
          "name": "data",
          "type": "bytes"
        }
      ],
      "name": "safeTransferFrom",
      "outputs": [],
      "stateMutability": "nonpayable",
      "type": "function"
    },
    {
      "inputs": [
        {
          "internalType": "address",
          "name": "operator",
          "type": "address"
        },
        {
          "internalType": "bool",
          "name": "approved",
          "type": "bool"
        }
      ],
      "name": "setApprovalForAll",
      "outputs": [],
      "stateMutability": "nonpayable",
      "type": "function"
    },
    {
      "inputs": [
        {
          "internalType": "bytes4",
          "name": "interfaceId",
          "type": "bytes4"
        }
      ],
      "name": "supportsInterface",
      "outputs": [
        {
          "internalType": "bool",
          "name": "",
          "type": "bool"
        }
      ],
      "stateMutability": "view",
      "type": "function"
    },
    {
      "inputs": [],
      "name": "symbol",
      "outputs": [
        {
          "internalType": "string",
          "name": "",
          "type": "string"
        }
      ],
      "stateMutability": "view",
      "type": "function"
    },
    {
      "inputs": [],
      "name": "tokenId",
      "outputs": [
        {
          "internalType": "uint256",
          "name": "",
          "type": "uint256"
        }
      ],
      "stateMutability": "view",
      "type": "function"
    },
    {
      "inputs": [
        {
          "internalType": "uint256",
          "name": "_tokenId",
          "type": "uint256"
        }
      ],
      "name": "tokenURI",
      "outputs": [
        {
          "internalType": "string",
          "name": "",
          "type": "string"
        }
      ],
      "stateMutability": "view",
      "type": "function"
    },
    {
      "inputs": [
        {
          "internalType": "address",
          "name": "from",
          "type": "address"
        },
        {
          "internalType": "address",
          "name": "to",
          "type": "address"
        },
        {
          "internalType": "uint256",
          "name": "tokenId",
          "type": "uint256"
        }
      ],
      "name": "transferFrom",
      "outputs": [],
      "stateMutability": "nonpayable",
      "type": "function"
    },
    {
      "inputs": [
        {
          "internalType": "uint256",
          "name": "",
          "type": "uint256"
        }
      ],
      "name": "userList",
      "outputs": [
        {
          "internalType": "uint256",
          "name": "randomId",
          "type": "uint256"
        },
        {
          "internalType": "address",
          "name": "owner",
          "type": "address"
        },
        {
          "internalType": "uint256",
          "name": "HP",
          "type": "uint256"
        },
        {
          "internalType": "uint256",
          "name": "Attack",
          "type": "uint256"
        },
        {
          "internalType": "uint256",
          "name": "AttackRange",
          "type": "uint256"
        },
        {
          "internalType": "uint256",
          "name": "Speed",
          "type": "uint256"
        },
        {
          "internalType": "uint256",
          "name": "Strength",
          "type": "uint256"
        },
        {
          "internalType": "uint256",
          "name": "Space",
          "type": "uint256"
        },
        {
          "internalType": "enum MRandom.RandomState",
          "name": "state",
          "type": "uint8"
        }
      ],
      "stateMutability": "view",
      "type": "function"
    },
    {
      "inputs": [],
      "name": "waitBlockCount",
      "outputs": [
        {
          "internalType": "uint256",
          "name": "",
          "type": "uint256"
        }
      ],
      "stateMutability": "view",
      "type": "function"
    }
  ],
  "bytecode": {
    "object": "0x60806040523480156200001157600080fd5b5060405162002e7b38038062002e7b833981016040819052620000349162000227565b8351849084906200004d906000906020850190620000b4565b50805162000063906001906020840190620000b4565b5050600a80546001600160a01b0319163317905550600985905581516200009290600b906020850190620000b4565b508051620000a890600c906020840190620000b4565b50505050505062000327565b828054620000c290620002eb565b90600052602060002090601f016020900481019282620000e6576000855562000131565b82601f106200010157805160ff191683800117855562000131565b8280016001018555821562000131579182015b828111156200013157825182559160200191906001019062000114565b506200013f92915062000143565b5090565b5b808211156200013f576000815560010162000144565b634e487b7160e01b600052604160045260246000fd5b600082601f8301126200018257600080fd5b81516001600160401b03808211156200019f576200019f6200015a565b604051601f8301601f19908116603f01168101908282118183101715620001ca57620001ca6200015a565b81604052838152602092508683858801011115620001e757600080fd5b600091505b838210156200020b5785820183015181830184015290820190620001ec565b838211156200021d5760008385830101525b9695505050505050565b600080600080600060a086880312156200024057600080fd5b855160208701519095506001600160401b03808211156200026057600080fd5b6200026e89838a0162000170565b955060408801519150808211156200028557600080fd5b6200029389838a0162000170565b94506060880151915080821115620002aa57600080fd5b620002b889838a0162000170565b93506080880151915080821115620002cf57600080fd5b50620002de8882890162000170565b9150509295509295909350565b600181811c908216806200030057607f821691505b6020821081036200032157634e487b7160e01b600052602260045260246000fd5b50919050565b612b4480620003376000396000f3fe608060405234801561001057600080fd5b506004361061018d5760003560e01c80636352211e116100e3578063a22cb4651161008c578063cba86e2311610066578063cba86e23146103bb578063d5608f9a14610408578063e985e9c51461041b57600080fd5b8063a22cb46514610382578063b88d4fde14610395578063c87b56dd146103a857600080fd5b80638da5cb5b116100bd5780638da5cb5b146102ec57806395d89b41146102ff5780639f4216e81461030757600080fd5b80636352211e146102b35780636a627842146102c657806370a08231146102d957600080fd5b806317d70f7c1161014557806342842e0e1161011f57806342842e0e1461024b57806343a471621461025e57806353bbd6a71461027357600080fd5b806317d70f7c1461022657806323b872dd1461022f5780633e8474ca1461024257600080fd5b8063081812fc11610176578063081812fc146101cf578063095ea7b3146101fa5780630ab14d8a1461020f57600080fd5b806301ffc9a71461019257806306fdde03146101ba575b600080fd5b6101a56101a0366004612178565b610457565b60405190151581526020015b60405180910390f35b6101c261053c565b6040516101b191906121f4565b6101e26101dd366004612207565b6105ce565b6040516001600160a01b0390911681526020016101b1565b61020d61020836600461223c565b6105f5565b005b61021860065481565b6040519081526020016101b1565b61021860085481565b61020d61023d366004612266565b61072b565b61021860095481565b61020d610259366004612266565b6107b2565b6102666107cd565b6040516101b191906122a2565b610286610281366004612207565b610897565b604080519687526020870195909552938501929092526060840152608083015260a082015260c0016101b1565b6101e26102c1366004612207565b6109e7565b61020d6102d43660046122e6565b610a4c565b6102186102e73660046122e6565b610ae1565b600a546101e2906001600160a01b031681565b6101c2610b7b565b61036d610315366004612207565b600d6020526000908152604090208054600182015460028301546003840154600485015460058601546006870154600788015460089098015496976001600160a01b0390961696949593949293919290919060ff1689565b6040516101b199989796959493929190612317565b61020d610390366004612389565b610b8a565b61020d6103a33660046123db565b610b99565b6101c26103b6366004612207565b610c27565b6103eb6103c9366004612207565b600760205260009081526040902080546001909101546001600160a01b031682565b604080519283526001600160a01b039091166020830152016101b1565b61020d610416366004612207565b610e03565b6101a56104293660046124b7565b6001600160a01b03918216600090815260056020908152604080832093909416825291909152205460ff1690565b60007fffffffff0000000000000000000000000000000000000000000000000000000082167f80ac58cd0000000000000000000000000000000000000000000000000000000014806104ea57507fffffffff0000000000000000000000000000000000000000000000000000000082167f5b5e139f00000000000000000000000000000000000000000000000000000000145b8061053657507f01ffc9a7000000000000000000000000000000000000000000000000000000007fffffffff000000000000000000000000000000000000000000000000000000008316145b92915050565b60606000805461054b906124ea565b80601f0160208091040260200160405190810160405280929190818152602001828054610577906124ea565b80156105c45780601f10610599576101008083540402835291602001916105c4565b820191906000526020600020905b8154815290600101906020018083116105a757829003601f168201915b5050505050905090565b60006105d982610f5d565b506000908152600460205260409020546001600160a01b031690565b6000610600826109e7565b9050806001600160a01b0316836001600160a01b03160361068e5760405162461bcd60e51b815260206004820152602160248201527f4552433732313a20617070726f76616c20746f2063757272656e74206f776e6560448201527f720000000000000000000000000000000000000000000000000000000000000060648201526084015b60405180910390fd5b336001600160a01b03821614806106aa57506106aa8133610429565b61071c5760405162461bcd60e51b815260206004820152603d60248201527f4552433732313a20617070726f76652063616c6c6572206973206e6f7420746f60448201527f6b656e206f776e6572206f7220617070726f76656420666f7220616c6c0000006064820152608401610685565b6107268383610fc4565b505050565b610735338261103f565b6107a75760405162461bcd60e51b815260206004820152602d60248201527f4552433732313a2063616c6c6572206973206e6f7420746f6b656e206f776e6560448201527f72206f7220617070726f766564000000000000000000000000000000000000006064820152608401610685565b6107268383836110be565b61072683838360405180602001604052806000815250610b99565b606060006107da33610ae1565b905060008167ffffffffffffffff8111156107f7576107f76123c5565b604051908082528060200260200182016040528015610820578160200160208202803683370190505b5090506000805b60085481101561088e573361083b826109e7565b6001600160a01b03160361087c578083838151811061085c5761085c61251e565b6020908102919091010152816108718161254a565b92505083821461088e575b806108868161254a565b915050610827565b50909392505050565b6000818152600d602090815260408083208151610120810183528154815260018201546001600160a01b031693810193909352600280820154928401929092526003810154606084015260048101546080840152600581015460a0840152600681015460c0840152600781015460e0840152600881015484938493849384938493849390929161010084019160ff9091169081111561093857610938612301565b600281111561094957610949612301565b90525090506002816101000151600281111561096757610967612301565b146109b45760405162461bcd60e51b815260206004820152600f60248201527f55736572206e6f742065786973747300000000000000000000000000000000006044820152606401610685565b60408101516060820151608083015160a084015160c085015160e090950151939c929b5090995097509195509350915050565b6000818152600260205260408120546001600160a01b0316806105365760405162461bcd60e51b815260206004820152601860248201527f4552433732313a20696e76616c696420746f6b656e20494400000000000000006044820152606401610685565b600880546000908152600d602052604090206001808201805473ffffffffffffffffffffffffffffffffffffffff19166001600160a01b038616179055918101805460ff1916909217909155600654808255610aa7906112f4565b610ab382600854611369565b60088054906000610ac38361254a565b909155505060068054906000610ad88361254a565b91905055505050565b60006001600160a01b038216610b5f5760405162461bcd60e51b815260206004820152602960248201527f4552433732313a2061646472657373207a65726f206973206e6f74206120766160448201527f6c6964206f776e657200000000000000000000000000000000000000000000006064820152608401610685565b506001600160a01b031660009081526003602052604090205490565b60606001805461054b906124ea565b610b95338383611501565b5050565b610ba3338361103f565b610c155760405162461bcd60e51b815260206004820152602d60248201527f4552433732313a2063616c6c6572206973206e6f7420746f6b656e206f776e6560448201527f72206f7220617070726f766564000000000000000000000000000000000000006064820152608401610685565b610c21848484846115cf565b50505050565b6000818152600d602090815260408083208151610120810183528154815260018201546001600160a01b03169381019390935260028082015492840192909252600381015460608481019190915260048201546080850152600582015460a0850152600682015460c0850152600782015460e085015260088201549094939261010084019160ff1690811115610cbf57610cbf612301565b6002811115610cd057610cd0612301565b905250905060018161010001516002811115610cee57610cee612301565b03610d1f576000600b604051602001610d0791906125fd565b60408051601f19818403018152919052949350505050565b60008161010001516002811115610d3857610d38612301565b03610d855760405162461bcd60e51b815260206004820152600f60248201527f426f78206e6f74206578697374656400000000000000000000000000000000006044820152606401610685565b6000610d9082611658565b90506000610dd1610da08661198e565b600c610dab85611a2e565b604051602001610dbd9392919061262f565b604051602081830303815290604052611a2e565b905080604051602001610de49190612733565b60408051601f1981840301815291905295945050505050565b50919050565b6000818152600d602052604081208054600954919291610e269190600890611bed565b9050610e5181600081518110610e3e57610e3e61251e565b60200260200101516064600a6005611e3a565b8260020181905550610e8281600181518110610e6f57610e6f61251e565b6020026020010151601e600a6002611e3a565b8260030181905550610eb381600281518110610ea057610ea061251e565b6020026020010151600360326001611e3a565b8260040181905550610ee481600381518110610ed157610ed161251e565b60200260200101516004601e6001611e3a565b8260050181905550610f1581600481518110610f0257610f0261251e565b60200260200101516014600a6003611e3a565b8260060181905550610f4681600581518110610f3357610f3361251e565b6020026020010151600260326001611e3a565b600783015550600801805460ff1916600217905550565b6000818152600260205260409020546001600160a01b0316610fc15760405162461bcd60e51b815260206004820152601860248201527f4552433732313a20696e76616c696420746f6b656e20494400000000000000006044820152606401610685565b50565b6000818152600460205260409020805473ffffffffffffffffffffffffffffffffffffffff19166001600160a01b0384169081179091558190611006826109e7565b6001600160a01b03167f8c5be1e5ebec7d5bd14f71427d1e84f3dd0314c0f7b2291e5b200ac8c7c3b92560405160405180910390a45050565b60008061104b836109e7565b9050806001600160a01b0316846001600160a01b0316148061109257506001600160a01b0380821660009081526005602090815260408083209388168352929052205460ff165b806110b65750836001600160a01b03166110ab846105ce565b6001600160a01b0316145b949350505050565b826001600160a01b03166110d1826109e7565b6001600160a01b03161461114d5760405162461bcd60e51b815260206004820152602560248201527f4552433732313a207472616e736665722066726f6d20696e636f72726563742060448201527f6f776e65720000000000000000000000000000000000000000000000000000006064820152608401610685565b6001600160a01b0382166111c85760405162461bcd60e51b8152602060048201526024808201527f4552433732313a207472616e7366657220746f20746865207a65726f2061646460448201527f72657373000000000000000000000000000000000000000000000000000000006064820152608401610685565b826001600160a01b03166111db826109e7565b6001600160a01b0316146112575760405162461bcd60e51b815260206004820152602560248201527f4552433732313a207472616e736665722066726f6d20696e636f72726563742060448201527f6f776e65720000000000000000000000000000000000000000000000000000006064820152608401610685565b6000818152600460209081526040808320805473ffffffffffffffffffffffffffffffffffffffff199081169091556001600160a01b0387811680865260038552838620805460001901905590871680865283862080546001019055868652600290945282852080549092168417909155905184937fddf252ad1be2c89b69c2b068fc378daa952ba7f163c4a11628f55a4df523b3ef91a4505050565b60008181526007602090815260409182902060018101805473ffffffffffffffffffffffffffffffffffffffff191633908117909155438255600654845190815292830152917f42139093fd7ac15b45c666156888a691a366ed9d327f76e6b9f4ea4f3e82471c910160405180910390a15050565b6001600160a01b0382166113bf5760405162461bcd60e51b815260206004820181905260248201527f4552433732313a206d696e7420746f20746865207a65726f20616464726573736044820152606401610685565b6000818152600260205260409020546001600160a01b0316156114245760405162461bcd60e51b815260206004820152601c60248201527f4552433732313a20746f6b656e20616c7265616479206d696e746564000000006044820152606401610685565b6000818152600260205260409020546001600160a01b0316156114895760405162461bcd60e51b815260206004820152601c60248201527f4552433732313a20746f6b656e20616c7265616479206d696e746564000000006044820152606401610685565b6001600160a01b0382166000818152600360209081526040808320805460010190558483526002909152808220805473ffffffffffffffffffffffffffffffffffffffff19168417905551839291907fddf252ad1be2c89b69c2b068fc378daa952ba7f163c4a11628f55a4df523b3ef908290a45050565b816001600160a01b0316836001600160a01b0316036115625760405162461bcd60e51b815260206004820152601960248201527f4552433732313a20617070726f766520746f2063616c6c6572000000000000006044820152606401610685565b6001600160a01b03838116600081815260056020908152604080832094871680845294825291829020805460ff191686151590811790915591519182527f17307eab39ab6107e8899845ad3d59bd9653f200f220920489ca2b5937696c31910160405180910390a3505050565b6115da8484846110be565b6115e684848484611e76565b610c215760405162461bcd60e51b815260206004820152603260248201527f4552433732313a207472616e7366657220746f206e6f6e20455243373231526560448201527f63656976657220696d706c656d656e74657200000000000000000000000000006064820152608401610685565b6060611662612122565b60405180610120016040528060fd81526020016129aa60fd91398152604080518082018252600281527f48500000000000000000000000000000000000000000000000000000000000006020820152908401516116c891906116c39061198e565b612014565b8160016020020181905250604051806060016040528060288152602001612ae760289139816002602002018190525061173d6040518060400160405280600681526020017f41747461636b00000000000000000000000000000000000000000000000000008152506116c3856060015161198e565b6060808301919091526040805191820190526028808252612908602083013981600460200201819052506117ad6040518060400160405280600b81526020017f41747461636b52616e67650000000000000000000000000000000000000000008152506116c3856080015161198e565b60a082015260408051606081019091526028808252612959602083013960c082015260408051808201909152600581527f5370656564000000000000000000000000000000000000000000000000000000602082015260a084015161181691906116c39061198e565b60e082015260408051606081019091526029808252612981602083013961010082015260408051808201909152600881527f537472656e677468000000000000000000000000000000000000000000000000602082015260c084015161188091906116c39061198e565b61012082015260408051606081019091526029808252612930602083013961014082015260408051808201909152600581527f5370616365000000000000000000000000000000000000000000000000000000602082015260e08401516118eb91906116c39061198e565b61016082015260408051808201909152600d81527f3c2f746578743e3c2f7376673e000000000000000000000000000000000000006020820152610180820152606060005b600d81101561198657818382600d811061194c5761194c61251e565b6020020151604051602001611962929190612778565b6040516020818303038152906040529150808061197e9061254a565b915050611930565b509392505050565b6060600061199b83612040565b600101905060008167ffffffffffffffff8111156119bb576119bb6123c5565b6040519080825280601f01601f1916602001820160405280156119e5576020820181803683370190505b5090508181016020015b600019017f3031323334353637383961626364656600000000000000000000000000000000600a86061a8153600a85049450846119ef57509392505050565b80516060906000819003611a52575050604080516020810190915260008152919050565b60006003611a618360026127bd565b611a6b91906127d5565b611a769060046127e9565b90506000611a858260206127bd565b67ffffffffffffffff811115611a9d57611a9d6123c5565b6040519080825280601f01601f191660200182016040528015611ac7576020820181803683370190505b5090506000604051806060016040528060408152602001612aa7604091399050600181016020830160005b86811015611b53576003818a01810151603f601282901c8116860151600c83901c8216870151600684901c831688015192909316870151600891821b60ff94851601821b92841692909201901b91160160e01b835260049092019101611af2565b506003860660018114611b6d5760028114611bb757611bdf565b7f3d3d0000000000000000000000000000000000000000000000000000000000007ffffffffffffffffffffffffffffffffffffffffffffffffffffffffffffffffe830152611bdf565b7f3d000000000000000000000000000000000000000000000000000000000000006000198301525b505050918152949350505050565b60606006548410611c405760405162461bcd60e51b815260206004820152601660248201527f72616e646f6d20646f6573206e6f7420657869737473000000000000000000006044820152606401610685565b600084815260076020908152604091829020825180840190935280548352600101546001600160a01b03169082018190523314611ce55760405162461bcd60e51b815260206004820152602260248201527f6f6e6c792072616e646f6d2063726561746f722063616e206765742072616e6460448201527f6f6d0000000000000000000000000000000000000000000000000000000000006064820152608401610685565b60008467ffffffffffffffff811115611d0057611d006123c5565b604051908082528060200260200182016040528015611d29578160200160208202803683370190505b508251909150611d3a9085906127bd565b431015611d895760405162461bcd60e51b815260206004820152601c60248201527f746f6f206561726c7920746f206765742072616e646f6d2073656564000000006044820152606401610685565b8151600090611d999060026127bd565b604080519140602083018190529250600091016040516020818303038152906040528051906020012060001c905060005b878160ff161015611e2d576000611de2606484612808565b905080858360ff1681518110611dfa57611dfa61251e565b60ff90921660209283029190910190910152611e176064846127d5565b9250508080611e259061281c565b915050611dca565b5091979650505050505050565b60008083611e4987600161283b565b60ff16611e5691906127d5565b9050611e6283826127e9565b611e6c90866127bd565b9695505050505050565b60006001600160a01b0384163b1561200c576040517f150b7a020000000000000000000000000000000000000000000000000000000081526001600160a01b0385169063150b7a0290611ed3903390899088908890600401612860565b6020604051808303816000875af1925050508015611f0e575060408051601f3d908101601f19168201909252611f0b91810190612892565b60015b611fc1573d808015611f3c576040519150601f19603f3d011682016040523d82523d6000602084013e611f41565b606091505b508051600003611fb95760405162461bcd60e51b815260206004820152603260248201527f4552433732313a207472616e7366657220746f206e6f6e20455243373231526560448201527f63656976657220696d706c656d656e74657200000000000000000000000000006064820152608401610685565b805181602001fd5b7fffffffff00000000000000000000000000000000000000000000000000000000167f150b7a02000000000000000000000000000000000000000000000000000000001490506110b6565b5060016110b6565b606082826040516020016120299291906128af565b604051602081830303815290604052905092915050565b6000807a184f03e93ff9f4daa797ed6e38ed64bf6a1f0100000000000000008310612089577a184f03e93ff9f4daa797ed6e38ed64bf6a1f010000000000000000830492506040015b6d04ee2d6d415b85acef810000000083106120b5576d04ee2d6d415b85acef8100000000830492506020015b662386f26fc1000083106120d357662386f26fc10000830492506010015b6305f5e10083106120eb576305f5e100830492506008015b61271083106120ff57612710830492506004015b60648310612111576064830492506002015b600a83106105365760010192915050565b604051806101a00160405280600d905b60608152602001906001900390816121325790505090565b7fffffffff0000000000000000000000000000000000000000000000000000000081168114610fc157600080fd5b60006020828403121561218a57600080fd5b81356121958161214a565b9392505050565b60005b838110156121b757818101518382015260200161219f565b83811115610c215750506000910152565b600081518084526121e081602086016020860161219c565b601f01601f19169290920160200192915050565b60208152600061219560208301846121c8565b60006020828403121561221957600080fd5b5035919050565b80356001600160a01b038116811461223757600080fd5b919050565b6000806040838503121561224f57600080fd5b61225883612220565b946020939093013593505050565b60008060006060848603121561227b57600080fd5b61228484612220565b925061229260208501612220565b9150604084013590509250925092565b6020808252825182820181905260009190848201906040850190845b818110156122da578351835292840192918401916001016122be565b50909695505050505050565b6000602082840312156122f857600080fd5b61219582612220565b634e487b7160e01b600052602160045260246000fd5b6000610120820190508a82526001600160a01b038a1660208301528860408301528760608301528660808301528560a08301528460c08301528360e08301526003831061237457634e487b7160e01b600052602160045260246000fd5b826101008301529a9950505050505050505050565b6000806040838503121561239c57600080fd5b6123a583612220565b9150602083013580151581146123ba57600080fd5b809150509250929050565b634e487b7160e01b600052604160045260246000fd5b600080600080608085870312156123f157600080fd5b6123fa85612220565b935061240860208601612220565b925060408501359150606085013567ffffffffffffffff8082111561242c57600080fd5b818701915087601f83011261244057600080fd5b813581811115612452576124526123c5565b604051601f8201601f19908116603f0116810190838211818310171561247a5761247a6123c5565b816040528281528a602084870101111561249357600080fd5b82602086016020830137600060208483010152809550505050505092959194509250565b600080604083850312156124ca57600080fd5b6124d383612220565b91506124e160208401612220565b90509250929050565b600181811c908216806124fe57607f821691505b602082108103610dfd57634e487b7160e01b600052602260045260246000fd5b634e487b7160e01b600052603260045260246000fd5b634e487b7160e01b600052601160045260246000fd5b6000600019820361255d5761255d612534565b5060010190565b8054600090600181811c908083168061257e57607f831692505b6020808410820361259f57634e487b7160e01b600052602260045260246000fd5b8180156125b357600181146125c4576125f1565b60ff198616895284890196506125f1565b60008881526020902060005b868110156125e95781548b8201529085019083016125d0565b505084890196505b50505050505092915050565b7f646174613a6170706c69636174696f6e2f6a736f6e3b6261736536342c00000081526000612195601d830184612564565b7f7b226e616d65223a20224d55736572202300000000000000000000000000000081526000845161266781601185016020890161219c565b7f222c20226465736372697074696f6e223a22000000000000000000000000000060119184019182015261269e6023820186612564565b90507f222c22696d616765223a2022646174613a696d6167652f7376672b786d6c3b6281527f61736536342c0000000000000000000000000000000000000000000000000000602082015283516126fc81602684016020880161219c565b7f227d0000000000000000000000000000000000000000000000000000000000006026929091019182015260280195945050505050565b7f646174613a6170706c69636174696f6e2f6a736f6e3b6261736536342c00000081526000825161276b81601d85016020870161219c565b91909101601d0192915050565b6000835161278a81846020880161219c565b83519083019061279e81836020880161219c565b01949350505050565b634e487b7160e01b600052601260045260246000fd5b600082198211156127d0576127d0612534565b500190565b6000826127e4576127e46127a7565b500490565b600081600019048311821515161561280357612803612534565b500290565b600082612817576128176127a7565b500690565b600060ff821660ff810361283257612832612534565b60010192915050565b600060ff821660ff84168060ff0382111561285857612858612534565b019392505050565b60006001600160a01b03808716835280861660208401525083604083015260806060830152611e6c60808301846121c8565b6000602082840312156128a457600080fd5b81516121958161214a565b600083516128c181846020880161219c565b7f203a20000000000000000000000000000000000000000000000000000000000090830190815283516128fb81600384016020880161219c565b0160030194935050505056fe3c2f746578743e3c7465787420783d2231302220793d2236302220636c6173733d2262617365223e3c2f746578743e3c7465787420783d2231302220793d223132302220636c6173733d2262617365223e3c2f746578743e3c7465787420783d2231302220793d2238302220636c6173733d2262617365223e3c2f746578743e3c7465787420783d2231302220793d223130302220636c6173733d2262617365223e3c73766720786d6c6e733d22687474703a2f2f7777772e77332e6f72672f323030302f73766722207072657365727665417370656374526174696f3d22784d696e594d696e206d656574222076696577426f783d223020302033353020333530223e3c7374796c653e2e62617365207b2066696c6c3a2077686974653b20666f6e742d66616d696c793a2073657269663b20666f6e742d73697a653a20313470783b207d3c2f7374796c653e3c726563742077696474683d223130302522206865696768743d2231303025222066696c6c3d22626c61636b22202f3e3c7465787420783d2231302220793d2232302220636c6173733d2262617365223e4142434445464748494a4b4c4d4e4f505152535455565758595a6162636465666768696a6b6c6d6e6f707172737475767778797a303132333435363738392b2f3c2f746578743e3c7465787420783d2231302220793d2234302220636c6173733d2262617365223ea264697066735822122003ace7af5d997fd09cf3999251cad8fecb112c4383e7faf8fc8eaabd3112f22d64736f6c634300080d0033",
    "linkReferences": {}
  },
  "methodIdentifiers": {
    "approve(address,uint256)": "095ea7b3",
    "balanceOf(address)": "70a08231",
    "getApproved(uint256)": "081812fc",
    "getStructInfo(uint256)": "53bbd6a7",
    "getUserTokenIdList()": "43a47162",
    "isApprovedForAll(address,address)": "e985e9c5",
    "mint(address)": "6a627842",
    "name()": "06fdde03",
    "owner()": "8da5cb5b",
    "ownerOf(uint256)": "6352211e",
    "randomId()": "0ab14d8a",
    "randomList(uint256)": "cba86e23",
    "revealNFT(uint256)": "d5608f9a",
    "safeTransferFrom(address,address,uint256)": "42842e0e",
    "safeTransferFrom(address,address,uint256,bytes)": "b88d4fde",
    "setApprovalForAll(address,bool)": "a22cb465",
    "supportsInterface(bytes4)": "01ffc9a7",
    "symbol()": "95d89b41",
    "tokenId()": "17d70f7c",
    "tokenURI(uint256)": "c87b56dd",
    "transferFrom(address,address,uint256)": "23b872dd",
    "userList(uint256)": "9f4216e8",
    "waitBlockCount()": "3e8474ca"
  },
  "id": 175
}