{
  "abi": [
    {
      "inputs": [
        {
          "internalType": "uint256",
          "name": "length",
          "type": "uint256"
        }
      ],
      "name": "PackedCounter_InvalidLength",
      "type": "error"
    },
    {
      "inputs": [
        {
          "internalType": "uint256",
          "name": "length",
          "type": "uint256"
        }
      ],
      "name": "SchemaLib_InvalidLength",
      "type": "error"
    },
    {
      "inputs": [],
      "name": "SchemaLib_StaticTypeAfterDynamicType",
      "type": "error"
    },
    {
      "inputs": [
        {
          "internalType": "bytes",
          "name": "data",
          "type": "bytes"
        },
        {
          "internalType": "uint256",
          "name": "start",
          "type": "uint256"
        },
        {
          "internalType": "uint256",
          "name": "end",
          "type": "uint256"
        }
      ],
      "name": "Slice_OutOfBounds",
      "type": "error"
    },
    {
      "inputs": [
        {
          "internalType": "uint256",
          "name": "length",
          "type": "uint256"
        },
        {
          "internalType": "uint256",
          "name": "received",
          "type": "uint256"
        }
      ],
      "name": "StoreCore_DataIndexOverflow",
      "type": "error"
    },
    {
      "inputs": [
        {
          "internalType": "uint256",
          "name": "expected",
          "type": "uint256"
        },
        {
          "internalType": "uint256",
          "name": "received",
          "type": "uint256"
        }
      ],
      "name": "StoreCore_InvalidDataLength",
      "type": "error"
    },
    {
      "inputs": [],
      "name": "StoreCore_NotDynamicField",
      "type": "error"
    },
    {
      "anonymous": false,
      "inputs": [
        {
          "indexed": false,
          "internalType": "address",
          "name": "player",
          "type": "address"
        },
        {
          "indexed": false,
          "internalType": "address",
          "name": "target",
          "type": "address"
        }
      ],
      "name": "AttackStart",
      "type": "event"
    },
    {
      "anonymous": false,
      "inputs": [
        {
          "indexed": false,
          "internalType": "uint256",
          "name": "battleId",
          "type": "uint256"
        },
        {
          "indexed": false,
          "internalType": "address",
          "name": "sender",
          "type": "address"
        },
        {
          "indexed": false,
          "internalType": "bytes32",
          "name": "buffHash",
          "type": "bytes32"
        }
      ],
      "name": "BattleConfirmed",
      "type": "event"
    },
    {
      "inputs": [
        {
          "internalType": "address",
          "name": "_targetAddress",
          "type": "address"
        },
        {
          "components": [
            {
              "internalType": "uint16",
              "name": "x",
              "type": "uint16"
            },
            {
              "internalType": "uint16",
              "name": "y",
              "type": "uint16"
            },
            {
              "internalType": "bytes32[]",
              "name": "proof",
              "type": "bytes32[]"
            }
          ],
          "internalType": "struct Position[]",
          "name": "positionList",
          "type": "tuple[]"
        }
      ],
      "name": "battleInvitation",
      "outputs": [],
      "stateMutability": "nonpayable",
      "type": "function"
    },
    {
      "inputs": [
        {
          "internalType": "bytes32",
          "name": "_buffHash",
          "type": "bytes32"
        },
        {
          "internalType": "uint256",
          "name": "_battleId",
          "type": "uint256"
        }
      ],
      "name": "confirmBattle",
      "outputs": [],
      "stateMutability": "nonpayable",
      "type": "function"
    },
    {
      "inputs": [],
      "name": "goHome",
      "outputs": [],
      "stateMutability": "nonpayable",
      "type": "function"
    },
    {
      "inputs": [
        {
          "internalType": "address",
          "name": "_player",
          "type": "address"
        }
      ],
      "name": "initPlayerHp",
      "outputs": [
        {
          "internalType": "uint256",
          "name": "",
          "type": "uint256"
        }
      ],
      "stateMutability": "view",
      "type": "function"
    },
    {
      "inputs": [],
      "name": "joinBattlefield",
      "outputs": [],
      "stateMutability": "nonpayable",
      "type": "function"
    }
  ],
  "bytecode": {
    "object": "0x608060405234801561001057600080fd5b50615bad80620000216000396000f3fe608060405234801561001057600080fd5b50600436106100675760003560e01c8063864924d611610050578063864924d6146100945780639055c111146100b95780639ebfc58a146100c157600080fd5b806362ca21621461006c57806368747c4114610081575b600080fd5b61007f61007a36600461536c565b6100c9565b005b61007f61008f36600461544b565b6102b8565b6100a76100a23660046155be565b61061c565b60405190815260200160405180910390f35b61007f6106ae565b61007f6107fd565b60006100d482610918565b90506100e9816100e2610a3d565b6000610a6f565b6101127fd1339036fc56bed2f5d5cf59ecb6aa2cb46611189a4a1a96a51eec50fc76ee24610bef565b6101a082015161012290426155ef565b106101745760405162461bcd60e51b815260206004820152601160248201527f426174746c652069732074696d656f757400000000000000000000000000000060448201526064015b60405180910390fd5b600061017e610a3d565b6001600160a01b031682600001516001600160a01b0316146101a5578161010001516101ab565b8160e001515b905060008160028111156101c1576101c1615606565b1461020e5760405162461bcd60e51b815260206004820152601e60248201527f596f75206861766520616c72656164792073656c656374656420627566660000604482015260640161016b565b610216610a3d565b6001600160a01b031682600001516001600160a01b03160361024c5761023c8385610c92565b610247836001610d49565b610261565b6102568385610e19565b610261836001610eaf565b7fb4b5bee4641b07ea4f3fa70a06624aadb1c41568da81d1c2bd67456bdbb179d88361028b610a3d565b604080519283526001600160a01b039091166020830152810186905260600160405180910390a150505050565b600081511180156102f257506102ed7fd1339036fc56bed2f5d5cf59ecb6aa2cb46611189a4a1a96a51eec50fc76ee24610f44565b815111155b61033e5760405162461bcd60e51b815260206004820152601760248201527f696e76616c69642061747461636b2064697374616e6365000000000000000000604482015260640161016b565b600261035061034b610a3d565b610fd5565b600381111561036157610361615606565b1480156103875750600261037483610fd5565b600381111561038557610385615606565b145b6103f95760405162461bcd60e51b815260206004820152602660248201527f4561636820706c61796572206d75737420626520696e206578706c6f72696e6760448201527f2073746174650000000000000000000000000000000000000000000000000000606482015260840161016b565b806001825161040891906155ef565b815181106104185761041861561c565b60200260200101516000015161ffff166104318361108d565b61ffff1614801561047b5750806001825161044c91906155ef565b8151811061045c5761045c61561c565b60200260200101516020015161ffff166104758361113c565b61ffff16145b6104ed5760405162461bcd60e51b815260206004820152602760248201527f546172676574206d75737420626520696e2074686520656e64206f6620636f6e60448201527f74696e7569747900000000000000000000000000000000000000000000000000606482015260840161016b565b6104fe6104f8610a3d565b826111d3565b610510610509610a3d565b6003611552565b61051b826003611552565b60006105467f155015ae9c496f0f6fd931019b5913c67e630cdcf50b1101aeda4bb69f21060e61163e565b905061055981610554610a3d565b6116cd565b6105638184611776565b61056d814261181f565b6105868161058161057c610a3d565b6118b5565b61194c565b61059881610593856118b5565b6119e2565b6105cc7f155015ae9c496f0f6fd931019b5913c67e630cdcf50b1101aeda4bb69f21060e6105c7836001615632565b611a78565b7f90fa5827ec2a35000b150f4d653dcc8e43f4cced53a7c6aa0d4f9c77be2c2f766105f5610a3d565b604080516001600160a01b03928316815291861660208301520160405180910390a1505050565b60008061062883611b22565b90506000610635846118b5565b90506000610642856118b5565b90508181111561065457509392505050565b600061066084426155ef565b90506000836064610672600a85615660565b61067c9190615660565b6106869190615674565b90506106928184615632565b92508383116106a157826106a3565b835b979650505050505050565b60006106c06106bb610a3d565b611bb9565b9050600281610180015160038111156106db576106db615606565b146107285760405162461bcd60e51b815260206004820152601d60248201527f596f752073686f756c6420696e206578706c6f72696e67207374617465000000604482015260640161016b565b6107517f155015ae9c496f0f6fd931019b5913c67e630cdcf50b1101aeda4bb69f21060e611c5e565b61ffff16816040015161ffff1614801561079e575061078f7f155015ae9c496f0f6fd931019b5913c67e630cdcf50b1101aeda4bb69f21060e611ced565b61ffff16816060015161ffff16145b6107ea5760405162461bcd60e51b815260206004820152601f60248201527f596f7520617265206e6f7420696e20746865206f726967696e20706f696e7400604482015260640161016b565b6107fa6107f5610a3d565b611d7c565b50565b6000610807610a3d565b9050600061081482610fd5565b9050600181600381111561082a5761082a615606565b14806108475750600081600381111561084557610845615606565b145b6108935760405162461bcd60e51b815260206004820152601d60248201527f596f752073686f756c6420696e20707265706172696e67207374617465000000604482015260640161016b565b6108c5826108c07f155015ae9c496f0f6fd931019b5913c67e630cdcf50b1101aeda4bb69f21060e611c5e565b611f45565b6108f7826108f27f155015ae9c496f0f6fd931019b5913c67e630cdcf50b1101aeda4bb69f21060e611ced565b612006565b610902826002611552565b6109148261090f8461061c565b6120c7565b5050565b6109986040805161020081018252600080825260208201819052918101829052606081018290526080810182905260a0810182905260c081018290529060e082019081526020016000815260006020820181905260408201819052606082018190526080820181905260a0820181905260c0820181905260e09091015290565b604080516001808252818301909252600091602080830190803683370190505090508260001b816000815181106109d1576109d161561c565b6020908102919091018101919091526040805160009281018390526910985d1d1b19531a5cdd60b21b6030820152610a2a9101604051602081830303815290604052610a1c90615693565b83610a25612162565b6125e8565b9050610a35816126b0565b949350505050565b7fffffffffffffffffffffffffffffffffffffffffffffffffffffffffffffffec36013560601c80610a6c5750335b90565b6000826001600160a01b031684600001516001600160a01b031614610a9957836101000151610a9f565b8360e001515b9050826001600160a01b031684600001516001600160a01b03161480610ada5750826001600160a01b031684602001516001600160a01b0316145b610b265760405162461bcd60e51b815260206004820152601b60248201527f596f7520617265206e6f7420696e2074686973205f626174746c650000000000604482015260640161016b565b816002811115610b3857610b38615606565b816002811115610b4a57610b4a615606565b14610b975760405162461bcd60e51b815260206004820152601a60248201527f596f752061726520696e207468652077726f6e67207374617465000000000000604482015260640161016b565b8360c0015115610be95760405162461bcd60e51b815260206004820152600d60248201527f426174746c6520697320656e6400000000000000000000000000000000000000604482015260640161016b565b50505050565b604080516001808252818301909252600091829190602080830190803683370190505090508281600081518110610c2857610c2861561c565b6020908102919091018101919091526040805160009281018390526b426174746c65436f6e66696760a01b6030820152610c859101604051602081830303815290604052610c7590615693565b836002610c806128ca565b612a5e565b9050610a35816000612b20565b604080516001808252818301909252600091602080830190803683370190505090508260001b81600081518110610ccb57610ccb61561c565b602090810291909101810191909152604080516000818401526910985d1d1b19531a5cdd60b21b60308201528151808203909301835281019052610d4490610d1290615693565b82600b85604051602001610d2891815260200190565b604051602081830303815290604052610d3f612162565b612b2e565b505050565b604080516001808252818301909252600091602080830190803683370190505090508260001b81600081518110610d8257610d8261561c565b602090810291909101810191909152604080516000818401526910985d1d1b19531a5cdd60b21b60308201528151808203909301835281019052610d4490610dc990615693565b826007856002811115610dde57610dde615606565b604051602001610d28919060f89190911b7fff0000000000000000000000000000000000000000000000000000000000000016815260010190565b604080516001808252818301909252600091602080830190803683370190505090508260001b81600081518110610e5257610e5261561c565b602090810291909101810191909152604080516000818401526910985d1d1b19531a5cdd60b21b60308201528151808203909301835281019052610d4490610e9990615693565b82600c85604051602001610d2891815260200190565b604080516001808252818301909252600091602080830190803683370190505090508260001b81600081518110610ee857610ee861561c565b602090810291909101810191909152604080516000818401526910985d1d1b19531a5cdd60b21b60308201528151808203909301835281019052610d4490610f2f90615693565b826008856002811115610dde57610dde615606565b604080516001808252818301909252600091829190602080830190803683370190505090508281600081518110610f7d57610f7d61561c565b6020908102919091018101919091526040805160009281018390526b426174746c65436f6e66696760a01b6030820152610c859101604051602081830303815290604052610fca90615693565b836000610c806128ca565b60408051600180825281830190925260009182919060208083019080368337019050509050826001600160a01b031660001b8160008151811061101a5761101a61561c565b60209081029190910181019190915260408051600092810183905265283630bcb2b960d11b603082015261106c910160405160208183030381529060405261106190615693565b83600c610c80612be4565b9050611079816000612b20565b60f81c6003811115610a3557610a35615606565b60408051600180825281830190925260009182919060208083019080368337019050509050826001600160a01b031660001b816000815181106110d2576110d261561c565b60209081029190910181019190915260408051600092810183905265283630bcb2b960d11b6030820152611124910160405160208183030381529060405261111990615693565b836002610c80612be4565b9050611131816000612b20565b60f01c949350505050565b60408051600180825281830190925260009182919060208083019080368337019050509050826001600160a01b031660001b816000815181106111815761118161561c565b60209081029190910181019190915260408051600092810183905265283630bcb2b960d11b603082015261112491016040516020818303038152906040526111c890615693565b836003610c80612be4565b600160005b8251811015610be95760008082116111f8576111f38561108d565b611221565b836112046001846155ef565b815181106112145761121461561c565b6020026020010151600001515b9050600080831161123a576112358661113c565b611263565b846112466001856155ef565b815181106112565761125661561c565b6020026020010151602001515b90506112ae6040518060400160405280600881526020017f2073746570203a20000000000000000000000000000000000000000000000000815250848461ffff168461ffff16613071565b6001831115611339576113396040518060400160405280600881526020017f206d6f7665203a200000000000000000000000000000000000000000000000008152508685815181106113025761130261561c565b60200260200101516000015161ffff168786815181106113245761132461561c565b60200260200101516020015161ffff166130e8565b61137f85848151811061134e5761134e61561c565b6020026020010151600001518387868151811061136d5761136d61561c565b6020026020010151602001518461315d565b6113cb5760405162461bcd60e51b815260206004820152600d60248201527f696e76616c696564206d6f766500000000000000000000000000000000000000604482015260640161016b565b60008584815181106113df576113df61561c565b602002602001015190506000816000015182602001518760405160200161149a9392919060f093841b7fffff00000000000000000000000000000000000000000000000000000000000090811682527f2c00000000000000000000000000000000000000000000000000000000000000600283018190529390941b9093166003840152600583019190915260f81b7fff0000000000000000000000000000000000000000000000000000000000000016600682015260070190565b60405160208183030381529060405280519060200120905060006114eb83604001516114e57f155015ae9c496f0f6fd931019b5913c67e630cdcf50b1101aeda4bb69f21060e6131ae565b8461323d565b90508061153a5760405162461bcd60e51b815260206004820152600c60248201527f62616420706f736974696f6e0000000000000000000000000000000000000000604482015260640161016b565b5050505050808061154a906156b7565b9150506111d8565b60408051600180825281830190925260009160208083019080368337019050509050826001600160a01b031660001b816000815181106115945761159461561c565b6020908102919091018101919091526040805160008184015265283630bcb2b960d11b60308201528151808203909301835281019052610d44906115d790615693565b82600c8560038111156115ec576115ec615606565b604051602001611627919060f89190911b7fff0000000000000000000000000000000000000000000000000000000000000016815260010190565b604051602081830303815290604052610d3f612be4565b6040805160018082528183019092526000918291906020808301908036833701905050905082816000815181106116775761167761561c565b6020908102919091018101919091526040805160009281018390526947616d65436f6e66696760b01b6030820152610c8591016040516020818303038152906040526116c290615693565b836001610c80613253565b604080516001808252818301909252600091602080830190803683370190505090508260001b816000815181106117065761170661561c565b602090810291909101810191909152604080516000818401526910985d1d1b19531a5cdd60b21b60308201528151808203909301835281019052610d449061174d90615693565b6040516bffffffffffffffffffffffff19606086901b1660208201528390600090603401610d28565b604080516001808252818301909252600091602080830190803683370190505090508260001b816000815181106117af576117af61561c565b602090810291909101810191909152604080516000818401526910985d1d1b19531a5cdd60b21b60308201528151808203909301835281019052610d44906117f690615693565b6040516bffffffffffffffffffffffff19606086901b1660208201528390600190603401610d28565b604080516001808252818301909252600091602080830190803683370190505090508260001b816000815181106118585761185861561c565b602090810291909101810191909152604080516000818401526910985d1d1b19531a5cdd60b21b60308201528151808203909301835281019052610d449061189f90615693565b82600d85604051602001610d2891815260200190565b60408051600180825281830190925260009182919060208083019080368337019050509050826001600160a01b031660001b816000815181106118fa576118fa61561c565b60209081029190910181019190915260408051600092810183905265283630bcb2b960d11b6030820152610c85910160405160208183030381529060405261194190615693565b836004610c80612be4565b604080516001808252818301909252600091602080830190803683370190505090508260001b816000815181106119855761198561561c565b602090810291909101810191909152604080516000818401526910985d1d1b19531a5cdd60b21b60308201528151808203909301835281019052610d44906119cc90615693565b82600485604051602001610d2891815260200190565b604080516001808252818301909252600091602080830190803683370190505090508260001b81600081518110611a1b57611a1b61561c565b602090810291909101810191909152604080516000818401526910985d1d1b19531a5cdd60b21b60308201528151808203909301835281019052610d4490611a6290615693565b82600585604051602001610d2891815260200190565b604080516001808252818301909252600091602080830190803683370190505090508281600081518110611aae57611aae61561c565b602090810291909101810191909152604080516000818401526947616d65436f6e66696760b01b60308201528151808203909301835281019052610d4490611af590615693565b82600185604051602001611b0b91815260200190565b604051602081830303815290604052610d3f613253565b60408051600180825281830190925260009182919060208083019080368337019050509050826001600160a01b031660001b81600081518110611b6757611b6761561c565b60209081029190910181019190915260408051600092810183905265283630bcb2b960d11b6030820152610c859101604051602081830303815290604052611bae90615693565b83600d610c80612be4565b611bc16152c7565b60408051600180825281830190925260009160208083019080368337019050509050826001600160a01b031660001b81600081518110611c0357611c0361561c565b60209081029190910181019190915260408051600092810183905265283630bcb2b960d11b6030820152611c539101604051602081830303815290604052611c4a90615693565b83610a25612be4565b9050610a358161342d565b604080516001808252818301909252600091829190602080830190803683370190505090508281600081518110611c9757611c9761561c565b6020908102919091018101919091526040805160009281018390526947616d65436f6e66696760b01b60308201526111249101604051602081830303815290604052611ce290615693565b836003610c80613253565b604080516001808252818301909252600091829190602080830190803683370190505090508281600081518110611d2657611d2661561c565b6020908102919091018101919091526040805160009281018390526947616d65436f6e66696760b01b60308201526111249101604051602081830303815290604052611d7190615693565b836004610c80613253565b6002611d8782610fd5565b6003811115611d9857611d98615606565b14611de55760405162461bcd60e51b815260206004820152601d60248201527f596f752073686f756c6420696e206578706c6f72696e67207374617465000000604482015260640161016b565b611df28161090f836135e7565b60005b611e1e7fd1339036fc56bed2f5d5cf59ecb6aa2cb46611189a4a1a96a51eec50fc76ee2461367e565b811015611f2f57816001600160a01b0316611e597fd1339036fc56bed2f5d5cf59ecb6aa2cb46611189a4a1a96a51eec50fc76ee2483613720565b6001600160a01b031603611f1d57611eef7fd1339036fc56bed2f5d5cf59ecb6aa2cb46611189a4a1a96a51eec50fc76ee2482611eea7fd1339036fc56bed2f5d5cf59ecb6aa2cb46611189a4a1a96a51eec50fc76ee246001611edb7fd1339036fc56bed2f5d5cf59ecb6aa2cb46611189a4a1a96a51eec50fc76ee2461367e565b611ee591906155ef565b613720565b6137da565b611f187fd1339036fc56bed2f5d5cf59ecb6aa2cb46611189a4a1a96a51eec50fc76ee2461389e565b611f2f565b80611f27816156b7565b915050611df5565b50611f3b816001611552565b6107fa814261392f565b60408051600180825281830190925260009160208083019080368337019050509050826001600160a01b031660001b81600081518110611f8757611f8761561c565b6020908102919091018101919091526040805160008184015265283630bcb2b960d11b60308201528151808203909301835281019052610d4490611fca90615693565b6040517fffff00000000000000000000000000000000000000000000000000000000000060f086901b1660208201528390600290602201611627565b60408051600180825281830190925260009160208083019080368337019050509050826001600160a01b031660001b816000815181106120485761204861561c565b6020908102919091018101919091526040805160008184015265283630bcb2b960d11b60308201528151808203909301835281019052610d449061208b90615693565b6040517fffff00000000000000000000000000000000000000000000000000000000000060f086901b1660208201528390600390602201611627565b60408051600180825281830190925260009160208083019080368337019050509050826001600160a01b031660001b816000815181106121095761210961561c565b6020908102919091018101919091526040805160008184015265283630bcb2b960d11b60308201528151808203909301835281019052610d449061214c90615693565b8260048560405160200161162791815260200190565b6040805160108082526102208201909252600091829190602082016102008036833701905050905060618160008151811061219f5761219f61561c565b602002602001019060c58111156121b8576121b8615606565b908160c58111156121cb576121cb615606565b815250506061816001815181106121e4576121e461561c565b602002602001019060c58111156121fd576121fd615606565b908160c581111561221057612210615606565b815250506061816002815181106122295761222961561c565b602002602001019060c581111561224257612242615606565b908160c581111561225557612255615606565b8152505060018160038151811061226e5761226e61561c565b602002602001019060c581111561228757612287615606565b908160c581111561229a5761229a615606565b81525050601f816004815181106122b3576122b361561c565b602002602001019060c58111156122cc576122cc615606565b908160c58111156122df576122df615606565b81525050601f816005815181106122f8576122f861561c565b602002602001019060c581111561231157612311615606565b908160c581111561232457612324615606565b8152505060608160068151811061233d5761233d61561c565b602002602001019060c581111561235657612356615606565b908160c581111561236957612369615606565b815250506000816007815181106123825761238261561c565b602002602001019060c581111561239b5761239b615606565b908160c58111156123ae576123ae615606565b815250506000816008815181106123c7576123c761561c565b602002602001019060c58111156123e0576123e0615606565b908160c58111156123f3576123f3615606565b81525050605f8160098151811061240c5761240c61561c565b602002602001019060c581111561242557612425615606565b908160c581111561243857612438615606565b81525050605f81600a815181106124515761245161561c565b602002602001019060c581111561246a5761246a615606565b908160c581111561247d5761247d615606565b81525050605f81600b815181106124965761249661561c565b602002602001019060c58111156124af576124af615606565b908160c58111156124c2576124c2615606565b81525050605f81600c815181106124db576124db61561c565b602002602001019060c58111156124f4576124f4615606565b908160c581111561250757612507615606565b81525050601f81600d815181106125205761252061561c565b602002602001019060c581111561253957612539615606565b908160c581111561254c5761254c615606565b81525050601f81600e815181106125655761256561561c565b602002602001019060c581111561257e5761257e615606565b908160c581111561259157612591615606565b81525050601f81600f815181106125aa576125aa61561c565b602002602001019060c58111156125c3576125c3615606565b908160c58111156125d6576125d6615606565b9052506125e2816139ca565b91505090565b606060006125f4613b45565b9050306001600160a01b0382160361261957612611858585613b84565b9150506126a9565b6040517f419b58fd0000000000000000000000000000000000000000000000000000000081526001600160a01b0382169063419b58fd906126629088908890889060040161570c565b600060405180830381865afa15801561267f573d6000803e3d6000fd5b505050506040513d6000823e601f3d908101601f191682016040526126119190810190615761565b505b9392505050565b6127306040805161020081018252600080825260208201819052918101829052606081018290526080810182905260a0810182905260c081018290529060e082019081526020016000815260006020820181905260408201819052606082018190526080820181905260a0820181905260c0820181905260e09091015290565b61273b826000612b20565b60601c815261274b826014612b20565b60601c602082015261275e826028612b20565b60601c604082015261277182603c612b20565b60f01c606082015261278482603e612b20565b608082015261279482605e612b20565b60a08201526127ad6127a783607e612b20565b60f81c90565b151560c08201526127bf82607f612b20565b60f81c60028111156127d3576127d3615606565b8160e0019060028111156127e9576127e9615606565b908160028111156127fc576127fc615606565b90525061280a826080612b20565b60f81c600281111561281e5761281e615606565b816101000190600281111561283557612835615606565b9081600281111561284857612848615606565b905250612856826081612b20565b6101208201526128678260a1612b20565b6101408201526128788260c1612b20565b6101608201526128898260e1612b20565b61018082015261289b82610101612b20565b6101a08201526128ad82610121612b20565b6101c08201526128bf82610141612b20565b6101e0820152919050565b60408051600680825260e082019092526000918291906020820160c080368337019050509050601f816000815181106129055761290561561c565b602002602001019060c581111561291e5761291e615606565b908160c581111561293157612931615606565b81525050601f8160018151811061294a5761294a61561c565b602002602001019060c581111561296357612963615606565b908160c581111561297657612976615606565b81525050601f8160028151811061298f5761298f61561c565b602002602001019060c58111156129a8576129a8615606565b908160c58111156129bb576129bb615606565b81525050601f816003815181106129d4576129d461561c565b602002602001019060c58111156129ed576129ed615606565b908160c5811115612a0057612a00615606565b81525050601f81600481518110612a1957612a1961561c565b602002602001019060c5811115612a3257612a32615606565b908160c5811115612a4557612a45615606565b8152505060c3816005815181106125aa576125aa61561c565b60606000612a6a613b45565b9050306001600160a01b03821603612a9057612a8886868686613cee565b915050610a35565b6040517f05242d2f0000000000000000000000000000000000000000000000000000000081526001600160a01b038216906305242d2f90612adb9089908990899089906004016157f5565b600060405180830381865afa158015612af8573d6000803e3d6000fd5b505050506040513d6000823e601f3d908101601f19168201604052612a889190810190615761565b818101602001515b92915050565b6000612b38613b45565b9050306001600160a01b03821603612b5c57612b578686868686613d22565b612bdc565b6040517f3708196e0000000000000000000000000000000000000000000000000000000081526001600160a01b03821690633708196e90612ba99089908990899089908990600401615850565b600060405180830381600087803b158015612bc357600080fd5b505af1158015612bd7573d6000803e3d6000fd5b505050505b505050505050565b60408051601180825261024082019092526000918291906020820161022080368337019050509050601f81600081518110612c2157612c2161561c565b602002602001019060c5811115612c3a57612c3a615606565b908160c5811115612c4d57612c4d615606565b81525050601f81600181518110612c6657612c6661561c565b602002602001019060c5811115612c7f57612c7f615606565b908160c5811115612c9257612c92615606565b81525050600181600281518110612cab57612cab61561c565b602002602001019060c5811115612cc457612cc4615606565b908160c5811115612cd757612cd7615606565b81525050600181600381518110612cf057612cf061561c565b602002602001019060c5811115612d0957612d09615606565b908160c5811115612d1c57612d1c615606565b81525050601f81600481518110612d3557612d3561561c565b602002602001019060c5811115612d4e57612d4e615606565b908160c5811115612d6157612d61615606565b81525050601f81600581518110612d7a57612d7a61561c565b602002602001019060c5811115612d9357612d93615606565b908160c5811115612da657612da6615606565b81525050601f81600681518110612dbf57612dbf61561c565b602002602001019060c5811115612dd857612dd8615606565b908160c5811115612deb57612deb615606565b81525050601f81600781518110612e0457612e0461561c565b602002602001019060c5811115612e1d57612e1d615606565b908160c5811115612e3057612e30615606565b81525050601f81600881518110612e4957612e4961561c565b602002602001019060c5811115612e6257612e62615606565b908160c5811115612e7557612e75615606565b81525050601f81600981518110612e8e57612e8e61561c565b602002602001019060c5811115612ea757612ea7615606565b908160c5811115612eba57612eba615606565b81525050600181600a81518110612ed357612ed361561c565b602002602001019060c5811115612eec57612eec615606565b908160c5811115612eff57612eff615606565b81525050600181600b81518110612f1857612f1861561c565b602002602001019060c5811115612f3157612f31615606565b908160c5811115612f4457612f44615606565b81525050600081600c81518110612f5d57612f5d61561c565b602002602001019060c5811115612f7657612f76615606565b908160c5811115612f8957612f89615606565b81525050601f81600d81518110612fa257612fa261561c565b602002602001019060c5811115612fbb57612fbb615606565b908160c5811115612fce57612fce615606565b81525050601f81600e81518110612fe757612fe761561c565b602002602001019060c581111561300057613000615606565b908160c581111561301357613013615606565b8152505060c581600f8151811061302c5761302c61561c565b602002602001019060c581111561304557613045615606565b908160c581111561305857613058615606565b8152505060c5816010815181106125aa576125aa61561c565b610be98484848460405160240161308b9493929190615897565b60408051601f198184030181529190526020810180517bffffffffffffffffffffffffffffffffffffffffffffffffffffffff167f08ee566600000000000000000000000000000000000000000000000000000000179052613ef0565b610d44838383604051602401613100939291906158c6565b60408051601f198184030181529190526020810180517bffffffffffffffffffffffffffffffffffffffffffffffffffffffff167f969cdd0300000000000000000000000000000000000000000000000000000000179052613ef0565b60008061316a8686613f11565b905060006131788585613f11565b905060018261ffff1611158015613194575060018161ffff1611155b80156106a3575061ffff9182169116141595945050505050565b6040805160018082528183019092526000918291906020808301908036833701905050905082816000815181106131e7576131e761561c565b6020908102919091018101919091526040805160009281018390526947616d65436f6e66696760b01b6030820152610c85910160405160208183030381529060405261323290615693565b836000610c80613253565b60008261324a8584613f3e565b14949350505050565b60408051600780825261010082019092526000918291906020820160e080368337019050509050605f8160008151811061328f5761328f61561c565b602002602001019060c58111156132a8576132a8615606565b908160c58111156132bb576132bb615606565b81525050601f816001815181106132d4576132d461561c565b602002602001019060c58111156132ed576132ed615606565b908160c581111561330057613300615606565b81525050601f816002815181106133195761331961561c565b602002602001019060c581111561333257613332615606565b908160c581111561334557613345615606565b8152505060018160038151811061335e5761335e61561c565b602002602001019060c581111561337757613377615606565b908160c581111561338a5761338a615606565b815250506001816004815181106133a3576133a361561c565b602002602001019060c58111156133bc576133bc615606565b908160c58111156133cf576133cf615606565b81525050601f816005815181106133e8576133e861561c565b602002602001019060c581111561340157613401615606565b908160c581111561341457613414615606565b81525050601f816006815181106125aa576125aa61561c565b6134356152c7565b600061344383610149612b20565b9050613450836000612b20565b825261345d836020612b20565b602083015261346d836040612b20565b60f01c6040830152613480836042612b20565b60f01c6060830152613493836044612b20565b60808301526134a3836064612b20565b60a08301526134b3836084612b20565b60c08301526134c38360a4612b20565b60e08301526134d38360c4612b20565b6101008301526134e48360e4612b20565b6101208301526134f683610104612b20565b60f01c61014083015261350b83610106612b20565b60f01c61016083015261352083610108612b20565b60f81c600381111561353457613534615606565b826101800190600381111561354b5761354b615606565b9081600381111561355e5761355e615606565b90525061356d83610109612b20565b6101a083015261357f83610129612b20565b6101c0830152825161014910156135e157610169603882901c64ffffffffff1681016135b46135af868484613f83565b614013565b6101e085015290508064ffffffffff606084901c16016135d86135af868484613f83565b61020085015250505b50919050565b60408051600180825281830190925260009182919060208083019080368337019050509050826001600160a01b031660001b8160008151811061362c5761362c61561c565b60209081029190910181019190915260408051600092810183905265283630bcb2b960d11b6030820152610c85910160405160208183030381529060405261367390615693565b83600e610c80612be4565b6040805160018082528183019092526000918291906020808301908036833701905050905082816000815181106136b7576136b761561c565b6020908102919091018101919091526040805160009281018390526b426174746c65436f6e66696760a01b6030820152613714910160405160208183030381529060405261370490615693565b83600561370f6128ca565b614093565b60149004949350505050565b6040805160018082528183019092526000918291906020808301908036833701905050905083816000815181106137595761375961561c565b6020908102919091018101919091526040805160009281018390526b426174746c65436f6e66696760a01b60308201526137c191016040516020818303038152906040526137a690615693565b8360056137b16128ca565b8860140289600101601402614148565b90506137ce816000612b20565b60601c95945050505050565b6040805160018082528183019092526000916020808301908036833701905050905083816000815181106138105761381061561c565b602090810291909101810191909152604080516000818401526b426174746c65436f6e66696760a01b60308201528151808203909301835281019052610be99061385990615693565b6040516bffffffffffffffffffffffff19606086901b166020820152839060059060148802906034016040516020818303038152906040526138996128ca565b61421a565b6040805160018082528183019092526000916020808301908036833701905050905081816000815181106138d4576138d461561c565b602090810291909101810191909152604080516000818401526b426174746c65436f6e66696760a01b603082015281518082039093018352810190526109149061391d90615693565b826005601461392a6128ca565b6142d3565b60408051600180825281830190925260009160208083019080368337019050509050826001600160a01b031660001b816000815181106139715761397161561c565b6020908102919091018101919091526040805160008184015265283630bcb2b960d11b60308201528151808203909301835281019052610d44906139b490615693565b82600d8560405160200161162791815260200190565b6000601c82511115613a0d5781516040517f5318beb900000000000000000000000000000000000000000000000000000000815260040161016b91815260200190565b60008080805b8551811015613ae5576000613a51878381518110613a3357613a3361561c565b602002602001015160c5811115613a4c57613a4c615606565b614349565b905080600003613a6657600190920191613a9e565b8215613a9e576040517ff1e56be400000000000000000000000000000000000000000000000000000000815260040160405180910390fd5b808401935081601b03600802878381518110613abc57613abc61561c565b602002602001015160c5811115613ad557613ad5615606565b901b949094179350600101613a13565b506005811115613b24576040517f5318beb90000000000000000000000000000000000000000000000000000000081526004810182905260240161016b565b935160e085901b94900360e81b60f09190911b919091171791909117919050565b7f629a4c26e296b22a8e0856e9f6ecb2d1008d7e00081111962cd175fa7488e175546000906001600160a01b031680613b7f573391505090565b919050565b60606000613b928360f01c90565b905080600080613ba1866143a3565b90508015613be557613bb388886143b4565b915066ffffffffffffff821615613be557613bd866ffffffffffffff83166020615632565b613be29084615632565b92505b60008367ffffffffffffffff811115613c0057613c006153a5565b6040519080825280601f01601f191660200182016040528015613c2a576020820181803683370190505b50905060208101613c3d8a8a88846143cb565b66ffffffffffffff8416600003613c5b575094506126a99350505050565b613c658682615632565b8481529050613c75602082615632565b905060005b838160ff161015613cdf576000613c928c8c846143f3565b90506000613caf878460ff166028026038011c64ffffffffff1690565b9050613cbe828260008761444c565b613cc88185615632565b935050508080613cd7906158eb565b915050613c7a565b50909998505050505050505050565b6060613cf982614504565b8360ff161015613d1657613d0f8585858561450e565b9050610a35565b613d0f8585858561456e565b7fd01f9f1368f831528fc9fe6442366b2b7d957fbfff3bcf7c24d9ab5fe51f8c4685858585604051613d57949392919061590a565b60405180910390a16000613d6a866145d5565b905060005b8151811015613e10576000828281518110613d8c57613d8c61561c565b60200260200101519050806001600160a01b031663bf11b74e89898989896040518663ffffffff1660e01b8152600401613dca959493929190615850565b600060405180830381600087803b158015613de457600080fd5b505af1158015613df8573d6000803e3d6000fd5b50505050508080613e08906156b7565b915050613d6f565b50613e1a82614504565b8460ff161015613e3657613e3186868487876146ad565b613e43565b613e43868684878761475d565b60005b8151811015613ee7576000828281518110613e6357613e6361561c565b60200260200101519050806001600160a01b0316637da508a289898989896040518663ffffffff1660e01b8152600401613ea1959493929190615850565b600060405180830381600087803b158015613ebb57600080fd5b505af1158015613ecf573d6000803e3d6000fd5b50505050508080613edf906156b7565b915050613e46565b50505050505050565b80516a636f6e736f6c652e6c6f67602083016000808483855afa5050505050565b60008161ffff168361ffff161115613f3457613f2d828461593e565b9050612b28565b613f2d838361593e565b600081815b84518110156126a757613f6f82868381518110613f6257613f6261561c565b602002602001015161479c565b915080613f7b816156b7565b915050613f43565b6000818311158015613f96575083518211155b613fd2578383836040517f23230fa300000000000000000000000000000000000000000000000000000000815260040161016b939291906158c6565b60208401613fe08482615632565b90506000613fee85856155ef565b6fffffffffffffffffffffffffffffffff1660809290921b9190911795945050505050565b606060006140218360801c90565b90506fffffffffffffffffffffffffffffffff83168067ffffffffffffffff81111561404f5761404f6153a5565b6040519080825280601f01601f191660200182016040528015614079576020820181803683370190505b5092506020830161408b8382846147c8565b505050919050565b60008061409e613b45565b9050306001600160a01b038216036140bc57612a8886868686614814565b6040517f9f1fcf0a0000000000000000000000000000000000000000000000000000000081526001600160a01b03821690639f1fcf0a906141079089908990899089906004016157f5565b602060405180830381865afa158015614124573d6000803e3d6000fd5b505050506040513d601f19601f82011682018060405250810190612a889190615961565b60606000614154613b45565b9050306001600160a01b0382160361417c5761417488888888888861487b565b915050614210565b6040517fd3a26b060000000000000000000000000000000000000000000000000000000081526001600160a01b0382169063d3a26b06906141cb908b908b908b908b908b908b9060040161597a565b600060405180830381865afa1580156141e8573d6000803e3d6000fd5b505050506040513d6000823e601f3d908101601f191682016040526141749190810190615761565b9695505050505050565b6000614224613b45565b9050306001600160a01b038216036142495761424487878787878761490e565b613ee7565b6040517f319141480000000000000000000000000000000000000000000000000000000081526001600160a01b03821690633191414890614298908a908a908a908a908a908a906004016159bb565b600060405180830381600087803b1580156142b257600080fd5b505af11580156142c6573d6000803e3d6000fd5b5050505050505050505050565b60006142dd613b45565b9050306001600160a01b038216036142fc57612b578686868686614bad565b6040517f6e161b760000000000000000000000000000000000000000000000000000000081526001600160a01b03821690636e161b7690612ba99089908990899089908990600401615a09565b6000808260c581111561435e5761435e615606565b60ff169050606181101561437857601f1660010192915050565b60618360c581111561438c5761438c615606565b0361439a5750601492915050565b50600092915050565b600060e0825b60ff911c1692915050565b6000806143c18484614dc2565b9050610a35815490565b8115610be95760006143dd8585614e18565b90506143ec818460008561444c565b5050505050565b60007f86425bff6b57326c7859e89024fe4f238ca327a1ae4a230180dd2f0e88aaa7d984848460405160200161442c9493929190615a42565b60408051601f198184030181529190528051602090910120949350505050565b81156144be5760208210614476576020820484019350602082816144725761447261564a565b0691505b81156144be5760208290036000600019600883021c1990508554600885021b8119845116828216178452508185116144af575050610be9565b50600194909401939283900392015b5b602083106144e05783548152600190930192601f19909201916020016144bf565b8215610be9576000600019600885021c198251865482169119161782525050505050565b600060e8826143a9565b6060600061451f8360ff8616614e4f565b905060006145388260c5811115613a4c57613a4c615606565b905060006145468888614e18565b905060006145548688614e75565b9050614561828483614ec1565b9998505050505050505050565b6060600061457b83614504565b6145859085615a75565b905060006145948787846143f3565b905060006145bb836145a68a8a6143b4565b9060ff166028026038011c64ffffffffff1690565b90506145c982826000614ec1565b98975050505050505050565b6040805160018082528183019092526060916000919060208083019080368337019050509050828160008151811061460f5761460f61561c565b602090810291909101810191909152604080517f6d756473746f7265000000000000000000000000000000000000000000000000818401527f486f6f6b73000000000000000000000000000000000000000000000000000000603082015281518082039093018352810190526000906146969061468b90615693565b836000610c80614ee4565b9050610a356146a88260008451613f83565b614f1e565b60006146bc8460ff8516614e4f565b905081516146d58260c5811115613a4c57613a4c615606565b1461472c576146ef8160c5811115613a4c57613a4c615606565b82516040517f521b3d330000000000000000000000000000000000000000000000000000000081526004810192909252602482015260440161016b565b60006147388787614e18565b905060006147468686614e75565b9050614753828286614f2f565b5050505050505050565b600061476884614504565b6147729084615a75565b90506147818686838551614f3f565b600061478e8787846143f3565b9050613ee781600085614f2f565b60008183106147b85760008281526020849052604090206126a9565b5060009182526020526040902090565b5b602081106147e8578251825260209283019290910190601f19016147c9565b806000036147f557505050565b6000600019600883021c19905080198351168185511617835250505050565b60008061482083614504565b90508060ff168460ff16101561485f57600061483f8460ff8716614e4f565b90506148568160c5811115613a4c57613a4c615606565b92505050610a35565b600061486b8286615a75565b9050614856816145a689896143b4565b6060600061488885614504565b905061489385614504565b8660ff1610156148cf576040517f14306eb800000000000000000000000000000000000000000000000000000000815260040160405180910390fd5b60006148db8288615a75565b905060006148ea8a8a846143f3565b9050614900816148fa88886155ef565b88614ec1565b9a9950505050505050505050565b61491781614504565b8460ff161015614953576040517f14306eb800000000000000000000000000000000000000000000000000000000815260040160405180910390fd5b64ffffffffff8311156149a0576040517f7cd3b80700000000000000000000000000000000000000000000000000000000815264ffffffffff60048201526024810184905260440161016b565b606060006149b08888888661456e565b90506149c16135af82600088613f83565b846149dd6135af8488518a6149d69190615632565b8651613f83565b6040516020016149ef93929190615a98565b6040516020818303038152906040529150507fd01f9f1368f831528fc9fe6442366b2b7d957fbfff3bcf7c24d9ab5fe51f8c4687878784604051614a36949392919061590a565b60405180910390a16000614a49886145d5565b905060005b8151811015614aef576000828281518110614a6b57614a6b61561c565b60200260200101519050806001600160a01b031663bf11b74e8b8b8b888a6040518663ffffffff1660e01b8152600401614aa9959493929190615850565b600060405180830381600087803b158015614ac357600080fd5b505af1158015614ad7573d6000803e3d6000fd5b50505050508080614ae7906156b7565b915050614a4e565b50614afe888885898989614f6e565b60005b8151811015614ba2576000828281518110614b1e57614b1e61561c565b60200260200101519050806001600160a01b0316637da508a28b8b8b888a6040518663ffffffff1660e01b8152600401614b5c959493929190615850565b600060405180830381600087803b158015614b7657600080fd5b505af1158015614b8a573d6000803e3d6000fd5b50505050508080614b9a906156b7565b915050614b01565b505050505050505050565b614bb681614504565b8360ff161015614bf2576040517f14306eb800000000000000000000000000000000000000000000000000000000815260040160405180910390fd5b60606000614c028787878661456e565b9050614c1f6135af826000878551614c1a91906155ef565b613f83565b9150507fd01f9f1368f831528fc9fe6442366b2b7d957fbfff3bcf7c24d9ab5fe51f8c4686868684604051614c57949392919061590a565b60405180910390a16000614c6a876145d5565b905060005b8151811015614d10576000828281518110614c8c57614c8c61561c565b60200260200101519050806001600160a01b031663bf11b74e8a8a8a888a6040518663ffffffff1660e01b8152600401614cca959493929190615850565b600060405180830381600087803b158015614ce457600080fd5b505af1158015614cf8573d6000803e3d6000fd5b50505050508080614d08906156b7565b915050614c6f565b50614d1e8787858888614f92565b60005b8151811015614753576000828281518110614d3e57614d3e61561c565b60200260200101519050806001600160a01b0316637da508a28a8a8a888a6040518663ffffffff1660e01b8152600401614d7c959493929190615850565b600060405180830381600087803b158015614d9657600080fd5b505af1158015614daa573d6000803e3d6000fd5b50505050508080614dba906156b7565b915050614d21565b60007f86425bff6b57326c7859e89024fe4f238ca327a1ae4a230180dd2f0e88aaa7d98383604051602001614df993929190615adb565b60408051601f1981840301815291905280516020909101209392505050565b60007f86425bff6b57326c7859e89024fe4f238ca327a1ae4a230180dd2f0e88aaa7d98383604051602001614df993929190615b3b565b600081601b03600802614e5f8490565b60ff911c1660c58111156126a9576126a9615606565b600080805b8360ff168110156126a757614ea3614e928683614e4f565b60c5811115613a4c57613a4c615606565b614ead9083615632565b915080614eb9816156b7565b915050614e7a565b60405160208101601f19603f85840101166040528382526126a78585858461444c565b6040805160018082528183019092526000918291906020808301908036833701905050905060c3816000815181106125aa576125aa61561c565b606060006126a98360146060615000565b610d4483836020840184516150f8565b6000614f4b8585614dc2565b90506000614f57825490565b9050614f648185856151b8565b8083559050612bdc565b6000614f7985614504565b614f839085615a75565b9050613ee78787838686615287565b6000614f9d84614504565b614fa79084615a75565b90506000614fb58787614dc2565b90506000614fc1825490565b90506000614fde828560ff166028026038011c64ffffffffff1690565b9050614ff684614fee87846155ef565b8491906151b8565b8084559150614ba2565b6060600061500e8560801c90565b90506fffffffffffffffffffffffffffffffff851660008582816150345761503461564a565b0490506150418683615b63565b156150b45760405162461bcd60e51b815260206004820152603d60248201527f756e7061636b546f41727261793a207061636b65644c656e677468206d75737460448201527f2062652061206d756c7469706c65206f6620656c656d656e7453697a65000000606482015260840161016b565b60405193506020840160208202810160405281855260005b828110156150ec578451871c8252938701936020909101906001016150cc565b50505050509392505050565b821561517257602083106151225760208304840193506020838161511e5761511e61564a565b0692505b82156151725760208390036000600019600884021c1990506008850281811c91508451811c9050811987541682821617875550818311615163575050610be9565b50600194909401939182019190035b5b602081106151945781518455600190930192602090910190601f1901615173565b8015610be9576000600019600883021c198554845182169119161785555050505050565b600064ffffffffff8211156151fc576040517f476705880000000000000000000000000000000000000000000000000000000081526004810183905260240161016b565b8366ffffffffffffff811660ff851660280260380182901c64ffffffffff1680851061522e5780850382019150615236565b848103820391505b5064ffffffffff6038602860ff8816020190811b80197fffffffffffffffffffffffffffffffffffffffffffffffffff0000000000000094909416909217929092169184901b161790509392505050565b60006152948686866143f3565b90506152a1602084615660565b6152ab9082615632565b905060006152ba602085615b63565b9050613ee7828285614f2f565b6040518061022001604052806000815260200160008152602001600061ffff168152602001600061ffff168152602001600081526020016000815260200160008152602001600081526020016000815260200160008152602001600061ffff168152602001600061ffff1681526020016000600381111561534a5761534a615606565b8152602001600081526020016000815260200160608152602001606081525090565b6000806040838503121561537f57600080fd5b50508035926020909101359150565b80356001600160a01b0381168114613b7f57600080fd5b634e487b7160e01b600052604160045260246000fd5b6040516060810167ffffffffffffffff811182821017156153de576153de6153a5565b60405290565b604051601f8201601f1916810167ffffffffffffffff8111828210171561540d5761540d6153a5565b604052919050565b600067ffffffffffffffff82111561542f5761542f6153a5565b5060051b60200190565b803561ffff81168114613b7f57600080fd5b6000806040838503121561545e57600080fd5b6154678361538e565b915060208084013567ffffffffffffffff8082111561548557600080fd5b818601915086601f83011261549957600080fd5b81356154ac6154a782615415565b6153e4565b81815260059190911b830184019084810190898311156154cb57600080fd5b8585015b838110156155ad578035858111156154e657600080fd5b86016060818d03601f190112156154fc57600080fd5b6155046153bb565b61550f898301615439565b815261551d60408301615439565b8982015260608201358781111561553357600080fd5b8083019250508c603f83011261554857600080fd5b888201356155586154a782615415565b81815260059190911b8301604001908a8101908f83111561557857600080fd5b6040850194505b828510156155985784358252938b0193908b019061557f565b604084015250508452509186019186016154cf565b508096505050505050509250929050565b6000602082840312156155d057600080fd5b6126a98261538e565b634e487b7160e01b600052601160045260246000fd5b600082821015615601576156016155d9565b500390565b634e487b7160e01b600052602160045260246000fd5b634e487b7160e01b600052603260045260246000fd5b60008219821115615645576156456155d9565b500190565b634e487b7160e01b600052601260045260246000fd5b60008261566f5761566f61564a565b500490565b600081600019048311821515161561568e5761568e6155d9565b500290565b805160208083015191908110156135e15760001960209190910360031b1b16919050565b600060001982036156ca576156ca6155d9565b5060010190565b600081518084526020808501945080840160005b83811015615701578151875295820195908201906001016156e5565b509495945050505050565b83815260606020820152600061572560608301856156d1565b9050826040830152949350505050565b60005b83811015615750578181015183820152602001615738565b83811115610be95750506000910152565b60006020828403121561577357600080fd5b815167ffffffffffffffff8082111561578b57600080fd5b818401915084601f83011261579f57600080fd5b8151818111156157b1576157b16153a5565b6157c46020601f19601f840116016153e4565b91508082528560208285010111156157db57600080fd5b6157ec816020840160208601615735565b50949350505050565b84815260806020820152600061580e60808301866156d1565b60ff949094166040830152506060015292915050565b6000815180845261583c816020860160208601615735565b601f01601f19169290920160200192915050565b85815260a06020820152600061586960a08301876156d1565b60ff8616604084015282810360608401526158848186615824565b9150508260808301529695505050505050565b6080815260006158aa6080830187615824565b6020830195909552506040810192909252606090910152919050565b6060815260006158d96060830186615824565b60208301949094525060400152919050565b600060ff821660ff8103615901576159016155d9565b60010192915050565b84815260806020820152600061592360808301866156d1565b60ff8516604084015282810360608401526106a38185615824565b600061ffff83811690831681811015615959576159596155d9565b039392505050565b60006020828403121561597357600080fd5b5051919050565b86815260c06020820152600061599360c08301886156d1565b905060ff861660408301528460608301528360808301528260a0830152979650505050505050565b86815260c0602082015260006159d460c08301886156d1565b60ff8716604084015285606084015282810360808401526159f58186615824565b9150508260a0830152979650505050505050565b85815260a060208201526000615a2260a08301876156d1565b60ff95909516604083015250606081019290925260809091015292915050565b848152836020820152608060408201526000615a6160808301856156d1565b905060ff8316606083015295945050505050565b600060ff821660ff841680821015615a8f57615a8f6155d9565b90039392505050565b60008451615aaa818460208901615735565b845190830190615abe818360208901615735565b8451910190615ad1818360208801615735565b0195945050505050565b838152826020820152608060408201526000615afa60808301846156d1565b8281036060840152600681527f6c656e6774680000000000000000000000000000000000000000000000000000602082015260408101915050949350505050565b838152826020820152606060408201526000615b5a60608301846156d1565b95945050505050565b600082615b7257615b7261564a565b50069056fea264697066735822122033d8b381bec1050aa03477a2167dbeebc22bb33359e00d21c5ccd6735cf0adb464736f6c634300080d0033",
    "linkReferences": {}
  },
  "methodIdentifiers": {
    "battleInvitation(address,(uint16,uint16,bytes32[])[])": "68747c41",
    "confirmBattle(bytes32,uint256)": "62ca2162",
    "goHome()": "9055c111",
    "initPlayerHp(address)": "864924d6",
    "joinBattlefield()": "9ebfc58a"
  },
  "id": 142
}